Archive member included because of file (symbol)

c:/siliconlabs/simplicitystudio/v4/developer/toolchains/gnu_arm/4.9_2015q3/bin/../lib/gcc/arm-none-eabi/4.9.3/../../../../arm-none-eabi/lib/armv7e-m/softfp\libc_nano.a(lib_a-exit.o)
                              c:/siliconlabs/simplicitystudio/v4/developer/toolchains/gnu_arm/4.9_2015q3/bin/../lib/gcc/arm-none-eabi/4.9.3/../../../../arm-none-eabi/lib/armv7e-m/softfp/crt0.o (exit)
c:/siliconlabs/simplicitystudio/v4/developer/toolchains/gnu_arm/4.9_2015q3/bin/../lib/gcc/arm-none-eabi/4.9.3/../../../../arm-none-eabi/lib/armv7e-m/softfp\libc_nano.a(lib_a-impure.o)
                              c:/siliconlabs/simplicitystudio/v4/developer/toolchains/gnu_arm/4.9_2015q3/bin/../lib/gcc/arm-none-eabi/4.9.3/../../../../arm-none-eabi/lib/armv7e-m/softfp\libc_nano.a(lib_a-exit.o) (_global_impure_ptr)
c:/siliconlabs/simplicitystudio/v4/developer/toolchains/gnu_arm/4.9_2015q3/bin/../lib/gcc/arm-none-eabi/4.9.3/../../../../arm-none-eabi/lib/armv7e-m/softfp\libc_nano.a(lib_a-init.o)
                              c:/siliconlabs/simplicitystudio/v4/developer/toolchains/gnu_arm/4.9_2015q3/bin/../lib/gcc/arm-none-eabi/4.9.3/../../../../arm-none-eabi/lib/armv7e-m/softfp/crt0.o (__libc_init_array)
c:/siliconlabs/simplicitystudio/v4/developer/toolchains/gnu_arm/4.9_2015q3/bin/../lib/gcc/arm-none-eabi/4.9.3/../../../../arm-none-eabi/lib/armv7e-m/softfp\libc_nano.a(lib_a-memset.o)
                              c:/siliconlabs/simplicitystudio/v4/developer/toolchains/gnu_arm/4.9_2015q3/bin/../lib/gcc/arm-none-eabi/4.9.3/../../../../arm-none-eabi/lib/armv7e-m/softfp/crt0.o (memset)
c:/siliconlabs/simplicitystudio/v4/developer/toolchains/gnu_arm/4.9_2015q3/bin/../lib/gcc/arm-none-eabi/4.9.3/../../../../arm-none-eabi/lib/armv7e-m/softfp\libnosys.a(_exit.o)
                              c:/siliconlabs/simplicitystudio/v4/developer/toolchains/gnu_arm/4.9_2015q3/bin/../lib/gcc/arm-none-eabi/4.9.3/../../../../arm-none-eabi/lib/armv7e-m/softfp\libc_nano.a(lib_a-exit.o) (_exit)

Discarded input sections

 .text          0x00000000        0x0 c:/siliconlabs/simplicitystudio/v4/developer/toolchains/gnu_arm/4.9_2015q3/bin/../lib/gcc/arm-none-eabi/4.9.3/armv7e-m/softfp/crti.o
 .data          0x00000000        0x0 c:/siliconlabs/simplicitystudio/v4/developer/toolchains/gnu_arm/4.9_2015q3/bin/../lib/gcc/arm-none-eabi/4.9.3/armv7e-m/softfp/crti.o
 .bss           0x00000000        0x0 c:/siliconlabs/simplicitystudio/v4/developer/toolchains/gnu_arm/4.9_2015q3/bin/../lib/gcc/arm-none-eabi/4.9.3/armv7e-m/softfp/crti.o
 .data          0x00000000        0x4 c:/siliconlabs/simplicitystudio/v4/developer/toolchains/gnu_arm/4.9_2015q3/bin/../lib/gcc/arm-none-eabi/4.9.3/armv7e-m/softfp/crtbegin.o
 .data          0x00000000        0x0 c:/siliconlabs/simplicitystudio/v4/developer/toolchains/gnu_arm/4.9_2015q3/bin/../lib/gcc/arm-none-eabi/4.9.3/../../../../arm-none-eabi/lib/armv7e-m/softfp/crt0.o
 .bss           0x00000000        0x0 c:/siliconlabs/simplicitystudio/v4/developer/toolchains/gnu_arm/4.9_2015q3/bin/../lib/gcc/arm-none-eabi/4.9.3/../../../../arm-none-eabi/lib/armv7e-m/softfp/crt0.o
 .ARM.extab     0x00000000        0x0 c:/siliconlabs/simplicitystudio/v4/developer/toolchains/gnu_arm/4.9_2015q3/bin/../lib/gcc/arm-none-eabi/4.9.3/../../../../arm-none-eabi/lib/armv7e-m/softfp/crt0.o
 .data          0x00000000        0x0 ./CMSIS/EFR32MG1P/startup_efr32mg1p.o
 .bss           0x00000000        0x0 ./CMSIS/EFR32MG1P/startup_efr32mg1p.o
 .text          0x00000000        0x0 ./CMSIS/EFR32MG1P/system_efr32mg1p.o
 .data          0x00000000        0x0 ./CMSIS/EFR32MG1P/system_efr32mg1p.o
 .bss           0x00000000        0x0 ./CMSIS/EFR32MG1P/system_efr32mg1p.o
 .text.SystemHFXOClockGet
                0x00000000       0x18 ./CMSIS/EFR32MG1P/system_efr32mg1p.o
 .text.SystemHFXOClockSet
                0x00000000       0x30 ./CMSIS/EFR32MG1P/system_efr32mg1p.o
 .text.SystemLFXOClockSet
                0x00000000       0x30 ./CMSIS/EFR32MG1P/system_efr32mg1p.o
Memory Configuration

Name             Origin             Length             Attributes
FLASH            0x00000000         0x00040000         xr
RAM              0x20000000         0x00008000         xrw
*default*        0x00000000         0xffffffff

Linker script and memory map

LOAD c:/siliconlabs/simplicitystudio/v4/developer/toolchains/gnu_arm/4.9_2015q3/bin/../lib/gcc/arm-none-eabi/4.9.3/armv7e-m/softfp/crti.o
LOAD c:/siliconlabs/simplicitystudio/v4/developer/toolchains/gnu_arm/4.9_2015q3/bin/../lib/gcc/arm-none-eabi/4.9.3/armv7e-m/softfp/crtbegin.o
LOAD c:/siliconlabs/simplicitystudio/v4/developer/toolchains/gnu_arm/4.9_2015q3/bin/../lib/gcc/arm-none-eabi/4.9.3/../../../../arm-none-eabi/lib/armv7e-m/softfp/crt0.o
LOAD ./CMSIS/EFR32MG1P/startup_efr32mg1p.o
LOAD ./CMSIS/EFR32MG1P/system_efr32mg1p.o
LOAD ./emlib/em_cmu.o
LOAD ./emlib/em_gpio.o
LOAD ./emlib/em_system.o
LOAD ./emlib/em_timer.o
LOAD ./src/main.o
START GROUP
LOAD c:/siliconlabs/simplicitystudio/v4/developer/toolchains/gnu_arm/4.9_2015q3/bin/../lib/gcc/arm-none-eabi/4.9.3/armv7e-m/softfp\libgcc.a
LOAD c:/siliconlabs/simplicitystudio/v4/developer/toolchains/gnu_arm/4.9_2015q3/bin/../lib/gcc/arm-none-eabi/4.9.3/../../../../arm-none-eabi/lib/armv7e-m/softfp\libc_nano.a
LOAD c:/siliconlabs/simplicitystudio/v4/developer/toolchains/gnu_arm/4.9_2015q3/bin/../lib/gcc/arm-none-eabi/4.9.3/../../../../arm-none-eabi/lib/armv7e-m/softfp\libnosys.a
END GROUP
START GROUP
LOAD c:/siliconlabs/simplicitystudio/v4/developer/toolchains/gnu_arm/4.9_2015q3/bin/../lib/gcc/arm-none-eabi/4.9.3/armv7e-m/softfp\libgcc.a
LOAD c:/siliconlabs/simplicitystudio/v4/developer/toolchains/gnu_arm/4.9_2015q3/bin/../lib/gcc/arm-none-eabi/4.9.3/../../../../arm-none-eabi/lib/armv7e-m/softfp\libg_nano.a
LOAD c:/siliconlabs/simplicitystudio/v4/developer/toolchains/gnu_arm/4.9_2015q3/bin/../lib/gcc/arm-none-eabi/4.9.3/../../../../arm-none-eabi/lib/armv7e-m/softfp\libc_nano.a
END GROUP
START GROUP
LOAD c:/siliconlabs/simplicitystudio/v4/developer/toolchains/gnu_arm/4.9_2015q3/bin/../lib/gcc/arm-none-eabi/4.9.3/armv7e-m/softfp\libgcc.a
LOAD c:/siliconlabs/simplicitystudio/v4/developer/toolchains/gnu_arm/4.9_2015q3/bin/../lib/gcc/arm-none-eabi/4.9.3/../../../../arm-none-eabi/lib/armv7e-m/softfp\libc_nano.a
END GROUP
LOAD c:/siliconlabs/simplicitystudio/v4/developer/toolchains/gnu_arm/4.9_2015q3/bin/../lib/gcc/arm-none-eabi/4.9.3/armv7e-m/softfp/crtend.o
LOAD c:/siliconlabs/simplicitystudio/v4/developer/toolchains/gnu_arm/4.9_2015q3/bin/../lib/gcc/arm-none-eabi/4.9.3/armv7e-m/softfp/crtn.o

.text           0x00000000     0x1c70
 *(.vectors)
 .vectors       0x00000000       0xc8 ./CMSIS/EFR32MG1P/startup_efr32mg1p.o
                0x00000000                __Vectors
                0x000000c8                __Vectors_End = .
                0x000000c8                __Vectors_Size = (__Vectors_End - __Vectors)
                0x000000c8                __end__ = .
 *(.text*)
 .text          0x000000c8       0x5c c:/siliconlabs/simplicitystudio/v4/developer/toolchains/gnu_arm/4.9_2015q3/bin/../lib/gcc/arm-none-eabi/4.9.3/armv7e-m/softfp/crtbegin.o
 .text          0x00000124       0x74 c:/siliconlabs/simplicitystudio/v4/developer/toolchains/gnu_arm/4.9_2015q3/bin/../lib/gcc/arm-none-eabi/4.9.3/../../../../arm-none-eabi/lib/armv7e-m/softfp/crt0.o
                0x00000124                _start
                0x00000124                _mainCRTStartup
 .text          0x00000198       0x30 ./CMSIS/EFR32MG1P/startup_efr32mg1p.o
                0x00000198                Reset_Handler
                0x000001c4                USART0_TX_IRQHandler
                0x000001c4                I2C0_IRQHandler
                0x000001c4                HardFault_Handler
                0x000001c4                SysTick_Handler
                0x000001c4                USART1_RX_IRQHandler
                0x000001c4                PendSV_Handler
                0x000001c4                NMI_Handler
                0x000001c4                SYNTH_IRQHandler
                0x000001c4                WDOG0_IRQHandler
                0x000001c4                USART1_TX_IRQHandler
                0x000001c4                MSC_IRQHandler
                0x000001c4                ADC0_IRQHandler
                0x000001c4                UsageFault_Handler
                0x000001c4                LEUART0_IRQHandler
                0x000001c4                FPUEH_IRQHandler
                0x000001c4                GPIO_EVEN_IRQHandler
                0x000001c4                LDMA_IRQHandler
                0x000001c4                TIMER0_IRQHandler
                0x000001c4                DebugMon_Handler
                0x000001c4                LETIMER0_IRQHandler
                0x000001c4                RFSENSE_IRQHandler
                0x000001c4                BUFC_IRQHandler
                0x000001c4                MODEM_IRQHandler
                0x000001c4                Default_Handler
                0x000001c4                RAC_SEQ_IRQHandler
                0x000001c4                FRC_PRI_IRQHandler
                0x000001c4                EMU_IRQHandler
                0x000001c4                FRC_IRQHandler
                0x000001c4                CRYOTIMER_IRQHandler
                0x000001c4                PCNT0_IRQHandler
                0x000001c4                AGC_IRQHandler
                0x000001c4                ACMP0_IRQHandler
                0x000001c4                USART0_RX_IRQHandler
                0x000001c4                MemManage_Handler
                0x000001c4                SVC_Handler
                0x000001c4                RTCC_IRQHandler
                0x000001c4                CRYPTO_IRQHandler
                0x000001c4                CMU_IRQHandler
                0x000001c4                RAC_RSM_IRQHandler
                0x000001c4                GPIO_ODD_IRQHandler
                0x000001c4                PROTIMER_IRQHandler
                0x000001c4                BusFault_Handler
                0x000001c4                IDAC0_IRQHandler
 .text.SystemCoreClockGet
                0x000001c8       0x44 ./CMSIS/EFR32MG1P/system_efr32mg1p.o
                0x000001c8                SystemCoreClockGet
 .text.SystemMaxCoreClockGet
                0x0000020c       0x14 ./CMSIS/EFR32MG1P/system_efr32mg1p.o
                0x0000020c                SystemMaxCoreClockGet
 .text.SystemHFClockGet
                0x00000220       0x70 ./CMSIS/EFR32MG1P/system_efr32mg1p.o
                0x00000220                SystemHFClockGet
 .text.SystemInit
                0x00000290       0x5c ./CMSIS/EFR32MG1P/system_efr32mg1p.o
                0x00000290                SystemInit
 .text.SystemLFRCOClockGet
                0x000002ec       0x14 ./CMSIS/EFR32MG1P/system_efr32mg1p.o
                0x000002ec                SystemLFRCOClockGet
 .text.SystemULFRCOClockGet
                0x00000300       0x14 ./CMSIS/EFR32MG1P/system_efr32mg1p.o
                0x00000300                SystemULFRCOClockGet
 .text.SystemLFXOClockGet
                0x00000314       0x18 ./CMSIS/EFR32MG1P/system_efr32mg1p.o
                0x00000314                SystemLFXOClockGet
 .text.BUS_RegBitWrite
                0x0000032c       0x2c ./emlib/em_cmu.o
 .text.BUS_RegBitRead
                0x00000358       0x2c ./emlib/em_cmu.o
 .text.BUS_RegMaskedSet
                0x00000384       0x24 ./emlib/em_cmu.o
 .text.BUS_RegMaskedClear
                0x000003a8       0x24 ./emlib/em_cmu.o
 .text.BUS_RegMaskedWrite
                0x000003cc       0x24 ./emlib/em_cmu.o
 .text.BUS_RegMaskedRead
                0x000003f0       0x20 ./emlib/em_cmu.o
 .text.CMU_Log2ToDiv
                0x00000410       0x1c ./emlib/em_cmu.o
 .text.CMU_PrescToLog2
                0x0000042c       0x28 ./emlib/em_cmu.o
 .text.setHfLeConfig
                0x00000454       0x3c ./emlib/em_cmu.o
 .text.getHfLeConfig
                0x00000490       0x2c ./emlib/em_cmu.o
 .text.auxClkGet
                0x000004bc       0x20 ./emlib/em_cmu.o
 .text.dbgClkGet
                0x000004dc       0x40 ./emlib/em_cmu.o
 .text.flashWaitStateControl
                0x0000051c       0x78 ./emlib/em_cmu.o
 .text.flashWaitStateMax
                0x00000594       0x14 ./emlib/em_cmu.o
 .text.getRegIshUpperVal
                0x000005a8       0x38 ./emlib/em_cmu.o
 .text.lfClkGet
                0x000005e0       0xec ./emlib/em_cmu.o
 .text.syncReg  0x000006cc       0x38 ./emlib/em_cmu.o
 .text.CMU_ClockDivSet
                0x00000704       0x1c ./emlib/em_cmu.o
                0x00000704                CMU_ClockDivSet
 .text.CMU_ClockEnable
                0x00000720       0xcc ./emlib/em_cmu.o
                0x00000720                CMU_ClockEnable
 .text.CMU_ClockFreqGet
                0x000007ec      0x188 ./emlib/em_cmu.o
                0x000007ec                CMU_ClockFreqGet
 .text.CMU_ClockPrescSet
                0x00000974      0x1e8 ./emlib/em_cmu.o
                0x00000974                CMU_ClockPrescSet
 .text.CMU_ClockSelectGet
                0x00000b5c      0x14c ./emlib/em_cmu.o
                0x00000b5c                CMU_ClockSelectGet
 .text.CMU_ClockSelectSet
                0x00000ca8      0x1cc ./emlib/em_cmu.o
                0x00000ca8                CMU_ClockSelectSet
 .text.CMU_OscillatorEnable
                0x00000e74      0x180 ./emlib/em_cmu.o
                0x00000e74                CMU_OscillatorEnable
 .text.CMU_OscillatorTuningGet
                0x00000ff4       0x74 ./emlib/em_cmu.o
                0x00000ff4                CMU_OscillatorTuningGet
 .text.CMU_OscillatorTuningSet
                0x00001068      0x100 ./emlib/em_cmu.o
                0x00001068                CMU_OscillatorTuningSet
 .text.CMU_OscillatorTuningWait
                0x00001168       0x94 ./emlib/em_cmu.o
                0x00001168                CMU_OscillatorTuningWait
 .text.CMU_OscillatorTuningOptimize
                0x000011fc       0x54 ./emlib/em_cmu.o
                0x000011fc                CMU_OscillatorTuningOptimize
 .text.BUS_RegMaskedSet
                0x00001250       0x24 ./emlib/em_gpio.o
 .text.BUS_RegMaskedClear
                0x00001274       0x24 ./emlib/em_gpio.o
 .text.BUS_RegMaskedWrite
                0x00001298       0x24 ./emlib/em_gpio.o
 .text.GPIO_PinOutClear
                0x000012bc       0x58 ./emlib/em_gpio.o
 .text.GPIO_PinOutSet
                0x00001314       0x58 ./emlib/em_gpio.o
 .text.GPIO_DriveStrengthSet
                0x0000136c       0x60 ./emlib/em_gpio.o
                0x0000136c                GPIO_DriveStrengthSet
 .text.GPIO_PinModeSet
                0x000013cc      0x10c ./emlib/em_gpio.o
                0x000013cc                GPIO_PinModeSet
 .text.SYSTEM_ChipRevisionGet
                0x000014d8       0x74 ./emlib/em_system.o
                0x000014d8                SYSTEM_ChipRevisionGet
 .text.TIMER_Valid
                0x0000154c       0x38 ./emlib/em_timer.o
 .text.TIMER_Init
                0x00001584       0xdc ./emlib/em_timer.o
                0x00001584                TIMER_Init
 .text.NVIC_EnableIRQ
                0x00001660       0x30 ./src/main.o
 .text.SYSTEM_GetProdRev
                0x00001690       0x1c ./src/main.o
 .text.BUS_RegBitWrite
                0x000016ac       0x2c ./src/main.o
 .text.BUS_RegBitRead
                0x000016d8       0x2c ./src/main.o
 .text.BUS_RegMaskedSet
                0x00001704       0x24 ./src/main.o
 .text.BUS_RegMaskedClear
                0x00001728       0x24 ./src/main.o
 .text.GPIO_PinOutClear
                0x0000174c       0x58 ./src/main.o
 .text.GPIO_PinOutGet
                0x000017a4       0x54 ./src/main.o
 .text.GPIO_PinOutSet
                0x000017f8       0x58 ./src/main.o
 .text.CHIP_Init
                0x00001850       0xb4 ./src/main.o
 .text.TIMER_MaxCount
                0x00001904       0x18 ./src/main.o
 .text.TIMER_IntClear
                0x0000191c       0x1c ./src/main.o
 .text.TIMER_IntEnable
                0x00001938       0x20 ./src/main.o
 .text.TIMER_TopSet
                0x00001958       0x1c ./src/main.o
 .text.TLC5940_Init
                0x00001974       0x88 ./src/main.o
                0x00001974                TLC5940_Init
 .text.TLC5940_Timer1_Init
                0x000019fc       0x6c ./src/main.o
                0x000019fc                TLC5940_Timer1_Init
 .text.main     0x00001a68       0x90 ./src/main.o
                0x00001a68                main
 .text.TIMER1_IRQHandler
                0x00001af8       0xcc ./src/main.o
                0x00001af8                TIMER1_IRQHandler
 .text.exit     0x00001bc4       0x28 c:/siliconlabs/simplicitystudio/v4/developer/toolchains/gnu_arm/4.9_2015q3/bin/../lib/gcc/arm-none-eabi/4.9.3/../../../../arm-none-eabi/lib/armv7e-m/softfp\libc_nano.a(lib_a-exit.o)
                0x00001bc4                exit
 .text.__libc_init_array
                0x00001bec       0x4c c:/siliconlabs/simplicitystudio/v4/developer/toolchains/gnu_arm/4.9_2015q3/bin/../lib/gcc/arm-none-eabi/4.9.3/../../../../arm-none-eabi/lib/armv7e-m/softfp\libc_nano.a(lib_a-init.o)
                0x00001bec                __libc_init_array
 .text.memset   0x00001c38       0x10 c:/siliconlabs/simplicitystudio/v4/developer/toolchains/gnu_arm/4.9_2015q3/bin/../lib/gcc/arm-none-eabi/4.9.3/../../../../arm-none-eabi/lib/armv7e-m/softfp\libc_nano.a(lib_a-memset.o)
                0x00001c38                memset
 .text._exit    0x00001c48        0x4 c:/siliconlabs/simplicitystudio/v4/developer/toolchains/gnu_arm/4.9_2015q3/bin/../lib/gcc/arm-none-eabi/4.9.3/../../../../arm-none-eabi/lib/armv7e-m/softfp\libnosys.a(_exit.o)
                0x00001c48                _exit
 *(.init)
 .init          0x00001c4c        0x4 c:/siliconlabs/simplicitystudio/v4/developer/toolchains/gnu_arm/4.9_2015q3/bin/../lib/gcc/arm-none-eabi/4.9.3/armv7e-m/softfp/crti.o
                0x00001c4c                _init
 .init          0x00001c50        0x8 c:/siliconlabs/simplicitystudio/v4/developer/toolchains/gnu_arm/4.9_2015q3/bin/../lib/gcc/arm-none-eabi/4.9.3/armv7e-m/softfp/crtn.o
 *(.fini)
 .fini          0x00001c58        0x4 c:/siliconlabs/simplicitystudio/v4/developer/toolchains/gnu_arm/4.9_2015q3/bin/../lib/gcc/arm-none-eabi/4.9.3/armv7e-m/softfp/crti.o
                0x00001c58                _fini
 .fini          0x00001c5c        0x8 c:/siliconlabs/simplicitystudio/v4/developer/toolchains/gnu_arm/4.9_2015q3/bin/../lib/gcc/arm-none-eabi/4.9.3/armv7e-m/softfp/crtn.o
 *crtbegin.o(.ctors)
 *crtbegin?.o(.ctors)
 *(EXCLUDE_FILE(*crtend.o *crtend?.o) .ctors)
 *(SORT(.ctors.*))
 *(.ctors)
 *crtbegin.o(.dtors)
 *crtbegin?.o(.dtors)
 *(EXCLUDE_FILE(*crtend.o *crtend?.o) .dtors)
 *(SORT(.dtors.*))
 *(.dtors)
 *(.rodata*)
 .rodata.str1.1
                0x00001c64        0x2 c:/siliconlabs/simplicitystudio/v4/developer/toolchains/gnu_arm/4.9_2015q3/bin/../lib/gcc/arm-none-eabi/4.9.3/../../../../arm-none-eabi/lib/armv7e-m/softfp\libc_nano.a(lib_a-impure.o)
 *fill*         0x00001c66        0x2 
 .rodata._global_impure_ptr
                0x00001c68        0x4 c:/siliconlabs/simplicitystudio/v4/developer/toolchains/gnu_arm/4.9_2015q3/bin/../lib/gcc/arm-none-eabi/4.9.3/../../../../arm-none-eabi/lib/armv7e-m/softfp\libc_nano.a(lib_a-impure.o)
                0x00001c68                _global_impure_ptr
 *(.eh_frame*)
 .eh_frame      0x00001c6c        0x0 c:/siliconlabs/simplicitystudio/v4/developer/toolchains/gnu_arm/4.9_2015q3/bin/../lib/gcc/arm-none-eabi/4.9.3/armv7e-m/softfp/crtbegin.o
 .eh_frame      0x00001c6c        0x4 c:/siliconlabs/simplicitystudio/v4/developer/toolchains/gnu_arm/4.9_2015q3/bin/../lib/gcc/arm-none-eabi/4.9.3/armv7e-m/softfp/crtend.o

.glue_7         0x00001c70        0x0
 .glue_7        0x00000000        0x0 linker stubs

.glue_7t        0x00001c70        0x0
 .glue_7t       0x00000000        0x0 linker stubs

.vfp11_veneer   0x00001c70        0x0
 .vfp11_veneer  0x00000000        0x0 linker stubs

.v4_bx          0x00001c70        0x0
 .v4_bx         0x00000000        0x0 linker stubs

.iplt           0x00001c70        0x0
 .iplt          0x00000000        0x0 c:/siliconlabs/simplicitystudio/v4/developer/toolchains/gnu_arm/4.9_2015q3/bin/../lib/gcc/arm-none-eabi/4.9.3/armv7e-m/softfp/crtbegin.o

.ARM.extab
 *(.ARM.extab* .gnu.linkonce.armextab.*)
                0x00001c70                __exidx_start = .

.ARM.exidx      0x00001c70        0x8
 *(.ARM.exidx* .gnu.linkonce.armexidx.*)
 .ARM.exidx     0x00001c70        0x8 c:/siliconlabs/simplicitystudio/v4/developer/toolchains/gnu_arm/4.9_2015q3/bin/../lib/gcc/arm-none-eabi/4.9.3/../../../../arm-none-eabi/lib/armv7e-m/softfp/crt0.o
                0x00001c78                __exidx_end = .
                0x00001c78                __etext = .

.rel.dyn        0x00001c78        0x0
 .rel.iplt      0x00000000        0x0 c:/siliconlabs/simplicitystudio/v4/developer/toolchains/gnu_arm/4.9_2015q3/bin/../lib/gcc/arm-none-eabi/4.9.3/armv7e-m/softfp/crtbegin.o

.data           0x20000000      0x140 load address 0x00001c78
                0x20000000                __data_start__ = .
 *(vtable)
 *(.data*)
 .data.SystemHFXOClock
                0x20000000        0x4 ./CMSIS/EFR32MG1P/system_efr32mg1p.o
 .data.SystemLFXOClock
                0x20000004        0x4 ./CMSIS/EFR32MG1P/system_efr32mg1p.o
 .data.SystemCoreClock
                0x20000008        0x4 ./CMSIS/EFR32MG1P/system_efr32mg1p.o
                0x20000008                SystemCoreClock
 .data.SystemHfrcoFreq
                0x2000000c        0x4 ./CMSIS/EFR32MG1P/system_efr32mg1p.o
                0x2000000c                SystemHfrcoFreq
 .data.auxHfrcoFreq
                0x20000010        0x4 ./emlib/em_cmu.o
 .data.gsData   0x20000014       0xc0 ./src/main.o
                0x20000014                gsData
 .data.impure_data
                0x200000d4       0x60 c:/siliconlabs/simplicitystudio/v4/developer/toolchains/gnu_arm/4.9_2015q3/bin/../lib/gcc/arm-none-eabi/4.9.3/../../../../arm-none-eabi/lib/armv7e-m/softfp\libc_nano.a(lib_a-impure.o)
                0x20000134                . = ALIGN (0x4)
 *(.ram)
                0x20000134                . = ALIGN (0x4)
                0x20000134                PROVIDE (__preinit_array_start, .)
 *(.preinit_array)
                0x20000134                PROVIDE (__preinit_array_end, .)
                0x20000134                . = ALIGN (0x4)
                0x20000134                PROVIDE (__init_array_start, .)
 *(SORT(.init_array.*))
 *(.init_array)
 .init_array    0x20000134        0x4 c:/siliconlabs/simplicitystudio/v4/developer/toolchains/gnu_arm/4.9_2015q3/bin/../lib/gcc/arm-none-eabi/4.9.3/armv7e-m/softfp/crtbegin.o
                0x20000138                PROVIDE (__init_array_end, .)
                0x20000138                . = ALIGN (0x4)
                0x20000138                PROVIDE (__fini_array_start, .)
 *(SORT(.fini_array.*))
 *(.fini_array)
 .fini_array    0x20000138        0x4 c:/siliconlabs/simplicitystudio/v4/developer/toolchains/gnu_arm/4.9_2015q3/bin/../lib/gcc/arm-none-eabi/4.9.3/armv7e-m/softfp/crtbegin.o
                0x2000013c                PROVIDE (__fini_array_end, .)
 *(.jcr*)
 .jcr           0x2000013c        0x0 c:/siliconlabs/simplicitystudio/v4/developer/toolchains/gnu_arm/4.9_2015q3/bin/../lib/gcc/arm-none-eabi/4.9.3/armv7e-m/softfp/crtbegin.o
 .jcr           0x2000013c        0x4 c:/siliconlabs/simplicitystudio/v4/developer/toolchains/gnu_arm/4.9_2015q3/bin/../lib/gcc/arm-none-eabi/4.9.3/armv7e-m/softfp/crtend.o
                0x20000140                . = ALIGN (0x4)
                0x20000140                __data_end__ = .

.igot.plt       0x20000140        0x0 load address 0x00001db8
 .igot.plt      0x00000000        0x0 c:/siliconlabs/simplicitystudio/v4/developer/toolchains/gnu_arm/4.9_2015q3/bin/../lib/gcc/arm-none-eabi/4.9.3/armv7e-m/softfp/crtbegin.o

.bss            0x20000140       0x20 load address 0x00001db8
                0x20000140                . = ALIGN (0x4)
                0x20000140                __bss_start__ = .
 *(.bss*)
 .bss           0x20000140       0x1c c:/siliconlabs/simplicitystudio/v4/developer/toolchains/gnu_arm/4.9_2015q3/bin/../lib/gcc/arm-none-eabi/4.9.3/armv7e-m/softfp/crtbegin.o
 .bss.xlatNeedsPulse.6064
                0x2000015c        0x1 ./src/main.o
 *(COMMON)
                0x20000160                . = ALIGN (0x4)
 *fill*         0x2000015d        0x3 
                0x20000160                __bss_end__ = .

.heap           0x20000160      0xc00
                0x20000160                __HeapBase = .
                0x20000160                __end__ = .
                0x20000160                end = __end__
                0x20000160                _end = __end__
 *(.heap*)
 .heap          0x20000160      0xc00 ./CMSIS/EFR32MG1P/startup_efr32mg1p.o
                0x20000d60                __HeapLimit = .

.stack_dummy    0x20000160      0x400
 *(.stack*)
 .stack         0x20000160      0x400 ./CMSIS/EFR32MG1P/startup_efr32mg1p.o
                0x20008000                __StackTop = (ORIGIN (RAM) + 0x8000)
                0x20007c00                __StackLimit = (__StackTop - SIZEOF (.stack_dummy))
                0x20008000                PROVIDE (__stack, __StackTop)
                0x00000001                ASSERT ((__StackLimit >= __HeapLimit), region RAM overflowed with stack)
                0x00000001                ASSERT ((0x40000 >= (__etext + SIZEOF (.data))), FLASH memory overflowed !)
OUTPUT(11_LEDDriver_BareBones_proj.axf elf32-littlearm)

.ARM.attributes
                0x00000000       0x2e
 .ARM.attributes
                0x00000000       0x22 c:/siliconlabs/simplicitystudio/v4/developer/toolchains/gnu_arm/4.9_2015q3/bin/../lib/gcc/arm-none-eabi/4.9.3/armv7e-m/softfp/crti.o
 .ARM.attributes
                0x00000022       0x32 c:/siliconlabs/simplicitystudio/v4/developer/toolchains/gnu_arm/4.9_2015q3/bin/../lib/gcc/arm-none-eabi/4.9.3/armv7e-m/softfp/crtbegin.o
 .ARM.attributes
                0x00000054       0x20 c:/siliconlabs/simplicitystudio/v4/developer/toolchains/gnu_arm/4.9_2015q3/bin/../lib/gcc/arm-none-eabi/4.9.3/../../../../arm-none-eabi/lib/armv7e-m/softfp/crt0.o
 .ARM.attributes
                0x00000074       0x1f ./CMSIS/EFR32MG1P/startup_efr32mg1p.o
 .ARM.attributes
                0x00000093       0x37 ./CMSIS/EFR32MG1P/system_efr32mg1p.o
 .ARM.attributes
                0x000000ca       0x37 ./emlib/em_cmu.o
 .ARM.attributes
                0x00000101       0x37 ./emlib/em_gpio.o
 .ARM.attributes
                0x00000138       0x37 ./emlib/em_system.o
 .ARM.attributes
                0x0000016f       0x37 ./emlib/em_timer.o
 .ARM.attributes
                0x000001a6       0x37 ./src/main.o
 .ARM.attributes
                0x000001dd       0x32 c:/siliconlabs/simplicitystudio/v4/developer/toolchains/gnu_arm/4.9_2015q3/bin/../lib/gcc/arm-none-eabi/4.9.3/../../../../arm-none-eabi/lib/armv7e-m/softfp\libc_nano.a(lib_a-exit.o)
 .ARM.attributes
                0x0000020f       0x32 c:/siliconlabs/simplicitystudio/v4/developer/toolchains/gnu_arm/4.9_2015q3/bin/../lib/gcc/arm-none-eabi/4.9.3/../../../../arm-none-eabi/lib/armv7e-m/softfp\libc_nano.a(lib_a-impure.o)
 .ARM.attributes
                0x00000241       0x32 c:/siliconlabs/simplicitystudio/v4/developer/toolchains/gnu_arm/4.9_2015q3/bin/../lib/gcc/arm-none-eabi/4.9.3/../../../../arm-none-eabi/lib/armv7e-m/softfp\libc_nano.a(lib_a-init.o)
 .ARM.attributes
                0x00000273       0x32 c:/siliconlabs/simplicitystudio/v4/developer/toolchains/gnu_arm/4.9_2015q3/bin/../lib/gcc/arm-none-eabi/4.9.3/../../../../arm-none-eabi/lib/armv7e-m/softfp\libc_nano.a(lib_a-memset.o)
 .ARM.attributes
                0x000002a5       0x32 c:/siliconlabs/simplicitystudio/v4/developer/toolchains/gnu_arm/4.9_2015q3/bin/../lib/gcc/arm-none-eabi/4.9.3/../../../../arm-none-eabi/lib/armv7e-m/softfp\libnosys.a(_exit.o)
 .ARM.attributes
                0x000002d7       0x32 c:/siliconlabs/simplicitystudio/v4/developer/toolchains/gnu_arm/4.9_2015q3/bin/../lib/gcc/arm-none-eabi/4.9.3/armv7e-m/softfp/crtend.o
 .ARM.attributes
                0x00000309       0x22 c:/siliconlabs/simplicitystudio/v4/developer/toolchains/gnu_arm/4.9_2015q3/bin/../lib/gcc/arm-none-eabi/4.9.3/armv7e-m/softfp/crtn.o

.comment        0x00000000       0x70
 .comment       0x00000000       0x70 ./CMSIS/EFR32MG1P/system_efr32mg1p.o
                                 0x71 (size before relaxing)
 .comment       0x00000000       0x71 ./emlib/em_cmu.o
 .comment       0x00000000       0x71 ./emlib/em_gpio.o
 .comment       0x00000000       0x71 ./emlib/em_system.o
 .comment       0x00000000       0x71 ./emlib/em_timer.o
 .comment       0x00000000       0x71 ./src/main.o

.debug_line     0x00000000     0x218a
 .debug_line    0x00000000       0xd7 ./CMSIS/EFR32MG1P/startup_efr32mg1p.o
 .debug_line    0x000000d7      0x36c ./CMSIS/EFR32MG1P/system_efr32mg1p.o
 .debug_line    0x00000443      0xa88 ./emlib/em_cmu.o
 .debug_line    0x00000ecb      0x4d3 ./emlib/em_gpio.o
 .debug_line    0x0000139e      0x2c3 ./emlib/em_system.o
 .debug_line    0x00001661      0x56c ./emlib/em_timer.o
 .debug_line    0x00001bcd      0x5bd ./src/main.o

.debug_info     0x00000000     0x56bf
 .debug_info    0x00000000      0x118 ./CMSIS/EFR32MG1P/startup_efr32mg1p.o
 .debug_info    0x00000118      0xae7 ./CMSIS/EFR32MG1P/system_efr32mg1p.o
 .debug_info    0x00000bff     0x1af6 ./emlib/em_cmu.o
 .debug_info    0x000026f5      0xa05 ./emlib/em_gpio.o
 .debug_info    0x000030fa      0x276 ./emlib/em_system.o
 .debug_info    0x00003370      0x94f ./emlib/em_timer.o
 .debug_info    0x00003cbf     0x1a00 ./src/main.o

.debug_abbrev   0x00000000      0xbdb
 .debug_abbrev  0x00000000       0x14 ./CMSIS/EFR32MG1P/startup_efr32mg1p.o
 .debug_abbrev  0x00000014      0x1d0 ./CMSIS/EFR32MG1P/system_efr32mg1p.o
 .debug_abbrev  0x000001e4      0x307 ./emlib/em_cmu.o
 .debug_abbrev  0x000004eb      0x1da ./emlib/em_gpio.o
 .debug_abbrev  0x000006c5      0x109 ./emlib/em_system.o
 .debug_abbrev  0x000007ce      0x174 ./emlib/em_timer.o
 .debug_abbrev  0x00000942      0x299 ./src/main.o

.debug_aranges  0x00000000      0x3d0
 .debug_aranges
                0x00000000       0x20 ./CMSIS/EFR32MG1P/startup_efr32mg1p.o
 .debug_aranges
                0x00000020       0x68 ./CMSIS/EFR32MG1P/system_efr32mg1p.o
 .debug_aranges
                0x00000088      0x190 ./emlib/em_cmu.o
 .debug_aranges
                0x00000218       0x88 ./emlib/em_gpio.o
 .debug_aranges
                0x000002a0       0x28 ./emlib/em_system.o
 .debug_aranges
                0x000002c8       0x58 ./emlib/em_timer.o
 .debug_aranges
                0x00000320       0xb0 ./src/main.o

.debug_loc      0x00000000     0x2018
 .debug_loc     0x00000000      0x2e4 ./CMSIS/EFR32MG1P/system_efr32mg1p.o
 .debug_loc     0x000002e4      0xf1c ./emlib/em_cmu.o
 .debug_loc     0x00001200      0x4b4 ./emlib/em_gpio.o
 .debug_loc     0x000016b4       0xb8 ./emlib/em_system.o
 .debug_loc     0x0000176c      0x2b0 ./emlib/em_timer.o
 .debug_loc     0x00001a1c      0x5fc ./src/main.o

.debug_ranges   0x00000000      0x350
 .debug_ranges  0x00000000       0x58 ./CMSIS/EFR32MG1P/system_efr32mg1p.o
 .debug_ranges  0x00000058      0x180 ./emlib/em_cmu.o
 .debug_ranges  0x000001d8       0x78 ./emlib/em_gpio.o
 .debug_ranges  0x00000250       0x18 ./emlib/em_system.o
 .debug_ranges  0x00000268       0x48 ./emlib/em_timer.o
 .debug_ranges  0x000002b0       0xa0 ./src/main.o

.debug_str      0x00000000     0x2572
 .debug_str     0x00000000      0x6fc ./CMSIS/EFR32MG1P/system_efr32mg1p.o
                                0x773 (size before relaxing)
 .debug_str     0x000006fc      0xec2 ./emlib/em_cmu.o
                               0x13b3 (size before relaxing)
 .debug_str     0x000015be      0x436 ./emlib/em_gpio.o
                                0x84f (size before relaxing)
 .debug_str     0x000019f4       0xea ./emlib/em_system.o
                                0x31c (size before relaxing)
 .debug_str     0x00001ade      0x779 ./emlib/em_timer.o
                                0x9f2 (size before relaxing)
 .debug_str     0x00002257      0x31b ./src/main.o
                               0x13ff (size before relaxing)

.debug_frame    0x00000000      0xf64
 .debug_frame   0x00000000      0x164 ./CMSIS/EFR32MG1P/system_efr32mg1p.o
 .debug_frame   0x00000164      0x6dc ./emlib/em_cmu.o
 .debug_frame   0x00000840      0x228 ./emlib/em_gpio.o
 .debug_frame   0x00000a68       0x60 ./emlib/em_system.o
 .debug_frame   0x00000ac8      0x140 ./emlib/em_timer.o
 .debug_frame   0x00000c08      0x2c8 ./src/main.o
 .debug_frame   0x00000ed0       0x28 c:/siliconlabs/simplicitystudio/v4/developer/toolchains/gnu_arm/4.9_2015q3/bin/../lib/gcc/arm-none-eabi/4.9.3/../../../../arm-none-eabi/lib/armv7e-m/softfp\libc_nano.a(lib_a-exit.o)
 .debug_frame   0x00000ef8       0x2c c:/siliconlabs/simplicitystudio/v4/developer/toolchains/gnu_arm/4.9_2015q3/bin/../lib/gcc/arm-none-eabi/4.9.3/../../../../arm-none-eabi/lib/armv7e-m/softfp\libc_nano.a(lib_a-init.o)
 .debug_frame   0x00000f24       0x20 c:/siliconlabs/simplicitystudio/v4/developer/toolchains/gnu_arm/4.9_2015q3/bin/../lib/gcc/arm-none-eabi/4.9.3/../../../../arm-none-eabi/lib/armv7e-m/softfp\libc_nano.a(lib_a-memset.o)
 .debug_frame   0x00000f44       0x20 c:/siliconlabs/simplicitystudio/v4/developer/toolchains/gnu_arm/4.9_2015q3/bin/../lib/gcc/arm-none-eabi/4.9.3/../../../../arm-none-eabi/lib/armv7e-m/softfp\libnosys.a(_exit.o)
