S011000031315F504341393638352E73333772
S11300000080002099010000C5010000C501000026
S1130010C5010000C5010000C5010000C5010000C4
S1130020C5010000C5010000C5010000C5010000B4
S1130030C5010000C5010000C501000049310000F0
S1130040C5010000C5010000C5010000C501000094
S1130050C5010000C5010000C5010000C501000084
S1130060C5010000C5010000C5010000C501000074
S1130070D5310000C5010000C5010000C501000024
S1130080C5010000C5010000C5010000C501000054
S1130090E1310000C5010000C5010000C5010000F8
S11300A0C5010000C5010000C5010000C501000034
S11300B0C5010000C5010000C5010000C501000024
S11300C0C5010000C501000010B5054C237833B903
S11300D0044B13B10448AFF300800123237010BD17
S11300E0C000002000000000F8320000084B10B5EA
S11300F01BB108480849AFF300800848036803B9F6
S113010010BD074B002BFBD0BDE81040184700BFC3
S113011000000000F8320000C4000020BC000020F1
S113012000000000154B002B08BF134B9D46A3F5A0
S1130130803A00218B460F461348144A121A03F0E2
S11301408FF80F4B002B00D098470E4B002B00D09C
S113015098470020002104000D000D48002802D01B
S11301600C48AFF3008003F055F82000290002F09A
S1130170D7FE03F03BF800BF000008000080002019
S11301800000000000000000C0000020180500204E
S11301900000000000000000064880470649074AA6
S11301A0074B9A42BEBF51F8040B42F8040BF8E720
S11301B0FFF7B8FFA902000004330000000000208C
S11301C0C0000020FEE700BF80B582B000AF00F0A1
S11301D027F878600A4BD3F808210A4B13401B0A0E
S11301E03B603B6801337A68B2FBF3F37B60064AF9
S11301F07B6813607B6818460837BD4680BD00BF26
S113020000400E4000FF01000800002080B400AF51
S1130210024B1846BD465DF8047B704700F0490266
S113022080B483B000AF164BD3F8943003F00703C7
S1130230032B08D0042B02D0022B08D00BE0114B67
S11302401B687B600BE04FF400437B6007E00E4BC0
S11302501B687B6003E00D4B1B687B6000BF084B91
S1130260D3F8003103F4F8531B0A01337A68B2FB64
S1130270F3F318460C37BD465DF8047B704700BFA6
S113028000400E4004000020000000200C0000206C
S113029080B400AF034B1B681846BD465DF8047B71
S11302A0704700BF0000002080B400AF114A114B1A
S11302B0D3F8883043F47003C2F888300E4A0E4BEA
S11302C05B6D43F4005353650B4A0B4B1B6C23F0DB
S11302D003031364094A094B1B6823F001031360E9
S11302E0074A074B1B6823F080531360BD465DF833
S11302F0047B704700ED00E000300E4074300E4087
S113030060300E4080B400AF4FF400431846BD4641
S11303105DF8047B704700BF80B400AF4FF47A737C
S11303201846BD465DF8047B704700BF80B400AF3B
S1130330034B1B681846BD465DF8047B704700BF3D
S11303400400002080B487B000AFF860B9607A6020
S1130350FB6803F10473DA00BB6813449B007B6100
S11303607B697A681A601C37BD465DF8047B704768
S113037080B485B000AF786039607B6803F10473A2
S1130380DA003B6813449B00FB60FB681B6818465B
S11303901437BD465DF8047B704700BF80B483B05A
S11303A000AF78607B68012202FA03F318460C3729
S11303B0BD465DF8047B704780B584B000AF7860BB
S11303C00123FB607B68124A934204D80023FB603C
S11303D00023BB6008E07B680E4A934202D80123E5
S11303E0BB6001E00223BB600B481021FA68FFF7F1
S11303F0A9FF0949084BD3F8003123F08072BB6888
S11304001B061343C1F800311037BD4680BD00BF41
S11304100048E8010090D00300400E4080B483B04F
S113042000AF054B1B687B607B6818460C37BD46E4
S11304305DF8047B704700BF1000002080B582B0D7
S113044000AFFFF7EDFE7860064BD3F8003103F4FC
S1130450F8531B0A01337A6802FB03F31846083782
S1130460BD4680BD00400E4080B582B000AF0D484F
S113047000F0B0FA0346FB70FB78072B05D0092B7C
S113048007D1FFF7CDFE786006E0FFF7C7FF78607D
S113049002E000237B6000BF7B6818460837BD4636
S11304A080BD00BF06000C0080B584B000AF78604A
S11304B07B68002B1CD11B4800F08CFA0346FB72AE
S11304C000BFFB7A013B072B23D801A252F823F08B
S11304D0F5040000130500001305000003050000E7
S11304E01305000013050000FB0400000B050000C9
S11304F0002312E00023FB600EE0FFF78FFFF8609B
S11305000AE0FFF7C5FEF86006E0FFF797FFF86022
S113051002E00023FB6000BFFB6818461037BD46AD
S113052080BD00BF98002E0080B485B000AF786015
S11305303960194B1B6C002B14BF01230023FB7281
S1130540154B41F671321A64134B5B6803F0407328
S1130550FB607B68114A934202D80023FB6005E0EC
S11305607B680F4A934201D80123FB60FB681B069A
S1130570FB600949084B5B6823F04072FB68134336
S11305804B60FB7A002B02D0034B00221A64143711
S1130590BD465DF8047B704700000E4080BA8C01B4
S11305A0005A620280B500AFFFF730FE03461846DA
S11305B00021FFF7B9FF80BD80B582B000AF78603D
S11305C0396078683968FFF7AFFF0837BD4680BDEA
S11305D080B487B000AF78600F237B617B680333FE
S11305E03B617B69FB60FA683B69934228BF134611
S11305F0BB60BB681B07BB60BB6818461C37BD46A5
S11306005DF8047B704700BF80B400AF044B5B6AA5
S113061003F030031846BD465DF8047B704700BF05
S113062000400E4080B483B000AF78600649064BAA
S11306305B6A23F030027B6813434B620C37BD4680
S11306405DF8047B704700BF00400E4090B585B054
S113065000AF78600023BB607B68334A934206D0C6
S1130660324A934203D0324A934200D000E000BFA2
S1130670786800F0AFF90346FB607B682A4A93422E
S11306800DD02A4A934211D0294A934200D014E053
S1130690284BD3F8803003F00703FB600DE0254BB3
S11306A0D3F8843003F00703FB6006E0214BD3F852
S11306B0883003F00703FB6000BFFB68042B2ED8CF
S11306C001A252F823F000BF19070000DD06000064
S11306D0E5060000F5060000ED060000FFF712FE37
S11306E0B8601CE0FFF722FEB86018E0FFF714FEC4
S11306F0B86014E0FFF768FD04460E4BD3F80031F0
S113070003F080731B0E01331846FFF747FE0346C0
S1130710B4FBF3F3BB6002E00023BB6000BFBB6823
S113072018461437BD4690BD03001C000500200088
S113073002001A0000400E4080B483B000AF78601D
S11307400A4BD3F8443103F00103002B00D007E037
S113075000BF064BD3F840217B681340002BF8D12F
S11307600C37BD465DF8047B704700BF00400E4067
S113077080B586B000AF78600B46FB7000233B6108
S11307807B681B0A03F00F03013B092B44D801A229
S113079052F823F0BD070000C90700001908000043
S11307A019080000C3070000CF070000D9070000A4
S11307B019080000E3070000EF070000184B7B61F5
S11307C018E0184B7B6115E0174B7B6112E0174B67
S11307D07B6101233B610DE0154B7B6110233B6181
S11307E008E0144B7B614FF480333B6102E0124B11
S11307F07B6100BF7B681B0B03F01F03FB603B693D
S1130800002B02D03869FFF797FFFB787869F96805
S11308101A46FFF797FD00E000BF1837BD4680BDBC
S113082000400E40B0400E40C0400E40E0400E403C
S1130830E8400E40F0400E4050410E4080B584B078
S113084000AF78607B6803F47813B3F5602F00F091
S1130850A580B3F5602F16D8B3F5802F31D0B3F54A
S1130860802F05D8002B28D0B3F5003F3CD09EE064
S1130870B3F5202F47D0B3F5402F00F08B80B3F5AC
S1130880002F2DD093E0B3F5D01F4BD0B3F5D01F7C
S113089009D8B3F5A01F4FD0B3F5B01F63D0B3F59B
S11308A0901F44D083E0B3F5001F6ED0B3F5381F1A
S11308B078D0B3F5E01F51D079E0FFF7B1FCF860D0
S11308C078E0FFF7ADFCF8603D4BD3F80C213D4BCD
S11308D013401B0A0133FA68B2FBF3F3FB6069E0CF
S11308E0FFF79EFCF86065E0FFF79AFCF860344B74
S11308F0D3F80821334B13401B0A0133FA68B2FBC7
S1130900F3F3FB6056E0FFF78BFCF8602C4BD3F855
S1130910143103F4F8531B0A0133FA68B2FBF3F3FE
S1130920FB6047E02848FFF791FEF86042E0274863
S1130930FFF78CFEF8603DE02348FFF787FEF86080
S11309401F4BD3F8203103F00F031846FFF726FDA1
S11309500246FB68B3FBF2F3FB602BE01C48FFF795
S113096075FEF86026E01A48FFF770FEF860144B35
S1130970D3F8283103F003031846FFF70FFD0246AE
S1130980FB68B3FBF2F3FB6014E01048FFF75EFE74
S1130990F8600FE0FFF768FDF8600BE0FFF73EFD3D
S11309A0F86007E00020FFF77FFDF86002E0002315
S11309B0FB6000BFFB6818461037BD4680BD00BF12
S11309C000400E4000FF010002001A000500200054
S11309D003001C0080B485B000AF78600123FB7372
S11309E07B6803F00F03BB60BB68013B072B00F27D
S11309F0AD8001A252F823F0190A00004B0A00004E
S1130A007B0A00004D0B0000C10A0000F10A00003F
S1130A104D0B0000110B0000514BD3F8943003F040
S1130A200703032B07D0042B02D0022B06D008E0C7
S1130A300223FB7308E00323FB7305E00423FB7329
S1130A4002E00523FB7300BF83E0454BD3F88030FD
S1130A5003F00703022B06D0042B07D0012B08D187
S1130A600323FB7308E00223FB7305E00A23FB73F3
S1130A7002E00123FB7300BF6BE0394BD3F88430F1
S1130A8003F00703013B032B16D801A252F823F00D
S1130A90A10A0000A70A0000B30A0000AD0A000082
S1130AA00323FB730BE00223FB7308E00A23FB73AD
S1130AB005E00623FB7302E00123FB7300BF48E05B
S1130AC0274BD3F8883003F00703022B06D0042BFE
S1130AD007D0012B08D10323FB7308E00223FB7327
S1130AE005E00A23FB7302E00123FB7300BF30E03F
S1130AF01B4B1B6F03F00103002B05D0012B00D00F
S1130B0027E00923FB7302E00723FB7300BF20E007
S1130B10134BD3F85C3103F03003102B0CD0102BA3
S1130B2002D8002B05D014E0202B08D0302B09D09C
S1130B300FE00123FB7308E00723FB7305E00423A4
S1130B40FB7302E00823FB7300BF02E00023FB7386
S1130B5000BFFB7B18461437BD465DF8047B704725
S1130B6000400E4080B588B000AF78600B46FB7043
S1130B700323FB610323FB7600233B617B6803F0C3
S1130B800F03FB60FB68013B072B00F2038101A20A
S1130B9052F823F0B50B0000510C00006D0C00005E
S1130BA0950D00005F0C0000050D0000950D000080
S1130BB0230D0000FB78023B082B00F2ED8001A21C
S1130BC052F823F0E90B0000F30B0000FD0B0000CA
S1130BD00D0C0000990D0000990D0000990D000006
S1130BE0990D0000990D00000423FB610023FB769E
S1130BF014E00323FB610123FB760FE00223FB6176
S1130C000223FB766848FFF7D7FB07E00123FB616B
S1130C100323FB766448FFF7CFFB00BFFB7E184637
S1130C200121012200F048F9FFF7BCFC5F4AFB698F
S1130C3053675F48FFF702FE03461846FFF7BCFB05
S1130C40FFF7C2FAB860B8680021FFF7B5FCA8E066
S1130C503B69002B01D03B6900E0564B3B613B698B
S1130C60002B01D03B6900E0534B3B613B69002BF7
S1130C7001D03B6900E0514B3B61FB78013B092B00
S1130C8000F28C8001A252F823F000BFB50C0000E2
S1130C90BB0C0000CB0C00009D0D00009D0D00005E
S1130CA0DB0C00009D0D00009D0D00009D0D00005B
S1130CB0F70C000000237B6120E0002001210122C9
S1130CC000F0FAF802237B6118E0012001210122DF
S1130CD000F0F2F801237B6110E0FFF775FA034698
S1130CE01846FFF769FB364800210122FFF72AFB6B
S1130CF003237B6102E004237B6100BF3B697A69C3
S1130D001A604EE0FB78072B02D0092B04D048E090
S1130D10264B00221A6703E0244B01221A6700BF06
S1130D203FE0FB78013B072B3AD801A252F823F0AD
S1130D30510D0000A10D0000A10D0000670D000081
S1130D40A10D0000A10D0000570D0000770D00005B
S1130D5000237B6112E004200121012200F0ACF8A1
S1130D6001237B610AE002200121012200F0A4F8A2
S1130D7002237B6102E003237B6100BF0B490B4B21
S1130D80D3F85C3123F030027B691B011343C1F8B3
S1130D905C3106E000BF04E000BF02E000BF00E0F9
S1130DA000BF2037BD4680BD0148E80100400E4029
S1130DB00005080080400E4088400E4084400E40EC
S1130DC0B0400E40B0B584B000AF78601120FFF79A
S1130DD001FE02200021012200F06EF87B685B789E
S1130DE083F00103DBB2002B0ED07B689B7883F089
S1130DF00103DBB2002B07D07B68DB7883F00103AF
S1130E00DBB2002B00D000BF0023FB607B681B7C9F
S1130E10022B01D10123FB602549254B5B6A23F09A
S1130E200102FB6813434B627B681B78214808214D
S1130E301A46FFF787FA1E491D4B9B6A23F00703E6
S1130E407A68D27A13438B6219497B689B88DB02E8
S1130E507A68527A1343CB62154D154B1B6B03F022
S1130E607F637A68D288D20213437A68927A1343F2
S1130E707A68127AD20143EA02047B681B7A184624
S1130E80FFF7A6FB034623432B6309497B685B7B7F
S1130E901A037B689B7B1B0113437A68D27B1A433A
S1130EA07B681B7B1B0413434B631037BD46B0BDEB
S1130EB000400E4024400E4080B588B000AF034689
S1130EC0FB710B46BB7113467B71FB79042B00F25B
S1130ED0A58001A252F823F0350F0000230F000073
S1130EE0FF0E0000ED0E0000110F000001237B61D6
S1130EF002233B610123FB610023BB6125E0042342
S1130F007B6108233B610323FB610223BB611CE07B
S1130F1010237B6120233B610523FB610423BB6118
S1130F2013E040237B6180233B610723FB6106239D
S1130F30BB610AE04FF480737B614FF400733B6143
S1130F400923FB610823BB6100BFBB79002B59D087
S1130F500023FB73FB79022B0FD1FFF755FB0346EC
S1130F60002B0AD10123FB732E4B5B6A03F00103B0
S1130F70002B02D00120FFF755FB2A4A7B69136638
S1130F8000BF2948B969FFF7F3F90346002BF8D0ED
S1130F907B79002B35D000BF2348F969FFF7E8F9C6
S1130FA00346002BF8D0FB79022B2AD1FB7B002BC4
S1130FB027D01C4B5B6A03F00103002B05D00220F1
S1130FC02021012200F036F903E00220002100F084
S1130FD0E7F8022000F02AF8B8600220002101227C
S1130FE0FFF76AFF0220B96800F05AF80D4A7B69DE
S1130FF0136600BF0C48F969FFF7BAF90346002BE2
S1131000F8D00CE0074A3B69136600BF0648B9698B
S1131010FFF7AEF90346002BF8D100E000BF2037FC
S1131020BD4680BD00400E4090400E4080B485B067
S113103000AF0346FB71FB79013B032B23D801A2CC
S113104052F823F0551000007910000061100000E0
S11310506D100000114B1B6AC3F30803FB6015E01D
S11310600E4B1B6903F07F03FB600FE00B4B9B6986
S113107003F07F03FB6009E0084BD3F89C30C3F313
S11310800A03FB6002E00023FB6000BFFB68184614
S11310901437BD465DF8047B704700BF00400E4026
S11310A080B584B000AF03463960FB71FB79013B26
S11310B0032B6AD801A252F823F000BFCD10000020
S11310C04F110000FB100000251100003B68C3F322
S11310D008033B6000BF2F481A21FFF749F9034674
S11310E0002BF8D12C492C4B1B6A23F4FF7323F0FB
S11310F001033A6813430B6248E03B6803F07F0343
S11311003B6000BF23481821FFF732F90346002B48
S1131110F8D12149204B1B6923F07F023B6813431C
S11311200B6133E03B6803F07F033B6000BF194869
S11311301921FFF71DF90346002BF8D11649164B68
S11311409B6923F07F023B6813438B611EE0124BC3
S1131150D3F89030104A104B5B6A23F0300343F00D
S1131160100353623B6803F4F063DB091846FFF78E
S11311702FFAF8600849084B1A6B084B13403A6879
S11311801A43FB6813430B6300E000BF1037BD46EE
S113119080BD00BF40410E4000400E4000F8FF0FEC
S11311A080B584B000AF03460A46FB711346BB7199
S11311B0FFF72AFA0346002B03D14FF44003FB60E8
S11311C015E0BB79202B04D0302B0AD0002B04D09F
S11311D00BE04FF40003FB6009E04FF44003FB60B5
S11311E005E04FF44003FB6001E0104BFB6000BFDF
S11311F00F4BD3F89020FB681A40FB689A42F7D152
S1131200FB6803F48003002B0AD0094BD3F8A03009
S113121003F48063002B14BF01230023DBB200E03E
S1131220012318461037BD4680BD00BFFF03E10708
S113123000400E4080B582B000AF0346FB710B4600
S1131240BB7113467B71FB79022B16D1BB79002B42
S113125007D00C4B4FF48062C3F8A820094ABB792D
S113126053667B79002B07D0FA79BB79104619466F
S1131270FFF796FF034601E000BF01231846083735
S1131280BD4680BD00400E4080B487B000AFF8601A
S1131290B9607A60FB6803F10473DA00BB68134435
S11312A09B007B617B697A681A601C37BD465DF8D8
S11312B0047B704780B485B000AF786039607B6888
S11312C003F10473DA003B6813449B00FB60FB6882
S11312D01B6818461437BD465DF8047B704700BF91
S11312E080B400AF034B1B6DDBB21846BD465DF8FE
S11312F0047B7047B081E00F80B483B000AF7860A6
S11313000C37BD465DF8047B704700BF80B485B0E0
S113131000AF7860194B9B69FB60FB6823F03F03C7
S1131320FB607B681B78002B01D0042200E00022C4
S11313307B685B78002B01D0022300E000231A4372
S11313407B689B78002B01D0082300E000231A431C
S11313507B68DB78002B01D0012300E000231343DA
S11313607A6812791343FA681343FB60034AFB68F3
S113137093611437BD465DF8047B704700300E401E
S113138080B489B000AF284BFB61284BBB61284B6C
S11313907B61284B3B61284BFB60284BBB60284B8F
S11313A0D3F86C31B3F1FF3F37D0FB695B687B60E6
S11313B0FB691B683B603B687A681A60BB695B68C1
S11313C07B60BB691B683B603B687A681A607B6919
S11313D05B687B607B691B683B603B687A681A606A
S11313E03B695B687B603B691B683B603B687A6870
S11313F01A60FB685B687B60FB681B683B603B684A
S11314007A681A60BB685B687B60BB681B683B607A
S11314103B687A681A60012300E0002318462437E9
S1131420BD465DF8047B70473880E00F4080E00FD4
S11314304880E00F5080E00F5880E00F6080E00F9C
S1131440B081E00F80B584B000AF244A234BDB6E3B
S113145043F08073D36622480021FFF72BFFF86026
S1131460FB68002B03D0042000F05CFC02E00020A9
S113147000F058FC194A194B1B6E23F0C043136645
S1131480164A164BDB6C43F00603D3643B1D184627
S113149001F0DAF87B79012B1DD13B79022B1AD8A4
S11314A0104B1B78002B16D10F4A0F4B1B6843F0CF
S11314B001031360094B1B6EBB60BA680B4B1340EE
S11314C0BB60BA680A4B1343BB60044ABB6813662B
S11314D0044B01221A701037BD4680BD00300E4007
S11314E04C300E40DC00002044300E40000F0EF063
S11314F0B4C0400B80B48BB000AF01237B627B6A25
S11315001B053B62334BDB6C03F470631B0AFB610A
S1131510314B1B8803F128022F4B1B882833D90F2A
S11315200B445B1013441946FB695A1C13469B0079
S11315301344B1FBF3F3013BBB61BB697B6107233C
S11315403B613A697B69934228BF1346BB61BB691F
S11315501B06BB611F481F4BDB6C23F0EE62B969AD
S11315603B6A0B431343C3641C4B1B881BB2002B05
S11315702BDB1A4B1B88FB81FB8903F12802FB89B7
S11315802833D90F0B445B1013441946FB6901330C
S11315905A00FB6901335B081344B1FBF3F3BB60EE
S11315A0BB687B6007233B603A687B68934228BF33
S11315B01346BB60BB681B01BB600649054B1B6D32
S11315C023F07002BB6813430B652C37BD465DF8EE
S11315D0047B704700300E40DE000020E200002053
S11315E080B483B000AF78600B467B807B689AB28E
S11315F0044B1A80044A7B8813800C37BD465DF87F
S1131600047B7047DE000020E200002080B483B039
S113161000AF0346FB71FB79002B02D0012B04D0F1
S113162007E0064B064A9A6503E0044B054A9A65AF
S113163000BF0C37BD465DF8047B704700300E4098
S113164077402057372110B780B584B000AF0346E8
S1131650FB710B46BB7113467B71FFF741FE0346DA
S1131660FB72FB7A032B10D8294BD3F87C31FB6037
S1131670FB79002B05D0FB6803F47F431B0AFB6056
S11316802CE0FB68DBB2FB6028E0214BD3F880310F
S1131690FB60BB79032B1FD801A252F823F000BFD3
S11316A0B1160000B9160000C5160000D1160000DE
S11316B0FB68DBB2FB6011E0FB6803F47F431B0AA9
S11316C0FB600BE0FB6803F47F031B0CFB6005E08D
S11316D0FB681B0EFB6001E0002315E07B79002B07
S11316E011D1FB681B03FB60FB6823F47043002BE0
S11316F001D0002308E00749064BDB6E23F4704257
S1131700FB681343CB66012318461037BD4680BDE2
S1131710B081E00F00300E4080B489B000AFF860B3
S1131720B96011461A460B46FB711346BB71002380
S1131730FB610023BB61BB791A02FB7913437B6114
S11317407B6940F2011293422BD0B3F5817F07D21B
S1131750012B19D0012B4BD3B3F5807F55D07BE0FF
S113176040F20122934229D040F20122934203D84D
S1131770B3F5007F56D06FE0B3F5407F5FD040F201
S11317800132934227D067E0394BD3F87431FB61BF
S1131790FB6903F47F431B0ABB61FB69DBB2FB619A
S11317A05AE0334BD3F87431FB61FB691B0EBB6108
S11317B0FB6903F47F031B0CFB614DE02C4BD3F856
S11317C07831FB61FB6903F47F431B0ABB61FB694E
S11317D0DBB2FB6140E0264BD3F87831FB61FB6957
S11317E01B0EBB61FB6903F47F031B0CFB6133E03D
S11317F01F4BD3F86C31FB61FB6903F47F431B0A75
S1131800BB61FB69DBB2FB6126E0194BD3F86C3199
S1131810FB61FB691B0EBB61FB6903F47F031B0CBB
S1131820FB6119E0124BD3F87031FB61FB6903F4DF
S11318307F431B0ABB61FB69DBB2FB610CE00C4B11
S1131840D3F87031FB61FB691B0EBB61FB6903F4C8
S11318507F031B0CFB6100BFFB68FA691A60BB685D
S1131860BA691A602437BD465DF8047B704700BF2F
S1131870B081E00F80B584B000AF0346FB7100BFB8
S1131880274B9B6F03F00103002BF9D1244B1B6CF6
S113189003F00303FB60FB68002B04D021480D21F7
S11318A00122FFF7F1FCFB68DBB2FA799A4209D115
S11318B0FB79002B05D11B480D210022FFF7E4FC26
S11318C02AE029E0FB68002B05D1FB79012B02D12A
S11318D0154B02221A7000BF114B9B6F03F00103DA
S11318E0002BF9D10E490E4B1B6C23F00302FB793C
S11318F013430B6400BF0A4B9B6F03F00103002BDF
S1131900F9D1FB79002B14BF01230023DBB2054876
S11319100D211A46FFF7B8FC1037BD4680BD00BF45
S113192000300E4054300E40DC00002080B584B0FE
S113193000AF78603F4B02229A633E4B9B6B03F0EF
S11319400F03022B01D000236FE0FFF719FD7B6822
S11319505B78012B7B68DB884A2B02D80023FB6071
S113196015E07B68DB88B3F5FA7F03D24FF0805330
S1131970FB600CE07B68DB8840F6C312934203D81B
S11319804FF00053FB6002E04FF04053FB602948E6
S1131990284BDB6C23F0405323F001037A689289CF
S11319A012B2002A01DB012100E00021FA680A4397
S11319B01343C364FFF746FD7B681B891A467B68A3
S11319C09B891BB210461946FFF70AFE7B689A886A
S11319D0194B1A807B689B88184600F037F97B689E
S11319E09B7B1846FFF712FE7B685B881846012133
S11319F0012200F025F8034683F00103DBB2002B3B
S1131A0001D0002311E07B689B7A002B14BF0123D3
S1131A100023DBB2094805211A46FFF735FC7B6831
S1131A205B781846FFF726FF012318461037BD469A
S1131A3080BD00BF00300E40E00000203C300E406E
S1131A4080B590B000AF78600B46FB701346BB7056
S1131A500023FB6300237B6300233B6200237B6240
S1131A600023BB610023FB6100233B6100237B61F6
S1131A700023BB817B68B3F5E16F06D37B6840F636
S1131A80B832934201D8012300E0002387F83330B1
S1131A9097F8333003F0010387F8333097F8333085
S1131AA083F00103DBB2002B01D00023C6E07B6886
S1131AB0B3F5E16F8CBF0123002387F8323097F828
S1131AC03230002B0AD04FF4E163FB6340F6B833A5
S1131AD07B637A6BFB6BD31ABB6309E04FF49663A9
S1131AE0FB634FF4E1637B637A6BFB6BD31ABB63D9
S1131AF097F83230002B0CD0524BD3F86831FB618D
S1131B00FB691B0E7B61FB6903F47F031B0CFB6108
S1131B100BE04C4BD3F86831FB61FB6903F47F4362
S1131B201B0A7B61FB69DBB2FB61474BDB6C03F097
S1131B3040531B0FDBB23B733B7B07F1180007F1EB
S1131B40100197F83220FFF7E7FD7A68FB6BD31A90
S1131B507969FA698A1A02FB03F2BB6BB2FBF3F3ED
S1131B607B627A6AFB6913447B627A68FB6BD31AE3
S1131B703969BA698A1A02FB03F2BB6BB2FBF3F34D
S1131B803B623A6ABB6913443B627A6A7B699A4254
S1131B900BD87A6AFB699A4207D33A6A3B699A423C
S1131BA003D83A6ABB699A4201D2002346E0BB7863
S1131BB0002B12D02449244BDB6D23F4FE4323F085
S1131BC002037A6A12021A4397F83230002B01D0CA
S1131BD0022300E000231343CB65FB78002B2CD0B9
S1131BE03B7B97F83220104619460022FFF72CFD64
S1131BF0034683F00103DBB2002B01D000231DE078
S1131C003B6AFB62E723BB62BA6AFB6A934228BF62
S1131C1013463B620C490C4B5B6E23F4FF7323F0B9
S1131C2001033A6A52001A4397F83230002B01D06C
S1131C30012300E0002313434B6601231846403779
S1131C40BD4680BDB081E00F00300E4080B584B049
S1131C5000AF78600023FB60314B1B6F03F0070378
S1131C60BB602F4BDB6C03F00103002B15D0BB686A
S1131C70012B12D97B68132B02D80423FB600BE0E1
S1131C807B68132B05D97B68272B02D80823FB60BC
S1131C9002E01023FB602DE02CE0214BDB6C03F011
S1131CA00103002B15D1BB68012B12D87B68092BCB
S1131CB002D80423FB600BE07B68092B05D97B6801
S1131CC0132B02D80823FB6002E01023FB6011E011
S1131CD010E0134BDB6C03F00103002B0AD0BB684C
S1131CE0012B07D87B68272B02D80823FB6001E06F
S1131CF01023FB60FB68013BFB60FB681A02FB6876
S1131D001B031343FB600649054BDB6C23F47F4242
S1131D10FB681343CB64FFF7EDFB1037BD4680BD72
S1131D2000300E4080B584B000AF0346FB710F480D
S1131D300021FFF7BFFAF860FB68002B02D1FB79A2
S1131D40012B02D9FB68002B00D000BF0849084BC7
S1131D501B6F23F00702FB7913430B67054B1B88AA
S1131D601846FFF773FF1037BD4680BD4C300E4058
S1131D7000300E40E000002080B485B000AF7860F1
S1131D8039607B6803F1C063FB60FB683A681A60E2
S1131D901437BD465DF8047B704700BF80B485B03E
S1131DA000AF786039607B6803F18063FB60FB6897
S1131DB03A681A601437BD465DF8047B704700BF6B
S1131DC080B582B000AF03463960FB71FB79002B0C
S1131DD00DD0FB79012B0AD0FB79022B07D0FB79BC
S1131DE0032B04D0FB79042B01D0FB79052BFA7962
S1131DF013465B0013441B010C3303F1804303F5CA
S1131E0020433A68012101FA02F218461146FFF70D
S1131E10C5FF0837BD4680BD80B582B000AF03461C
S1131E203960FB71FB79002B0DD0FB79012B0AD0B3
S1131E30FB79022B07D0FB79032B04D0FB79042B0D
S1131E4001D0FB79052BFA7913465B0013441B017F
S1131E500C3303F1804303F520433A68012101FA6E
S1131E6002F218461146FFF787FF0837BD4680BDCA
S1131E7090B585B000AFB9607B600346FB73134631
S1131E80BB73FB7B002B0DD0FB7B012B0AD0FB7BB0
S1131E90022B07D0FB7B032B04D0FB7B042B01D04C
S1131EA0FB7B052BBB7B002B0DD07B68002B05D067
S1131EB0FB7B1846B968FFF7AFFF04E0FB7B1846CD
S1131EC0B968FFF77DFFBB68072B1CD82A4CFA7B47
S1131ED02948F97B0B465B000B441B0103445968FA
S1131EE0BB689B0018460F238340DB430B40B97B40
S1131EF0B86880008140194313465B0013441B01FA
S1131F002344596024E01C4CFA7B1B48F97B0B46A4
S1131F105B000B441B01034408331968BB6803F1DD
S1131F208043083B9B0018460F238340DB43194042
S1131F30B87BBB6803F18043083B9B0000FA03F3C2
S1131F40194313465B0013441B01234408331960EF
S1131F50BB7B002B0DD17B68002B05D0FB7B184687
S1131F60B968FFF759FF04E0FB7B1846B968FFF72F
S1131F7027FF1437BD4690BD00A0004080B487B051
S1131F8000AFF860B9607A60FB6803F10473DA00AB
S1131F90BB6813449B007B617B697A681A601C37B9
S1131FA0BD465DF8047B704780B485B000AF7860AF
S1131FB039607B6803F1C063FB60FB683A681A60B0
S1131FC01437BD465DF8047B704700BF80B485B00C
S1131FD000AF786039607B6803F18063FB60FB6865
S1131FE03A681A601437BD465DF8047B704700BF39
S1131FF080B584B000AFF860B9607A60F868B968F9
S1132000FFF7E4FFF8687968FFF7CEFF1037BD46A5
S113201080BD00BF80B588B000AFF860B9607A6059
S1132020FB707B68002B00D15EE0FB681B6823F427
S11320304072FB681A60FA68FB781B0210464FF482
S113204040711A46FFF7D4FFBB68002B03D1284820
S1132050FEF7F4FBB8604FF0FF33BB61FB681B680D
S113206003F00203002B11D0FB78012B07D0022BC5
S113207008D0002B00D019E01E4BBB6105E01E4BBD
S1132080BB6102E01D4BBB6100BF0FE0FB78012B7D
S113209006D0022B07D0002B08D1164BBB6105E0FC
S11320A0174BBB6102E0174BBB6100BFFB78164ABC
S11320B0D35C7B617B68DB00BA68D21A7B69796880
S11320C001FB03F3B2FBF3F3013BFB61FB681B6809
S11320D003F00203002B04D0FB69002B01D1012380
S11320E0FB61FA69FB681A612037BD4680BD00BFF9
S11320F04041050080841E00404B4C00809FD50069
S113210040548900002D31018C32000080B582B02A
S113211000AF786039607B6800221A647B68114ADA
S1132120DA637A683B685B78002B01D0002300E017
S11321300123104601211A46FFF720FF3B68596826
S11321403B689A683B681B7B7868FFF763FF7A6893
S11321503B681B78104600211A46FFF70FFF08372B
S1132160BD4680BDCFFF070080B489B000AF786062
S11321707B68A34A934205D1A24BBB61BB699B68B0
S11321807B6101E0FC23F8E17B685B6B3B613B69AD
S113219003F4C063002B14D03B6903F40073002BD9
S11321A003D0BB69FD225A7007E03B6903F48063E6
S11321B0002B02D0BB69FE225A70BB6909221A7037
S11321C0C7E1BB691B78082B00F2BB8101A252F85E
S11321D023F000BFF92100004B220000D1220000AF
S11321E02323000075230000C723000057240000A8
S11321F095240000272500007B695B8803F0100309
S1132200002B09D07B691B881B0A9BB203F00603D1
S113221043F0F003FB610EE07B691B8803F0FE03CF
S1132220FB617B695B8803F00203002B03D0FB692D
S113223043F00103FB61BB6901221A707B68FA69F0
S1132240DA627B6801225A6083E13B6903F0800310
S1132250002B0CD07B688022DA63BB69FF225A70A2
S1132260BB6908221A707B6802225A602FE03B691E
S113227003F04003002B2AD07B684022DA637B6999
S11322805B8803F01003002B08D0BB6902221A708C
S11322907B691B88DAB27B68DA6218E07B695B8849
S11322A003F00203002B0ED0BB6907221A70BB692E
S11322B01B797A69DB0013441B89012B07D17B68E6
S11322C008225A6045E1BB6905221A7040E140E1E9
S11322D03B6903F08003002B0CD07B688022DA6317
S11322E0BB69FF225A70BB6908221A707B680222FC
S11322F05A6015E03B6903F04003002B10D07B6863
S11323004022DA637B695B8803F00203002B03D06D
S1132310BB6903221A701BE1BB6905221A7017E11D
S113232017E17B695B8803F01003002B09D07B69FC
S11323301B881B0A9BB203F0060343F0F003FB6106
S113234004E07B691B8803F0FE03FB617B695B8807
S113235003F00403002B03D0FB6943F00103FB618A
S1132360BB6904221A707B6801225A607B68FA698F
S1132370DA62EEE03B6903F08003002B0CD07B684B
S11323808022DA63BB69FF225A70BB6908221A7083
S11323907B6802225A6015E03B6903F04003002B7E
S11323A010D07B684022DA637B695B8803F0040306
S11323B0002B03D0BB6907221A7003E0BB69052216
S11323C01A70C5E0C5E0BB695A88BB691B79796995
S11323D0DB000B441B899A4228D3BB6900225A8034
S11323E0BB691B790133DAB2BB691A717B695B88FB
S11323F003F00403002B07D0BB6903221A70A7E083
S113240000C00040E40000207B695B8803F0010306
S1132410002B03D1BB691B79012B06D9BB690822A8
S11324201A707B6802225A6093E091E0BB691B79C1
S11324307A69DB0013445A68BB695B88591C88B20B
S1132440B969488013441B781A467B68DA62BB6911
S113245006221A707DE03B6903F08003002B0CD048
S11324607B688022DA63BB69FF225A70BB69082249
S11324701A707B6802225A600BE03B6903F0400348
S1132480002B06D07B684022DA63BB6905221A70F0
S11324905EE05EE03B6903F02003002B42D0BB69A1
S11324A01B797A69DB0013441B89FB607B68DB6959
S11324B0FB72BB695B881A46FB689A420ED2BB6901
S11324C01B797A69DB0013445A68BB695B88591C21
S11324D088B2B96948801344FA7A1A70BB695B8878
S11324E01A46FB689A420CD3FB68012B02D17B6825
S11324F008225A60BB6908221A707B6802225A605B
S113250010E07B6804225A60FB68012B0AD9BB697E
S11325105B881A46FB68013B9A4203D17B68082218
S11325205A6016E015E03B6903F48073002B07D072
S11325307B684FF48072DA63BB6909221A7008E081
S113254007E0BB69FB225A70BB6909221A7000E0DC
S11325501AE6BB691B78092B0BD17B6800221A642D
S1132560BB695B785BB2012B05D1BB6900225A7051
S113257001E0012301E0BB695B785BB218462437B4
S1132580BD465DF8047B704780B584B000AF7860C9
S113259039607B68294A934208D1294BFB607B68E8
S11325A09B6803F00103002B05D001E0FC233FE00E
S11325B07B6820225A603B685B8803F00203002B8F
S11325C003D03B681B89002B09D03B685B8803F070
S11325D00403002B05D03B681B8A002B01D1FC238C
S11325E026E0FB6800221A70FB6801225A70FB681F
S11325F000225A80FB6800221A71FB683A689A60CC
S11326007B68C0225A607B685B6B03F02003002B5D
S113261001D07B68DB697B680A4ADA637B681B6CE0
S113262043F4FC627B681A647868FFF79DFD0346F7
S11326305BB218461037BD4680BD00BF00C00040E5
S1132640E4000020CFFF070080B485B000AF7860BD
S1132650194B5B69DBB203F00F03DBB29B00FB7326
S1132660154B1B6903F0C0039B09DAB2FB7B1343D0
S1132670FB737B68FA7B9A700F4B1B69DBB203F028
S11326803F03DAB27B685A700B4B9B69DBB223F0D1
S11326900F03FB73084BDB6903F0F0031B09DAB289
S11326A0FB7B1343FB737B68FA7B1A701437BD46BC
S11326B05DF8047B704700BFD0FF0FE080B586B0A3
S11326C000AFF860B9607A60FB70BB68002B03D17F
S11326D02448FEF7B3F8B860FB78202B0CD0202BED
S11326E002DC002B05D03AE0402B08D0602B09D047
S11326F035E010237B6108E008237B6105E00623B5
S11327007B6102E004237B6100BFBB685A017B69E3
S1132710796801FB03F35B0813443B617B697A68C6
S113272002FB03F33A69B2FBF3F33B613B69203BE1
S11327303B613B69DB003B613A690B4B13403B61F6
S1132740FB681B6823F06002FB681A60FB681A6868
S1132750FB781A43FB681A60FB683A695A611837B8
S1132760BD4680BD40410500F8FF7F0080B485B0C0
S113277000AF78600B46FB707B680D4A934203D030
S11327807B680C4A934200D100BFFB78DB43FB60BB
S1132790FB6803F00503FB60FB685A007B68DA60A2
S11327A0FA787B68DA601437BD465DF8047B7047BD
S11327B0000001400004014080B582B000AF7860A1
S11327C039607B68294A934203D07B68284A934244
S11327D000D100BF786800F07FF83B689B7C002B39
S11327E005D07B681B6843F080427B681A603B68B5
S11327F0DB7C002B07D03B681B7D63F07F03DBB2DF
S11328001A467B689A653B685B7B1A463B681B8A61
S113281013433A68D2891A437B685A603B68596803
S11328203B689A683B681B7B7868FFF747FF3B6807
S11328309B7D1B0703F0E0423B68DB7D1B0503F433
S1132840E0031A437B681A663B685B7D002B05D066
S11328507B681B6843F480327B681A603B681B7892
S11328601A467B68DA600837BD4680BD0000014027
S11328700004014080B485B000AF786039607B68A3
S11328809B6823F4702323F07003FB603B681B7880
S1132890002B03D0FB6843F04003FB603B689B784C
S11328A0002B03D0FB6843F02003FB603B685B789C
S11328B0002B03D0FB6843F01003FB603B685B68AC
S11328C0FA681343FB607B68FA689A601437BD4664
S11328D05DF8047B704700BF80B483B000AF7860BC
S11328E07B681F4A934203D07B681E4A934200D1FF
S11328F000BF7B6840F6AA62DA607B6800221A6037
S11329007B6841F205025A607B6800229A607B680A
S113291000225A617B680022DA647B68124A9A6456
S11329207B6800225A677B6800229A677B680022D2
S1132930DA677B680A4A934202D17B6800221A65EF
S11329407B6800229A657B68064A934202D17B68C1
S11329500022DA650C37BD465DF8047B704700BF82
S11329600000014000040140F9FF010080B483B07D
S113297000AF78600B46FB7000BF7B681B6903F0F7
S11329804003002BF9D0FA787B685A630C37BD46B4
S11329905DF8047B704700BF80B58AB000AFB960B2
S11329A07A601A460346FB811346BB81FB893B824E
S11329B097F834309BB27B82BB687B61BB893B83D5
S11329C07B68FB613B8E3B8407F110030A48194680
S11329D0FFF7DAFD034687F8273005E00648FFF7DE
S11329E0C3FB034687F8273097F92730002BF5D12E
S11329F02837BD4680BD00BF00C0004080B584B00C
S1132A0002AF03460A46FB711346BB71094AFB79C0
S1132A101370094ABB7913700123009308230193AF
S1132A2080200449044A0123FFF7B6FF0837BD4656
S1132A3080BD00BFFC0400200005002080B586B0E6
S1132A4002AF03463960FB711346BB71114AFB792F
S1132A5013700023FB600BE0FB683A681344197899
S1132A600D4AFB6813440A461A70FB680133FB6085
S1132A70BA79FB689A42EFDCBB799BB200930823D6
S1132A80019380200349044A0123FFF785FF10378F
S1132A90BD4680BDFC0400200005002090B585B033
S1132AA000AF064B3C460FCB84E80F003B4604487E
S1132AB01946FFF72BFB1437BD4690BD903200003A
S1132AC000C0004080B400AF044BDB6C1B0EDBB2D3
S1132AD01846BD465DF8047B704700BFB081E00F27
S1132AE080B487B000AFF860B9607A60FB6803F126
S1132AF00473DA00BB6813449B007B617B697A68CA
S1132B001A601C37BD465DF8047B704780B586B0FB
S1132B1000AF4FF050133B610023FB60FFF7D2FF7F
S1132B200346FB723B461846FFF78EFDFB7A8E2B5D
S1132B3022D81F4BD3F8B0307B601D4A7B6843F02A
S1132B400403C2F8B03000237B610EE019483A69EF
S1132B50FB6842EA03017A6913465B0013441B01D4
S1132B60034419607B6901337B617B69052BEDD9D3
S1132B700F4A7B68C2F8B030FB7A8F2B07D80C4A17
S1132B800B4BDB6A23F07F0343F02003D3627B7893
S1132B90012B05D1084A084B1B6843F0040313605A
S1132BA006480D210022FFF79BFF1837BD4680BD64
S1132BB000400E4000A0004064310E4054300E40EE
S1132BC080B500AFFFF7A2FF00F00AF800F050F85C
S1132BD000F09EF800F052F900F086F980BD00BFC5
S1132BE090B589B000AF214B07F1100418685968FB
S1132BF09A68DB680FC400233B7401237B744FF491
S1132C00E1637B820F23BB820A23FB82C8233B83BD
S1132C102023BB76A023BB8307F110031846FEF7DD
S1132C2085FE00233B7300233B7307F10C03184616
S1132C30FEF762FB00233B7100237B710023BB7111
S1132C400023FB7100233B7200237B7100233B7143
S1132C500023BB710023FB7100233B723B1D18460C
S1132C60FEF754FB2437BD4690BD00BFA0320000E0
S1132C70B0B586B000AF204B3C1D1D46286869687E
S1132C80AA68EB680FC42B8A23803B1D1846FEF705
S1132C9099F811200521FDF765FF18480121FDF77A
S1132CA067FD17480121FDF763FD16480121FDF773
S1132CB05FFD15480121FDF75BFD144A134B1B68AA
S1132CC023F00F031360114A104B1B6823F4F073B5
S1132CD013600E4A0D4BD3F8703123F00103C2F890
S1132CE070310A4A094BD3F8703123F00203C2F859
S1132CF070311837BD46B0BDB03200004041050008
S1132D0000720400002204000025080000400E4068
S1132D10B0B58AB000AF574B07F10C041D460FCD78
S1132D200FC495E8070084E8070000233B734FF4C1
S1132D30E1337B6105237B7600237B834FF480534F
S1132D40BB8300233B760023BB770023FB77002360
S1132D5087F8203007F10C0347481946FFF72CFD8C
S1132D6000233B7100237B710023BB710023BB60F4
S1132D7000237B710023BB710023BB603B1D3E48D5
S1132D801946FFF777FD3C4A3B4B9B6F23F0F85302
S1132D909367394A384B5B6F23F008035367364A0D
S1132DA0354B9B6F23F4F8139367334A324B5B6FB5
S1132DB023F004035367304A2F4BDB6F23F01F03C8
S1132DC0D3672D4A2C4B5B6F23F0100353672A4AB9
S1132DD0294BDB6F23F4F853D367274A264B5B6FE9
S1132DE023F020035367244A234B9B6F23F01F03D4
S1132DF043F002039367204A1F4B5B6F43F00103C8
S1132E0053671D4A1C4B9B6F23F4F85343F4007320
S1132E109367194A184B5B6F43F002035367164AD2
S1132E20154B5B6E23F004035366134A124B5B6E1F
S1132E3023F002035366104A0F4B5B6E23F0080322
S1132E4053660D4A0C4B1B6823F4004313600A4A73
S1132E50094B1B6823F480431360074A064B1B6825
S1132E6023F40053136004480521FFF77FFC28373F
S1132E70BD46B0BDC43200000000014090B585B02D
S1132E8000AF164A154B5B6C43F002035364134ABC
S1132E90124B9B6C23F4F8539364104A0F4B5B6CF6
S1132EA043F0010353640D4A0C4B9B6C23F01F0346
S1132EB093640B4B3C460FCB84E80F0001233B701B
S1132EC001237B70074BBB6000233B733B460348E5
S1132ED01946FFF71BF91437BD4690BD00C00040EA
S1132EE0E03200006067010080B500AF00200021DF
S1132EF00B220023FEF7BCFF002001210B2200233C
S1132F00FEF7B6FF0020022104220023FEF7B0FFE3
S1132F100020032101220023FEF7AAFF80BD00BF89
S1132F2080B500AFFFF74CFE00F0F8F8642000F025
S1132F30C5F8FFF7B3FD642000F0C0F800F008F80E
S1132F4000F01AF80120012100F0CEF8FEE700BFDE
S1132F5080B500AF00203121FFF750FDFE20042191
S1132F60FFF74CFD0020A121FFF748FD01200421BB
S1132F70FFF744FD80BD00BF80B582B000AF0023E1
S1132F807B6000237B6023E07B68DBB29B00DBB2C9
S1132F900633FB70114B00221A70104B00225A703A
S1132FA00F4A7B6852F82330DAB20C4B9A700C4A01
S1132FB07B6852F823301B12DAB2084BDA70FB78C4
S1132FC0184606490422FFF739FD7B6801337B600C
S1132FD07B68052BD8DD0837BD4680BD0805002079
S1132FE01400002080B483B000AF03463960FB7145
S1132FF097F90730002B0BDA0D49FB7903F00F0327
S1133000043B3A68D2B25201D2B20B441A7609E0B8
S1133010084997F907303A68D2B25201D2B20B4448
S113302083F800230C37BD465DF8047B704700BF6E
S113303000ED00E000E100E080B582B000AF786010
S11330407B68013BB3F1807F01D301230FE00A4A7F
S11330507B68013B53604FF0FF300721FFF7C2FF4D
S1133060054B00229A60044B07221A60002318467D
S11330700837BD4680BD00BF10E000E080B483B0D7
S113308000AF786039607B683A689A640C37BD4653
S11330905DF8047B704700BF80B483B000AF034683
S11330A0FB80FB88B3F5806F01D3002300E0FB882D
S11330B018460C37BD465DF8047B704780B485B074
S11330C000AF7860074B1B68FB6000BFFA687B6841
S11330D01A44044B1B689A42F8D81437BD465DF86D
S11330E0047B7047F000002080B582B000AF7860A8
S11330F039607B68002B05D13B680520042104223C
S1133100FEF7B6FE7B68012B05D13B68052005213F
S11331100422FEF7ADFE0837BD4680BD80B500AF82
S11331200748FDF78BFB0246064BA3FB02239B09D2
S11331301846FFF781FF0346002B00D000BE80BD78
S113314050000200D34D621080B400AF044B1B68E2
S11331500133034A1360BD465DF8047B704700BF2A
S1133160F000002080B500AF184B1B681B6C03F007
S11331700103002B05D0154B1B6818460121FFF7EE
S11331807DFF134B5A88124B1B889A4219D00F4B60
S113319019680F4B5B885A1C90B20D4A50801A462E
S11331A00B4B13441B7908461946FFF7DFFB084B0A
S11331B05B881846FFF770FF03461A46044B5A8093
S11331C003E0034B002283F8042480BD140500208F
S11331D0F400002080B500AFFFF7C4FF80BD00BF3E
S11331E080B500AFFFF7BEFF80BD00BF08B5074B39
S11331F0044613B10021AFF30080054B1868836ABD
S113320003B19847204600F033F800BF00000000E7
S1133210F432000070B50E4B0E4CE41AA4100025D5
S11332201E46A54204D056F8253098470135F8E7E4
S113323000F020F8084C094BE41AA41000251E469F
S1133240A54204D056F8253098470135F8E770BDFB
S1133250B4000020B4000020B8000020B400002016
S113326002440346934202D003F8011BFAE7704775
S1133270FEE700BFF8B500BFF8BC08BC9E46704727
S1133280F8B500BFF8BC08BC9E4670470809110891
S11332900101000000000000606701000000000060
S11332A0000108070F000A00C8002000A000000069
S11332B000000000A00055010A200706020A0407C6
S11332C000000000050000000000000000C2010032
S11332D000050000001000000000000000000000D5
S11332E00101000000000000606701000000000010
S10F32F043000000540000200000000017
S10B32FC28CEFF7F0100000051
S113330400F0490200800000C0EA2101C0EA210162
S1133314C0EA210140000000FF0F0000C0000000CB
S1133324600000005A0000000000000000000000DB
S11333340000000000000000000000000000000085
S11333440000000000000000000000000000000075
S11333540000000000000000000000000000000065
S11333640000000000000000000000000000000055
S113337400000000F0320000000000000000000023
S11333840000000000000000000000000000000035
S11333940000000000000000000000000000000025
S11333A40000000000000000000000000000000015
S11333B400000000ED000000C9000000000000004F
S903019962
