Archive member included because of file (symbol)

c:/siliconlabs/simplicitystudio/v4/developer/toolchains/gnu_arm/4.9_2015q3/bin/../lib/gcc/arm-none-eabi/4.9.3/armv7e-m/softfp\libgcc.a(_aeabi_uldivmod.o)
                              ./emlib/em_usart.o (__aeabi_uldivmod)
c:/siliconlabs/simplicitystudio/v4/developer/toolchains/gnu_arm/4.9_2015q3/bin/../lib/gcc/arm-none-eabi/4.9.3/armv7e-m/softfp\libgcc.a(bpabi.o)
                              c:/siliconlabs/simplicitystudio/v4/developer/toolchains/gnu_arm/4.9_2015q3/bin/../lib/gcc/arm-none-eabi/4.9.3/armv7e-m/softfp\libgcc.a(_aeabi_uldivmod.o) (__gnu_uldivmod_helper)
c:/siliconlabs/simplicitystudio/v4/developer/toolchains/gnu_arm/4.9_2015q3/bin/../lib/gcc/arm-none-eabi/4.9.3/armv7e-m/softfp\libgcc.a(_dvmd_tls.o)
                              c:/siliconlabs/simplicitystudio/v4/developer/toolchains/gnu_arm/4.9_2015q3/bin/../lib/gcc/arm-none-eabi/4.9.3/armv7e-m/softfp\libgcc.a(_aeabi_uldivmod.o) (__aeabi_ldiv0)
c:/siliconlabs/simplicitystudio/v4/developer/toolchains/gnu_arm/4.9_2015q3/bin/../lib/gcc/arm-none-eabi/4.9.3/armv7e-m/softfp\libgcc.a(_divdi3.o)
                              c:/siliconlabs/simplicitystudio/v4/developer/toolchains/gnu_arm/4.9_2015q3/bin/../lib/gcc/arm-none-eabi/4.9.3/armv7e-m/softfp\libgcc.a(bpabi.o) (__divdi3)
c:/siliconlabs/simplicitystudio/v4/developer/toolchains/gnu_arm/4.9_2015q3/bin/../lib/gcc/arm-none-eabi/4.9.3/armv7e-m/softfp\libgcc.a(_udivdi3.o)
                              c:/siliconlabs/simplicitystudio/v4/developer/toolchains/gnu_arm/4.9_2015q3/bin/../lib/gcc/arm-none-eabi/4.9.3/armv7e-m/softfp\libgcc.a(bpabi.o) (__udivdi3)
c:/siliconlabs/simplicitystudio/v4/developer/toolchains/gnu_arm/4.9_2015q3/bin/../lib/gcc/arm-none-eabi/4.9.3/../../../../arm-none-eabi/lib/armv7e-m/softfp\libc_nano.a(lib_a-exit.o)
                              c:/siliconlabs/simplicitystudio/v4/developer/toolchains/gnu_arm/4.9_2015q3/bin/../lib/gcc/arm-none-eabi/4.9.3/../../../../arm-none-eabi/lib/armv7e-m/softfp/crt0.o (exit)
c:/siliconlabs/simplicitystudio/v4/developer/toolchains/gnu_arm/4.9_2015q3/bin/../lib/gcc/arm-none-eabi/4.9.3/../../../../arm-none-eabi/lib/armv7e-m/softfp\libc_nano.a(lib_a-impure.o)
                              c:/siliconlabs/simplicitystudio/v4/developer/toolchains/gnu_arm/4.9_2015q3/bin/../lib/gcc/arm-none-eabi/4.9.3/../../../../arm-none-eabi/lib/armv7e-m/softfp\libc_nano.a(lib_a-exit.o) (_global_impure_ptr)
c:/siliconlabs/simplicitystudio/v4/developer/toolchains/gnu_arm/4.9_2015q3/bin/../lib/gcc/arm-none-eabi/4.9.3/../../../../arm-none-eabi/lib/armv7e-m/softfp\libc_nano.a(lib_a-init.o)
                              c:/siliconlabs/simplicitystudio/v4/developer/toolchains/gnu_arm/4.9_2015q3/bin/../lib/gcc/arm-none-eabi/4.9.3/../../../../arm-none-eabi/lib/armv7e-m/softfp/crt0.o (__libc_init_array)
c:/siliconlabs/simplicitystudio/v4/developer/toolchains/gnu_arm/4.9_2015q3/bin/../lib/gcc/arm-none-eabi/4.9.3/../../../../arm-none-eabi/lib/armv7e-m/softfp\libc_nano.a(lib_a-memset.o)
                              c:/siliconlabs/simplicitystudio/v4/developer/toolchains/gnu_arm/4.9_2015q3/bin/../lib/gcc/arm-none-eabi/4.9.3/../../../../arm-none-eabi/lib/armv7e-m/softfp/crt0.o (memset)
c:/siliconlabs/simplicitystudio/v4/developer/toolchains/gnu_arm/4.9_2015q3/bin/../lib/gcc/arm-none-eabi/4.9.3/../../../../arm-none-eabi/lib/armv7e-m/softfp\libnosys.a(_exit.o)
                              c:/siliconlabs/simplicitystudio/v4/developer/toolchains/gnu_arm/4.9_2015q3/bin/../lib/gcc/arm-none-eabi/4.9.3/../../../../arm-none-eabi/lib/armv7e-m/softfp\libc_nano.a(lib_a-exit.o) (_exit)

Allocating common symbols
Common symbol       size              file

SystemCoreClock     0x4               ./CMSIS/EFR32MG1P/system_efr32mg1p.o
dmaControlBlock     0x100             ./emlib/dmactrl.o

Discarded input sections

 .text          0x00000000        0x0 c:/siliconlabs/simplicitystudio/v4/developer/toolchains/gnu_arm/4.9_2015q3/bin/../lib/gcc/arm-none-eabi/4.9.3/armv7e-m/softfp/crti.o
 .data          0x00000000        0x0 c:/siliconlabs/simplicitystudio/v4/developer/toolchains/gnu_arm/4.9_2015q3/bin/../lib/gcc/arm-none-eabi/4.9.3/armv7e-m/softfp/crti.o
 .bss           0x00000000        0x0 c:/siliconlabs/simplicitystudio/v4/developer/toolchains/gnu_arm/4.9_2015q3/bin/../lib/gcc/arm-none-eabi/4.9.3/armv7e-m/softfp/crti.o
 .data          0x00000000        0x4 c:/siliconlabs/simplicitystudio/v4/developer/toolchains/gnu_arm/4.9_2015q3/bin/../lib/gcc/arm-none-eabi/4.9.3/armv7e-m/softfp/crtbegin.o
 .data          0x00000000        0x0 c:/siliconlabs/simplicitystudio/v4/developer/toolchains/gnu_arm/4.9_2015q3/bin/../lib/gcc/arm-none-eabi/4.9.3/../../../../arm-none-eabi/lib/armv7e-m/softfp/crt0.o
 .bss           0x00000000        0x0 c:/siliconlabs/simplicitystudio/v4/developer/toolchains/gnu_arm/4.9_2015q3/bin/../lib/gcc/arm-none-eabi/4.9.3/../../../../arm-none-eabi/lib/armv7e-m/softfp/crt0.o
 .ARM.extab     0x00000000        0x0 c:/siliconlabs/simplicitystudio/v4/developer/toolchains/gnu_arm/4.9_2015q3/bin/../lib/gcc/arm-none-eabi/4.9.3/../../../../arm-none-eabi/lib/armv7e-m/softfp/crt0.o
 .data          0x00000000        0x0 ./CMSIS/EFR32MG1P/startup_gcc_efr32mg1p.o
 .bss           0x00000000        0x0 ./CMSIS/EFR32MG1P/startup_gcc_efr32mg1p.o
 .text          0x00000000        0x0 ./CMSIS/EFR32MG1P/system_efr32mg1p.o
 .data          0x00000000        0x0 ./CMSIS/EFR32MG1P/system_efr32mg1p.o
 .bss           0x00000000        0x0 ./CMSIS/EFR32MG1P/system_efr32mg1p.o
 .text.SystemHFXOClockGet
                0x00000000       0x18 ./CMSIS/EFR32MG1P/system_efr32mg1p.o
 .text.SystemHFXOClockSet
                0x00000000       0x30 ./CMSIS/EFR32MG1P/system_efr32mg1p.o
 .text.SystemLFXOClockSet
                0x00000000       0x30 ./CMSIS/EFR32MG1P/system_efr32mg1p.o
Memory Configuration

Name             Origin             Length             Attributes
FLASH            0x00000000         0x00040000         xr
RAM              0x20000000         0x00008000         xrw
*default*        0x00000000         0xffffffff

Linker script and memory map

LOAD c:/siliconlabs/simplicitystudio/v4/developer/toolchains/gnu_arm/4.9_2015q3/bin/../lib/gcc/arm-none-eabi/4.9.3/armv7e-m/softfp/crti.o
LOAD c:/siliconlabs/simplicitystudio/v4/developer/toolchains/gnu_arm/4.9_2015q3/bin/../lib/gcc/arm-none-eabi/4.9.3/armv7e-m/softfp/crtbegin.o
LOAD c:/siliconlabs/simplicitystudio/v4/developer/toolchains/gnu_arm/4.9_2015q3/bin/../lib/gcc/arm-none-eabi/4.9.3/../../../../arm-none-eabi/lib/armv7e-m/softfp/crt0.o
LOAD ./CMSIS/EFR32MG1P/startup_gcc_efr32mg1p.o
LOAD ./CMSIS/EFR32MG1P/system_efr32mg1p.o
LOAD ./emlib/dmactrl.o
LOAD ./emlib/dmadrv.o
LOAD ./emlib/em_assert.o
LOAD ./emlib/em_cmu.o
LOAD ./emlib/em_core.o
LOAD ./emlib/em_emu.o
LOAD ./emlib/em_gpio.o
LOAD ./emlib/em_ldma.o
LOAD ./emlib/em_rtcc.o
LOAD ./emlib/em_system.o
LOAD ./emlib/em_usart.o
LOAD ./emlib/rtcdriver.o
LOAD ./emlib/spidrv.o
LOAD ./src/InitDevice.o
LOAD ./src/main_1.o
START GROUP
LOAD c:/siliconlabs/simplicitystudio/v4/developer/toolchains/gnu_arm/4.9_2015q3/bin/../lib/gcc/arm-none-eabi/4.9.3/armv7e-m/softfp\libgcc.a
LOAD c:/siliconlabs/simplicitystudio/v4/developer/toolchains/gnu_arm/4.9_2015q3/bin/../lib/gcc/arm-none-eabi/4.9.3/../../../../arm-none-eabi/lib/armv7e-m/softfp\libc_nano.a
LOAD c:/siliconlabs/simplicitystudio/v4/developer/toolchains/gnu_arm/4.9_2015q3/bin/../lib/gcc/arm-none-eabi/4.9.3/../../../../arm-none-eabi/lib/armv7e-m/softfp\libnosys.a
END GROUP
START GROUP
LOAD c:/siliconlabs/simplicitystudio/v4/developer/toolchains/gnu_arm/4.9_2015q3/bin/../lib/gcc/arm-none-eabi/4.9.3/armv7e-m/softfp\libgcc.a
LOAD c:/siliconlabs/simplicitystudio/v4/developer/toolchains/gnu_arm/4.9_2015q3/bin/../lib/gcc/arm-none-eabi/4.9.3/../../../../arm-none-eabi/lib/armv7e-m/softfp\libg_nano.a
LOAD c:/siliconlabs/simplicitystudio/v4/developer/toolchains/gnu_arm/4.9_2015q3/bin/../lib/gcc/arm-none-eabi/4.9.3/../../../../arm-none-eabi/lib/armv7e-m/softfp\libc_nano.a
END GROUP
START GROUP
LOAD c:/siliconlabs/simplicitystudio/v4/developer/toolchains/gnu_arm/4.9_2015q3/bin/../lib/gcc/arm-none-eabi/4.9.3/armv7e-m/softfp\libgcc.a
LOAD c:/siliconlabs/simplicitystudio/v4/developer/toolchains/gnu_arm/4.9_2015q3/bin/../lib/gcc/arm-none-eabi/4.9.3/../../../../arm-none-eabi/lib/armv7e-m/softfp\libc_nano.a
END GROUP
LOAD c:/siliconlabs/simplicitystudio/v4/developer/toolchains/gnu_arm/4.9_2015q3/bin/../lib/gcc/arm-none-eabi/4.9.3/armv7e-m/softfp/crtend.o
LOAD c:/siliconlabs/simplicitystudio/v4/developer/toolchains/gnu_arm/4.9_2015q3/bin/../lib/gcc/arm-none-eabi/4.9.3/armv7e-m/softfp/crtn.o

.text           0x00000000     0x2d2c
 *(.vectors)
 .vectors       0x00000000       0xc8 ./CMSIS/EFR32MG1P/startup_gcc_efr32mg1p.o
                0x00000000                __Vectors
                0x000000c8                __Vectors_End = .
                0x000000c8                __Vectors_Size = (__Vectors_End - __Vectors)
                0x000000c8                __end__ = .
 *(.text*)
 .text          0x000000c8       0x5c c:/siliconlabs/simplicitystudio/v4/developer/toolchains/gnu_arm/4.9_2015q3/bin/../lib/gcc/arm-none-eabi/4.9.3/armv7e-m/softfp/crtbegin.o
 .text          0x00000124       0x74 c:/siliconlabs/simplicitystudio/v4/developer/toolchains/gnu_arm/4.9_2015q3/bin/../lib/gcc/arm-none-eabi/4.9.3/../../../../arm-none-eabi/lib/armv7e-m/softfp/crt0.o
                0x00000124                _start
                0x00000124                _mainCRTStartup
 .text          0x00000198       0x30 ./CMSIS/EFR32MG1P/startup_gcc_efr32mg1p.o
                0x00000198                Reset_Handler
                0x000001c4                USART0_TX_IRQHandler
                0x000001c4                I2C0_IRQHandler
                0x000001c4                HardFault_Handler
                0x000001c4                SysTick_Handler
                0x000001c4                USART1_RX_IRQHandler
                0x000001c4                PendSV_Handler
                0x000001c4                NMI_Handler
                0x000001c4                SYNTH_IRQHandler
                0x000001c4                WDOG0_IRQHandler
                0x000001c4                USART1_TX_IRQHandler
                0x000001c4                MSC_IRQHandler
                0x000001c4                ADC0_IRQHandler
                0x000001c4                UsageFault_Handler
                0x000001c4                LEUART0_IRQHandler
                0x000001c4                FPUEH_IRQHandler
                0x000001c4                GPIO_EVEN_IRQHandler
                0x000001c4                TIMER0_IRQHandler
                0x000001c4                DebugMon_Handler
                0x000001c4                LETIMER0_IRQHandler
                0x000001c4                TIMER1_IRQHandler
                0x000001c4                RFSENSE_IRQHandler
                0x000001c4                BUFC_IRQHandler
                0x000001c4                MODEM_IRQHandler
                0x000001c4                Default_Handler
                0x000001c4                RAC_SEQ_IRQHandler
                0x000001c4                FRC_PRI_IRQHandler
                0x000001c4                EMU_IRQHandler
                0x000001c4                FRC_IRQHandler
                0x000001c4                CRYOTIMER_IRQHandler
                0x000001c4                PCNT0_IRQHandler
                0x000001c4                AGC_IRQHandler
                0x000001c4                ACMP0_IRQHandler
                0x000001c4                USART0_RX_IRQHandler
                0x000001c4                MemManage_Handler
                0x000001c4                SVC_Handler
                0x000001c4                CRYPTO_IRQHandler
                0x000001c4                CMU_IRQHandler
                0x000001c4                RAC_RSM_IRQHandler
                0x000001c4                GPIO_ODD_IRQHandler
                0x000001c4                PROTIMER_IRQHandler
                0x000001c4                BusFault_Handler
                0x000001c4                IDAC0_IRQHandler
 .text.SystemCoreClockGet
                0x000001c8       0x44 ./CMSIS/EFR32MG1P/system_efr32mg1p.o
                0x000001c8                SystemCoreClockGet
 .text.SystemMaxCoreClockGet
                0x0000020c       0x14 ./CMSIS/EFR32MG1P/system_efr32mg1p.o
                0x0000020c                SystemMaxCoreClockGet
 .text.SystemHFClockGet
                0x00000220       0x70 ./CMSIS/EFR32MG1P/system_efr32mg1p.o
                0x00000220                SystemHFClockGet
 .text.SystemInit
                0x00000290       0x20 ./CMSIS/EFR32MG1P/system_efr32mg1p.o
                0x00000290                SystemInit
 .text.SystemLFRCOClockGet
                0x000002b0       0x14 ./CMSIS/EFR32MG1P/system_efr32mg1p.o
                0x000002b0                SystemLFRCOClockGet
 .text.SystemULFRCOClockGet
                0x000002c4       0x14 ./CMSIS/EFR32MG1P/system_efr32mg1p.o
                0x000002c4                SystemULFRCOClockGet
 .text.SystemLFXOClockGet
                0x000002d8       0x18 ./CMSIS/EFR32MG1P/system_efr32mg1p.o
                0x000002d8                SystemLFXOClockGet
 .text.LDMA_IRQHandler
                0x000002f0       0xdc ./emlib/dmadrv.o
                0x000002f0                LDMA_IRQHandler
 .text.BUS_RegBitWrite
                0x000003cc       0x2c ./emlib/em_cmu.o
 .text.BUS_RegBitRead
                0x000003f8       0x2c ./emlib/em_cmu.o
 .text.BUS_RegMaskedSet
                0x00000424       0x24 ./emlib/em_cmu.o
 .text.BUS_RegMaskedClear
                0x00000448       0x24 ./emlib/em_cmu.o
 .text.BUS_RegMaskedWrite
                0x0000046c       0x24 ./emlib/em_cmu.o
 .text.BUS_RegMaskedRead
                0x00000490       0x20 ./emlib/em_cmu.o
 .text.CMU_Log2ToDiv
                0x000004b0       0x1c ./emlib/em_cmu.o
 .text.setHfLeConfig
                0x000004cc       0x3c ./emlib/em_cmu.o
 .text.getHfLeConfig
                0x00000508       0x2c ./emlib/em_cmu.o
 .text.auxClkGet
                0x00000534       0x20 ./emlib/em_cmu.o
 .text.dbgClkGet
                0x00000554       0x40 ./emlib/em_cmu.o
 .text.flashWaitStateControl
                0x00000594       0x78 ./emlib/em_cmu.o
 .text.flashWaitStateMax
                0x0000060c       0x14 ./emlib/em_cmu.o
 .text.getRegIshUpperVal
                0x00000620       0x38 ./emlib/em_cmu.o
 .text.lfClkGet
                0x00000658       0xec ./emlib/em_cmu.o
 .text.syncReg  0x00000744       0x38 ./emlib/em_cmu.o
 .text.CMU_ClockEnable
                0x0000077c       0xcc ./emlib/em_cmu.o
                0x0000077c                CMU_ClockEnable
 .text.CMU_ClockFreqGet
                0x00000848      0x188 ./emlib/em_cmu.o
                0x00000848                CMU_ClockFreqGet
 .text.CMU_ClockSelectGet
                0x000009d0      0x14c ./emlib/em_cmu.o
                0x000009d0                CMU_ClockSelectGet
 .text.CMU_ClockSelectSet
                0x00000b1c      0x1c4 ./emlib/em_cmu.o
                0x00000b1c                CMU_ClockSelectSet
 .text.CMU_HFXOInit
                0x00000ce0      0x110 ./emlib/em_cmu.o
                0x00000ce0                CMU_HFXOInit
 .text.CMU_OscillatorEnable
                0x00000df0      0x180 ./emlib/em_cmu.o
                0x00000df0                CMU_OscillatorEnable
 .text.CMU_OscillatorTuningGet
                0x00000f70       0x74 ./emlib/em_cmu.o
                0x00000f70                CMU_OscillatorTuningGet
 .text.CMU_OscillatorTuningSet
                0x00000fe4      0x100 ./emlib/em_cmu.o
                0x00000fe4                CMU_OscillatorTuningSet
 .text.CMU_OscillatorTuningWait
                0x000010e4       0x94 ./emlib/em_cmu.o
                0x000010e4                CMU_OscillatorTuningWait
 .text.CMU_OscillatorTuningOptimize
                0x00001178       0x54 ./emlib/em_cmu.o
                0x00001178                CMU_OscillatorTuningOptimize
 .text.CORE_EnterAtomic
                0x000011cc       0x20 ./emlib/em_core.o
                0x000011cc                CORE_EnterAtomic
 .text.CORE_ExitAtomic
                0x000011ec       0x1c ./emlib/em_core.o
                0x000011ec                CORE_ExitAtomic
 .text.BUS_RegBitWrite
                0x00001208       0x2c ./emlib/em_emu.o
 .text.BUS_RegBitRead
                0x00001234       0x2c ./emlib/em_emu.o
 .text.SYSTEM_GetDevinfoRev
                0x00001260       0x18 ./emlib/em_emu.o
 .text.EMU_EM23Init
                0x00001278       0x14 ./emlib/em_emu.o
                0x00001278                EMU_EM23Init
 .text.EMU_EM4Init
                0x0000128c       0x74 ./emlib/em_emu.o
                0x0000128c                EMU_EM4Init
 .text.dcdcConstCalibrationLoad
                0x00001300       0xc4 ./emlib/em_emu.o
 .text.dcdcValidatedConfigSet
                0x000013c4       0xb0 ./emlib/em_emu.o
 .text.currentLimitersUpdate
                0x00001474       0xec ./emlib/em_emu.o
 .text.userCurrentLimitsSet
                0x00001560       0x2c ./emlib/em_emu.o
 .text.compCtrlSet
                0x0000158c       0x3c ./emlib/em_emu.o
 .text.lpCmpHystCalibrationLoad
                0x000015c8       0xd0 ./emlib/em_emu.o
 .text.lpGetDevinfoVrefLowHigh
                0x00001698      0x15c ./emlib/em_emu.o
 .text.EMU_DCDCModeSet
                0x000017f4       0x88 ./emlib/em_emu.o
                0x000017f4                EMU_DCDCModeSet
 .text.EMU_DCDCInit
                0x0000187c      0x114 ./emlib/em_emu.o
                0x0000187c                EMU_DCDCInit
 .text.EMU_DCDCOutputVoltageSet
                0x00001990      0x20c ./emlib/em_emu.o
                0x00001990                EMU_DCDCOutputVoltageSet
 .text.EMU_DCDCOptimizeSlice
                0x00001b9c       0xd8 ./emlib/em_emu.o
                0x00001b9c                EMU_DCDCOptimizeSlice
 .text.EMU_DCDCLnRcoBandSet
                0x00001c74       0x54 ./emlib/em_emu.o
                0x00001c74                EMU_DCDCLnRcoBandSet
 .text.BUS_RegBitWrite
                0x00001cc8       0x2c ./emlib/em_gpio.o
 .text.GPIO_PinOutClear
                0x00001cf4       0x54 ./emlib/em_gpio.o
 .text.GPIO_PinOutSet
                0x00001d48       0x54 ./emlib/em_gpio.o
 .text.GPIO_PinModeSet
                0x00001d9c      0x10c ./emlib/em_gpio.o
                0x00001d9c                GPIO_PinModeSet
 .text.SYSTEM_ChipRevisionGet
                0x00001ea8       0x74 ./emlib/em_system.o
                0x00001ea8                SYSTEM_ChipRevisionGet
 .text.BUS_RegMaskedSet
                0x00001f1c       0x24 ./emlib/em_usart.o
 .text.BUS_RegMaskedClear
                0x00001f40       0x24 ./emlib/em_usart.o
 .text.BUS_RegMaskedWrite
                0x00001f64       0x24 ./emlib/em_usart.o
 .text.USART_BaudrateSyncSet
                0x00001f88       0x54 ./emlib/em_usart.o
                0x00001f88                USART_BaudrateSyncSet
 .text.USART_Enable
                0x00001fdc       0x4c ./emlib/em_usart.o
                0x00001fdc                USART_Enable
 .text.USART_InitSync
                0x00002028       0xf0 ./emlib/em_usart.o
                0x00002028                USART_InitSync
 .text.USART_InitPrsTrigger
                0x00002118       0x64 ./emlib/em_usart.o
                0x00002118                USART_InitPrsTrigger
 .text.USART_Reset
                0x0000217c       0x94 ./emlib/em_usart.o
                0x0000217c                USART_Reset
 .text.USART_SpiTransfer
                0x00002210       0x40 ./emlib/em_usart.o
                0x00002210                USART_SpiTransfer
 .text.RTCC_ChannelCCVGet
                0x00002250       0x24 ./emlib/rtcdriver.o
 .text.RTCC_ChannelCCVSet
                0x00002274       0x28 ./emlib/rtcdriver.o
 .text.RTCC_CounterGet
                0x0000229c       0x18 ./emlib/rtcdriver.o
 .text.RTCC_IntClear
                0x000022b4       0x1c ./emlib/rtcdriver.o
 .text.RTCC_IntDisable
                0x000022d0       0x24 ./emlib/rtcdriver.o
 .text.RTCC_IntEnable
                0x000022f4       0x24 ./emlib/rtcdriver.o
 .text.RTCC_IntGetEnabled
                0x00002318       0x24 ./emlib/rtcdriver.o
 .text.RTCC_IRQHandler
                0x0000233c       0xa4 ./emlib/rtcdriver.o
                0x0000233c                RTCC_IRQHandler
 .text.checkAllTimers
                0x000023e0      0x2a8 ./emlib/rtcdriver.o
 .text.executeTimerCallbacks
                0x00002688       0x64 ./emlib/rtcdriver.o
 .text.rescheduleRtc
                0x000026ec       0xe8 ./emlib/rtcdriver.o
 .text.SYSTEM_GetProdRev
                0x000027d4       0x1c ./src/InitDevice.o
 .text.CHIP_Init
                0x000027f0       0xa8 ./src/InitDevice.o
 .text.enter_DefaultMode_from_RESET
                0x00002898       0x1c ./src/InitDevice.o
                0x00002898                enter_DefaultMode_from_RESET
 .text.EMU_enter_DefaultMode_from_RESET
                0x000028b4       0x90 ./src/InitDevice.o
                0x000028b4                EMU_enter_DefaultMode_from_RESET
 .text.CMU_enter_DefaultMode_from_RESET
                0x00002944       0x94 ./src/InitDevice.o
                0x00002944                CMU_enter_DefaultMode_from_RESET
 .text.USART0_enter_DefaultMode_from_RESET
                0x000029d8      0x164 ./src/InitDevice.o
                0x000029d8                USART0_enter_DefaultMode_from_RESET
 .text.PORTIO_enter_DefaultMode_from_RESET
                0x00002b3c       0x2c ./src/InitDevice.o
                0x00002b3c                PORTIO_enter_DefaultMode_from_RESET
 .text.main     0x00002b68       0xdc ./src/main_1.o
                0x00002b68                main
 .text.exit     0x00002c44       0x28 c:/siliconlabs/simplicitystudio/v4/developer/toolchains/gnu_arm/4.9_2015q3/bin/../lib/gcc/arm-none-eabi/4.9.3/../../../../arm-none-eabi/lib/armv7e-m/softfp\libc_nano.a(lib_a-exit.o)
                0x00002c44                exit
 .text.__libc_init_array
                0x00002c6c       0x4c c:/siliconlabs/simplicitystudio/v4/developer/toolchains/gnu_arm/4.9_2015q3/bin/../lib/gcc/arm-none-eabi/4.9.3/../../../../arm-none-eabi/lib/armv7e-m/softfp\libc_nano.a(lib_a-init.o)
                0x00002c6c                __libc_init_array
 .text.memset   0x00002cb8       0x10 c:/siliconlabs/simplicitystudio/v4/developer/toolchains/gnu_arm/4.9_2015q3/bin/../lib/gcc/arm-none-eabi/4.9.3/../../../../arm-none-eabi/lib/armv7e-m/softfp\libc_nano.a(lib_a-memset.o)
                0x00002cb8                memset
 .text._exit    0x00002cc8        0x4 c:/siliconlabs/simplicitystudio/v4/developer/toolchains/gnu_arm/4.9_2015q3/bin/../lib/gcc/arm-none-eabi/4.9.3/../../../../arm-none-eabi/lib/armv7e-m/softfp\libnosys.a(_exit.o)
                0x00002cc8                _exit
 *(.init)
 .init          0x00002ccc        0x4 c:/siliconlabs/simplicitystudio/v4/developer/toolchains/gnu_arm/4.9_2015q3/bin/../lib/gcc/arm-none-eabi/4.9.3/armv7e-m/softfp/crti.o
                0x00002ccc                _init
 .init          0x00002cd0        0x8 c:/siliconlabs/simplicitystudio/v4/developer/toolchains/gnu_arm/4.9_2015q3/bin/../lib/gcc/arm-none-eabi/4.9.3/armv7e-m/softfp/crtn.o
 *(.fini)
 .fini          0x00002cd8        0x4 c:/siliconlabs/simplicitystudio/v4/developer/toolchains/gnu_arm/4.9_2015q3/bin/../lib/gcc/arm-none-eabi/4.9.3/armv7e-m/softfp/crti.o
                0x00002cd8                _fini
 .fini          0x00002cdc        0x8 c:/siliconlabs/simplicitystudio/v4/developer/toolchains/gnu_arm/4.9_2015q3/bin/../lib/gcc/arm-none-eabi/4.9.3/armv7e-m/softfp/crtn.o
 *crtbegin.o(.ctors)
 *crtbegin?.o(.ctors)
 *(EXCLUDE_FILE(*crtend.o *crtend?.o) .ctors)
 *(SORT(.ctors.*))
 *(.ctors)
 *crtbegin.o(.dtors)
 *crtbegin?.o(.dtors)
 *(EXCLUDE_FILE(*crtend.o *crtend?.o) .dtors)
 *(SORT(.dtors.*))
 *(.dtors)
 *(.rodata*)
 .rodata        0x00002ce4       0x3c ./src/InitDevice.o
 .rodata.str1.1
                0x00002d20        0x2 c:/siliconlabs/simplicitystudio/v4/developer/toolchains/gnu_arm/4.9_2015q3/bin/../lib/gcc/arm-none-eabi/4.9.3/../../../../arm-none-eabi/lib/armv7e-m/softfp\libc_nano.a(lib_a-impure.o)
 *fill*         0x00002d22        0x2 
 .rodata._global_impure_ptr
                0x00002d24        0x4 c:/siliconlabs/simplicitystudio/v4/developer/toolchains/gnu_arm/4.9_2015q3/bin/../lib/gcc/arm-none-eabi/4.9.3/../../../../arm-none-eabi/lib/armv7e-m/softfp\libc_nano.a(lib_a-impure.o)
                0x00002d24                _global_impure_ptr
 *(.eh_frame*)
 .eh_frame      0x00002d28        0x0 c:/siliconlabs/simplicitystudio/v4/developer/toolchains/gnu_arm/4.9_2015q3/bin/../lib/gcc/arm-none-eabi/4.9.3/armv7e-m/softfp/crtbegin.o
 .eh_frame      0x00002d28        0x4 c:/siliconlabs/simplicitystudio/v4/developer/toolchains/gnu_arm/4.9_2015q3/bin/../lib/gcc/arm-none-eabi/4.9.3/armv7e-m/softfp/crtend.o

.glue_7         0x00002d2c        0x0
 .glue_7        0x00000000        0x0 linker stubs

.glue_7t        0x00002d2c        0x0
 .glue_7t       0x00000000        0x0 linker stubs

.vfp11_veneer   0x00002d2c        0x0
 .vfp11_veneer  0x00000000        0x0 linker stubs

.v4_bx          0x00002d2c        0x0
 .v4_bx         0x00000000        0x0 linker stubs

.iplt           0x00002d2c        0x0
 .iplt          0x00000000        0x0 c:/siliconlabs/simplicitystudio/v4/developer/toolchains/gnu_arm/4.9_2015q3/bin/../lib/gcc/arm-none-eabi/4.9.3/armv7e-m/softfp/crtbegin.o

.ARM.extab
 *(.ARM.extab* .gnu.linkonce.armextab.*)
                0x00002d2c                __exidx_start = .

.ARM.exidx      0x00002d2c        0x8
 *(.ARM.exidx* .gnu.linkonce.armexidx.*)
 .ARM.exidx     0x00002d2c        0x8 c:/siliconlabs/simplicitystudio/v4/developer/toolchains/gnu_arm/4.9_2015q3/bin/../lib/gcc/arm-none-eabi/4.9.3/../../../../arm-none-eabi/lib/armv7e-m/softfp/crt0.o
                0x00002d34                __exidx_end = .
                0x00002d34                __etext = .

.rel.dyn        0x00002d34        0x0
 .rel.iplt      0x00000000        0x0 c:/siliconlabs/simplicitystudio/v4/developer/toolchains/gnu_arm/4.9_2015q3/bin/../lib/gcc/arm-none-eabi/4.9.3/armv7e-m/softfp/crtbegin.o

.data           0x20000000       0x7c load address 0x00002d34
                0x20000000                __data_start__ = .
 *(vtable)
 *(.data*)
 .data.SystemHFXOClock
                0x20000000        0x4 ./CMSIS/EFR32MG1P/system_efr32mg1p.o
 .data.SystemLFXOClock
                0x20000004        0x4 ./CMSIS/EFR32MG1P/system_efr32mg1p.o
 .data.SystemHfrcoFreq
                0x20000008        0x4 ./CMSIS/EFR32MG1P/system_efr32mg1p.o
                0x20000008                SystemHfrcoFreq
 .data.auxHfrcoFreq
                0x2000000c        0x4 ./emlib/em_cmu.o
 .data.impure_data
                0x20000010       0x60 c:/siliconlabs/simplicitystudio/v4/developer/toolchains/gnu_arm/4.9_2015q3/bin/../lib/gcc/arm-none-eabi/4.9.3/../../../../arm-none-eabi/lib/armv7e-m/softfp\libc_nano.a(lib_a-impure.o)
                0x20000070                . = ALIGN (0x4)
 *(.ram)
                0x20000070                . = ALIGN (0x4)
                0x20000070                PROVIDE (__preinit_array_start, .)
 *(.preinit_array)
                0x20000070                PROVIDE (__preinit_array_end, .)
                0x20000070                . = ALIGN (0x4)
                0x20000070                PROVIDE (__init_array_start, .)
 *(SORT(.init_array.*))
 *(.init_array)
 .init_array    0x20000070        0x4 c:/siliconlabs/simplicitystudio/v4/developer/toolchains/gnu_arm/4.9_2015q3/bin/../lib/gcc/arm-none-eabi/4.9.3/armv7e-m/softfp/crtbegin.o
                0x20000074                PROVIDE (__init_array_end, .)
                0x20000074                . = ALIGN (0x4)
                0x20000074                PROVIDE (__fini_array_start, .)
 *(SORT(.fini_array.*))
 *(.fini_array)
 .fini_array    0x20000074        0x4 c:/siliconlabs/simplicitystudio/v4/developer/toolchains/gnu_arm/4.9_2015q3/bin/../lib/gcc/arm-none-eabi/4.9.3/armv7e-m/softfp/crtbegin.o
                0x20000078                PROVIDE (__fini_array_end, .)
 *(.jcr*)
 .jcr           0x20000078        0x0 c:/siliconlabs/simplicitystudio/v4/developer/toolchains/gnu_arm/4.9_2015q3/bin/../lib/gcc/arm-none-eabi/4.9.3/armv7e-m/softfp/crtbegin.o
 .jcr           0x20000078        0x4 c:/siliconlabs/simplicitystudio/v4/developer/toolchains/gnu_arm/4.9_2015q3/bin/../lib/gcc/arm-none-eabi/4.9.3/armv7e-m/softfp/crtend.o
                0x2000007c                . = ALIGN (0x4)
                0x2000007c                __data_end__ = .

.igot.plt       0x2000007c        0x0 load address 0x00002db0
 .igot.plt      0x00000000        0x0 c:/siliconlabs/simplicitystudio/v4/developer/toolchains/gnu_arm/4.9_2015q3/bin/../lib/gcc/arm-none-eabi/4.9.3/armv7e-m/softfp/crtbegin.o

.bss            0x20000080      0x254 load address 0x00002db8
                0x20000080                . = ALIGN (0x4)
                0x20000080                __bss_start__ = .
 *(.bss*)
 .bss           0x20000080       0x1c c:/siliconlabs/simplicitystudio/v4/developer/toolchains/gnu_arm/4.9_2015q3/bin/../lib/gcc/arm-none-eabi/4.9.3/armv7e-m/softfp/crtbegin.o
 .bss.chTable   0x2000009c       0x80 ./emlib/dmadrv.o
 .bss.dmaXfer   0x2000011c      0x100 ./emlib/dmadrv.o
 .bss.errataFixDcdcHsState
                0x2000021c        0x1 ./emlib/em_emu.o
 *fill*         0x2000021d        0x1 
 .bss.dcdcMaxCurrent_mA
                0x2000021e        0x2 ./emlib/em_emu.o
 .bss.dcdcEm01LoadCurrent_mA
                0x20000220        0x2 ./emlib/em_emu.o
 .bss.dcdcReverseCurrentControl
                0x20000222        0x2 ./emlib/em_emu.o
 *fill*         0x20000224        0x4 
 .bss.timer     0x20000228       0xa0 ./emlib/rtcdriver.o
 .bss.lastStart
                0x200002c8        0x4 ./emlib/rtcdriver.o
 .bss.inTimerIRQ
                0x200002cc        0x1 ./emlib/rtcdriver.o
 .bss.rtcRunning
                0x200002cd        0x1 ./emlib/rtcdriver.o
 *(COMMON)
 *fill*         0x200002ce        0x2 
 COMMON         0x200002d0        0x4 ./CMSIS/EFR32MG1P/system_efr32mg1p.o
                0x200002d0                SystemCoreClock
                0x200002d4                . = ALIGN (0x4)
                0x200002d4                __bss_end__ = .

.heap           0x200002d8      0xc00
                0x200002d8                __HeapBase = .
                0x200002d8                __end__ = .
                0x200002d8                end = __end__
                0x200002d8                _end = __end__
 *(.heap*)
 .heap          0x200002d8      0xc00 ./CMSIS/EFR32MG1P/startup_gcc_efr32mg1p.o
                0x20000ed8                __HeapLimit = .

.stack_dummy    0x200002d8      0x400
 *(.stack*)
 .stack         0x200002d8      0x400 ./CMSIS/EFR32MG1P/startup_gcc_efr32mg1p.o
                0x20008000                __StackTop = (ORIGIN (RAM) + 0x8000)
                0x20007c00                __StackLimit = (__StackTop - SIZEOF (.stack_dummy))
                0x20008000                PROVIDE (__stack, __StackTop)
                0x00000001                ASSERT ((__StackLimit >= __HeapLimit), region RAM overflowed with stack)
                0x00000001                ASSERT ((0x40000 >= (__etext + SIZEOF (.data))), FLASH memory overflowed !)
OUTPUT(Chapter9Flash.axf elf32-littlearm)

.ARM.attributes
                0x00000000       0x2e
 .ARM.attributes
                0x00000000       0x22 c:/siliconlabs/simplicitystudio/v4/developer/toolchains/gnu_arm/4.9_2015q3/bin/../lib/gcc/arm-none-eabi/4.9.3/armv7e-m/softfp/crti.o
 .ARM.attributes
                0x00000022       0x32 c:/siliconlabs/simplicitystudio/v4/developer/toolchains/gnu_arm/4.9_2015q3/bin/../lib/gcc/arm-none-eabi/4.9.3/armv7e-m/softfp/crtbegin.o
 .ARM.attributes
                0x00000054       0x20 c:/siliconlabs/simplicitystudio/v4/developer/toolchains/gnu_arm/4.9_2015q3/bin/../lib/gcc/arm-none-eabi/4.9.3/../../../../arm-none-eabi/lib/armv7e-m/softfp/crt0.o
 .ARM.attributes
                0x00000074       0x1f ./CMSIS/EFR32MG1P/startup_gcc_efr32mg1p.o
 .ARM.attributes
                0x00000093       0x37 ./CMSIS/EFR32MG1P/system_efr32mg1p.o
 .ARM.attributes
                0x000000ca       0x37 ./emlib/dmadrv.o
 .ARM.attributes
                0x00000101       0x37 ./emlib/em_cmu.o
 .ARM.attributes
                0x00000138       0x37 ./emlib/em_core.o
 .ARM.attributes
                0x0000016f       0x37 ./emlib/em_emu.o
 .ARM.attributes
                0x000001a6       0x37 ./emlib/em_gpio.o
 .ARM.attributes
                0x000001dd       0x37 ./emlib/em_system.o
 .ARM.attributes
                0x00000214       0x37 ./emlib/em_usart.o
 .ARM.attributes
                0x0000024b       0x37 ./emlib/rtcdriver.o
 .ARM.attributes
                0x00000282       0x37 ./src/InitDevice.o
 .ARM.attributes
                0x000002b9       0x37 ./src/main_1.o
 .ARM.attributes
                0x000002f0       0x32 c:/siliconlabs/simplicitystudio/v4/developer/toolchains/gnu_arm/4.9_2015q3/bin/../lib/gcc/arm-none-eabi/4.9.3/../../../../arm-none-eabi/lib/armv7e-m/softfp\libc_nano.a(lib_a-exit.o)
 .ARM.attributes
                0x00000322       0x32 c:/siliconlabs/simplicitystudio/v4/developer/toolchains/gnu_arm/4.9_2015q3/bin/../lib/gcc/arm-none-eabi/4.9.3/../../../../arm-none-eabi/lib/armv7e-m/softfp\libc_nano.a(lib_a-impure.o)
 .ARM.attributes
                0x00000354       0x32 c:/siliconlabs/simplicitystudio/v4/developer/toolchains/gnu_arm/4.9_2015q3/bin/../lib/gcc/arm-none-eabi/4.9.3/../../../../arm-none-eabi/lib/armv7e-m/softfp\libc_nano.a(lib_a-init.o)
 .ARM.attributes
                0x00000386       0x32 c:/siliconlabs/simplicitystudio/v4/developer/toolchains/gnu_arm/4.9_2015q3/bin/../lib/gcc/arm-none-eabi/4.9.3/../../../../arm-none-eabi/lib/armv7e-m/softfp\libc_nano.a(lib_a-memset.o)
 .ARM.attributes
                0x000003b8       0x32 c:/siliconlabs/simplicitystudio/v4/developer/toolchains/gnu_arm/4.9_2015q3/bin/../lib/gcc/arm-none-eabi/4.9.3/../../../../arm-none-eabi/lib/armv7e-m/softfp\libnosys.a(_exit.o)
 .ARM.attributes
                0x000003ea       0x32 c:/siliconlabs/simplicitystudio/v4/developer/toolchains/gnu_arm/4.9_2015q3/bin/../lib/gcc/arm-none-eabi/4.9.3/armv7e-m/softfp/crtend.o
 .ARM.attributes
                0x0000041c       0x22 c:/siliconlabs/simplicitystudio/v4/developer/toolchains/gnu_arm/4.9_2015q3/bin/../lib/gcc/arm-none-eabi/4.9.3/armv7e-m/softfp/crtn.o

.comment        0x00000000       0x70
 .comment       0x00000000       0x70 ./CMSIS/EFR32MG1P/system_efr32mg1p.o
                                 0x71 (size before relaxing)
 .comment       0x00000000       0x71 ./emlib/dmadrv.o
 .comment       0x00000000       0x71 ./emlib/em_cmu.o
 .comment       0x00000000       0x71 ./emlib/em_core.o
 .comment       0x00000000       0x71 ./emlib/em_emu.o
 .comment       0x00000000       0x71 ./emlib/em_gpio.o
 .comment       0x00000000       0x71 ./emlib/em_system.o
 .comment       0x00000000       0x71 ./emlib/em_usart.o
 .comment       0x00000000       0x71 ./emlib/rtcdriver.o
 .comment       0x00000000       0x71 ./src/InitDevice.o
 .comment       0x00000000       0x71 ./src/main_1.o

.debug_line     0x00000000     0x41e7
 .debug_line    0x00000000       0x76 ./CMSIS/EFR32MG1P/startup_gcc_efr32mg1p.o
 .debug_line    0x00000076      0x2f0 ./CMSIS/EFR32MG1P/system_efr32mg1p.o
 .debug_line    0x00000366      0x5ba ./emlib/dmadrv.o
 .debug_line    0x00000920      0xa88 ./emlib/em_cmu.o
 .debug_line    0x000013a8      0x5f6 ./emlib/em_core.o
 .debug_line    0x0000199e      0xb78 ./emlib/em_emu.o
 .debug_line    0x00002516      0x4d3 ./emlib/em_gpio.o
 .debug_line    0x000029e9      0x2c3 ./emlib/em_system.o
 .debug_line    0x00002cac      0x5ff ./emlib/em_usart.o
 .debug_line    0x000032ab      0x704 ./emlib/rtcdriver.o
 .debug_line    0x000039af      0x57d ./src/InitDevice.o
 .debug_line    0x00003f2c      0x2bb ./src/main_1.o

.debug_info     0x00000000     0xac7c
 .debug_info    0x00000000       0xa9 ./CMSIS/EFR32MG1P/startup_gcc_efr32mg1p.o
 .debug_info    0x000000a9      0x871 ./CMSIS/EFR32MG1P/system_efr32mg1p.o
 .debug_info    0x0000091a     0x13f8 ./emlib/dmadrv.o
 .debug_info    0x00001d12     0x1adf ./emlib/em_cmu.o
 .debug_info    0x000037f1      0xca4 ./emlib/em_core.o
 .debug_info    0x00004495     0x1ef4 ./emlib/em_emu.o
 .debug_info    0x00006389      0xa06 ./emlib/em_gpio.o
 .debug_info    0x00006d8f      0x270 ./emlib/em_system.o
 .debug_info    0x00006fff     0x1025 ./emlib/em_usart.o
 .debug_info    0x00008024     0x111e ./emlib/rtcdriver.o
 .debug_info    0x00009142     0x1785 ./src/InitDevice.o
 .debug_info    0x0000a8c7      0x3b5 ./src/main_1.o

.debug_abbrev   0x00000000     0x1680
 .debug_abbrev  0x00000000       0x14 ./CMSIS/EFR32MG1P/startup_gcc_efr32mg1p.o
 .debug_abbrev  0x00000014      0x1a9 ./CMSIS/EFR32MG1P/system_efr32mg1p.o
 .debug_abbrev  0x000001bd      0x25f ./emlib/dmadrv.o
 .debug_abbrev  0x0000041c      0x307 ./emlib/em_cmu.o
 .debug_abbrev  0x00000723      0x239 ./emlib/em_core.o
 .debug_abbrev  0x0000095c      0x326 ./emlib/em_emu.o
 .debug_abbrev  0x00000c82      0x1e9 ./emlib/em_gpio.o
 .debug_abbrev  0x00000e6b       0xfc ./emlib/em_system.o
 .debug_abbrev  0x00000f67      0x209 ./emlib/em_usart.o
 .debug_abbrev  0x00001170      0x284 ./emlib/rtcdriver.o
 .debug_abbrev  0x000013f4      0x1a7 ./src/InitDevice.o
 .debug_abbrev  0x0000159b       0xe5 ./src/main_1.o

.debug_aranges  0x00000000      0x878
 .debug_aranges
                0x00000000       0x20 ./CMSIS/EFR32MG1P/startup_gcc_efr32mg1p.o
 .debug_aranges
                0x00000020       0x68 ./CMSIS/EFR32MG1P/system_efr32mg1p.o
 .debug_aranges
                0x00000088       0xa0 ./emlib/dmadrv.o
 .debug_aranges
                0x00000128      0x190 ./emlib/em_cmu.o
 .debug_aranges
                0x000002b8       0xe8 ./emlib/em_core.o
 .debug_aranges
                0x000003a0      0x178 ./emlib/em_emu.o
 .debug_aranges
                0x00000518       0x88 ./emlib/em_gpio.o
 .debug_aranges
                0x000005a0       0x28 ./emlib/em_system.o
 .debug_aranges
                0x000005c8       0xd0 ./emlib/em_usart.o
 .debug_aranges
                0x00000698       0xe0 ./emlib/rtcdriver.o
 .debug_aranges
                0x00000778       0xe0 ./src/InitDevice.o
 .debug_aranges
                0x00000858       0x20 ./src/main_1.o

.debug_loc      0x00000000     0x49a0
 .debug_loc     0x00000000      0x2e4 ./CMSIS/EFR32MG1P/system_efr32mg1p.o
 .debug_loc     0x000002e4      0x568 ./emlib/dmadrv.o
 .debug_loc     0x0000084c      0xf1c ./emlib/em_cmu.o
 .debug_loc     0x00001768      0x88c ./emlib/em_core.o
 .debug_loc     0x00001ff4      0xd86 ./emlib/em_emu.o
 .debug_loc     0x00002d7a      0x4b4 ./emlib/em_gpio.o
 .debug_loc     0x0000322e       0xb8 ./emlib/em_system.o
 .debug_loc     0x000032e6      0x7da ./emlib/em_usart.o
 .debug_loc     0x00003ac0      0x804 ./emlib/rtcdriver.o
 .debug_loc     0x000042c4      0x6a4 ./src/InitDevice.o
 .debug_loc     0x00004968       0x38 ./src/main_1.o

.debug_ranges   0x00000000      0x7a8
 .debug_ranges  0x00000000       0x58 ./CMSIS/EFR32MG1P/system_efr32mg1p.o
 .debug_ranges  0x00000058       0x90 ./emlib/dmadrv.o
 .debug_ranges  0x000000e8      0x180 ./emlib/em_cmu.o
 .debug_ranges  0x00000268       0xd8 ./emlib/em_core.o
 .debug_ranges  0x00000340      0x168 ./emlib/em_emu.o
 .debug_ranges  0x000004a8       0x78 ./emlib/em_gpio.o
 .debug_ranges  0x00000520       0x18 ./emlib/em_system.o
 .debug_ranges  0x00000538       0xc0 ./emlib/em_usart.o
 .debug_ranges  0x000005f8       0xd0 ./emlib/rtcdriver.o
 .debug_ranges  0x000006c8       0xd0 ./src/InitDevice.o
 .debug_ranges  0x00000798       0x10 ./src/main_1.o

.debug_str      0x00000000     0x4fb7
 .debug_str     0x00000000      0x5d8 ./CMSIS/EFR32MG1P/system_efr32mg1p.o
                                0x64a (size before relaxing)
 .debug_str     0x000005d8      0xe73 ./emlib/dmadrv.o
                               0x10d2 (size before relaxing)
 .debug_str     0x0000144b      0xdfe ./emlib/em_cmu.o
                               0x135b (size before relaxing)
 .debug_str     0x00002249      0x4ed ./emlib/em_core.o
                                0x7cd (size before relaxing)
 .debug_str     0x00002736      0xde0 ./emlib/em_emu.o
                               0x17f8 (size before relaxing)
 .debug_str     0x00003516      0x430 ./emlib/em_gpio.o
                                0x841 (size before relaxing)
 .debug_str     0x00003946       0xbb ./emlib/em_system.o
                                0x30e (size before relaxing)
 .debug_str     0x00003a01      0x9c1 ./emlib/em_usart.o
                                0xe47 (size before relaxing)
 .debug_str     0x000043c2      0x899 ./emlib/rtcdriver.o
                                0xff5 (size before relaxing)
 .debug_str     0x00004c5b      0x341 ./src/InitDevice.o
                               0x184d (size before relaxing)
 .debug_str     0x00004f9c       0x1b ./src/main_1.o
                                0x4dc (size before relaxing)

.debug_frame    0x00000000     0x22bc
 .debug_frame   0x00000000      0x164 ./CMSIS/EFR32MG1P/system_efr32mg1p.o
 .debug_frame   0x00000164      0x280 ./emlib/dmadrv.o
 .debug_frame   0x000003e4      0x6dc ./emlib/em_cmu.o
 .debug_frame   0x00000ac0      0x3dc ./emlib/em_core.o
 .debug_frame   0x00000e9c      0x640 ./emlib/em_emu.o
 .debug_frame   0x000014dc      0x228 ./emlib/em_gpio.o
 .debug_frame   0x00001704       0x60 ./emlib/em_system.o
 .debug_frame   0x00001764      0x384 ./emlib/em_usart.o
 .debug_frame   0x00001ae8      0x3cc ./emlib/rtcdriver.o
 .debug_frame   0x00001eb4      0x344 ./src/InitDevice.o
 .debug_frame   0x000021f8       0x30 ./src/main_1.o
 .debug_frame   0x00002228       0x28 c:/siliconlabs/simplicitystudio/v4/developer/toolchains/gnu_arm/4.9_2015q3/bin/../lib/gcc/arm-none-eabi/4.9.3/../../../../arm-none-eabi/lib/armv7e-m/softfp\libc_nano.a(lib_a-exit.o)
 .debug_frame   0x00002250       0x2c c:/siliconlabs/simplicitystudio/v4/developer/toolchains/gnu_arm/4.9_2015q3/bin/../lib/gcc/arm-none-eabi/4.9.3/../../../../arm-none-eabi/lib/armv7e-m/softfp\libc_nano.a(lib_a-init.o)
 .debug_frame   0x0000227c       0x20 c:/siliconlabs/simplicitystudio/v4/developer/toolchains/gnu_arm/4.9_2015q3/bin/../lib/gcc/arm-none-eabi/4.9.3/../../../../arm-none-eabi/lib/armv7e-m/softfp\libc_nano.a(lib_a-memset.o)
 .debug_frame   0x0000229c       0x20 c:/siliconlabs/simplicitystudio/v4/developer/toolchains/gnu_arm/4.9_2015q3/bin/../lib/gcc/arm-none-eabi/4.9.3/../../../../arm-none-eabi/lib/armv7e-m/softfp\libnosys.a(_exit.o)
