:100000000080002099010000C5010000C50100002A
:10001000C5010000C5010000C5010000C5010000C8
:10002000C5010000C5010000C5010000C5010000B8
:10003000C5010000C5010000C50100000D4400001D
:10004000C5010000C5010000C5010000C501000098
:10005000C5010000C5010000C5010000C501000088
:10006000C5010000C5010000C5010000C501000078
:10007000C5010000C5010000C5010000C501000068
:10008000C5010000C5010000F13A0000C5010000F3
:10009000C5010000C501000079480000C50100004D
:1000A000C5010000C5010000C5010000C501000038
:1000B000C5010000C5010000C5010000C501000028
:1000C000C5010000C501000010B5054C237833B907
:1000D000044B13B10448AFF300800123237010BD1B
:1000E000A000002000000000B8640000084B10B51C
:1000F0001BB108480849AFF300800848036803B9FA
:1001000010BD074B002BFBD0BDE81040184700BFC7
:1001100000000000B8640000A40000209800002047
:1001200000000000154B002B08BF134B9D46A3F5A4
:10013000803A00218B460F461348144A121A05F0E4
:10014000AEF90F4B002B00D098470E4B002B00D080
:1001500098470020002104000D000D48002802D01F
:100160000C48AFF3008005F069F92000290004F085
:10017000F3FB05F04FF900BF0000080000800020ED
:100180000000000000000000A0000020300A002055
:100190000000000000000000064880470649074AAA
:1001A000074B9A42BEBF51F8040B42F8040BF8E724
:1001B000FFF7B8FF91020000C464000000000020B7
:1001C0009C000020FEE700BF80B582B000AF00F0C9
:1001D00027F878600A4BD3F808210A4B13401B0A12
:1001E0003B603B6801337A68B2FBF3F37B60064AFD
:1001F0007B6813607B6818460837BD4680BD00BF2A
:1002000000400E4000FF01000800002080B400AF55
:10021000024B1846BD465DF8047B704700F049026A
:1002200080B483B000AF164BD3F8943003F00703CB
:10023000032B08D0042B02D0022B08D00BE0114B6B
:100240001B687B600BE04FF400437B6007E00E4BC4
:100250001B687B6003E00D4B1B687B6000BF084B95
:10026000D3F8003103F4F8531B0A01337A68B2FB68
:10027000F3F318460C37BD465DF8047B704700BFAA
:1002800000400E4004000020000000200C00002070
:1002900080B400AF114A114BD3F8883043F4700397
:1002A000C2F888300E4A0E4B5B6D43F40053536521
:1002B0000B4A0B4B1B6C23F003031364094A094BD5
:1002C0001B6823F001031360074A074B1B6823F0E8
:1002D00080531360BD465DF8047B704700ED00E07D
:1002E00000300E4074300E4060300E4080B400AFDD
:1002F0004FF400431846BD465DF8047B704700BFCD
:1003000080B400AF4FF47A731846BD465DF8047BA5
:10031000704700BF80B400AF034B1B681846BD4652
:100320005DF8047B704700BF0400002080B582B0F8
:1003300000AF114B7B60114B1B7883F00103DBB2E4
:10034000002B13D00D4B01221A700BE07B681B6849
:10035000984738603B68002B01D03B6807E07B681A
:1003600004337B607B681B68002BEFD100231846A9
:100370000837BD4680BD00BF10000020E800002007
:1003800080B584B000AF78603960114B1B7883F082
:100390000103DBB2002B02D00E4BFB6012E07B6846
:1003A000002B0DDC7B682C2202FB03F30A4A13446A
:1003B000386819462C2205F067F80023FB6001E03D
:1003C000064BFB60FB6818461037BD4680BD00BF7A
:1003D000E800002005001180BC0000200200118010
:1003E00080B584B000AF7860134B1B7883F00103B5
:1003F000DBB2002B02D0114BFB6017E0104B1B68E7
:10040000002B11DC0E4B1B685A1C0D490A602C2274
:1004100002FB03F30B4A1344184679682C2205F0BB
:1004200033F80023FB6001E0074BFB60FB681846D4
:100430001037BD4680BD00BFE800002005001180D8
:10044000EC000020BC0000200100118080B58CB0C1
:1004500000AF00F071FA00F003FA00F087FA022012
:1004600008210022002300F091FA02200621002238
:10047000002300F08BFA03200E210022002300F05D
:1004800085FA03200F210022002300F07FFA0320C9
:100490000D210022002300F079FA03200D21802293
:1004A00000F0BAFAF862FB6A002B01D0FB6A27E081
:1004B000154B3B6001233B7400237B7480237B60DE
:1004C0008023FB607B68BB60104B7B61104BBB6182
:1004D000104BFB61104B3B62104B7B62104BBB62BD
:1004E0003B461846FFF77CFFF862FB6A002B06D1FB
:1004F0003B461846012100F025F800F03BF8FB6A66
:1005000018463037BD4680BDFC5C00004505000044
:10051000BD0500002D060000890600004906000008
:100520002505000080B584B000AF78600023FB6033
:1005300000F002FA00F094F9FB6818461037BD4647
:1005400080BD00BF80B582B000AF78600B46FB7005
:10055000FB78002B04D003200F2100F039FA03E0D0
:1005600003200F2100F046FA002318460837BD4645
:1005700080BD00BF80B582B000AF03200E2100F027
:1005800027FA062000F0E4F90B4B1B7843F0040334
:10059000DBB29BB2FB80BB1D1846022100F092F932
:1005A000022000F0D5F903200E2100F023FA0023E9
:1005B00018460837BD4680BDF000002080B487B0E3
:1005C00000AFF860B9607A603B60BB68DB087A68AE
:1005D00002FB03F37B61BB68802B01D00F4B16E05D
:1005E0000F4B1A687B6913440E4A934204D93B6847
:1005F00000221A600C4B0AE0094B1A683B681A602B
:10060000074B1A687B691344054A13600023184698
:100610001C37BD465DF8047B704700BF02001180A7
:1006200018000020F40800200100118080B483B07D
:1006300000AF78603960034B18460C37BD465DF853
:10064000047B70470400118080B586B000AFF8606D
:10065000B9607A603B60BB687B6100233B610AE064
:1006600078690021102204F01AFF7B6910337B6146
:100670003B6901333B613A693B689A42F0D30023FE
:1006800018461837BD4680BD80B588B000AFF86009
:10069000B9607A603B60BB68BB61BB6A0133BB6217
:1006A00003200E2100F094F9062000F051F9BB6AF6
:1006B0009BB21B029BB243F001039BB2FB8207F18A
:1006C00016031846022100F0FDF80023FB6126E026
:1006D000B869102100F0F6F8BB691033BB61FB6A02
:1006E0005A1EFB699A4203D14FF6FF73FB820DE05D
:1006F000BB6A9AB2FB699BB213449BB201339BB2B3
:100700001B029BB243F0FF039BB2FB8207F116036F
:100710001846022100F0D6F8FB690133FB61FA6943
:10072000FB6A9A42D4D3022000F012F903200E2172
:1007300000F060F9002318462037BD4680BD00BF99
:1007400080B485B000AF786039607B6803F1C06326
:10075000FB60FB683A681A601437BD465DF8047B9D
:10076000704700BF80B485B000AF786039607B68A7
:1007700003F18063FB60FB683A681A601437BD467A
:100780005DF8047B704700BF80B582B000AF0346C0
:100790003960FB71FB79002B0DD0FB79012B0AD05E
:1007A000FB79022B07D0FB79032B04D0FB79042BB8
:1007B00001D0FB79052BFA7913465B0013441B012A
:1007C0000C3303F1804303F520433A68012101FA19
:1007D00002F218461146FFF7C5FF0837BD4680BD37
:1007E00080B582B000AF03463960FB71FB79002B06
:1007F0000DD0FB79012B0AD0FB79022B07D0FB79B6
:10080000032B04D0FB79042B01D0FB79052BFA795B
:1008100013465B0013441B010C3303F1804303F5C3
:1008200020433A68012101FA02F218461146FFF707
:1008300087FF0837BD4680BD80B483B000AF7860C5
:100840003960064A7B6804331B0113443A685A60D6
:100850000C37BD465DF8047B704700BF00200440A4
:10086000B0B588B000AF0023FB61124B3C1D1D46A4
:100870000FCD0FC495E8030084E803000E48012162
:1008800001F002FB0D4BFB603B1D0D48194602F0C9
:10089000F7FD0B4B0A225A67094A094B9B6F23F05D
:1008A0001F2343F00B239367FB6918462037BD468F
:1008B000B0BD00BF145D000000320400E0673500E9
:1008C0000004014080B584B000AF78603960002337
:1008D000FB6020E03B68012B04D07B6803F0010340
:1008E000002B0CD07B681B781248194602F08AFE58
:1008F0003B68013B3B607B6801337B600BE07B68BE
:100900001B880C48194602F093FE3B68023B3B6093
:100910007B6802337B603B68002BDBD100BF054B5B
:100920001B6903F02003002BF9D0FB681846103731
:10093000BD4680BD0004014080B582B000AF0023F9
:100940007B6000F035FF7B6818460837BD4680BDE8
:1009500080B584B000AF78600023FB60786800F059
:10096000EFFFFB6818461037BD4680BD80B582B0EA
:1009700000AF00237B600448012101F085FA7B6809
:1009800018460837BD4680BD0025080080B586B0F2
:1009900000AFF860B9603B601346FB7100237B61D8
:1009A000FB79002B0DD10423FB7400BFFB68DAB286
:1009B000FB7C1046B9681A463B6802F041F97B6936
:1009C00000E0024B18461837BD4680BD0100138079
:1009D00080B584B000AF786039600023FB607B682D
:1009E000DBB218463968FFF7FBFEFB681846103784
:1009F000BD4680BD80B584B000AF7860396000230B
:100A0000FB607B68DBB218463968FFF7BDFEFB6808
:100A100018461037BD4680BD80B588B000AFF8607D
:100A2000B9607A600023FB614FF42453BB61022359
:100A30007B611348012101F027FA0420B9697A6922
:100A400002F00CFB0F4A0F4B5B6923F0070343F0E6
:100A5000040353610B4A0B4B9B6843F010039360F4
:100A6000FB68DBB21846B9680422002302F0E8F8FC
:100A7000786800F01BF8FB6918462037BD4680BD3A
:100A80000035080000600E4080B582B000AF78608D
:100A90000548012101F0F8F97868032101F048FDCB
:100AA0000837BD4680BD00BF0005080080B588B08E
:100AB00000AF7860204A07F114031068516803C33F
:100AC000127A1A7000233B761C48FFF7DDFF1C48A2
:100AD000012101F0D9F900233B7500237B75012327
:100AE000FB7507F11403184602F028FB154A07F1BD
:100AF0000C03106818609188927999809A7101238B
:100B00007B7307F10C030120194602F0D9FA0C4857
:100B100001F020FA02467B68B2FBF3F3013B0120AF
:100B20001946FFF789FE084B00229A60012002F067
:100B3000F5FA2037BD4680BD2C5D00000500200081
:100B400080091200385D00000020044080B586B0A6
:100B500002AF78602B4B1B78002B01D000234DE0B7
:100B6000FFF7E4FBF860FB68002B01D0FB6845E071
:100B700000202549FFF704FCF860FB68002B01D03A
:100B8000FB683BE0214800F0F7F9F860FB68002BB8
:100B900001D0FB6832E01D4B1B68002B01D10B23F9
:100BA0002CE0194B5B689AB2194B1A80164BDB6824
:100BB0009AB2174B5A80164B00229A80144B00228F
:100BC000DA80134B1A88124B1A81114B5A88104B3A
:100BD0005A810C4B01221A700D4B1B881A460C4B84
:100BE0005B8803FB02F31A46002300930192002066
:100BF00000210022002300F06FF800231846103770
:100C0000BD4680BDF4080020F8080020240900201B
:100C10002809002080B483B000AF7860094B1B78AE
:100C200083F00103DBB2002B01D0012303E07B68DA
:100C3000054A1A60002318460C37BD465DF8047B50
:100C4000704700BFF40800202809002090B482B04B
:100C500000AF0446084611461A462346FB80034669
:100C6000BB800B467B8013463B80194B1B7883F07F
:100C70000103DBB2002B01D0012324E0FA887B883A
:100C80001344144A1288934206DCBA883B88134402
:100C9000104A5288934201DD042314E07B88002B24
:100CA00002D03B88002B01D105230CE0094AFB88C8
:100CB0009380084ABB88D380064A7B881381054A03
:100CC0003B885381002318460837BD4690BC7047C7
:100CD000F40800202809002090B58DB000AF04462C
:100CE000084611461A462346FB800346BB800B4646
:100CF000FB701346BB709B4B1B7883F00103DBB288
:100D0000002B01D0012329E1974B1B68002B01D157
:100D1000012323E1954B5B7C002B01D00A231DE1CD
:100D200000237B62914B9B68DB083B628F4B1B7CF3
:100D3000012B01D1BB7805E0BB78002B0CBF012350
:100D40000023DBB2FB61FB69002B01D0FF2300E035
:100D50000023FB76864BDA88BB881344BB80824B2A
:100D60001B68BA88396A01FB02F213447B61EFE029
:100D70007F4B1B891A46FB88D31A1A467B6C934219
:100D800028BF1346FB627A6CFB6AD31A7B64784BEC
:100D90009A88FB881344FB807B6A3A6A02FB03F360
:100DA0001A467B691344BB62FB6A072B4ED8FB884B
:100DB000FA6A1344FB62FB69002B22D01CE0FB881B
:100DC000DB089BB21A46BB6A1344FA88D20892B277
:100DD0001146BA6A0A441278D0B2FA8802F00702C1
:100DE000012101FA02F2D2B201460A43D2B2D2B2D2
:100DF0001A70FB880133FB80FA88FB6A9A42DED3C3
:100E00008AE01EE0FB88DB089BB21A46BB6A1344EB
:100E1000FA88D20892B21146BA6A0A441278D0B25D
:100E2000FA8802F00702012101FA02F2D2B2D2439B
:100E3000D2B201460A40D2B2D2B21A70FB88013354
:100E4000FB80FA88FB6A9A42DCD365E0FB8803F0FA
:100E500007033B61FB88DB089BB21A46BB6A13445D
:100E6000BB623B69002B22D0BB6A1B78FB7301225B
:100E70003B6902FA03F3DBB2013BBB73FA7BBB7B3A
:100E80001340FB73BB7BDB43DAB2FB7E1340DAB269
:100E9000FB7B1343DBB2FB73BB6AFA7B1A70BB6A42
:100EA0000133BB623A69FB6A1344083BFB62FB6A8D
:100EB000DB08BB60BB68002B10D0FA7EBB68B86A49
:100EC00011461A4604F0EBFABB68DB001A46FB6ACF
:100ED0009B1AFB62BB68BA6A1344BB62FB6A002BB5
:100EE0001AD0BB6A1B78FB73FB6A012202FA03F378
:100EF000DBB2013BBB73BB7BDB43DAB2FB7B134052
:100F0000DBB2FB73FA7EBB7B1340DAB2FB7B13438D
:100F1000FB73BB6AFA7B1A70BA887B6A13445B1155
:100F2000B9887A6A0A445211124951F82220B888C5
:100F3000796A014401F01F01012000FA01F10A431E
:100F40000C4941F823200023FB807B6A01337B623C
:100F50007B6C002B7FF40CAF00BF002318463437A6
:100F6000BD4690BDF408002024090020F8080020A8
:100F700028090020A809002090B583B000AF786050
:100F80000F4B9C690E4B5A680D4BDB680C481146A1
:100F90001A460C4BA0470B4B1B68002B01D10B23AF
:100FA00009E0084B1A687B681A600748FF21102285
:100FB00004F075FA002318460C37BD4690BD00BFFB
:100FC000F808002024090020A8090020B0B58AB044
:100FD00002AF404B9B68DB08FB603F4B1B687B61AB
:100FE00001233B610023FB610023BB6143E07B697C
:100FF00003F00103002B03D0BB690133BB6128E080
:10100000BB69002B22D0354B1A68FB68F96901FBDC
:1010100003F31344BB602F4B1C6A2E4B5D68FB69C6
:101020000093BB6901932B48B96800222B46A04767
:1010300078607B68002B01D07B6847E0BA69FB6968
:1010400013440133FB610023BB6102E0FB69013300
:10105000FB61FA69BB69134403F01F03002B03D043
:101060007B695B087B6106E03B695A1C3A611A4A5E
:1010700052F823307B61FA69BB691A44154BDB686F
:101080009A42B4D3BB69002B1AD0144B1A68FB6880
:10109000F96901FB03F31344BB600E4B1C6A0D4B53
:1010A0005D68FB690093BB6901930A48B968002237
:1010B0002B46A04778607B68002B01D07B6805E059
:1010C00005480021102204F0EAF9002318462037D1
:1010D000BD46B0BDF8080020A80900202409002062
:1010E00080B485B000AFF860B9607A603B60FB689F
:1010F0001B0CDAB2BB681A70FB681B0ADAB27B6899
:101100001A70FB68DAB23B681A701437BD465DF896
:10111000047B704780B588B000AF78607B68002B97
:1011200001D1052331E07B6800225A607B686FF0B3
:101130007F429A6007F118031846FFF76BFDF861CC
:10114000FB69002B01D0FB691FE0BA697B681A605C
:101150000023BB600023FB60BB691B88013B3B6134
:10116000BB695B88013B7B6107F10803786819461E
:1011700000F012F8F861FB69002B01D0FB6904E074
:101180007868044900F0CCFAFB6918462037BD4660
:1011900080BD00BF9063000090B587B000AF78605D
:1011A00039607B68002B02D03B68002B01D10523FE
:1011B0003FE03B681A683B689B689A4205DA3B68E7
:1011C0005A683B68DB689A4201DB042331E03B68E4
:1011D0001B68002B13DB3B685B68002B0FDB3B6855
:1011E0009A687B681B681B88013B9A4207DC3B6856
:1011F000DA687B681B685B88013B9A4201DD032348
:1012000017E03B681B68BB603B685B68FB603B6842
:101210009B683B613B68DB687B617B6803F10C0486
:1012200007F108030FCB84E80F00786800F056F848
:10123000034618461C37BD4690BD00BFB0B588B008
:1012400002AF78607B68002B01D105232AE07B6820
:10125000586807F10B0107F10A0207F1090300F0D2
:1012600069F8786800F022F878617B69002B01D07A
:101270007B6917E07B681B681B893B617B681B6887
:101280005B89FB60FD7ABC7A7A7A3B69F96801FB7D
:1012900003F300920193002000212A462346FFF722
:1012A0001BFD034618461837BD46B0BD80B582B059
:1012B00000AF78607B68002B01D105230AE07B68D2
:1012C0001B681A887B681B685B8800200021FFF779
:1012D000BDFC034618460837BD4680BD90B583B0B7
:1012E00000AF78607B68002B01D105231DE07B688F
:1012F000DB6898B27B681B6999B27B685B699AB2BC
:101300007B68DB689BB2D31A9BB201339CB27B68CB
:101310009B699AB27B681B699BB2D31A9BB201335B
:101320009BB22246FFF792FC034618460C37BD4697
:1013300090BD00BF80B584B000AFF860B9607A603E
:101340003B60F868B9687A683B68FFF7C9FE1037F8
:10135000BD4680BD90B589B002AFF860B9607A60D3
:10136000FB68002B01D1052326E0FB680C331846EF
:10137000B9687A6800F05AF8034683F00103DBB2DB
:10138000002B01D0012317E0FB68986807F11701D3
:1013900007F1160207F11503FFF7A2FEBB6898B22A
:1013A0007B6899B2FA7DBC7D7B7D0093012301931C
:1013B0002346FFF791FC034618461C37BD4690BDF7
:1013C00090B589B002AFF860B9607A603B60FB68A5
:1013D000002B01D1052325E0FB680C331846B968C2
:1013E0007A6800F023F8034683F00103DBB2002B98
:1013F00001D0012316E007F1170107F1160207F1EA
:1014000015033868FFF76CFEBB6898B27B6899B229
:10141000FA7DBC7D7B7D0093012301932346FFF77A
:101420005BFC034618461C37BD4690BD80B485B0B2
:1014300000AFF860B9607A60FB68002B13D0FB68DE
:101440001A68BB689A420EDCFB689A68BB689A42CD
:1014500009DBFB685A687B689A4204DCFB68DA683F
:101460007B689A4201DA002300E001231846143712
:10147000BD465DF8047B704780B58CB000AFF86066
:101480007A603B600B46FB7200237B62FB68002B9B
:1014900001D10523D7E0FB7A1F2B02D9FB7A7E2BE3
:1014A00001D90223CFE0FB6893F82830022B0ED13C
:1014B000FB7A9BB2303BFB85FB7A3A2B01D10A23A6
:1014C000FB85FB7A202B06D10B23FB8503E0FB7AFF
:1014D0009BB2203BFB85FA8DFB681B8C013B9A423B
:1014E00001DD0223AFE0FB68DB693B62FB68DB697F
:1014F000FB61FB68DB69BB610023BB8595E0FB6892
:1015000093F82230012B02D0022B06D00CE0FB8D89
:101510003A6A13441B787B850CE0FB8D5B00FA690B
:1015200013441B887B8505E0FB8D9B00BA6913443F
:101530001B687B8500233B853CE07B8D03F001032A
:10154000002B16D03A8D7B68D118BA8D3B681344B6
:10155000F8681A46FFF7FEFE78617B69012B01D916
:101560007B6970E07B69002B1ED17B6A01337B6253
:101570001AE097F83830002B16D03A8D7B68D118D6
:10158000BA8D3B681A44FB685B68F868FFF718FF80
:1015900078617B69012B01D97B6954E07B69002B61
:1015A00002D17B6A01337B627B8D5B087B853B8D3F
:1015B00001333B85FB6893F824309BB23A8D9A4205
:1015C000BBD31DE097F83830002B16D03A8D7B68DE
:1015D000D118BA8D3B681A44FB685B68F868FFF75E
:1015E000EFFE78617B69012B01D97B692BE07B6978
:1015F000002B02D17B6A01337B623B8D01333B853B
:101600003A8DFB6893F824301946FB6893F827302D
:101610000B449A42D6DBFB6893F823309AB2FB8DD9
:101620001344FB85BB8D0133BB85FB6893F82530E4
:101630009BB2BA8D9A42FFF462AF7B6A002B0CBF5B
:1016400001230023DBB218463037BD4680BD00BF02
:1016500080B58CB002AFF860B9607A603B6000235F
:101660007B62FB68002B02D0BB68002B01D10523F5
:1016700052E0FB6893F82830002B01D102234BE0A5
:101680003B68FB613B6BBB6100233B623AE0BA689D
:101690003B6A13441B780A2B0DD13B68FB61FB6846
:1016A00093F825301A46BB691344FA6892F826204D
:1016B0001344BB6123E0BA683B6A13441A7897F875
:1016C00034300093F8681146FA69BB69FFF7D4FE1D
:1016D00078617B69012B01D97B691DE07B69002B57
:1016E00002D17B6A01337B62FB6893F824301A468F
:1016F000FB6893F827301344FA691344FB613B6A93
:1017000001333B623A6A7B689A42C0D37B6A002B02
:101710000CBF01230023DBB218462837BD4680BD2D
:1017200080B582B000AF786039607B68002B01D152
:10173000052313E03B68002B08D17B681C33184657
:101740000021102203F0ABFE052307E07B681C3369
:1017500018463968102203F097FE00231846083710
:10176000BD4680BD80B483B000AF0346FB7109491C
:1017700097F907305B09FA7902F01F02012000FA9D
:1017800002F2603341F823200C37BD465DF8047B3C
:10179000704700BF00E100E080B400AF034B9B68DE
:1017A0001846BD465DF8047B704700BF002004402A
:1017B00080B58AB000AF002387F82730002387F870
:1017C0002630002387F82530002387F824300023B3
:1017D00087F82330544A3B461068516803C3127A95
:1017E0001A700023FB610023BB61504BD3F8B0306B
:1017F00003F00103002B06D14D48012100F044FB0A
:10180000012387F826304B4800F0ECFD0346FB75BA
:10181000FB7D032B02D0012387F82430434BD3F800
:10182000903003F04003002B02D1012387F82330CE
:101830004048032100F07CFE3F4800F009FB38617E
:101840003A4BD3F8F03003F00103002B06D13A48AD
:10185000012100F019FB012387F8253001F056F92A
:10186000F860364B1B6803F00103002B15D0334B97
:101870001B68FB61314B5B6ABB61304B00221A6015
:101880002E4B00225A622D4B40F2FF721A621D202D
:10189000FFF768FF012387F827300023BB70002380
:1018A000FB7008233B713B46184601F047FC00F0F3
:1018B00063F8F86801F03AF997F82730002B0AD05E
:1018C0001D48396900F0D2FA1C4AFB6913601B4AB3
:1018D000BB69536202E0002001F020FC97F825303C
:1018E000002B03D01448002100F0CEFA97F82430E2
:1018F000002B04D0FB7D0F48194600F019FE97F825
:101900002330002B04D001200021002200F0F6FE3D
:1019100097F82630002B03D00548002100F0B4FAD8
:101920002837BD4680BD00BFA063000000400E40C8
:101930000005080005002000800912000020044076
:1019400080B483B000AF78607B680A49002B0CD06C
:10195000013B88221202003253430A68D80AD20A95
:101960005043800901D00138FDD80C37BD465DF8E1
:10197000047B70471C00002080B584B000AF0823B2
:10198000BB60324B4FF480521A601BE000F060F8ED
:10199000786000BF00F05CF802467B689A42F9D09C
:1019A00000F056F87860294B1B68184600F058F88C
:1019B00000F04EF802467B68D31A7B607B68002BF0
:1019C00000D006E0214B1B685B00204A1360002B0F
:1019D000DCD11E4B1B685B081C4A13601B4B1B6849
:1019E000FB6024E0194B1A68FB681343174A136025
:1019F00000F02EF8786000BF00F02AF802467B68FD
:101A00009A42F9D000F024F87860104B1B68184611
:101A100000F026F800F01CF802467B689A4206D0D7
:101A2000FB68DA43094B1B681340084A1360BB6824
:101A30005A1EBA60002B05D0FB685B08FB60FB6890
:101A4000002BCFD11037BD4680BD00BF1C00002049
:101A500080B500AFFFF7A0FE0346184680BD00BF6B
:101A600080B483B000AF78607B68013BFDD80C3751
:101A7000BD465DF8047B704780B487B000AFF86066
:101A8000B9607A60FB6803F10473DA00BB68134441
:101A90009B007B617B697A681A601C37BD465DF8E4
:101AA000047B704780B485B000AF786039607B6894
:101AB00003F10473DA003B6813449B00FB60FB688E
:101AC0001B6818461437BD465DF8047B704700BF9D
:101AD00080B485B000AF786039607B6803F1C06383
:101AE000FB60FB683A681A601437BD465DF8047BFA
:101AF000704700BF80B485B000AF786039607B6804
:101B000003F18063FB60FB683A681A601437BD46D6
:101B10005DF8047B704700BF80B584B000AFF8600B
:101B2000B9607A60F868B968FFF7E4FFF868796827
:101B3000FFF7CEFF1037BD4680BD00BF80B483B035
:101B400000AF786039607B681A683B6813401846BC
:101B50000C37BD465DF8047B704700BF80B483B08E
:101B600000AF78607B68012202FA03F318460C3755
:101B7000BD465DF8047B704780B584B000AF7860E7
:101B80007B680133B3FA83F3C3F11F03FB60F8688A
:101B9000FFF7E4FFFB6818461037BD4680BD00BF65
:101BA00080B584B000AF786039607A683B689A424B
:101BB0008CBF01230023DBB2FB6006481021FA68CA
:101BC000FFF75AFF04481821FA68FFF755FF10374E
:101BD000BD4680BD00400E4000410E4080B582B041
:101BE00000AF07481021FFF75DFF78600548182116
:101BF000FFF758FF38607B6818460837BD4680BD40
:101C000000400E4000410E4080B483B000AF054B51
:101C10001B687B607B6818460C37BD465DF8047B0B
:101C2000704700BF2000002080B582B000AF0D4893
:101C300000F0D8FB0346FB70FB78072B05D0092B7F
:101C400007D1FEF7EDFA786006E0FFF7DDFF786078
:101C500002E000237B6000BF7B6818460837BD4662
:101C600080BD00BF06000C0080B485B000AF786076
:101C7000184B1B6C002B14BF01230023FB72154B68
:101C800041F671321A64134B5B6803F04073FB60DA
:101C90007B68114A934207D87B68104A934203D964
:101CA0004FF08073FB6001E00023FB600949094BA2
:101CB0005B6823F04072FB6813434B60FB7A002B98
:101CC00002D0044B00221A641437BD465DF8047B31
:101CD000704700BF00000E40005A620280BA8C01BB
:101CE00080B500AFFEF792FA03461846FFF7BCFF37
:101CF00080BD00BF80B487B000AF78600F237B61E8
:101D00007B6803333B617B69FB60FA683B69934204
:101D100028BF1346BB60BB681B07BB60BB68184687
:101D20001C37BD465DF8047B704700BF80B584B0AA
:101D300000AF78600023BB607B68334A934206D0D3
:101D4000324A934203D0324A934200D000E000BFAF
:101D5000786800F047FB0346FB607B682A4A9342A1
:101D60000DD02A4A934211D0294A934200D014E060
:101D7000284BD3F8803003F00703FB600DE0254BC0
:101D8000D3F8843003F00703FB6006E0214BD3F85F
:101D9000883003F00703FB6000BFFB68042B2ED8DC
:101DA00001A252F823F000BFF91D0000BD1D000084
:101DB000C51D0000D51D0000CD1D0000FEF796FAE0
:101DC000B8601CE0FEF7A6FAB86018E0FEF798FAD3
:101DD000B86014E00F4BD3F8003103F08073002B90
:101DE00004D0FEF7F1F903469B0803E0FEF7ECF997
:101DF00003465B08BB6002E00023BB6000BFBB681A
:101E000018461037BD4680BD03001C0005002000A9
:101E100002001A0000400E4080B483B000AF78602A
:101E20000A4BD3F8443103F00103002B00D007E044
:101E300000BF064BD3F840217B681340002BF8D13C
:101E40000C37BD465DF8047B704700BF00400E4074
:101E500080B582B000AF7860786800F03FF9034643
:101E6000013318460837BD4680BD00BF80B582B03B
:101E700000AF786039603B68013B7868194600F034
:101E8000BDF90837BD4680BD80B586B000AF78602B
:101E90000B46FB7000233B617B681B0A03F00F03BA
:101EA000013B092B44D801A252F823F0D51E0000B3
:101EB000E11E0000311F0000311F0000DB1E00008A
:101EC000E71E0000F11E0000311F0000FB1E000095
:101ED000071F0000184B7B6118E0184B7B6115E071
:101EE000174B7B6112E0174B7B6101233B610DE0D7
:101EF000154B7B6110233B6108E0144B7B614FF471
:101F000080333B6102E0124B7B6100BF7B681B0B9F
:101F100003F01F03FB603B69002B02D03869FFF719
:101F20007BFFFB787869F9681A46FFF7A5FD00E0AA
:101F300000BF1837BD4680BD00400E40B0400E4087
:101F4000C0400E40E0400E40E8400E40F0400E40E1
:101F500050410E4080B584B000AF78607B6803F4D8
:101F60007813B3F5602F00F0A280B3F5602F16D878
:101F7000B3F5802F2ED0B3F5802F05D8002B25D0B8
:101F8000B3F5003F39D096E0B3F5202F44D0B3F538
:101F9000402F00F08880B3F5002F2AD08BE0B3F5F6
:101FA000B01F69D0B3F5B01F06D8B3F5901F47D066
:101FB000B3F5A01F49D07EE0B3F5E01F57D0B3F5CD
:101FC000001F6BD0B3F5D01F35D074E0FEF728F9B1
:101FD000F86073E0FEF724F9F8603B4BD3F80C216E
:101FE0003A4B13401B0A0133FA68B2FBF3F3FB6070
:101FF00064E0FEF715F9F86060E0FEF711F9F860AB
:10200000314BD3F80821314B13401B0A0133FA68D6
:10201000B2FBF3F3FB6051E0FEF702F9F8602A4BE4
:10202000D3F8143103F4F8531B0A0133FA68B2FBF6
:10203000F3F3FB6042E02648FFF778FEF8603DE0EE
:102040002448FFF773FEF86038E02148FFF76EFE82
:10205000F8601D4BD3F8203103F00F031846FFF74B
:102060007DFD0246FB68B3FBF2F3FB6026E01A48F5
:10207000FFF75CFEF86021E01748FFF757FEF860B5
:10208000114BD3F8283103F003031846FFF766FD20
:102090000246FB68B3FBF2F3FB600FE00D48FFF76D
:1020A00045FEF8600AE0FFF7BFFDF86006E0FFF7C5
:1020B000ABFDF86002E00023FB6000BFFB68184640
:1020C0001037BD4680BD00BF00400E4000FF01003C
:1020D00002001A000500200003001C0080B584B037
:1020E00000AF78607B681B0903F00F03BB60BB681F
:1020F000013B072B6FD801A252F823F01D210000ED
:102100002D2100003D2100004D2100005D21000037
:102110006D21000097210000C1210000324BD3F84F
:10212000003103F4F8531B0AFB6057E02E4BD3F841
:10213000143103F4F8531B0AFB604FE02A4BD3F829
:10214000003103F080731B0EFB6047E0264BD3F891
:102150000C21264B13401B0AFB603FE0224BD3F8B7
:102160000821224B13401B0AFB6037E07B68204AA2
:1021700093420CD11C4BD3F8203103F00F03FB60CA
:10218000F868FFF7EBFC0346013BFB6002E000232D
:10219000FB6000BF22E07B68164A93420CD1124BD1
:1021A000D3F8283103F00303FB60F868FFF7D6FC8F
:1021B0000346013BFB6002E00023FB6000BF0DE033
:1021C0007B680D4A934202D10023FB6002E00023AA
:1021D000FB6000BF02E00023FB6000BFFB68184605
:1021E0001037BD4680BD00BF00400E4000FF01001B
:1021F00060061400700716008009120080B584B0D4
:1022000000AF786039607B681B0903F00F03FB6047
:10221000FB68013B072B00F2D28001A252F823F0A9
:10222000412200008122000099220000B12200001A
:10223000CD2200001123000065230000952300003B
:10224000FFF74EFD60486149FFF7AAFC6049604B0B
:10225000D3F8003123F4F8523B681B021343C1F852
:102260000031FDF7B1FFB860B868FFF7FDFC5948D1
:10227000FFF770FE034618465449FFF791FC9FE0B4
:102280005349534BD3F8143123F4F8523B681B02E3
:102290001343C1F8143193E04D494D4BD3F800314D
:1022A00023F080723B681B061343C1F8003187E0BE
:1022B0004749474BD3F80C3123F4FF3323F48073A1
:1022C0003A6812021343C1F80C3179E0FFF708FDB8
:1022D0003D483E49FFF764FC3D493D4BD3F808318A
:1022E00023F4FF3323F480733A6812021343C1F8D6
:1022F0000831FDF769FFB860B868FFF7B5FC3548ED
:10230000FFF728FE034618463049FFF749FC57E01F
:102310007B68314A934203D0304A93420FD020E089
:102320004FF48020FFF778FD2949294BD3F830314D
:1023300023F00F023B681343C1F8303111E03868D5
:10234000FFF71AFC38600420FFF766FD2049204B98
:10235000D3F8203123F00F023B681343C1F820313A
:1023600000BF2DE07B681E4A934200D011E0386820
:10237000FFF702FC38604020FFF74EFD1449144B74
:10238000D3F8283123F003023B681343C1F8283106
:1023900000BF15E07B68104A934200D00EE04FF476
:1023A0008020FFF739FD0A49094BD3F8303123F07B
:1023B0000F023B681343C1F8303100BF00E000BF9B
:1023C0001037BD4680BD00BF0148E8010048E80164
:1023D00000400E400005080080091200600614004D
:1023E0007007160080B485B000AF78600123FB73DE
:1023F0007B6803F00F03BB60BB68013B052B00F259
:102400008B8001A252F823F0212400005324000005
:102410008324000019250000C9240000F9240000CD
:10242000424BD3F8943003F00703032B07D0042B5F
:1024300002D0022B06D008E00223FB7308E003233E
:10244000FB7305E00423FB7302E00523FB7300BF6D
:1024500065E0364BD3F8803003F00703022B06D03B
:10246000042B07D0012B08D10323FB7308E00223C0
:10247000FB7305E00A23FB7302E00123FB7300BF3B
:102480004DE02A4BD3F8843003F00703013B032BC4
:1024900016D801A252F823F0A9240000AF240000AE
:1024A000BB240000B52400000323FB730BE00223D0
:1024B000FB7308E00A23FB7305E00623FB7302E0CD
:1024C0000123FB7300BF2AE0184BD3F8883003F0D8
:1024D0000703022B06D0042B07D0012B08D10323BE
:1024E000FB7308E00223FB7305E00A23FB7302E0A1
:1024F0000123FB7300BF12E00C4B1B6F03F00103C1
:10250000002B05D0012B00D009E00923FB7302E06A
:102510000723FB7300BF02E00023FB7300BFFB7BBC
:1025200018461437BD465DF8047B704700400E40E6
:1025300080B588B000AF78600B46FB700323FB6169
:102540000323FB7600233B617B6803F00F03FB60F2
:10255000FB68013B042B00F2B68001A252F823F085
:10256000752500001526000031260000C726000052
:1025700023260000FB78023B082B00F2A88001A272
:1025800052F823F0A9250000B3250000BD25000066
:10259000CF250000CF260000CF260000CF26000068
:1025A000CF260000CF2600000423FB610023FB762A
:1025B00016E00323FB610123FB7611E00223FB619C
:1025C0000223FB7645484649FFF7EAFA08E0012373
:1025D000FB610323FB7641484149FFF7E1FA00BF65
:1025E000FB7E18460121012200F088F8FFF778FBF6
:1025F0003C4AFB6953673C48FFF7ACFC034618466E
:102600003749FFF7CDFAFDF7DFFDB860B868FFF78F
:102610002BFB59E03B69002B01D03B6900E0334BB9
:102620003B613B69002B01D03B6900E0304B3B61D3
:102630003B69002B01D03B6900E02E4B3B61FB78EE
:10264000013B092B45D801A252F823F07526000062
:102650007B2600008B260000D3260000D326000036
:102660009B260000D3260000D3260000D3260000BE
:10267000B926000000237B6121E000200121012216
:1026800000F03CF802237B6119E0012001210122C6
:1026900000F034F801237B6111E0FDF795FD03465E
:1026A00018460F49FFF77CFA134800210122FFF773
:1026B000E3F903237B6102E004237B6100BF3B69F4
:1026C0007A691A6000E000BFFFF788FA02E000BFF5
:1026D00000E000BF2037BD4680BD00BF0148E801D3
:1026E0000048E80100400E400005080080400E4010
:1026F00088400E4084400E40B0400E4080B588B007
:1027000000AF0346FB710B46BB7113467B71FB792F
:10271000042B00F2AB8001A252F823F079270000CD
:1027200067270000432700003127000055270000DD
:1027300001237B6102233B610123FB610023BB6119
:1027400025E004237B6108233B610323FB61022313
:10275000BB611CE010237B6120233B610523FB61EF
:102760000423BB6113E040237B6180233B6107238B
:10277000FB610623BB610AE04FF480737B614FF479
:1027800000733B610923FB610823BB6100BFBB7978
:10279000002B5FD00023FB73FB79022B15D1354B47
:1027A0005B6A03F03003002B0FD10123FB73314B25
:1027B0005B6A03F00103002B07D02E4A2D4B5B6AA6
:1027C00023F0300343F0100353622A4A7B691366F7
:1027D00000BF2948B969FFF765F90346002BF8D017
:1027E0007B79002B35D000BF2348F969FFF75AF9F0
:1027F0000346002BF8D0FB79022B2AD1FB7B002B60
:1028000027D01C4B5B6A03F00103002B05D002208C
:102810002021012200F036F903E00220002100F01F
:10282000E7F8022000F02AF8B86002200021012217
:10283000FFF764FF0220B96800F05AF80D4A7B697F
:10284000136600BF0C48F969FFF72CF90346002B0B
:10285000F8D00CE0074A3B69136600BF0648B96927
:10286000FFF720F90346002BF8D100E000BF203726
:10287000BD4680BD00400E4090400E4080B485B003
:1028800000AF0346FB71FB79013B032B23D801A268
:1028900052F823F0A5280000C9280000B128000044
:1028A000BD280000114B1B6AC3F30803FB6015E051
:1028B0000E4B1B6903F07F03FB600FE00B4B9B6922
:1028C00003F07F03FB6009E0084BD3F89C30C3F3AF
:1028D0000A03FB6002E00023FB6000BFFB681846B0
:1028E0001437BD465DF8047B704700BF00400E40C2
:1028F00080B584B000AF03463960FB71FB79013BC2
:10290000032B68D801A252F823F000BF1D29000054
:102910009F2900004B290000752900003B68C3F384
:1029200008033B6000BF2E481A21FFF7BBF803469F
:10293000002BF8D12B492B4B1B6A23F4FF7323F098
:1029400001033A6813430B6246E03B6803F07F03E0
:102950003B6000BF22481821FFF7A4F80346002B74
:10296000F8D120491F4B1B6923F07F023B681343BA
:102970000B6131E03B6803F07F033B6000BF184808
:102980001921FFF78FF80346002BF8D11549154B95
:102990009B6923F07F023B6813438B611CE0114B62
:1029A000D3F890300F4A0F4B5B6A23F0300343F0AB
:1029B000100353623B6803F4F063DB091846FFF72A
:1029C00099F9F8603A68FB681343074807491A46C3
:1029D000FFF7A2F800E000BF1037BD4680BD00BF82
:1029E00040410E4000400E4030400E40FF0700F0D6
:1029F00080B584B000AF03460A46FB711346BB7135
:102A00001D483021FFF79AF80346002B03D14FF4FD
:102A10004003FB6011E0BB79202B04D0302B06D0A3
:102A2000002B04D007E04FF40003FB6005E04FF4F7
:102A30004003FB6001E0114BFB6000BF104BD3F87B
:102A40009020FB681A40FB689A42F7D1FB6803F4B8
:102A50008003002B0AD00A4BD3F8A03003F4806324
:102A6000002B14BF01230023DBB200E00123184632
:102A70001037BD4680BD00BF24400E40FF03E10774
:102A800000400E4080B582B000AF0346FB710B469C
:102A9000BB7113467B71FB79022B15D1BB79002BDF
:102AA00007D00C4B4FF48062C3F8A820094ABB79C9
:102AB00053667B79002B07D0FA79BB79104619460B
:102AC000FFF796FF034600E0012318460837BD468E
:102AD00080BD00BF00400E4080B584B000AF78607C
:102AE0000B46FB700023FB60FB78002B01D0012319
:102AF000FB607B685B00013303481946FA68FEF708
:102B0000BBFF1037BD4680BD50410E4080B483B03E
:102B100000AFEFF310833B603B687B6072B67B686D
:102B200018460C37BD465DF8047B704780B483B00F
:102B300000AF78607B68002B00D162B60C37BD46D1
:102B40005DF8047B704700BF80B485B000AF78604B
:102B500039607B6803F1C063FB60FB683A681A6008
:102B60001437BD465DF8047B704700BF80B485B064
:102B700000AF786039607B6803F18063FB60FB68BD
:102B80003A681A601437BD465DF8047B704700BF91
:102B900080B582B000AF03463960FB71FB79002B32
:102BA0000DD0FB79012B0AD0FB79022B07D0FB79E2
:102BB000032B04D0FB79042B01D0FB79052BFA7988
:102BC00013465B0013441B010C3303F1804303F5F0
:102BD00020433A68012101FA02F218461146FFF734
:102BE000C5FF0837BD4680BD80B582B000AF034643
:102BF0003960FB71FB79002B0DD0FB79012B0AD0DA
:102C0000FB79022B07D0FB79032B04D0FB79042B33
:102C100001D0FB79052BFA7913465B0013441B01A5
:102C20000C3303F1804303F520433A68012101FA94
:102C300002F218461146FFF787FF0837BD4680BDF0
:102C400090B585B000AFB9607B600346FB73134657
:102C5000BB73FB7B002B0DD0FB7B012B0AD0FB7BD6
:102C6000022B07D0FB7B032B04D0FB7B042B01D072
:102C7000FB7B052BBB7B002B0DD07B68002B05D08D
:102C8000FB7B1846B968FFF7AFFF04E0FB7B1846F3
:102C9000B968FFF77DFFBB68072B1CD82A4CFA7B6D
:102CA0002948F97B0B465B000B441B010344596820
:102CB000BB689B0018460F238340DB430B40B97B66
:102CC000B86880008140194313465B0013441B0120
:102CD0002344596024E01C4CFA7B1B48F97B0B46CB
:102CE0005B000B441B01034408331968BB6803F104
:102CF0008043083B9B0018460F238340DB43194069
:102D0000B87BBB6803F18043083B9B0000FA03F3E8
:102D1000194313465B0013441B0123440833196015
:102D2000BB7B002B0DD17B68002B05D0FB7B1846AD
:102D3000B968FFF759FF04E0FB7B1846B968FFF755
:102D400027FF1437BD4690BD00A0004080B487B077
:102D500000AFF860B9607A60FB6803F10473DA00D1
:102D6000BB6813449B007B617B697A681A601C37DF
:102D7000BD465DF8047B704780B483B000AF7860D7
:102D80007B6803F14043A3F59C239B0A18460C374C
:102D9000BD465DF8047B704780B483B000AF7860B7
:102DA00039607B681B6C03F00103002B00D006E048
:102DB00000BF7B685A6C3B681340002BF9D10C377D
:102DC000BD465DF8047B704780B586B000AFF86003
:102DD000B9607A60FB681B687B617B6903F007035D
:102DE000002B08D0F8680121FFF7D6FF7B6923F09C
:102DF0000702FB681A60F8680421FFF7CDFFFB6843
:102E0000BA685A61F8680621FFF7C6FFFB6802221C
:102E10005A60F8680221FFF7BFFFFB6801225A6081
:102E20007A68BB689A420DD0F8680221FFF7B4FFB8
:102E3000FB687A685A61F8680621FFF7ADFFFB6806
:102E400002225A607B6903F00703002B06D0F86862
:102E50000321FFF7A1FFFB687A691A601837BD46A6
:102E600080BD00BF80B582B000AF78600B46FB70BC
:102E70001346BB70FB78002B02D0012B0AD013E065
:102E80007B6803F16802BB78104605211A46FFF7FC
:102E90005DFF09E07B6803F16802BB7810460B21F7
:102EA0001A46FFF753FF00BF0837BD4680BD00BF7D
:102EB00080B586B000AF786039607B68664A93421F
:102EC0007868FFF759FFF8607B689B6E23F4737393
:102ED00023F003037B613B68DB7C1A463B681B7D68
:102EE0009B0113437A6913437B617B687A699A6615
:102EF00000237B613B681B7B002B03D07B6943F481
:102F000000437B613B685B7B002B03D07B6943F410
:102F100080437B613B689B7B002B03D07B6943F044
:102F200008037B613B68DB7B002B03D07B6943F4A8
:102F300080737B613B681B7C002B03D07B6943F46F
:102F400000737B613B685B7C9B021A467B69134381
:102F50007B6100233B613B689B7C032B14D801A25F
:102F600052F823F0752F0000812F0000812F000000
:102F70007B2F000003233B6107E000233B6104E05B
:102F80003B689B7C3B6100E000BF3B691B037A69A7
:102F900013437B617B68184604210122FFF7D6FEAC
:102FA000F8680021FFF798FD3B681B78023B012B76
:102FB0001FD83B681B781A467B6913437B6178688E
:102FC0000121FFF7E9FE7B6810221A607868012171
:102FD000FFF7E2FEF8680121FFF77EFD3B689A6883
:102FE0007B685A617B6802225A607B687A691A6042
:102FF0002EE07B681B6803F00703002B09D07B6978
:1030000043F010027B681A6000BE78680121FFF768
:10301000C3FE7B68184604210022FFF797FE3B6839
:103020005A683B689B68786811461A46FFF7CCFEE1
:103030003B681B78012B0AD178680121FFF7ACFEB1
:103040003B681B781A467B691A437B681A6000BF8D
:103050001837BD4680BD00BF00E0044080B485B095
:1030600000AFF860B9607A600949BB6803F4FE42BA
:103070007B6803F00703134343F08042FB6810337F
:1030800041F823201437BD465DF8047B704700BF2C
:1030900000600E4080B487B000AFF860B9607A601D
:1030A000FB6803F10473DA00BB6813449B007B6187
:1030B0007B697A681A601C37BD465DF8047B7047EF
:1030C00080B483B000AF7860396013493B681B78E7
:1030D0001A463B685B789B001A433B689B789B01D0
:1030E0001A433B68DB781B011A433B681B79DB0200
:1030F0001A433B685B791B031A433B689B795B046B
:103100001A437B6804331B010B441A600C37BD461D
:103110005DF8047B704700BF0020044080B582B09A
:1031200000AF0346FB71FB79034800211A46FFF705
:10313000B1FF0837BD4680BD0020044080B483B095
:1031400000AF786014497B681B781A467B685B780F
:103150009B001A437B689B781B011A437B68DB78D2
:103160005B011A437B681B791B021A437B685B79FE
:103170001B031A437B689B79DB031A437B68DB796B
:103180001B041A437B681B7A5B0413430B600C37E8
:10319000BD465DF8047B70470020044080B485B0D4
:1031A00000AF7860194B5B69DBB203F00F03DBB251
:1031B0009B00FB73154B1B6903F0C0039B09DAB23C
:1031C000FB7B1343FB737B68FA7B9A700F4B1B6985
:1031D000DBB203F03F03DAB27B685A700B4B9B699A
:1031E000DBB223F00F03FB73084BDB6903F0F00342
:1031F0001B09DAB2FB7B1343FB737B68FA7B1A7003
:103200001437BD465DF8047B704700BFD0FF0FE068
:1032100080B483B000AF78607B68094A934203D0E2
:103220007B68084A934201D1012300E0002303F0A8
:103230000103DBB218460C37BD465DF8047B7047CE
:10324000008001400084014080B582B000AF78600A
:1032500039607868FFF7DCFF3B681B7883F0010377
:10326000DBB2002B02D07B6802225A607B6800220E
:103270005A623B689B781A063B68DB781B041A434A
:103280003B689B799B021A433B68DB791B02134323
:103290003A68127A1A433B685B78002B01D04023CE
:1032A00000E000231A433B685B7A002B01D08023A7
:1032B00000E000231A433B689B7A002B01D02023B7
:1032C00000E000231A433B68DB7A002B01D0102377
:1032D00000E000231A433B681B79002B02D04FF417
:1032E000005300E000231A433B685B79002B02D0B7
:1032F0004FF0805300E000231A433B681B7B002BF8
:1033000001D0082300E000231A437B681A603B6861
:103310001B78002B02D07B6801225A600837BD461B
:1033200080BD00BF80B584B000AFF860B9607A603E
:10333000F868FFF76DFF7B681B789A067B685B78FF
:103340001B061A437B689B781B041A437B68DB7857
:103350001B031A437B681B799B021A437B685B79CA
:103360001B0213437A6892791A437B68DB79002B3E
:1033700002D04FF0804300E000231A437B681B7AA1
:10338000002B02D04FF0005300E000231A437B686B
:103390005B7A002B01D0102300E000231A437B68E6
:1033A0009B7A002B01D0042300E000231A43F96824
:1033B000BB6806331B010B441A601037BD4680BD45
:1033C00080B485B000AF786039607B6803F1C0637A
:1033D000FB60FB683A681A601437BD465DF8047BF1
:1033E000704700BF80B485B000AF786039607B68FB
:1033F00003F18063FB60FB683A681A601437BD46CE
:103400005DF8047B704700BF80B584B000AFF86002
:10341000B9607A60F868B968FFF7E4FFF86879681E
:10342000FFF7CEFF1037BD4680BD00BF80B586B028
:1034300000AFF860B9607A60BB68002B03D10E481A
:10344000FEF788FDB860BB685A1E7B685B00B2FB64
:10345000F3F37B617B691B027B617A69074B134045
:103460007B61FB681433184604497A69FFF7CCFF87
:103470001837BD4680BD00BF40410500F8FF7F0002
:1034800080B582B000AF786039607B68364A93427D
:1034900003D07B68354A934200D100BF786800F0C2
:1034A00067F87B681A683B681B8A43F001039BB28C
:1034B00019463B689B7B002B02D04FF4806300E0F1
:1034C00000230B431A437B681A607B681A683B68C9
:1034D0001B7D002B02D04FF0005300E000231A4365
:1034E0007B681A603B689B7C002B07D03B68DB7CC9
:1034F00063F07F03DBB21A467B689A653B681B7BEF
:1035000043F480527B685A603B685A683B689B680A
:10351000786811461A46FFF789FF3B685B7B002BF2
:1035200002D07B681022DA603B689B7D1B0703F0AA
:10353000E0423B68DB7D1B0503F4E0031A437B6834
:103540001A663B685B7D002B05D07B681B6843F4E3
:1035500080327B681A603B681B781A467B68DA60A9
:103560000837BD4680BD00BF000001400004014097
:1035700080B483B000AF78607B681F4A934203D069
:103580007B681E4A934200D100BF7B6840F6AA6266
:10359000DA607B6800221A607B6841F205025A609B
:1035A0007B6800229A607B6800225A617B68002257
:1035B000DA647B68124A9A647B6800225A677B68E7
:1035C00000229A677B680022DA677B680A4A934286
:1035D00002D17B6800221A657B6800229A657B68AD
:1035E000064A934202D17B680022DA650C37BD4659
:1035F0005DF8047B704700BF0000014000040140FB
:10360000F9FF010080B483B000AF78600B46FB7017
:1036100000BF7B681B6903F04003002BF9D0FA78E8
:103620007B685A630C37BD465DF8047B704700BF6A
:1036300080B483B000AF78600B467B8000BF7B68AE
:103640001B6903F04003002BF9D07A887B68DA63AA
:103650000C37BD465DF8047B704700BF80B584B071
:1036600000AF7860FCF762FEF860FB68002B00D0CA
:10367000FEE70020FDF76AFAF860FB68002B00D037
:10368000FEE70C48FDF746FDF860FB68002B00D014
:10369000FEE7084B6FF07F425A60064B00229A60AB
:1036A00004480549FEF73CF8044A7B68136010376C
:1036B000BD4680BD34090020606000006409002020
:1036C00080B500AF034B00221A700348FDF7B6FD2A
:1036D00080BD00BF600900203409002080B582B0A1
:1036E00000AF786039603B68DAB2084B1A70084B5B
:1036F0001B680848194600F00FF80648796800F082
:103700000BF8FDF763FC0837BD4680BD600900205B
:10371000640900203409002090B587B002AF7860BA
:1037200039603B68FB6002E0FB680133FB60FB68CB
:103730001B780A2B03D0FB681B78002BF4D1FA68A6
:103740003B68D31AFB72FB7A002B2CD07B6893F872
:103750002420FB7A12FB03F3BB727B681B681B8877
:103760001A46BB7AD31A5B107B727B6893F82630BB
:103770001A467B6893F825301344DAB2154B1B7850
:1037800012FB03F3DAB27B6893F8263013443B72E2
:10379000FA7A7C7A3B7A009300230193786839683F
:1037A0002346FDF755FFFB683B60FB681B780A2B3F
:1037B00008D1084B1B780133DAB2064B1A703B680C
:1037C00001333B603B681B78002BAAD11437BD4600
:1037D00090BD00BF6009002080B483B000AF0346F5
:1037E000FB71084997F907305B09FA7902F01F026B
:1037F000012000FA02F241F823200C37BD465DF8A3
:10380000047B704700E100E080B483B000AF034662
:103810003960FB7197F90730002B0BDA0D49FB7902
:1038200003F00F03043B3A68D2B25201D2B20B4408
:103830001A7609E0084997F907303A68D2B252017E
:10384000D2B20B4483F800230C37BD465DF8047BED
:10385000704700BF00ED00E000E100E080B582B0FD
:1038600000AF78607B68013BB3F1807F01D3012317
:103870000FE00A4A7B68013B53604FF0FF3007219D
:10388000FFF7C2FF054B00229A60044B07221A6023
:10389000002318460837BD4680BD00BF10E000E099
:1038A00080B400AF044BDB6C1B0EDBB21846BD4688
:1038B0005DF8047B704700BFB081E00F80B487B033
:1038C00000AFF860B9607A60FB6803F10473DA0056
:1038D000BB6813449B007B617B697A681A601C3764
:1038E000BD465DF8047B704780B485B000AF78605A
:1038F00039607B6803F10473DA003B6813449B0072
:10390000FB60FB681B6818461437BD465DF8047BF6
:10391000704700BF80B582B000AF03463960FB71CD
:10392000FB79002B0DD0FB79012B0AD0FB79022B00
:1039300007D0FB79032B04D0FB79042B01D0FB7952
:10394000052BFA7913465B0013441B011C3303F16A
:10395000804303F5204318463968FFF7C5FF034647
:1039600018460837BD4680BD80B586B000AF4FF021
:1039700050133B610023FB60FFF792FF0346FB728D
:103980003B461846FFF70AFCFB7A8E2B22D81F4BCA
:10399000D3F8B0307B601D4A7B6843F00403C2F863
:1039A000B03000237B610EE019483A69FB6842EAB7
:1039B00003017A6913465B0013441B010344196039
:1039C0007B6901337B617B69052BEDD90F4A7B68ED
:1039D000C2F8B030FB7A8F2B07D80C4A0B4BDB6A4E
:1039E00023F07F0343F02003D3627B78012B05D1C2
:1039F000084A084B1B6843F00403136006480D2176
:103A00000022FFF75BFF1837BD4680BD00400E4027
:103A100000A0004064310E4054300E4080B483B0AA
:103A200000AF78604FF6FF7318460C37BD465DF85F
:103A3000047B704780B584B000AFF860B9607A60ED
:103A4000F868FFF7EBFFFA68BB681B0113446833A3
:103A50007A685A601037BD4680BD00BF80B483B01D
:103A600000AF786039607B683A685A610C37BD46B0
:103A70005DF8047B704700BF80B483B000AF78600E
:103A800039607B689A693B681A437B689A610C3796
:103A9000BD465DF8047B704780B582B000AF7860AA
:103AA00039607868FFF7BAFF7B683A68DA610837EF
:103AB000BD4680BD80B483B000AF786039607B685C
:103AC0003A681A620C37BD465DF8047B704700BF48
:103AD00080B483B000AF786039607B685A6A3B6815
:103AE0001A437B685A620C37BD465DF8047B704709
:103AF00080B500AF084B01221A70084BD3E90023B0
:103B000012F57A7243F100030449C1E90023044825
:103B10000121FFF7A3FF80BD700900206809002084
:103B20000084014080B485B000AF7860074B1B680B
:103B3000FB6000BFFA687B681A44044B1B689A421A
:103B4000F8D81437BD465DF8047B70478C09002017
:103B5000B0B584B000AF204B00221A701F4B5B6AD7
:103B6000FB811F4BD3E90023C7E900231A4B1B78C5
:103B7000002B07D0194B5B6AFB81194BD3E900235B
:103B8000C7E90023D7E9000101F0B8F904460D4662
:103B9000FB89184601F082F902460B461046194689
:103BA0000BA3D3E9002301F009FB02460B46204694
:103BB000294601F027F802460B461046194601F047
:103BC000E5FB02460B46104619461037BD46B0BD10
:103BD000F2D24D6210582B40700900200084014041
:103BE0006809002080B483B000AF7860044B1A6885
:103BF0007B68134418460C37BD465DF8047B70475C
:103C00008C09002080B483B000AF78607A68064BDE
:103C10001B689A4201D2012300E0002318460C37AA
:103C2000BD465DF8047B70478C09002080B584B0E8
:103C300000AFC7E90001FFF78BFFD7E90023121897
:103C400043EB0103C7E9022300BFFFF781FFD7E978
:103C50000223994208BF9042F7D31037BD4680BD7A
:103C600080B485B000AF0346FB80FB88022B01D1F6
:103C700000230DE0FB88032B08D10023FB81FB8987
:103C8000064AA2FB03235B099BB201E000BE0023AE
:103C900018461437BD465DF8047B704789888888CC
:103CA00080B582B000AF4FF49670FFF73BFF002362
:103CB0007B608DE07B68002B2ED07B68012B14D1BC
:103CC000544B1B78002B07D0534B1A88534B1A8048
:103CD000534B1A88534B1A80504B1A884E4B1A80FC
:103CE000504B1A884E4B1A8016E07B68022B13D17A
:103CF000484B1B78002B07D0484B1A884A4B1A8038
:103D0000484B1A88494B1A80474B1A88424B1A80F5
:103D1000464B1A88424B1A8000F08EF9022000F0C0
:103D200055FB4FF49670FFF7FDFE16E0404B1B78F5
:103D3000002B12D0384B1B8801339AB2364B1A80B5
:103D4000354B1B88172B02D9334B01221A8000F008
:103D500073F94FF49670FFF7E5FE364B1B7883F04E
:103D60000103DBB2002BE1D100F066F9032000F083
:103D70002DFB4FF49670FFF7D5FE15E02C4B1B780A
:103D8000002B11D0264B1B8801339AB2244B1A808A
:103D9000234B1B883B2B02D9214B00221A8000F0B9
:103DA0004BF96420FFF7BEFE224B1B7883F0010322
:103DB000DBB2002BE2D1184B1B881A46184B1B882C
:103DC000786811461A4600F037F87B6801337B604B
:103DD0007B68022B7FF76EAF0220FFF741FF03469F
:103DE0001A460D4B1A800320FFF73AFF03461A4686
:103DF0000B4B1A80002000F0E9FA00F01DF94FF497
:103E00009670FFF78FFE034B00221A700837BD46ED
:103E100080BD00BF2900002072090020240000207E
:103E2000740900207609002026000020780900206F
:103E3000F8090020100A002080B483B000AF786039
:103E40000B467B8013463B807B68002B30D07B6821
:103E5000012B15D17B884FF4616202FB03F13A8894
:103E600013461B019B1A9B000B4401331A46134B4C
:103E70001A60134A7B881380124A3B88138017E02C
:103E80007B68022B14D17B884FF4616202FB03F143
:103E90003A8813461B019B1A9B000B4401331A46B8
:103EA000064B5A60084A7B881380084A3B88138077
:103EB0000C37BD465DF8047B704700BF080A002040
:103EC0002400002076090020260000207809002028
:103ED00080B584B000AF7860FFF73AFEC7E9020111
:103EE000D7E90223193243F100031B487968C9005E
:103EF0000144C1E90023D7E9022340F6C4104FF082
:103F00000001121843EB010314487968C900014409
:103F1000C1E90023124A7B68002122F81310114BDB
:103F20001B78002B09D079680D4A7B6832F8133072
:103F30000D481A46FFF77EFD05E07B680A481946E2
:103F40000022FFF777FD094A7B68012122F8131050
:103F50001037BD4680BD00BFB8090020E009002031
:103F60008409002090090020008001407C09002085
:103F7000B0B590B000AF002387F838302A4A07F177
:103F8000300392E8030018600433198002330A0CEE
:103F90001A70264B07F120040FCB07C4238002348C
:103FA0001B0C2370224B07F108041D460FCD0FC4D4
:103FB00095E8030020600434218002340B0C237048
:103FC0001C4A3B4692E80300186004331980002322
:103FD000FB6307F138031846FFF740FBFFF770FB60
:103FE00007F130031846F96BFFF778FBFB6B0133E1
:103FF000FB6307F120031846F96BFFF76FFBFB6BC0
:104000000133FB6307F108031846F96BFFF766FB02
:10401000FB6B0133FB633B461846F96BFFF75EFB16
:104020004037BD46B0BD00BFBC630000C4630000A4
:10403000D4630000EC630000B0B59CB000AF002377
:1040400087F86830414A07F1600392E8030018607E
:104050000433198002330A0C1A703D4B07F15004E7
:104060000FCB07C4238002341B0C2370394B07F19C
:1040700038041D460FCD0FC495E8030020600434BA
:10408000218002340B0C2370334A07F1300392E88D
:104090000300186004331980304A07F1240307CA6B
:1040A00083E807002E4B1B881A4607F114031846B5
:1040B0002C4901F0FDF92C4B1B881A463B1D184674
:1040C000284901F0F5F90023FB66FFF7F9FA07F13B
:1040D00060031846F96EFFF701FBFB6E0133FB66C8
:1040E00007F150031846F96EFFF7F8FAFB6E01333B
:1040F000FB6607F138031846F96EFFF7EFFAFB6E1F
:104100000133FB6607F130031846F96EFFF7E6FA54
:10411000FB6E0133FB6607F124031846F96EFFF7C7
:10412000DDFAFB6E0133FB6607F114031846F96EE6
:10413000FFF7D4FAFB6E0133FB663B1D1846F96EA0
:10414000FFF7CCFA7037BD46B0BD00BFBC630000BE
:10415000C4630000D4630000EC630000F863000057
:1041600072090020F463000074090020B0B598B013
:1041700000AF002387F85830384A07F1500392E81F
:10418000030018600433198002330A0C1A70344B90
:1041900007F140040FCB07C4238002341B0C2370AB
:1041A000304B07F128041D460FCD0FC495E80300DE
:1041B00020600434218002340B0C23702A4A07F15A
:1041C000200392E80300186004331980274A07F19E
:1041D000140307CA83E80700254B1B881A463B1DBA
:1041E0001846244901F064F90023FB65FFF768FADB
:1041F00007F150031846F96DFFF770FAFB6D0133B4
:10420000FB6507F140031846F96DFFF767FAFB6D90
:104210000133FB6507F128031846F96DFFF75EFAD5
:10422000FB6D0133FB6507F120031846F96DFFF7BD
:1042300055FAFB6D0133FB6507F114031846F96D60
:10424000FFF74CFAFB6D0133FB653B1D1846F96D1A
:10425000FFF744FA6037BD46B0BD00BFBC63000045
:10426000C4630000D4630000EC630000F863000046
:1042700072090020F4630000B0B598B000AF0023CD
:1042800087F858303D4A07F1500392E80300186060
:104290000433198002330A0C1A70394B07F14004B9
:1042A0000FCB07C4238002341B0C2370354B07F15E
:1042B00028041D460FCD0FC495E803002060043488
:1042C000218002340B0C23702F4A07F1200392E85F
:1042D00003001860043319802C4A07F1140307CA3D
:1042E00083E8070000233B74294B1B881A463B4692
:1042F0001846284901F0DCF80023FB65FFF7E0F9D8
:1043000007F150031846F96DFFF7E8F9FB6D01332B
:10431000FB6507F140031846F96DFFF7DFF9FB6D08
:104320000133FB6507F128031846F96DFFF7D6F94D
:10433000FB6D0133FB6507F120031846F96DFFF7AC
:10434000CDF9FB6D0133FB6507F114031846F96DD8
:10435000FFF7C4F9FB6D0133FB6507F11003184645
:10436000F96DFFF7BBF9FB6D0133FB653B46184662
:10437000F96DFFF7B3F96037BD46B0BDBC6300000F
:10438000C4630000D4630000EC630000F863000025
:1043900074090020F463000080B582B000AF0346CA
:1043A000FB80FB88012B02D1FFF7E2FD0AE0FB88CE
:1043B000022B02D1FFF7DAFE04E0FB88032B01D1C8
:1043C000FFF75AFF0837BD4680BD00BF80B582B0F9
:1043D00000AF0346FB80FB88002B0BD04FF4FA7034
:1043E000FFF700FC03461A46064B1A60064AFB8894
:1043F000138004E0044B00221A80FFF71DFE0837EB
:10440000BD4680BD940900209209002090B585B07A
:1044100000AF9F4B1B6801339D4A1360FFF798FB69
:10442000C7E900019B4B1B88002B2AD09A4B1B68C5
:104430001846FFF7E7FB0346002B22D0974B1B786B
:10444000002B05D0934B1B881846FFF7A5FF01E012
:10445000FFF7F2FD914B1B78002B14BF01230023C3
:10446000DBB283F00103DBB203F00103DAB28B4B62
:104470001A704FF4FA70FFF7B5FB03461A46864BE5
:104480001A600023FB606CE0854AFB6852F8233019
:104490009B8905201946FFF73DFA0346002B18D0EB
:1044A0007F4AFB6852F8233000221A707C4AFB686E
:1044B00052F8233000225A70794AFB6852F82330B0
:1044C00000225A60764AFB6852F8233000229A6034
:1044D00044E0734AFB6852F823305B7883F00103B1
:1044E000DBB2002B3AD06E4AFB6852F823305B688F
:1044F000002B05D16A4AFB6852F8233001221A705A
:10450000674AFB6852F823305A6801325A60644A9D
:10451000FB6852F823305B68B3F57A7F1ED9604A96
:10452000FB6852F8233001225A705D4AFB6852F84A
:1045300023404FF49670FFF755FB0346A360594B99
:104540001B78002B14BF01230023DBB283F001038F
:10455000DBB203F00103DAB2524B1A70FB6801338D
:10456000FB60FB68012B8FDD4F4B5B78002B07D086
:104570004E4B5B78002B03D04D4B01225A7002E06A
:104580004B4B00225A700023BB6061E1494ABB6873
:1045900032F81330042B00F2588101A252F823F0B4
:1045A0004B480000B5450000C946000059470000CF
:1045B00025480000404ABB68DB001344D3E90023D0
:1045C000D7E90001994208BF904225D3D7E90023DB
:1045D000193243F100033848B968C9000144C1E900
:1045E0000023304B1B78002B10D0BC68334ABB68CB
:1045F00032F813305A1C90B23049BA6821F81200D0
:104600002F4821461A46FFF715FA05E0BB682C48EB
:1046100019460022FFF70EFA2A4ABB68DB00134452
:10462000D3E90023D7E90001994208BF90422DD376
:10463000204ABB68022122F81310D7E9002340F674
:10464000C4104FF00001121843EB01031D48B96874
:10465000C9000144C1E90023184ABB68642122F85B
:104660001310104B1B78002B09D0B968134ABB6894
:1046700032F8133012481A46FFF7DCF906E0BB683F
:104680000F4819460022FFF7D5F9DEE0DDE000BF54
:104690008C090020920900209409002028000020A5
:1046A000200A002090090020100A0020F8090020AC
:1046B000D00900207C090020B809002084090020CE
:1046C00000800140E0090020654ABB68DB0013441C
:1046D000D3E90023D7E90001994208BF90423AD3B9
:1046E000604ABB68032122F813105F4B1B78002B34
:1046F00010D0BC685D4ABB6832F813305A1E90B2C5
:104700005A49BA6821F81200594821461A46FFF75B
:1047100091F905E0BB68564819460022FFF78AF96F
:10472000D7E90023193243F100035248B968C900A0
:104730000144C1E90023D7E9002340F6C4104FF03B
:104740000001121843EB01034548B968C900014450
:10475000C1E9002379E078E0464ABB68DB001344F6
:10476000D3E90023D7E90001994208BF904225D33D
:10477000D7E90023193243F100033E48B968C90064
:104780000144C1E90023384B1B78002B10D0BC68D2
:10479000364ABB6832F813305A1E90B23349BA68B1
:1047A00021F81200324821461A46FFF743F905E086
:1047B000BB682F4819460022FFF73CF9284ABB681E
:1047C000DB001344D3E90023D7E90001994208BF75
:1047D000904226D3234ABB68042122F81310234AAF
:1047E000BB68002122F813101F4B1B78002B09D047
:1047F000B9681E4ABB6832F813301D481A46FFF7E5
:1048000019F905E0BB681A4819460022FFF712F9AA
:10481000134ABB68DB00D118D7E90023C1E90023A4
:1048200013E012E00E4ABB68DB001344D3E9002317
:10483000D7E90001994208BF904205D3094ABB68F5
:10484000002122F81310FFE700BFBB680133BB60F3
:10485000BB68022B7FF79AAE1437BD4690BD00BFF0
:10486000E00900207C090020900900208409002034
:1048700000800140B809002080B500AF184802212F
:10488000FFF718F9174B1B680133164A1360164BD4
:104890001B8801339AB2144B1A80134B1B883B2B95
:1048A00005D9124B1B8801339AB2104B1A800E4B5C
:1048B0001B883B2B02D90C4B00221A800B4B1B8808
:1048C000002B07D0094B1B88022B03D8084B012271
:1048D0001A7002E0064B00221A70FFF7ADFB80BD94
:1048E00000E00440980900207409002072090020AB
:1048F00090090020B0B586B000AF14480121FDF743
:10490000C3FA134B3C461D460FCD0FC495E8030078
:1049100084E8030001233B704023BB6000233B7409
:104920000423FB740B480221FFF7D2F81620FEF790
:1049300053FF084800210122FEF794FA3B46054840
:104940001946FEF7B5FA1837BD46B0BD000A1A0081
:104950000464000000E0044080B58CB000AFFFF7B5
:1049600003F8012001210122FDF7C8FE964803212A
:10497000FDF7DEFD9548FDF7EDFA0246944BA3FBEB
:1049800002239B091846FEF769FF0346002B00D05F
:1049900000BE90480121FDF777FA8F480121FDF70D
:1049A00073FA8E480121FDF76FFA01233B7700234C
:1049B0007B770023BB770023FB77002387F8203029
:1049C000002387F82130002387F82230002387F85E
:1049D0002330002387F82430002387F82530002374
:1049E00087F82630002387F82730002387F82830FF
:1049F0000A23BB777A480121FFF73EF81220FEF721
:104A0000EBFE774843F26851FFF746F807F11C03C5
:104A100073481946FEF718FC05E003200A2104221A
:104A20000023FEF70DF96E4B5B6A002BF5D00320D7
:104A30000B2104220023FEF703F903200C2104229A
:104A40000023FEF7FDF80520062101220023FEF7D2
:104A5000F7F80520072101220023FEF7F1F8614B4A
:104A600000221A705F4B00225A705E4B06229A8118
:104A70005D4B00221A705C4B00225A705A4B072281
:104A80009A815A4B00221A70584B00225A70584B88
:104A9000544A1A60564B544A5A60554B534A9A60CE
:104AA000FFF766FA00233B7400237B740023BB747A
:104AB0000023FB7400233B7500237B750023BB752B
:104AC0000023FB7500233B7600237B760023BB7617
:104AD0000323BB7501237B7507F1100345480021B3
:104AE0001A46FEF71FFC07F11003424801211A463F
:104AF000FEF718FC07F110033E4802211A46FEF7A4
:104B000011FC3C4A3B4B1B6B43F007031363394AD0
:104B1000384B5B6B43F0121343F4905353633548A7
:104B20006421FEF7B9FF334800210022FEF782FF1F
:104B3000304801210022FEF77DFF2E48022100228D
:104B4000FEF778FF01233B7000237B700023BB70CE
:104B50000023FB7000233B7100237B710023BB719A
:104B60000023FB7100233B7200237B720023BB7286
:104B70000023FB7200233B730823BB703B461D4898
:104B80001946FEF761FBFFF78BF8FFF7B3FE002332
:104B9000FB620BE0F86AFFF79BF941F217104FF048
:104BA0000001FFF743F8FB6A0133FB62FB6A022B4B
:104BB000F0DD0120FFF78CF941F217104FF00001F2
:104BC000FFF734F8E3E700BF02001A0050000200CC
:104BD000D34D6210002508000002040000120400FA
:104BE00000840140100A0020F8090020D0090020AC
:104BF000200A00200080014081F0004102E000BF57
:104C000083F0004330B54FEA41044FEA430594EA8C
:104C1000050F08BF90EA020F1FBF54EA000C55EAC7
:104C2000020C7FEA645C7FEA655C00F0E2804FEA98
:104C30005454D4EB5555B8BF6D420CDD2C4480EA7A
:104C4000020281EA030382EA000083EA010180EAAA
:104C5000020281EA0303362D88BF30BD11F0004FF8
:104C60004FEA01314FF4801C4CEA113102D040422E
:104C700061EB410113F0004F4FEA03334CEA133369
:104C800002D0524263EB430394EA050F00F0A78081
:104C9000A4F10104D5F1200E0DDB02FA0EFC22FA7C
:104CA00005F2801841F1000103FA0EF2801843FA70
:104CB00005F359410EE0A5F120050EF1200E012A61
:104CC00003FA0EFC28BF4CF0020C43FA05F3C0189F
:104CD00051EBE37101F0004507D54FF0000EDCF118
:104CE000000C7EEB00006EEB0101B1F5801F1BD3C1
:104CF000B1F5001F0CD349085FEA30004FEA3C0CC5
:104D000004F101044FEA445212F5800F80F09A80BA
:104D1000BCF1004F08BF5FEA500C50F1000041EBBE
:104D2000045141EA050130BD5FEA4C0C404141EBC2
:104D3000010111F4801FA4F10104E9D191F0000FE9
:104D400004BF01460020B1FA81F308BF2033A3F16C
:104D50000B03B3F120020CDA0C3208DD02F1140C63
:104D6000C2F10C0201FA0CF021FA02F10CE002F19E
:104D70001402D8BFC2F1200C01FA02F120FA0CFC97
:104D8000DCBF41EA0C019040E41AA2BF01EB0451E0
:104D9000294330BD6FEA04041F3C1CDA0C340EDCDE
:104DA00004F11404C4F1200220FA04F001FA02F321
:104DB00040EA030021FA04F345EA030130BDC4F1DF
:104DC0000C04C4F1200220FA02F001FA04F340EAD4
:104DD0000300294630BD21FA04F0294630BD94F085
:104DE000000F83F4801306BF81F480110134013D6C
:104DF0004EE77FEA645C18BF7FEA655C29D094EADD
:104E0000050F08BF90EA020F05D054EA000C04BF5A
:104E10001946104630BD91EA030F1EBF0021002045
:104E200030BD5FEA545C05D14000494128BF41F0E4
:104E3000004130BD14F580043CBF01F5801130BD48
:104E400001F0004545F0FE4141F470014FF00000D3
:104E500030BD7FEA645C1ABF194610467FEA655C84
:104E60001CBF0B46024650EA013406BF52EA033526
:104E700091EA030F41F4002130BD00BF90F0000F14
:104E800004BF0021704730B54FF4806404F1320450
:104E90004FF000054FF0000150E700BF90F0000F09
:104EA00004BF0021704730B54FF4806404F1320430
:104EB00010F0004548BF40424FF000013EE700BF00
:104EC00042004FEAE2014FEA31014FEA02701FBF90
:104ED00012F07F4393F07F4F81F06051704792F062
:104EE000000F14BF93F07F4F704730B54FF46074DC
:104EF00001F0004521F0004120E700BF50EA010227
:104F000008BF704730B54FF000050AE050EA0102D3
:104F100008BF704730B511F0004502D5404261EB43
:104F200041014FF4806404F132045FEA915C3FF484
:104F3000DCAE4FF003025FEADC0C18BF03325FEA1D
:104F4000DC0C18BF033202EBDC02C2F1200300FAD2
:104F500003FC20FA02F001FA03FE40EA0E0021FAF7
:104F600002F11444C1E600BF70B54FF0FF0C4CF4E1
:104F7000E06C1CEA11541DBF1CEA135594EA0C0F97
:104F800095EA0C0F00F0DEF82C4481EA030621EAD2
:104F90004C5123EA4C5350EA013518BF52EA03350D
:104FA00041F4801143F4801338D0A0FB02CE4FF0BF
:104FB0000005E1FB02E506F00042E0FB03E54FF0EF
:104FC0000006E1FB03569CF0000F18BF4EF0010EE7
:104FD000A4F1FF04B6F5007F64F5407404D25FEAE3
:104FE0004E0E6D4146EB060642EAC62141EA555196
:104FF0004FEAC52040EA5E504FEACE2EB4F1FD0CD8
:1050000088BFBCF5E06F1ED8BEF1004F08BF5FEA55
:10501000500E50F1000041EB045170BD06F0004607
:1050200046EA010140EA020081EA0301B4EB5C04B4
:10503000C2BFD4EB0C0541EA045170BD41F48011AC
:105040004FF0000E013C00F3AB8014F1360FDEBFD1
:10505000002001F0004170BDC4F10004203C35DAAD
:105060000C341BDC04F11404C4F1200500FA05F330
:1050700020FA04F001FA05F240EA020001F00042D1
:1050800021F0004110EBD37021FA04F642EB060147
:105090005EEA430E08BF20EAD37070BDC4F10C0471
:1050A000C4F1200500FA04F320FA05F001FA04F235
:1050B00040EA020001F0004110EBD37041F1000121
:1050C0005EEA430E08BF20EAD37070BDC4F120052C
:1050D00000FA05F24EEA020E20FA04F301FA05F294
:1050E00043EA020321FA04F001F0004121FA04F23C
:1050F00020EA020000EBD3705EEA430E08BF20EA0C
:10510000D37070BD94F0000F0FD101F00046400045
:1051100041EB010111F4801F08BF013CF7D041EAC7
:10512000060195F0000F18BF704703F000465200CB
:1051300043EB030313F4801F08BF013DF7D043EA9C
:105140000603704794EA0C0F0CEA135518BF95EA52
:105150000C0F0CD050EA410618BF52EA4306D1D1D9
:1051600081EA030101F000414FF0000070BD50EAF8
:10517000410606BF1046194652EA430619D094EA82
:105180000C0F02D150EA013613D195EA0C0F05D16C
:1051900052EA03361CBF104619460AD181EA0301C0
:1051A00001F0004141F0FE4141F470014FF0000078
:1051B00070BD41F0FE4141F4780170BD70B54FF013
:1051C000FF0C4CF4E06C1CEA11541DBF1CEA135593
:1051D00094EA0C0F95EA0C0F00F0A7F8A4EB050475
:1051E00081EA030E52EA03354FEA013100F088806C
:1051F0004FEA03334FF0805545EA131343EA126335
:105200004FEA022245EA111545EA10654FEA0026E9
:105210000EF000419D4208BF964244F1FD0404F5A2
:10522000407402D25B084FEA3202B61A65EB0305FE
:105230005B084FEA32024FF480104FF4002CB6EBBB
:10524000020E75EB030E22BFB61A754640EA0C003B
:105250005B084FEA3202B6EB020E75EB030E22BF7B
:10526000B61A754640EA5C005B084FEA3202B6EBBC
:10527000020E75EB030E22BFB61A754640EA9C007B
:105280005B084FEA3202B6EB020E75EB030E22BF4B
:10529000B61A754640EADC0055EA060E18D04FEA09
:1052A000051545EA16754FEA06164FEAC30343EAA9
:1052B00052734FEAC2025FEA1C1CC0D111F4801F76
:1052C0000BD141EA00014FF000004FF0004CB6E76F
:1052D00011F4801F04BF01430020B4F1FD0C88BF0E
:1052E000BCF5E06F3FF6AFAEB5EB030C04BFB6EB19
:1052F000020C5FEA500C50F1000041EB045170BD0C
:105300000EF0004E4EEA113114EB5C04C2BFD4EB38
:105310000C0541EA045170BD41F480114FF0000EBC
:10532000013C90E645EA060E8DE60CEA135594EA38
:105330000C0F08BF95EA0C0F3FF43BAF94EA0C0F3B
:105340000AD150EA01347FF434AF95EA0C0F7FF4B0
:1053500025AF104619462CE795EA0C0F06D152EA04
:1053600003353FF4FDAE1046194622E750EA4106E8
:1053700018BF52EA43067FF4C5AE50EA41047FF4F9
:105380000DAF52EA43057FF4EBAE12E7D0B5002231
:105390000E4B06460F46FFF7E7FD00F01BF80446EC
:1053A000FFF76CFD00220A4BFFF7DEFD02460B46BD
:1053B00030463946FFF724FC00F00CF82346002263
:1053C00042EA000210461946D0BD00BF0000F03D81
:1053D0000000F0414A0011D212F5001211D20DD591
:1053E0006FF47873B3EB62520ED44FEAC12343F0EB
:1053F000004343EA505323FA02F070474FF0000095
:10540000704750EA013002D14FF0FF3070474FF043
:105410000000704708B5074B044613B10021AFF3F5
:105420000080054B1868836A03B19847204600F056
:1054300057FC00BF000000002064000070B50E4B58
:105440000E4CE41AA41000251E46A54204D056F8BE
:10545000253098470135F8E700F044FC084C094B2B
:10546000E41AA41000251E46A54204D056F82530A3
:1054700098470135F8E770BD9000002090000020AB
:10548000940000209000002010B5431E0A44914271
:1054900004D011F8014B03F8014FF8E710BD0244A6
:1054A0000346934202D003F8011BFAE7704700005D
:1054B0000EB400B59CB04FF40271ADF814106FF04B
:1054C0000041049107914FF6FF711DABADF8161026
:1054D000084953F8042B029006900868019302A92A
:1054E00000F0FEF8029B00221A701CB05DF804EB7D
:1054F00003B070478C00002030B500293DD051F832
:10550000042C0B1F1D49002AB8BF9B180A680C46C3
:1055100012B95A600B6030BD93420DD21968581809
:10552000904201BF5A5852181A6042685A6023606C
:1055300030BD994203D80A4651680029F9D1146850
:1055400015199D420AD11B682344D0188842136064
:1055500013D10868034413604B680DE002D90C2393
:10556000036030BD1C681819884204BF0868496888
:10557000596004BF00191860536030BDA0090020B5
:1055800070B5CC1C24F0030408340C2C38BF0C2458
:10559000002C064603DA0C233360002070BD8C42D9
:1055A000F9D3204A136810461946A1B10A68121BA4
:1055B0000ED40B2A03D90A608B188C501FE08B4243
:1055C0000DBF5A684A685A60026018BF0B4616E061
:1055D0000B464968E9E7144D2B681BB9304600F0CB
:1055E00007FB28603046214600F002FB421C0346C0
:1055F000D1D0C51C25F0030585420AD11C6003F1FA
:105600000B001A1D20F00700821A0AD0514299504F
:1056100070BD3046E91A00F0EBFA0130BBD02B46E2
:10562000ECE770BDA00900209C0900202DE9F0479F
:105630008E68B34282460C469046994640D38A898A
:1056400012F4906F3AD0256809696F1A65690223D0
:1056500005EB450595FBF3F57B1C4B449D4238BF9C
:105660001D4653050FD52946FFF78AFF064698B118
:1056700021693A46FFF708FFA38923F4906343F0BA
:105680008003A38113E02A4600F0ECFA064670B9C5
:1056900050462169FFF730FF0C23CAF80030A38978
:1056A00043F04003A3814FF0FF30BDE8F08726614F
:1056B00065613E44ED1B2660A5604E46B14500D2B3
:1056C0004E4632462068414600F0B1FAA3689B1B63
:1056D000A36023681E4426600020BDE8F087000018
:1056E0002DE9F0439DB0064603938B891C060D46B9
:1056F00090460CD50B6953B94021FFF741FF286054
:10570000286110B90C233360CCE040236B61002387
:10571000099320238DF8293030238DF82A30434611
:105720001C4613F8012B1AB9B4EB08090FD002E09C
:10573000252AF5D1F8E73046294642464B46FFF781
:1057400075FF013000F0A980099B4B440993237831
:10575000002B00F0A28000234FF0FF320493079348
:10576000059206938DF853301A9304F101084446CC
:10577000DFF8489121784846052200F049FA08F1FF
:105780000108049B30B1C9EB0000012282401343A1
:105790000493ECE7D80644BF20228DF85320190764
:1057A00044BF2B228DF8532022782A2A02D0079951
:1057B00023460EE0039A111D12680391002ABBBF15
:1057C000524243F0020307920792B8BF0493013498
:1057D0000AE01C4601332278303A092A03D80A200D
:1057E00000FB0121F5E7079123782E2B1AD163786E
:1057F0002A2B0AD1039B1A1D1B680392002BB8BFEA
:105800004FF0FF33023405930CE0611C00220C467C
:1058100001312378303B092B03D80A2000FB0232E8
:10582000F5E70592DFF8988021784046032200F0E2
:10583000EFF938B1049AC8EB0000402383401343CA
:105840000493013421781A488DF82810062204F1B7
:10585000010800F0DDF988B1164B33B9039B07331B
:1058600023F007030833039313E003AB00933046A0
:1058700004A92A46104BAFF3008007E003AB009366
:10588000304604A92A460C4B00F092F8421C074609
:1058900003D0099B3B44099341E7AB895B0601D4E4
:1058A000099801E04FF0FF301DB0BDE8F08300BF64
:1058B0008E640000000000002D560000846400008B
:1058C0008A6400002DE9F84391461F468A680B69F7
:1058D000DDF820809342B8BF1346C9F8003091F834
:1058E000432006460C4612B10133C9F80030236844
:1058F000990642BFD9F800300233C9F80030256854
:1059000015F006051CD094F843302268003318BF08
:10591000012392061FD5E1185A1C302081F843005C
:10592000224494F8451082F84310023313E03046C5
:10593000394604F119020123C047013007D001356F
:10594000E368D9F800209B1A9D42F0DBDBE74FF0BB
:10595000FF30BDE8F8833046394604F14302C047C2
:105960000130F4D02268D9F80050E36802F0060252
:10597000042A08BF5D1B2269A3680CBF25EAE575F0
:1059800000259342C4BF9B1AED184FF00009A945AA
:105990000ADA3046394604F11A020123C0470130C1
:1059A000D5D009F10109F2E70020BDE8F883000035
:1059B0002DE9FF410C461746227E6E2A9846064680
:1059C0000A9B01F1430100F0AF8012D8632A23D073
:1059D0000AD8002A00F0BC80582A40F0CB8084F816
:1059E0004520DFF804E257E0642A1ED0692A1CD063
:1059F000C0E0732A00F0B08009D86F2A2ED0702A38
:105A000040F0B880226842F0200222603FE0752A10
:105A100024D0782A3BD0ADE01A68111D19601368B4
:105A200084F8423004F14205A8E020681A6810F0BA
:105A3000800F02D0101D186008E010F0400F02F136
:105A40000400186002D0B2F9003000E01368002BA7
:105A50003EDA2D225B4284F8432039E020681A6840
:105A600010F0800F02D0101D186007E010F0400FFA
:105A700002F10400186001D0138800E01368227E50
:105A8000DFF864E16F2A0CBF08220A221CE07822AA
:105A9000DFF858E184F845202268186812F0800F7A
:105AA00000F104051D6003D1550601D5038800E00F
:105AB0000368D00744BF42F0200222601BB922686D
:105AC00022F0200222601022002084F8430002E02D
:105AD000DFF814E10A226568A560002DA2BF2068E6
:105AE00020F00400206003B965B10D46B3FBF2F06D
:105AF00002FB10331EF8033005F8013D0346002871
:105B0000F4D100E00D46082A0BD12368DA0708D546
:105B1000236962689A42DEBF302305F8013C05F133
:105B2000FF35491B21612EE025681A68606915F070
:105B3000800F03D0151D1D60136808E015F0400F9D
:105B400002F104051D60136801D0188000E01860A0
:105B5000002323610D4616E01A68111D19601568AF
:105B600062682846002100F053F808B1401B6060CD
:105B7000636804E004F1420584F8422001232361B4
:105B8000002384F84330CDF800803046214603AA34
:105B90003B46FFF797FE013002D14FF0FF301FE088
:105BA000304639462A462369C0470130F5D023687C
:105BB0009B0705D4E068039B9842B8BF18460FE0E6
:105BC0000025E368039A9B1A9D42F3DA3046394672
:105BD00004F119020123C0470130DED00135F0E79E
:105BE00004B0BDE8F08100BF95640000A664000029
:105BF00038B5064C002305460846236000F062F8DD
:105C0000431C02D1236803B12B6038BD2C0A00204D
:105C100010B5C9B202449042034606D01C788C42AB
:105C200000F10100F7D1184610BD002010BD8142DF
:105C300010B501EB020301D3421E0BE09842FBD2E8
:105C40008118D21AD34204D013F8014D01F8014D46
:105C5000F8E710BD994204D011F8014B02F8014F4A
:105C6000F8E710BDF8B5074615460E4621B91146AE
:105C7000BDE8F840FFF784BC1AB9FFF73DFC2846A1
:105C8000F8BD00F015F8A8420ED238462946FFF7B5
:105C900077FC044650B131462A46FFF7F5FB3846FB
:105CA0003146FFF729FC01E03046F8BD2046F8BD3B
:105CB00051F8040C0028BEBF091851F8043CC01864
:105CC00004387047044A05491368002B08BF0B4687
:105CD0001844106018467047A4090020300A0020BC
:105CE000FEE700BFF8B500BFF8BC08BC9E46704791
:105CF000F8B500BFF8BC08BC9E4670475368617297
:105D000070204C53303133423744483033202331F4
:105D100000000000050000000000000040420F00ED
:105D2000050100000000000000000000010000006C
:105D30000500000000000000020000030000000059
:105D400000040A0A0403060608020000000000001E
:105D50000E040E1F081F0C1F0E0E00001000010E77
:105D60000E0E0F0E071F1F0E110E1C110111110E2A
:105D70000F0E0F1E1F11111111111F0E000E040026
:105D80000200010010000C000104080106000000E0
:105D900000000000020000000000000C04060000EB
:105DA0000000000000040A0A1E130904040404048D
:105DB00000000000110611080C0102101111060666
:105DC0000800021110111111090101111104080933
:105DD000011B1111111111010411111111111002E6
:105DE00000080A00040001001000121E010000015A
:105DF000040000000000000002000000000000029B
:105E0000040802000000000000040A1F0108050247
:105E10000208150400000010190410040A0F0108FC
:105E200011110606041F04101011110111010101C6
:105E3000110408050115131111111101041111119B
:105E40000A11080201081100080E0D0E160E0211AB
:105E50000D060C09040B0D0E0F160D0E0711111176
:105E600011111F0204081500000000000004000AC0
:105E70000E04020002080E1F001F00081504080887
:105E800009100F040E1E00000200080816110F0171
:105E9000110F0F1D1F040803011515110F110F0E0F
:105EA00004111115040A0402020800000010130175
:105EB0001911071113040805041513111119130101
:105EC000021111110A11080104100800000000005D
:105ED0000000001F1002150002081504060000044F
:105EE000130404101F10110211100606041F0404ED
:105EF000151F1101110101111104080501111911DA
:105F000001150510041111150A040202040800000D
:105F1000001E1101111F021E1104080304151111A6
:105F20000F1E010E02111115041E040204080000C8
:105F3000000000000000000A0F1909000404040416
:105F400004000602110402110811110211080604CE
:105F500008000200151111110901011111040909AC
:105F6000011111110109091004110A15110401028E
:105F70000808000000111111110102101104090597
:105F8000041111110110011012190A150A10020250
:105F900004080000000000000004000A04181600B5
:105FA00008020000020006010E0E1F0E080E0E026F
:105FB0000E060002100001040E110F0E071F010E45
:105FC000110E06111F11110E0116110F040E040AF5
:105FD00011041F0E100E001F001E0F0E1E0E020ECB
:105FE000110E06090E11110E0110010F0C16040AF4
:105FF000110E1F0C0406000000000000000000004D
:106000000000000000000000000000000000000090
:106010000000000000000000000000000000000080
:106020000000000000000000000000000000000070
:106030000000000000000000000000000000000060
:106040000000000000000000000000000000000050
:106050000000000000000000000000000000000040
:10606000405D0000200301640608020001000000FA
:1060700000186C6C10CE3808600C000000000000A6
:106080007C307C7CC6FE7CFE7C7C000070001C7C2E
:106090007C7C7E7C7EFEFE7CC63C78C606C6C67CCA
:1060A0007E7C7E7C7EC6C6C6C6C6FE7C007C10009A
:1060B0000C00060060003800060000060C0000001E
:1060C00000000000000000000000003018188C00E4
:1060D0000000000000186CFEFC6A2C1830186C18C8
:1060E000000000C0C638C6C6C606C6C0C6C6181858
:1060F000387C38C6C6C6C6C6C60606C6C6183066CA
:1061000006EECEC6C6C6C6C618C6C6C6C6C6C00C2D
:10611000066038000C00060060000C00061830060F
:106120000C00000000000000180000000000001833
:106130001830D60000000000001848FE162E2C185B
:106140001830381800000060C63060C0C60606600F
:10615000C6C618181C7C70C6F6C6C606C606060655
:10616000C618303606FEDEC6C6C6C60618C6C6C681
:106170006CC6600C0C606C00043C3E3C7C3C3C3CBF
:106180003E0000660C6E3E3C3E3C363C186666C6E1
:1061900066667E1818306200000000000018006C6F
:1061A0007C10DC001830FE7E1C7E0030C630307063
:1061B000FE7E7E307CFC00000E00E070F6FE7E0667
:1061C000C61E1EF6FE18301E06D6F6C67EC67E7C9D
:1061D00018C6C6D638FC300C1860C60000606606CB
:1061E00066660C66661830360CD6666666666E069F
:1061F0007C6666C63C66300C006000000000000053
:10620000000000FED0E866001830387E1C7E1C18A6
:10621000C63018C0C0C0C618C6C018181C7C703064
:1062200076C6C606C60606C6C618303606C6E6C612
:1062300006B6C6C018C6C6FE6CC0180C306000009A
:10624000007C6606667E0C7C6618301E0CD6666680
:106250003E56063C186666D6187C181818300000A2
:1062600000000000001800FE7EAC660030186C18BC
:1062700018001C0CC6300CC6C0C6C60CC6C6181802
:10628000387C380006C6C6C6C60606C6C6183666B8
:1062900006C6C6C60666C6C618C66CEEC6C00C0CD8
:1062A000606000FE0066660666060C60661836369C
:1062B0000CC666660626066018663CD63C600C185E
:1062C00018300000000000000018006C10E6DC0030
:1062D000600C00180C001C067C78FE7CC07C7C06E0
:1062E0007C7C000C70001C307CC67E7C7EFE06FC34
:1062F000C63C1CC6FEC6C67C06DCC67C187C38C6FE
:10630000C67EFE7CC07C00FE007C3E3C7C3C0C3E9D
:1063100066701C6638C6663C065C063E707C18FCDF
:10632000663E7E30181800000000000000000000EB
:10633000000000000000000000000000000000005D
:10634000000000000000000000000000000000004D
:10635000000000000000000000000000000000003D
:10636000000000000000000000000000000000002D
:10637000000000000000000000000000000000001D
:10638000000000000000000000000000000000000D
:106390007060000020030164080802000100000092
:1063A00001000000050000000000000000020700DE
:1063B00001000000050000000000000048656C6C52
:1063C0006F0A00004D6F74686572204675636B65D7
:1063D000720A00004869742050423020746F2073A4
:1063E000746172742F73746F700A00004C454473AB
:1063F0000A00000025640000436C6F636B20546941
:106400006D650A000000000000000000FF000000B1
:106410000000000001010300000000004300000034
:106420002C00002000000000000000000000000020
:10643000000000000000000000000000000000005C
:10644000000000000000000000000000000000004C
:10645000000000000000000000000000000000003C
:10646000000000000000000000000000000000002C
:10647000000000000000000000000000000000001C
:1064800000000000232D302B2000686C4C00656656
:106490006745464700303132333435363738394175
:1064A000424344454600303132333435363738398B
:0C64B0006162636465660000000000008B
:0864BC00689CFF7F0100000055
:1064C40000F0490200800000C0EA2101C0EA210175
:1064D4004D04000000000000F40000200010000043
:1064E400C0EA21010C000C000101000000000000C2
:1064F40024640000446400006464000000000000A0
:106504000000000000000000000000001C64000007
:106514000000000000000000000000000000000077
:106524000000000000000000000000000000000067
:106534000000000000000000000000000000000057
:106544000000000000000000000000002C000020FB
:0C655400ED000000C90000000000000085
:04000003000001995F
:00000001FF
