Archive member included because of file (symbol)

c:/siliconlabs/simplicitystudio/v4/developer/toolchains/gnu_arm/4.9_2015q3/bin/../lib/gcc/arm-none-eabi/4.9.3/armv7e-m/softfp\libgcc.a(_arm_addsubdf3.o)
                              ./src/main.o (__aeabi_dadd)
c:/siliconlabs/simplicitystudio/v4/developer/toolchains/gnu_arm/4.9_2015q3/bin/../lib/gcc/arm-none-eabi/4.9.3/armv7e-m/softfp\libgcc.a(_arm_muldivdf3.o)
                              ./src/main.o (__aeabi_ddiv)
c:/siliconlabs/simplicitystudio/v4/developer/toolchains/gnu_arm/4.9_2015q3/bin/../lib/gcc/arm-none-eabi/4.9.3/armv7e-m/softfp\libgcc.a(_aeabi_uldivmod.o)
                              ./emlib/em_usart.o (__aeabi_uldivmod)
c:/siliconlabs/simplicitystudio/v4/developer/toolchains/gnu_arm/4.9_2015q3/bin/../lib/gcc/arm-none-eabi/4.9.3/armv7e-m/softfp\libgcc.a(_fixunsdfdi.o)
                              ./src/main.o (__aeabi_d2ulz)
c:/siliconlabs/simplicitystudio/v4/developer/toolchains/gnu_arm/4.9_2015q3/bin/../lib/gcc/arm-none-eabi/4.9.3/armv7e-m/softfp\libgcc.a(bpabi.o)
                              c:/siliconlabs/simplicitystudio/v4/developer/toolchains/gnu_arm/4.9_2015q3/bin/../lib/gcc/arm-none-eabi/4.9.3/armv7e-m/softfp\libgcc.a(_aeabi_uldivmod.o) (__gnu_uldivmod_helper)
c:/siliconlabs/simplicitystudio/v4/developer/toolchains/gnu_arm/4.9_2015q3/bin/../lib/gcc/arm-none-eabi/4.9.3/armv7e-m/softfp\libgcc.a(_dvmd_tls.o)
                              c:/siliconlabs/simplicitystudio/v4/developer/toolchains/gnu_arm/4.9_2015q3/bin/../lib/gcc/arm-none-eabi/4.9.3/armv7e-m/softfp\libgcc.a(_aeabi_uldivmod.o) (__aeabi_ldiv0)
c:/siliconlabs/simplicitystudio/v4/developer/toolchains/gnu_arm/4.9_2015q3/bin/../lib/gcc/arm-none-eabi/4.9.3/armv7e-m/softfp\libgcc.a(_arm_fixunsdfsi.o)
                              c:/siliconlabs/simplicitystudio/v4/developer/toolchains/gnu_arm/4.9_2015q3/bin/../lib/gcc/arm-none-eabi/4.9.3/armv7e-m/softfp\libgcc.a(_fixunsdfdi.o) (__aeabi_d2uiz)
c:/siliconlabs/simplicitystudio/v4/developer/toolchains/gnu_arm/4.9_2015q3/bin/../lib/gcc/arm-none-eabi/4.9.3/armv7e-m/softfp\libgcc.a(_divdi3.o)
                              c:/siliconlabs/simplicitystudio/v4/developer/toolchains/gnu_arm/4.9_2015q3/bin/../lib/gcc/arm-none-eabi/4.9.3/armv7e-m/softfp\libgcc.a(bpabi.o) (__divdi3)
c:/siliconlabs/simplicitystudio/v4/developer/toolchains/gnu_arm/4.9_2015q3/bin/../lib/gcc/arm-none-eabi/4.9.3/armv7e-m/softfp\libgcc.a(_udivdi3.o)
                              c:/siliconlabs/simplicitystudio/v4/developer/toolchains/gnu_arm/4.9_2015q3/bin/../lib/gcc/arm-none-eabi/4.9.3/armv7e-m/softfp\libgcc.a(bpabi.o) (__udivdi3)
c:/siliconlabs/simplicitystudio/v4/developer/toolchains/gnu_arm/4.9_2015q3/bin/../lib/gcc/arm-none-eabi/4.9.3/../../../../arm-none-eabi/lib/armv7e-m/softfp\libc_nano.a(lib_a-ctype_.o)
                              ./drvr/textdisplay.o (__ctype_ptr__)
c:/siliconlabs/simplicitystudio/v4/developer/toolchains/gnu_arm/4.9_2015q3/bin/../lib/gcc/arm-none-eabi/4.9.3/../../../../arm-none-eabi/lib/armv7e-m/softfp\libc_nano.a(lib_a-exit.o)
                              c:/siliconlabs/simplicitystudio/v4/developer/toolchains/gnu_arm/4.9_2015q3/bin/../lib/gcc/arm-none-eabi/4.9.3/../../../../arm-none-eabi/lib/armv7e-m/softfp/crt0.o (exit)
c:/siliconlabs/simplicitystudio/v4/developer/toolchains/gnu_arm/4.9_2015q3/bin/../lib/gcc/arm-none-eabi/4.9.3/../../../../arm-none-eabi/lib/armv7e-m/softfp\libc_nano.a(lib_a-impure.o)
                              c:/siliconlabs/simplicitystudio/v4/developer/toolchains/gnu_arm/4.9_2015q3/bin/../lib/gcc/arm-none-eabi/4.9.3/../../../../arm-none-eabi/lib/armv7e-m/softfp\libc_nano.a(lib_a-exit.o) (_global_impure_ptr)
c:/siliconlabs/simplicitystudio/v4/developer/toolchains/gnu_arm/4.9_2015q3/bin/../lib/gcc/arm-none-eabi/4.9.3/../../../../arm-none-eabi/lib/armv7e-m/softfp\libc_nano.a(lib_a-init.o)
                              c:/siliconlabs/simplicitystudio/v4/developer/toolchains/gnu_arm/4.9_2015q3/bin/../lib/gcc/arm-none-eabi/4.9.3/../../../../arm-none-eabi/lib/armv7e-m/softfp/crt0.o (__libc_init_array)
c:/siliconlabs/simplicitystudio/v4/developer/toolchains/gnu_arm/4.9_2015q3/bin/../lib/gcc/arm-none-eabi/4.9.3/../../../../arm-none-eabi/lib/armv7e-m/softfp\libc_nano.a(lib_a-memcpy.o)
                              ./drvr/display.o (memcpy)
c:/siliconlabs/simplicitystudio/v4/developer/toolchains/gnu_arm/4.9_2015q3/bin/../lib/gcc/arm-none-eabi/4.9.3/../../../../arm-none-eabi/lib/armv7e-m/softfp\libc_nano.a(lib_a-memset.o)
                              c:/siliconlabs/simplicitystudio/v4/developer/toolchains/gnu_arm/4.9_2015q3/bin/../lib/gcc/arm-none-eabi/4.9.3/../../../../arm-none-eabi/lib/armv7e-m/softfp/crt0.o (memset)
c:/siliconlabs/simplicitystudio/v4/developer/toolchains/gnu_arm/4.9_2015q3/bin/../lib/gcc/arm-none-eabi/4.9.3/../../../../arm-none-eabi/lib/armv7e-m/softfp\libc_nano.a(lib_a-setvbuf.o)
                              ./drvr/retargettextdisplay.o (setvbuf)
c:/siliconlabs/simplicitystudio/v4/developer/toolchains/gnu_arm/4.9_2015q3/bin/../lib/gcc/arm-none-eabi/4.9.3/../../../../arm-none-eabi/lib/armv7e-m/softfp\libc_nano.a(lib_a-sprintf.o)
                              ./src/main.o (sprintf)
c:/siliconlabs/simplicitystudio/v4/developer/toolchains/gnu_arm/4.9_2015q3/bin/../lib/gcc/arm-none-eabi/4.9.3/../../../../arm-none-eabi/lib/armv7e-m/softfp\libc_nano.a(lib_a-fflush.o)
                              c:/siliconlabs/simplicitystudio/v4/developer/toolchains/gnu_arm/4.9_2015q3/bin/../lib/gcc/arm-none-eabi/4.9.3/../../../../arm-none-eabi/lib/armv7e-m/softfp\libc_nano.a(lib_a-setvbuf.o) (_fflush_r)
c:/siliconlabs/simplicitystudio/v4/developer/toolchains/gnu_arm/4.9_2015q3/bin/../lib/gcc/arm-none-eabi/4.9.3/../../../../arm-none-eabi/lib/armv7e-m/softfp\libc_nano.a(lib_a-findfp.o)
                              c:/siliconlabs/simplicitystudio/v4/developer/toolchains/gnu_arm/4.9_2015q3/bin/../lib/gcc/arm-none-eabi/4.9.3/../../../../arm-none-eabi/lib/armv7e-m/softfp\libc_nano.a(lib_a-setvbuf.o) (_cleanup_r)
c:/siliconlabs/simplicitystudio/v4/developer/toolchains/gnu_arm/4.9_2015q3/bin/../lib/gcc/arm-none-eabi/4.9.3/../../../../arm-none-eabi/lib/armv7e-m/softfp\libc_nano.a(lib_a-fwalk.o)
                              c:/siliconlabs/simplicitystudio/v4/developer/toolchains/gnu_arm/4.9_2015q3/bin/../lib/gcc/arm-none-eabi/4.9.3/../../../../arm-none-eabi/lib/armv7e-m/softfp\libc_nano.a(lib_a-findfp.o) (_fwalk)
c:/siliconlabs/simplicitystudio/v4/developer/toolchains/gnu_arm/4.9_2015q3/bin/../lib/gcc/arm-none-eabi/4.9.3/../../../../arm-none-eabi/lib/armv7e-m/softfp\libc_nano.a(lib_a-malloc.o)
                              c:/siliconlabs/simplicitystudio/v4/developer/toolchains/gnu_arm/4.9_2015q3/bin/../lib/gcc/arm-none-eabi/4.9.3/../../../../arm-none-eabi/lib/armv7e-m/softfp\libc_nano.a(lib_a-setvbuf.o) (malloc)
c:/siliconlabs/simplicitystudio/v4/developer/toolchains/gnu_arm/4.9_2015q3/bin/../lib/gcc/arm-none-eabi/4.9.3/../../../../arm-none-eabi/lib/armv7e-m/softfp\libc_nano.a(lib_a-nano-freer.o)
                              c:/siliconlabs/simplicitystudio/v4/developer/toolchains/gnu_arm/4.9_2015q3/bin/../lib/gcc/arm-none-eabi/4.9.3/../../../../arm-none-eabi/lib/armv7e-m/softfp\libc_nano.a(lib_a-setvbuf.o) (_free_r)
c:/siliconlabs/simplicitystudio/v4/developer/toolchains/gnu_arm/4.9_2015q3/bin/../lib/gcc/arm-none-eabi/4.9.3/../../../../arm-none-eabi/lib/armv7e-m/softfp\libc_nano.a(lib_a-nano-mallocr.o)
                              c:/siliconlabs/simplicitystudio/v4/developer/toolchains/gnu_arm/4.9_2015q3/bin/../lib/gcc/arm-none-eabi/4.9.3/../../../../arm-none-eabi/lib/armv7e-m/softfp\libc_nano.a(lib_a-findfp.o) (_malloc_r)
c:/siliconlabs/simplicitystudio/v4/developer/toolchains/gnu_arm/4.9_2015q3/bin/../lib/gcc/arm-none-eabi/4.9.3/../../../../arm-none-eabi/lib/armv7e-m/softfp\libc_nano.a(lib_a-nano-svfprintf.o)
                              c:/siliconlabs/simplicitystudio/v4/developer/toolchains/gnu_arm/4.9_2015q3/bin/../lib/gcc/arm-none-eabi/4.9.3/../../../../arm-none-eabi/lib/armv7e-m/softfp\libc_nano.a(lib_a-sprintf.o) (_svfprintf_r)
c:/siliconlabs/simplicitystudio/v4/developer/toolchains/gnu_arm/4.9_2015q3/bin/../lib/gcc/arm-none-eabi/4.9.3/../../../../arm-none-eabi/lib/armv7e-m/softfp\libc_nano.a(lib_a-nano-vfprintf_i.o)
                              c:/siliconlabs/simplicitystudio/v4/developer/toolchains/gnu_arm/4.9_2015q3/bin/../lib/gcc/arm-none-eabi/4.9.3/../../../../arm-none-eabi/lib/armv7e-m/softfp\libc_nano.a(lib_a-nano-svfprintf.o) (_printf_i)
c:/siliconlabs/simplicitystudio/v4/developer/toolchains/gnu_arm/4.9_2015q3/bin/../lib/gcc/arm-none-eabi/4.9.3/../../../../arm-none-eabi/lib/armv7e-m/softfp\libc_nano.a(lib_a-sbrkr.o)
                              c:/siliconlabs/simplicitystudio/v4/developer/toolchains/gnu_arm/4.9_2015q3/bin/../lib/gcc/arm-none-eabi/4.9.3/../../../../arm-none-eabi/lib/armv7e-m/softfp\libc_nano.a(lib_a-nano-mallocr.o) (_sbrk_r)
c:/siliconlabs/simplicitystudio/v4/developer/toolchains/gnu_arm/4.9_2015q3/bin/../lib/gcc/arm-none-eabi/4.9.3/../../../../arm-none-eabi/lib/armv7e-m/softfp\libc_nano.a(lib_a-stdio.o)
                              c:/siliconlabs/simplicitystudio/v4/developer/toolchains/gnu_arm/4.9_2015q3/bin/../lib/gcc/arm-none-eabi/4.9.3/../../../../arm-none-eabi/lib/armv7e-m/softfp\libc_nano.a(lib_a-findfp.o) (__sread)
c:/siliconlabs/simplicitystudio/v4/developer/toolchains/gnu_arm/4.9_2015q3/bin/../lib/gcc/arm-none-eabi/4.9.3/../../../../arm-none-eabi/lib/armv7e-m/softfp\libc_nano.a(lib_a-writer.o)
                              c:/siliconlabs/simplicitystudio/v4/developer/toolchains/gnu_arm/4.9_2015q3/bin/../lib/gcc/arm-none-eabi/4.9.3/../../../../arm-none-eabi/lib/armv7e-m/softfp\libc_nano.a(lib_a-stdio.o) (_write_r)
c:/siliconlabs/simplicitystudio/v4/developer/toolchains/gnu_arm/4.9_2015q3/bin/../lib/gcc/arm-none-eabi/4.9.3/../../../../arm-none-eabi/lib/armv7e-m/softfp\libc_nano.a(lib_a-closer.o)
                              c:/siliconlabs/simplicitystudio/v4/developer/toolchains/gnu_arm/4.9_2015q3/bin/../lib/gcc/arm-none-eabi/4.9.3/../../../../arm-none-eabi/lib/armv7e-m/softfp\libc_nano.a(lib_a-stdio.o) (_close_r)
c:/siliconlabs/simplicitystudio/v4/developer/toolchains/gnu_arm/4.9_2015q3/bin/../lib/gcc/arm-none-eabi/4.9.3/../../../../arm-none-eabi/lib/armv7e-m/softfp\libc_nano.a(lib_a-lseekr.o)
                              c:/siliconlabs/simplicitystudio/v4/developer/toolchains/gnu_arm/4.9_2015q3/bin/../lib/gcc/arm-none-eabi/4.9.3/../../../../arm-none-eabi/lib/armv7e-m/softfp\libc_nano.a(lib_a-stdio.o) (_lseek_r)
c:/siliconlabs/simplicitystudio/v4/developer/toolchains/gnu_arm/4.9_2015q3/bin/../lib/gcc/arm-none-eabi/4.9.3/../../../../arm-none-eabi/lib/armv7e-m/softfp\libc_nano.a(lib_a-memchr.o)
                              c:/siliconlabs/simplicitystudio/v4/developer/toolchains/gnu_arm/4.9_2015q3/bin/../lib/gcc/arm-none-eabi/4.9.3/../../../../arm-none-eabi/lib/armv7e-m/softfp\libc_nano.a(lib_a-nano-svfprintf.o) (memchr)
c:/siliconlabs/simplicitystudio/v4/developer/toolchains/gnu_arm/4.9_2015q3/bin/../lib/gcc/arm-none-eabi/4.9.3/../../../../arm-none-eabi/lib/armv7e-m/softfp\libc_nano.a(lib_a-memmove.o)
                              c:/siliconlabs/simplicitystudio/v4/developer/toolchains/gnu_arm/4.9_2015q3/bin/../lib/gcc/arm-none-eabi/4.9.3/../../../../arm-none-eabi/lib/armv7e-m/softfp\libc_nano.a(lib_a-nano-svfprintf.o) (memmove)
c:/siliconlabs/simplicitystudio/v4/developer/toolchains/gnu_arm/4.9_2015q3/bin/../lib/gcc/arm-none-eabi/4.9.3/../../../../arm-none-eabi/lib/armv7e-m/softfp\libc_nano.a(lib_a-nano-reallocr.o)
                              c:/siliconlabs/simplicitystudio/v4/developer/toolchains/gnu_arm/4.9_2015q3/bin/../lib/gcc/arm-none-eabi/4.9.3/../../../../arm-none-eabi/lib/armv7e-m/softfp\libc_nano.a(lib_a-nano-svfprintf.o) (_realloc_r)
c:/siliconlabs/simplicitystudio/v4/developer/toolchains/gnu_arm/4.9_2015q3/bin/../lib/gcc/arm-none-eabi/4.9.3/../../../../arm-none-eabi/lib/armv7e-m/softfp\libc_nano.a(lib_a-readr.o)
                              c:/siliconlabs/simplicitystudio/v4/developer/toolchains/gnu_arm/4.9_2015q3/bin/../lib/gcc/arm-none-eabi/4.9.3/../../../../arm-none-eabi/lib/armv7e-m/softfp\libc_nano.a(lib_a-stdio.o) (_read_r)
c:/siliconlabs/simplicitystudio/v4/developer/toolchains/gnu_arm/4.9_2015q3/bin/../lib/gcc/arm-none-eabi/4.9.3/../../../../arm-none-eabi/lib/armv7e-m/softfp\libc_nano.a(lib_a-reent.o)
                              c:/siliconlabs/simplicitystudio/v4/developer/toolchains/gnu_arm/4.9_2015q3/bin/../lib/gcc/arm-none-eabi/4.9.3/../../../../arm-none-eabi/lib/armv7e-m/softfp\libc_nano.a(lib_a-sbrkr.o) (errno)
c:/siliconlabs/simplicitystudio/v4/developer/toolchains/gnu_arm/4.9_2015q3/bin/../lib/gcc/arm-none-eabi/4.9.3/../../../../arm-none-eabi/lib/armv7e-m/softfp\libc_nano.a(lib_a-nano-msizer.o)
                              c:/siliconlabs/simplicitystudio/v4/developer/toolchains/gnu_arm/4.9_2015q3/bin/../lib/gcc/arm-none-eabi/4.9.3/../../../../arm-none-eabi/lib/armv7e-m/softfp\libc_nano.a(lib_a-nano-reallocr.o) (_malloc_usable_size_r)
c:/siliconlabs/simplicitystudio/v4/developer/toolchains/gnu_arm/4.9_2015q3/bin/../lib/gcc/arm-none-eabi/4.9.3/../../../../arm-none-eabi/lib/armv7e-m/softfp\libnosys.a(close.o)
                              c:/siliconlabs/simplicitystudio/v4/developer/toolchains/gnu_arm/4.9_2015q3/bin/../lib/gcc/arm-none-eabi/4.9.3/../../../../arm-none-eabi/lib/armv7e-m/softfp\libc_nano.a(lib_a-closer.o) (_close)
c:/siliconlabs/simplicitystudio/v4/developer/toolchains/gnu_arm/4.9_2015q3/bin/../lib/gcc/arm-none-eabi/4.9.3/../../../../arm-none-eabi/lib/armv7e-m/softfp\libnosys.a(lseek.o)
                              c:/siliconlabs/simplicitystudio/v4/developer/toolchains/gnu_arm/4.9_2015q3/bin/../lib/gcc/arm-none-eabi/4.9.3/../../../../arm-none-eabi/lib/armv7e-m/softfp\libc_nano.a(lib_a-lseekr.o) (_lseek)
c:/siliconlabs/simplicitystudio/v4/developer/toolchains/gnu_arm/4.9_2015q3/bin/../lib/gcc/arm-none-eabi/4.9.3/../../../../arm-none-eabi/lib/armv7e-m/softfp\libnosys.a(read.o)
                              c:/siliconlabs/simplicitystudio/v4/developer/toolchains/gnu_arm/4.9_2015q3/bin/../lib/gcc/arm-none-eabi/4.9.3/../../../../arm-none-eabi/lib/armv7e-m/softfp\libc_nano.a(lib_a-readr.o) (_read)
c:/siliconlabs/simplicitystudio/v4/developer/toolchains/gnu_arm/4.9_2015q3/bin/../lib/gcc/arm-none-eabi/4.9.3/../../../../arm-none-eabi/lib/armv7e-m/softfp\libnosys.a(sbrk.o)
                              c:/siliconlabs/simplicitystudio/v4/developer/toolchains/gnu_arm/4.9_2015q3/bin/../lib/gcc/arm-none-eabi/4.9.3/../../../../arm-none-eabi/lib/armv7e-m/softfp\libc_nano.a(lib_a-sbrkr.o) (_sbrk)
c:/siliconlabs/simplicitystudio/v4/developer/toolchains/gnu_arm/4.9_2015q3/bin/../lib/gcc/arm-none-eabi/4.9.3/../../../../arm-none-eabi/lib/armv7e-m/softfp\libnosys.a(write.o)
                              c:/siliconlabs/simplicitystudio/v4/developer/toolchains/gnu_arm/4.9_2015q3/bin/../lib/gcc/arm-none-eabi/4.9.3/../../../../arm-none-eabi/lib/armv7e-m/softfp\libc_nano.a(lib_a-writer.o) (_write)
c:/siliconlabs/simplicitystudio/v4/developer/toolchains/gnu_arm/4.9_2015q3/bin/../lib/gcc/arm-none-eabi/4.9.3/../../../../arm-none-eabi/lib/armv7e-m/softfp\libnosys.a(_exit.o)
                              c:/siliconlabs/simplicitystudio/v4/developer/toolchains/gnu_arm/4.9_2015q3/bin/../lib/gcc/arm-none-eabi/4.9.3/../../../../arm-none-eabi/lib/armv7e-m/softfp\libc_nano.a(lib_a-exit.o) (_exit)

Allocating common symbols
Common symbol       size              file

charBufferDevice0   0x150             ./drvr/textdisplay.o
next_step           0x18              ./src/main.o
errno               0x4               c:/siliconlabs/simplicitystudio/v4/developer/toolchains/gnu_arm/4.9_2015q3/bin/../lib/gcc/arm-none-eabi/4.9.3/../../../../arm-none-eabi/lib/armv7e-m/softfp\libc_nano.a(lib_a-reent.o)
dirtyRows           0x10              ./drvr/dmd_display.o
bmpHeader           0x36              ./drvr/bmp.o
bmpPalette          0x8               ./drvr/bmp.o
program_button      0x10              ./src/main.o
mode_timeout        0x18              ./src/main.o
button2             0x10              ./src/main.o
time_keeper         0x8               ./src/main.o
button1             0x10              ./src/main.o
fpReadData          0x4               ./drvr/bmp.o
rleInfo             0xc               ./drvr/bmp.o
charArrayDevice0    0x40              ./drvr/textdisplay.o
button_array        0xc               ./src/main.o

Discarded input sections

 .text          0x00000000        0x0 c:/siliconlabs/simplicitystudio/v4/developer/toolchains/gnu_arm/4.9_2015q3/bin/../lib/gcc/arm-none-eabi/4.9.3/armv7e-m/softfp/crti.o
 .data          0x00000000        0x0 c:/siliconlabs/simplicitystudio/v4/developer/toolchains/gnu_arm/4.9_2015q3/bin/../lib/gcc/arm-none-eabi/4.9.3/armv7e-m/softfp/crti.o
 .bss           0x00000000        0x0 c:/siliconlabs/simplicitystudio/v4/developer/toolchains/gnu_arm/4.9_2015q3/bin/../lib/gcc/arm-none-eabi/4.9.3/armv7e-m/softfp/crti.o
 .data          0x00000000        0x4 c:/siliconlabs/simplicitystudio/v4/developer/toolchains/gnu_arm/4.9_2015q3/bin/../lib/gcc/arm-none-eabi/4.9.3/armv7e-m/softfp/crtbegin.o
 .data          0x00000000        0x0 c:/siliconlabs/simplicitystudio/v4/developer/toolchains/gnu_arm/4.9_2015q3/bin/../lib/gcc/arm-none-eabi/4.9.3/../../../../arm-none-eabi/lib/armv7e-m/softfp/crt0.o
 .bss           0x00000000        0x0 c:/siliconlabs/simplicitystudio/v4/developer/toolchains/gnu_arm/4.9_2015q3/bin/../lib/gcc/arm-none-eabi/4.9.3/../../../../arm-none-eabi/lib/armv7e-m/softfp/crt0.o
 .ARM.extab     0x00000000        0x0 c:/siliconlabs/simplicitystudio/v4/developer/toolchains/gnu_arm/4.9_2015q3/bin/../lib/gcc/arm-none-eabi/4.9.3/../../../../arm-none-eabi/lib/armv7e-m/softfp/crt0.o
 .data          0x00000000        0x0 ./CMSIS/EFR32MG1P/startup_efr32mg1p.o
 .bss           0x00000000        0x0 ./CMSIS/EFR32MG1P/startup_efr32mg1p.o
 .text          0x00000000        0x0 ./CMSIS/EFR32MG1P/system_efr32mg1p.o
 .data          0x00000000        0x0 ./CMSIS/EFR32MG1P/system_efr32mg1p.o
 .bss           0x00000000        0x0 ./CMSIS/EFR32MG1P/system_efr32mg1p.o
 .text.SystemHFXOClockGet
                0x00000000       0x18 ./CMSIS/EFR32MG1P/system_efr32mg1p.o
 .text.SystemHFXOClockSet
                0x00000000       0x30 ./CMSIS/EFR32MG1P/system_efr32mg1p.o
 .text.SystemLFXOClockSet
                0x00000000       0x30 ./CMSIS/EFR32MG1P/system_efr32mg1p.o
Memory Configuration

Name             Origin             Length             Attributes
FLASH            0x00000000         0x00040000         xr
RAM              0x20000000         0x00008000         xrw
*default*        0x00000000         0xffffffff

Linker script and memory map

LOAD c:/siliconlabs/simplicitystudio/v4/developer/toolchains/gnu_arm/4.9_2015q3/bin/../lib/gcc/arm-none-eabi/4.9.3/armv7e-m/softfp/crti.o
LOAD c:/siliconlabs/simplicitystudio/v4/developer/toolchains/gnu_arm/4.9_2015q3/bin/../lib/gcc/arm-none-eabi/4.9.3/armv7e-m/softfp/crtbegin.o
LOAD c:/siliconlabs/simplicitystudio/v4/developer/toolchains/gnu_arm/4.9_2015q3/bin/../lib/gcc/arm-none-eabi/4.9.3/../../../../arm-none-eabi/lib/armv7e-m/softfp/crt0.o
LOAD ./CMSIS/EFR32MG1P/startup_efr32mg1p.o
LOAD ./CMSIS/EFR32MG1P/system_efr32mg1p.o
LOAD ./drvr/bmp.o
LOAD ./drvr/bsp_bcc.o
LOAD ./drvr/bsp_dk_3200.o
LOAD ./drvr/bsp_dk_leds.o
LOAD ./drvr/bsp_dk_mcuboard.o
LOAD ./drvr/bsp_stk.o
LOAD ./drvr/bsp_stk_leds.o
LOAD ./drvr/bsp_trace.o
LOAD ./drvr/display.o
LOAD ./drvr/displayls013b7dh03.o
LOAD ./drvr/displaypalemlib.o
LOAD ./drvr/dmd_display.o
LOAD ./drvr/glib.o
LOAD ./drvr/glib_circle.o
LOAD ./drvr/glib_font_narrow_6x8.o
LOAD ./drvr/glib_font_normal_8x8.o
LOAD ./drvr/glib_font_number_16x20.o
LOAD ./drvr/glib_line.o
LOAD ./drvr/glib_polygon.o
LOAD ./drvr/glib_rectangle.o
LOAD ./drvr/glib_string.o
LOAD ./drvr/retargettextdisplay.o
LOAD ./drvr/textdisplay.o
LOAD ./drvr/udelay.o
LOAD ./emlib/em_cmu.o
LOAD ./emlib/em_core.o
LOAD ./emlib/em_emu.o
LOAD ./emlib/em_gpio.o
LOAD ./emlib/em_pcnt.o
LOAD ./emlib/em_prs.o
LOAD ./emlib/em_rtc.o
LOAD ./emlib/em_rtcc.o
LOAD ./emlib/em_system.o
LOAD ./emlib/em_timer.o
LOAD ./emlib/em_usart.o
LOAD ./src/graphics.o
LOAD ./src/main.o
START GROUP
LOAD c:/siliconlabs/simplicitystudio/v4/developer/toolchains/gnu_arm/4.9_2015q3/bin/../lib/gcc/arm-none-eabi/4.9.3/armv7e-m/softfp\libgcc.a
LOAD c:/siliconlabs/simplicitystudio/v4/developer/toolchains/gnu_arm/4.9_2015q3/bin/../lib/gcc/arm-none-eabi/4.9.3/../../../../arm-none-eabi/lib/armv7e-m/softfp\libc_nano.a
LOAD c:/siliconlabs/simplicitystudio/v4/developer/toolchains/gnu_arm/4.9_2015q3/bin/../lib/gcc/arm-none-eabi/4.9.3/../../../../arm-none-eabi/lib/armv7e-m/softfp\libnosys.a
END GROUP
START GROUP
LOAD c:/siliconlabs/simplicitystudio/v4/developer/toolchains/gnu_arm/4.9_2015q3/bin/../lib/gcc/arm-none-eabi/4.9.3/armv7e-m/softfp\libgcc.a
LOAD c:/siliconlabs/simplicitystudio/v4/developer/toolchains/gnu_arm/4.9_2015q3/bin/../lib/gcc/arm-none-eabi/4.9.3/../../../../arm-none-eabi/lib/armv7e-m/softfp\libg_nano.a
LOAD c:/siliconlabs/simplicitystudio/v4/developer/toolchains/gnu_arm/4.9_2015q3/bin/../lib/gcc/arm-none-eabi/4.9.3/../../../../arm-none-eabi/lib/armv7e-m/softfp\libc_nano.a
END GROUP
START GROUP
LOAD c:/siliconlabs/simplicitystudio/v4/developer/toolchains/gnu_arm/4.9_2015q3/bin/../lib/gcc/arm-none-eabi/4.9.3/armv7e-m/softfp\libgcc.a
LOAD c:/siliconlabs/simplicitystudio/v4/developer/toolchains/gnu_arm/4.9_2015q3/bin/../lib/gcc/arm-none-eabi/4.9.3/../../../../arm-none-eabi/lib/armv7e-m/softfp\libc_nano.a
END GROUP
LOAD c:/siliconlabs/simplicitystudio/v4/developer/toolchains/gnu_arm/4.9_2015q3/bin/../lib/gcc/arm-none-eabi/4.9.3/armv7e-m/softfp/crtend.o
LOAD c:/siliconlabs/simplicitystudio/v4/developer/toolchains/gnu_arm/4.9_2015q3/bin/../lib/gcc/arm-none-eabi/4.9.3/armv7e-m/softfp/crtn.o

.text           0x00000000     0x64bc
 *(.vectors)
 .vectors       0x00000000       0xc8 ./CMSIS/EFR32MG1P/startup_efr32mg1p.o
                0x00000000                __Vectors
                0x000000c8                __Vectors_End = .
                0x000000c8                __Vectors_Size = (__Vectors_End - __Vectors)
                0x000000c8                __end__ = .
 *(.text*)
 .text          0x000000c8       0x5c c:/siliconlabs/simplicitystudio/v4/developer/toolchains/gnu_arm/4.9_2015q3/bin/../lib/gcc/arm-none-eabi/4.9.3/armv7e-m/softfp/crtbegin.o
 .text          0x00000124       0x74 c:/siliconlabs/simplicitystudio/v4/developer/toolchains/gnu_arm/4.9_2015q3/bin/../lib/gcc/arm-none-eabi/4.9.3/../../../../arm-none-eabi/lib/armv7e-m/softfp/crt0.o
                0x00000124                _start
                0x00000124                _mainCRTStartup
 .text          0x00000198       0x30 ./CMSIS/EFR32MG1P/startup_efr32mg1p.o
                0x00000198                Reset_Handler
                0x000001c4                USART0_TX_IRQHandler
                0x000001c4                I2C0_IRQHandler
                0x000001c4                HardFault_Handler
                0x000001c4                USART1_RX_IRQHandler
                0x000001c4                PendSV_Handler
                0x000001c4                NMI_Handler
                0x000001c4                SYNTH_IRQHandler
                0x000001c4                WDOG0_IRQHandler
                0x000001c4                USART1_TX_IRQHandler
                0x000001c4                MSC_IRQHandler
                0x000001c4                ADC0_IRQHandler
                0x000001c4                UsageFault_Handler
                0x000001c4                LEUART0_IRQHandler
                0x000001c4                FPUEH_IRQHandler
                0x000001c4                GPIO_EVEN_IRQHandler
                0x000001c4                LDMA_IRQHandler
                0x000001c4                TIMER0_IRQHandler
                0x000001c4                DebugMon_Handler
                0x000001c4                LETIMER0_IRQHandler
                0x000001c4                RFSENSE_IRQHandler
                0x000001c4                BUFC_IRQHandler
                0x000001c4                MODEM_IRQHandler
                0x000001c4                Default_Handler
                0x000001c4                RAC_SEQ_IRQHandler
                0x000001c4                FRC_PRI_IRQHandler
                0x000001c4                EMU_IRQHandler
                0x000001c4                FRC_IRQHandler
                0x000001c4                CRYOTIMER_IRQHandler
                0x000001c4                AGC_IRQHandler
                0x000001c4                ACMP0_IRQHandler
                0x000001c4                USART0_RX_IRQHandler
                0x000001c4                MemManage_Handler
                0x000001c4                SVC_Handler
                0x000001c4                RTCC_IRQHandler
                0x000001c4                CRYPTO_IRQHandler
                0x000001c4                CMU_IRQHandler
                0x000001c4                RAC_RSM_IRQHandler
                0x000001c4                GPIO_ODD_IRQHandler
                0x000001c4                PROTIMER_IRQHandler
                0x000001c4                BusFault_Handler
                0x000001c4                IDAC0_IRQHandler
 .text.SystemCoreClockGet
                0x000001c8       0x44 ./CMSIS/EFR32MG1P/system_efr32mg1p.o
                0x000001c8                SystemCoreClockGet
 .text.SystemMaxCoreClockGet
                0x0000020c       0x14 ./CMSIS/EFR32MG1P/system_efr32mg1p.o
                0x0000020c                SystemMaxCoreClockGet
 .text.SystemHFClockGet
                0x00000220       0x70 ./CMSIS/EFR32MG1P/system_efr32mg1p.o
                0x00000220                SystemHFClockGet
 .text.SystemInit
                0x00000290       0x5c ./CMSIS/EFR32MG1P/system_efr32mg1p.o
                0x00000290                SystemInit
 .text.SystemLFRCOClockGet
                0x000002ec       0x14 ./CMSIS/EFR32MG1P/system_efr32mg1p.o
                0x000002ec                SystemLFRCOClockGet
 .text.SystemULFRCOClockGet
                0x00000300       0x14 ./CMSIS/EFR32MG1P/system_efr32mg1p.o
                0x00000300                SystemULFRCOClockGet
 .text.SystemLFXOClockGet
                0x00000314       0x18 ./CMSIS/EFR32MG1P/system_efr32mg1p.o
                0x00000314                SystemLFXOClockGet
 .text.DISPLAY_Init
                0x0000032c       0x54 ./drvr/display.o
                0x0000032c                DISPLAY_Init
 .text.DISPLAY_DeviceGet
                0x00000380       0x60 ./drvr/display.o
                0x00000380                DISPLAY_DeviceGet
 .text.DISPLAY_DeviceRegister
                0x000003e0       0x6c ./drvr/display.o
                0x000003e0                DISPLAY_DeviceRegister
 .text.DISPLAY_Ls013b7dh03Init
                0x0000044c       0xd8 ./drvr/displayls013b7dh03.o
                0x0000044c                DISPLAY_Ls013b7dh03Init
 .text.DriverRefresh
                0x00000524       0x20 ./drvr/displayls013b7dh03.o
 .text.DisplayEnable
                0x00000544       0x30 ./drvr/displayls013b7dh03.o
 .text.DisplayClear
                0x00000574       0x48 ./drvr/displayls013b7dh03.o
 .text.PixelMatrixAllocate
                0x000005bc       0x70 ./drvr/displayls013b7dh03.o
 .text.PixelMatrixFree
                0x0000062c       0x1c ./drvr/displayls013b7dh03.o
 .text.PixelMatrixClear
                0x00000648       0x40 ./drvr/displayls013b7dh03.o
 .text.PixelMatrixDraw
                0x00000688       0xb8 ./drvr/displayls013b7dh03.o
 .text.BUS_RegMaskedSet
                0x00000740       0x24 ./drvr/displaypalemlib.o
 .text.BUS_RegMaskedClear
                0x00000764       0x24 ./drvr/displaypalemlib.o
 .text.GPIO_PinOutClear
                0x00000788       0x58 ./drvr/displaypalemlib.o
 .text.GPIO_PinOutSet
                0x000007e0       0x58 ./drvr/displaypalemlib.o
 .text.RTCC_ChannelCCVSet
                0x00000838       0x28 ./drvr/displaypalemlib.o
 .text.PAL_SpiInit
                0x00000860       0x64 ./drvr/displaypalemlib.o
                0x00000860                PAL_SpiInit
 .text.PAL_SpiTransmit
                0x000008c4       0x74 ./drvr/displaypalemlib.o
                0x000008c4                PAL_SpiTransmit
 .text.PAL_TimerInit
                0x00000938       0x18 ./drvr/displaypalemlib.o
                0x00000938                PAL_TimerInit
 .text.PAL_TimerMicroSecondsDelay
                0x00000950       0x1c ./drvr/displaypalemlib.o
                0x00000950                PAL_TimerMicroSecondsDelay
 .text.PAL_GpioInit
                0x0000096c       0x20 ./drvr/displaypalemlib.o
                0x0000096c                PAL_GpioInit
 .text.PAL_GpioPinModeSet
                0x0000098c       0x44 ./drvr/displaypalemlib.o
                0x0000098c                PAL_GpioPinModeSet
 .text.PAL_GpioPinOutSet
                0x000009d0       0x24 ./drvr/displaypalemlib.o
                0x000009d0                PAL_GpioPinOutSet
 .text.PAL_GpioPinOutClear
                0x000009f4       0x24 ./drvr/displaypalemlib.o
                0x000009f4                PAL_GpioPinOutClear
 .text.PAL_GpioPinAutoToggle
                0x00000a18       0x70 ./drvr/displaypalemlib.o
                0x00000a18                PAL_GpioPinAutoToggle
 .text.palClockSetup
                0x00000a88       0x24 ./drvr/displaypalemlib.o
 .text.rtccSetup
                0x00000aac       0xa0 ./drvr/displaypalemlib.o
 .text.DMD_init
                0x00000b4c       0xc8 ./drvr/dmd_display.o
                0x00000b4c                DMD_init
 .text.DMD_getDisplayGeometry
                0x00000c14       0x38 ./drvr/dmd_display.o
                0x00000c14                DMD_getDisplayGeometry
 .text.DMD_setClippingArea
                0x00000c4c       0x8c ./drvr/dmd_display.o
                0x00000c4c                DMD_setClippingArea
 .text.DMD_writeColor
                0x00000cd8      0x2a0 ./drvr/dmd_display.o
                0x00000cd8                DMD_writeColor
 .text.DMD_allocateFramebuffer
                0x00000f78       0x54 ./drvr/dmd_display.o
                0x00000f78                DMD_allocateFramebuffer
 .text.DMD_updateDisplay
                0x00000fcc      0x114 ./drvr/dmd_display.o
                0x00000fcc                DMD_updateDisplay
 .text.GLIB_colorTranslate24bppInl
                0x000010e0       0x34 ./drvr/glib.o
 .text.GLIB_contextInit
                0x00001114       0x84 ./drvr/glib.o
                0x00001114                GLIB_contextInit
 .text.GLIB_setClippingRegion
                0x00001198       0xa4 ./drvr/glib.o
                0x00001198                GLIB_setClippingRegion
 .text.GLIB_clear
                0x0000123c       0x70 ./drvr/glib.o
                0x0000123c                GLIB_clear
 .text.GLIB_resetDisplayClippingArea
                0x000012ac       0x30 ./drvr/glib.o
                0x000012ac                GLIB_resetDisplayClippingArea
 .text.GLIB_applyClippingRegion
                0x000012dc       0x58 ./drvr/glib.o
                0x000012dc                GLIB_applyClippingRegion
 .text.GLIB_colorTranslate24bpp
                0x00001334       0x20 ./drvr/glib.o
                0x00001334                GLIB_colorTranslate24bpp
 .text.GLIB_drawPixel
                0x00001354       0x6c ./drvr/glib.o
                0x00001354                GLIB_drawPixel
 .text.GLIB_drawPixelColor
                0x000013c0       0x6c ./drvr/glib.o
                0x000013c0                GLIB_drawPixelColor
 .text.GLIB_rectContainsPoint
                0x0000142c       0x4c ./drvr/glib_rectangle.o
                0x0000142c                GLIB_rectContainsPoint
 .text.GLIB_drawChar
                0x00001478      0x1d8 ./drvr/glib_string.o
                0x00001478                GLIB_drawChar
 .text.GLIB_drawString
                0x00001650       0xd0 ./drvr/glib_string.o
                0x00001650                GLIB_drawString
 .text.GLIB_setFont
                0x00001720       0x44 ./drvr/glib_string.o
                0x00001720                GLIB_setFont
 .text.NVIC_ClearPendingIRQ
                0x00001764       0x34 ./drvr/udelay.o
 .text.RTCC_CounterGet
                0x00001798       0x18 ./drvr/udelay.o
 .text.UDELAY_Calibrate
                0x000017b0      0x190 ./drvr/udelay.o
                0x000017b0                UDELAY_Calibrate
 .text.UDELAY_Delay
                0x00001940       0x38 ./drvr/udelay.o
                0x00001940                UDELAY_Delay
 .text.calibrate_delay
                0x00001978       0xd8 ./drvr/udelay.o
 .text.clock    0x00001a50       0x10 ./drvr/udelay.o
 .text._delay   0x00001a60       0x18 ./drvr/udelay.o
 .text.BUS_RegBitWrite
                0x00001a78       0x2c ./emlib/em_cmu.o
 .text.BUS_RegBitRead
                0x00001aa4       0x2c ./emlib/em_cmu.o
 .text.BUS_RegMaskedSet
                0x00001ad0       0x24 ./emlib/em_cmu.o
 .text.BUS_RegMaskedClear
                0x00001af4       0x24 ./emlib/em_cmu.o
 .text.BUS_RegMaskedWrite
                0x00001b18       0x24 ./emlib/em_cmu.o
 .text.BUS_RegMaskedRead
                0x00001b3c       0x20 ./emlib/em_cmu.o
 .text.CMU_Log2ToDiv
                0x00001b5c       0x1c ./emlib/em_cmu.o
 .text.CMU_PrescToLog2
                0x00001b78       0x28 ./emlib/em_cmu.o
 .text.setHfLeConfig
                0x00001ba0       0x3c ./emlib/em_cmu.o
 .text.getHfLeConfig
                0x00001bdc       0x2c ./emlib/em_cmu.o
 .text.auxClkGet
                0x00001c08       0x20 ./emlib/em_cmu.o
 .text.dbgClkGet
                0x00001c28       0x40 ./emlib/em_cmu.o
 .text.flashWaitStateControl
                0x00001c68       0x78 ./emlib/em_cmu.o
 .text.flashWaitStateMax
                0x00001ce0       0x14 ./emlib/em_cmu.o
 .text.getRegIshUpperVal
                0x00001cf4       0x38 ./emlib/em_cmu.o
 .text.lfClkGet
                0x00001d2c       0xec ./emlib/em_cmu.o
 .text.syncReg  0x00001e18       0x38 ./emlib/em_cmu.o
 .text.CMU_ClockDivGet
                0x00001e50       0x1c ./emlib/em_cmu.o
                0x00001e50                CMU_ClockDivGet
 .text.CMU_ClockDivSet
                0x00001e6c       0x1c ./emlib/em_cmu.o
                0x00001e6c                CMU_ClockDivSet
 .text.CMU_ClockEnable
                0x00001e88       0xcc ./emlib/em_cmu.o
                0x00001e88                CMU_ClockEnable
 .text.CMU_ClockFreqGet
                0x00001f54      0x188 ./emlib/em_cmu.o
                0x00001f54                CMU_ClockFreqGet
 .text.CMU_ClockPrescGet
                0x000020dc      0x120 ./emlib/em_cmu.o
                0x000020dc                CMU_ClockPrescGet
 .text.CMU_ClockPrescSet
                0x000021fc      0x1e8 ./emlib/em_cmu.o
                0x000021fc                CMU_ClockPrescSet
 .text.CMU_ClockSelectGet
                0x000023e4      0x14c ./emlib/em_cmu.o
                0x000023e4                CMU_ClockSelectGet
 .text.CMU_ClockSelectSet
                0x00002530      0x1cc ./emlib/em_cmu.o
                0x00002530                CMU_ClockSelectSet
 .text.CMU_OscillatorEnable
                0x000026fc      0x180 ./emlib/em_cmu.o
                0x000026fc                CMU_OscillatorEnable
 .text.CMU_OscillatorTuningGet
                0x0000287c       0x74 ./emlib/em_cmu.o
                0x0000287c                CMU_OscillatorTuningGet
 .text.CMU_OscillatorTuningSet
                0x000028f0      0x100 ./emlib/em_cmu.o
                0x000028f0                CMU_OscillatorTuningSet
 .text.CMU_OscillatorTuningWait
                0x000029f0       0x94 ./emlib/em_cmu.o
                0x000029f0                CMU_OscillatorTuningWait
 .text.CMU_OscillatorTuningOptimize
                0x00002a84       0x54 ./emlib/em_cmu.o
                0x00002a84                CMU_OscillatorTuningOptimize
 .text.CMU_PCNTClockExternalSet
                0x00002ad8       0x34 ./emlib/em_cmu.o
                0x00002ad8                CMU_PCNTClockExternalSet
 .text.CORE_EnterAtomic
                0x00002b0c       0x20 ./emlib/em_core.o
                0x00002b0c                CORE_EnterAtomic
 .text.CORE_ExitAtomic
                0x00002b2c       0x1c ./emlib/em_core.o
                0x00002b2c                CORE_ExitAtomic
 .text.BUS_RegMaskedSet
                0x00002b48       0x24 ./emlib/em_gpio.o
 .text.BUS_RegMaskedClear
                0x00002b6c       0x24 ./emlib/em_gpio.o
 .text.GPIO_PinOutClear
                0x00002b90       0x58 ./emlib/em_gpio.o
 .text.GPIO_PinOutSet
                0x00002be8       0x58 ./emlib/em_gpio.o
 .text.GPIO_PinModeSet
                0x00002c40      0x10c ./emlib/em_gpio.o
                0x00002c40                GPIO_PinModeSet
 .text.BUS_RegBitWrite
                0x00002d4c       0x2c ./emlib/em_pcnt.o
 .text.PCNT_Map
                0x00002d78       0x20 ./emlib/em_pcnt.o
 .text.PCNT_Sync
                0x00002d98       0x30 ./emlib/em_pcnt.o
 .text.PCNT_CounterTopSet
                0x00002dc8       0x9c ./emlib/em_pcnt.o
                0x00002dc8                PCNT_CounterTopSet
 .text.PCNT_PRSInputEnable
                0x00002e64       0x4c ./emlib/em_pcnt.o
                0x00002e64                PCNT_PRSInputEnable
 .text.PCNT_Init
                0x00002eb0      0x1ac ./emlib/em_pcnt.o
                0x00002eb0                PCNT_Init
 .text.PRS_SourceAsyncSignalSet
                0x0000305c       0x38 ./emlib/em_prs.o
                0x0000305c                PRS_SourceAsyncSignalSet
 .text.BUS_RegBitWrite
                0x00003094       0x2c ./emlib/em_rtcc.o
 .text.RTCC_ChannelInit
                0x000030c0       0x5c ./emlib/em_rtcc.o
                0x000030c0                RTCC_ChannelInit
 .text.RTCC_Enable
                0x0000311c       0x20 ./emlib/em_rtcc.o
                0x0000311c                RTCC_Enable
 .text.RTCC_Init
                0x0000313c       0x60 ./emlib/em_rtcc.o
                0x0000313c                RTCC_Init
 .text.SYSTEM_ChipRevisionGet
                0x0000319c       0x74 ./emlib/em_system.o
                0x0000319c                SYSTEM_ChipRevisionGet
 .text.TIMER_Valid
                0x00003210       0x38 ./emlib/em_timer.o
 .text.TIMER_Init
                0x00003248       0xdc ./emlib/em_timer.o
                0x00003248                TIMER_Init
 .text.TIMER_InitCC
                0x00003324       0x9c ./emlib/em_timer.o
                0x00003324                TIMER_InitCC
 .text.BUS_RegMaskedSet
                0x000033c0       0x24 ./emlib/em_usart.o
 .text.BUS_RegMaskedClear
                0x000033e4       0x24 ./emlib/em_usart.o
 .text.BUS_RegMaskedWrite
                0x00003408       0x24 ./emlib/em_usart.o
 .text.USART_BaudrateSyncSet
                0x0000342c       0x54 ./emlib/em_usart.o
                0x0000342c                USART_BaudrateSyncSet
 .text.USART_InitSync
                0x00003480       0xf0 ./emlib/em_usart.o
                0x00003480                USART_InitSync
 .text.USART_Reset
                0x00003570       0x94 ./emlib/em_usart.o
                0x00003570                USART_Reset
 .text.USART_Tx
                0x00003604       0x2c ./emlib/em_usart.o
                0x00003604                USART_Tx
 .text.USART_TxDouble
                0x00003630       0x2c ./emlib/em_usart.o
                0x00003630                USART_TxDouble
 .text.graphInit
                0x0000365c       0x64 ./src/graphics.o
                0x0000365c                graphInit
 .text.graphClear
                0x000036c0       0x1c ./src/graphics.o
                0x000036c0                graphClear
 .text.graphWriteString
                0x000036dc       0x3c ./src/graphics.o
                0x000036dc                graphWriteString
 .text.graphPrintCenter
                0x00003718       0xc0 ./src/graphics.o
 .text.NVIC_EnableIRQ
                0x000037d8       0x30 ./src/main.o
 .text.NVIC_SetPriority
                0x00003808       0x54 ./src/main.o
 .text.SysTick_Config
                0x0000385c       0x44 ./src/main.o
 .text.SYSTEM_GetProdRev
                0x000038a0       0x1c ./src/main.o
 .text.BUS_RegBitWrite
                0x000038bc       0x2c ./src/main.o
 .text.BUS_RegBitRead
                0x000038e8       0x2c ./src/main.o
 .text.GPIO_PinInGet
                0x00003914       0x54 ./src/main.o
 .text.CHIP_Init
                0x00003968       0xb4 ./src/main.o
 .text.TIMER_MaxCount
                0x00003a1c       0x18 ./src/main.o
 .text.TIMER_CompareBufSet
                0x00003a34       0x28 ./src/main.o
 .text.TIMER_IntClear
                0x00003a5c       0x1c ./src/main.o
 .text.TIMER_IntEnable
                0x00003a78       0x20 ./src/main.o
 .text.TIMER_TopSet
                0x00003a98       0x1c ./src/main.o
 .text.PCNT_IntClear
                0x00003ab4       0x1c ./src/main.o
 .text.PCNT_IntEnable
                0x00003ad0       0x20 ./src/main.o
 .text.TIMER1_IRQHandler
                0x00003af0       0x34 ./src/main.o
                0x00003af0                TIMER1_IRQHandler
 .text.delay    0x00003b24       0x2c ./src/main.o
                0x00003b24                delay
 .text.get_time_in_ms
                0x00003b50       0x94 ./src/main.o
                0x00003b50                get_time_in_ms
 .text.set_timeout_ms
                0x00003be4       0x20 ./src/main.o
                0x00003be4                set_timeout_ms
 .text.expired_ms
                0x00003c04       0x28 ./src/main.o
                0x00003c04                expired_ms
 .text.delay_ms
                0x00003c2c       0x34 ./src/main.o
                0x00003c2c                delay_ms
 .text.get_time
                0x00003c60       0x40 ./src/main.o
                0x00003c60                get_time
 .text.program_timer
                0x00003ca0      0x198 ./src/main.o
                0x00003ca0                program_timer
 .text.set_clock_time
                0x00003e38       0x98 ./src/main.o
                0x00003e38                set_clock_time
 .text.start_fade
                0x00003ed0       0xa0 ./src/main.o
                0x00003ed0                start_fade
 .text.title_screen
                0x00003f70       0xc8 ./src/main.o
                0x00003f70                title_screen
 .text.display_time
                0x00004038      0x134 ./src/main.o
                0x00004038                display_time
 .text.display_hour
                0x0000416c      0x10c ./src/main.o
                0x0000416c                display_hour
 .text.display_minute
                0x00004278      0x120 ./src/main.o
                0x00004278                display_minute
 .text.hide_segment
                0x00004398       0x34 ./src/main.o
                0x00004398                hide_segment
 .text.blink    0x000043cc       0x40 ./src/main.o
                0x000043cc                blink
 .text.SysTick_Handler
                0x0000440c      0x46c ./src/main.o
                0x0000440c                SysTick_Handler
 .text.PCNT0_IRQHandler
                0x00004878       0x7c ./src/main.o
                0x00004878                PCNT0_IRQHandler
 .text.pcntInit
                0x000048f4       0x64 ./src/main.o
                0x000048f4                pcntInit
 .text.main     0x00004958      0x2a0 ./src/main.o
                0x00004958                main
 .text          0x00004bf8      0x370 c:/siliconlabs/simplicitystudio/v4/developer/toolchains/gnu_arm/4.9_2015q3/bin/../lib/gcc/arm-none-eabi/4.9.3/armv7e-m/softfp\libgcc.a(_arm_addsubdf3.o)
                0x00004bf8                __aeabi_drsub
                0x00004c00                __aeabi_dsub
                0x00004c00                __subdf3
                0x00004c04                __aeabi_dadd
                0x00004c04                __adddf3
                0x00004e7c                __floatunsidf
                0x00004e7c                __aeabi_ui2d
                0x00004e9c                __floatsidf
                0x00004e9c                __aeabi_i2d
                0x00004ec0                __aeabi_f2d
                0x00004ec0                __extendsfdf2
                0x00004efc                __floatundidf
                0x00004efc                __aeabi_ul2d
                0x00004f0c                __floatdidf
                0x00004f0c                __aeabi_l2d
 .text          0x00004f68      0x424 c:/siliconlabs/simplicitystudio/v4/developer/toolchains/gnu_arm/4.9_2015q3/bin/../lib/gcc/arm-none-eabi/4.9.3/armv7e-m/softfp\libgcc.a(_arm_muldivdf3.o)
                0x00004f68                __aeabi_dmul
                0x00004f68                __muldf3
                0x000051bc                __divdf3
                0x000051bc                __aeabi_ddiv
 .text          0x0000538c       0x48 c:/siliconlabs/simplicitystudio/v4/developer/toolchains/gnu_arm/4.9_2015q3/bin/../lib/gcc/arm-none-eabi/4.9.3/armv7e-m/softfp\libgcc.a(_fixunsdfdi.o)
                0x0000538c                __fixunsdfdi
                0x0000538c                __aeabi_d2ulz
 .text          0x000053d4       0x40 c:/siliconlabs/simplicitystudio/v4/developer/toolchains/gnu_arm/4.9_2015q3/bin/../lib/gcc/arm-none-eabi/4.9.3/armv7e-m/softfp\libgcc.a(_arm_fixunsdfsi.o)
                0x000053d4                __aeabi_d2uiz
                0x000053d4                __fixunsdfsi
 .text.exit     0x00005414       0x28 c:/siliconlabs/simplicitystudio/v4/developer/toolchains/gnu_arm/4.9_2015q3/bin/../lib/gcc/arm-none-eabi/4.9.3/../../../../arm-none-eabi/lib/armv7e-m/softfp\libc_nano.a(lib_a-exit.o)
                0x00005414                exit
 .text.__libc_init_array
                0x0000543c       0x4c c:/siliconlabs/simplicitystudio/v4/developer/toolchains/gnu_arm/4.9_2015q3/bin/../lib/gcc/arm-none-eabi/4.9.3/../../../../arm-none-eabi/lib/armv7e-m/softfp\libc_nano.a(lib_a-init.o)
                0x0000543c                __libc_init_array
 .text.memcpy   0x00005488       0x16 c:/siliconlabs/simplicitystudio/v4/developer/toolchains/gnu_arm/4.9_2015q3/bin/../lib/gcc/arm-none-eabi/4.9.3/../../../../arm-none-eabi/lib/armv7e-m/softfp\libc_nano.a(lib_a-memcpy.o)
                0x00005488                memcpy
 .text.memset   0x0000549e       0x10 c:/siliconlabs/simplicitystudio/v4/developer/toolchains/gnu_arm/4.9_2015q3/bin/../lib/gcc/arm-none-eabi/4.9.3/../../../../arm-none-eabi/lib/armv7e-m/softfp\libc_nano.a(lib_a-memset.o)
                0x0000549e                memset
 *fill*         0x000054ae        0x2 
 .text.sprintf  0x000054b0       0x48 c:/siliconlabs/simplicitystudio/v4/developer/toolchains/gnu_arm/4.9_2015q3/bin/../lib/gcc/arm-none-eabi/4.9.3/../../../../arm-none-eabi/lib/armv7e-m/softfp\libc_nano.a(lib_a-sprintf.o)
                0x000054b0                siprintf
                0x000054b0                sprintf
 .text._free_r  0x000054f8       0x88 c:/siliconlabs/simplicitystudio/v4/developer/toolchains/gnu_arm/4.9_2015q3/bin/../lib/gcc/arm-none-eabi/4.9.3/../../../../arm-none-eabi/lib/armv7e-m/softfp\libc_nano.a(lib_a-nano-freer.o)
                0x000054f8                _free_r
 .text._malloc_r
                0x00005580       0xac c:/siliconlabs/simplicitystudio/v4/developer/toolchains/gnu_arm/4.9_2015q3/bin/../lib/gcc/arm-none-eabi/4.9.3/../../../../arm-none-eabi/lib/armv7e-m/softfp\libc_nano.a(lib_a-nano-mallocr.o)
                0x00005580                _malloc_r
 .text.__ssputs_r
                0x0000562c       0xb2 c:/siliconlabs/simplicitystudio/v4/developer/toolchains/gnu_arm/4.9_2015q3/bin/../lib/gcc/arm-none-eabi/4.9.3/../../../../arm-none-eabi/lib/armv7e-m/softfp\libc_nano.a(lib_a-nano-svfprintf.o)
                0x0000562c                __ssputs_r
 *fill*         0x000056de        0x2 
 .text._svfprintf_r
                0x000056e0      0x1e4 c:/siliconlabs/simplicitystudio/v4/developer/toolchains/gnu_arm/4.9_2015q3/bin/../lib/gcc/arm-none-eabi/4.9.3/../../../../arm-none-eabi/lib/armv7e-m/softfp\libc_nano.a(lib_a-nano-svfprintf.o)
                0x000056e0                _svfiprintf_r
                0x000056e0                _svfprintf_r
 .text._printf_common
                0x000058c4       0xea c:/siliconlabs/simplicitystudio/v4/developer/toolchains/gnu_arm/4.9_2015q3/bin/../lib/gcc/arm-none-eabi/4.9.3/../../../../arm-none-eabi/lib/armv7e-m/softfp\libc_nano.a(lib_a-nano-vfprintf_i.o)
                0x000058c4                _printf_common
 *fill*         0x000059ae        0x2 
 .text._printf_i
                0x000059b0      0x240 c:/siliconlabs/simplicitystudio/v4/developer/toolchains/gnu_arm/4.9_2015q3/bin/../lib/gcc/arm-none-eabi/4.9.3/../../../../arm-none-eabi/lib/armv7e-m/softfp\libc_nano.a(lib_a-nano-vfprintf_i.o)
                0x000059b0                _printf_i
 .text._sbrk_r  0x00005bf0       0x20 c:/siliconlabs/simplicitystudio/v4/developer/toolchains/gnu_arm/4.9_2015q3/bin/../lib/gcc/arm-none-eabi/4.9.3/../../../../arm-none-eabi/lib/armv7e-m/softfp\libc_nano.a(lib_a-sbrkr.o)
                0x00005bf0                _sbrk_r
 .text.memchr   0x00005c10       0x1e c:/siliconlabs/simplicitystudio/v4/developer/toolchains/gnu_arm/4.9_2015q3/bin/../lib/gcc/arm-none-eabi/4.9.3/../../../../arm-none-eabi/lib/armv7e-m/softfp\libc_nano.a(lib_a-memchr.o)
                0x00005c10                memchr
 .text.memmove  0x00005c2e       0x36 c:/siliconlabs/simplicitystudio/v4/developer/toolchains/gnu_arm/4.9_2015q3/bin/../lib/gcc/arm-none-eabi/4.9.3/../../../../arm-none-eabi/lib/armv7e-m/softfp\libc_nano.a(lib_a-memmove.o)
                0x00005c2e                memmove
 .text._realloc_r
                0x00005c64       0x4c c:/siliconlabs/simplicitystudio/v4/developer/toolchains/gnu_arm/4.9_2015q3/bin/../lib/gcc/arm-none-eabi/4.9.3/../../../../arm-none-eabi/lib/armv7e-m/softfp\libc_nano.a(lib_a-nano-reallocr.o)
                0x00005c64                _realloc_r
 .text._malloc_usable_size_r
                0x00005cb0       0x14 c:/siliconlabs/simplicitystudio/v4/developer/toolchains/gnu_arm/4.9_2015q3/bin/../lib/gcc/arm-none-eabi/4.9.3/../../../../arm-none-eabi/lib/armv7e-m/softfp\libc_nano.a(lib_a-nano-msizer.o)
                0x00005cb0                _malloc_usable_size_r
 .text._sbrk    0x00005cc4       0x1c c:/siliconlabs/simplicitystudio/v4/developer/toolchains/gnu_arm/4.9_2015q3/bin/../lib/gcc/arm-none-eabi/4.9.3/../../../../arm-none-eabi/lib/armv7e-m/softfp\libnosys.a(sbrk.o)
                0x00005cc4                _sbrk
 .text._exit    0x00005ce0        0x4 c:/siliconlabs/simplicitystudio/v4/developer/toolchains/gnu_arm/4.9_2015q3/bin/../lib/gcc/arm-none-eabi/4.9.3/../../../../arm-none-eabi/lib/armv7e-m/softfp\libnosys.a(_exit.o)
                0x00005ce0                _exit
 *(.init)
 .init          0x00005ce4        0x4 c:/siliconlabs/simplicitystudio/v4/developer/toolchains/gnu_arm/4.9_2015q3/bin/../lib/gcc/arm-none-eabi/4.9.3/armv7e-m/softfp/crti.o
                0x00005ce4                _init
 .init          0x00005ce8        0x8 c:/siliconlabs/simplicitystudio/v4/developer/toolchains/gnu_arm/4.9_2015q3/bin/../lib/gcc/arm-none-eabi/4.9.3/armv7e-m/softfp/crtn.o
 *(.fini)
 .fini          0x00005cf0        0x4 c:/siliconlabs/simplicitystudio/v4/developer/toolchains/gnu_arm/4.9_2015q3/bin/../lib/gcc/arm-none-eabi/4.9.3/armv7e-m/softfp/crti.o
                0x00005cf0                _fini
 .fini          0x00005cf4        0x8 c:/siliconlabs/simplicitystudio/v4/developer/toolchains/gnu_arm/4.9_2015q3/bin/../lib/gcc/arm-none-eabi/4.9.3/armv7e-m/softfp/crtn.o
 *crtbegin.o(.ctors)
 *crtbegin?.o(.ctors)
 *(EXCLUDE_FILE(*crtend.o *crtend?.o) .ctors)
 *(SORT(.ctors.*))
 *(.ctors)
 *crtbegin.o(.dtors)
 *crtbegin?.o(.dtors)
 *(EXCLUDE_FILE(*crtend.o *crtend?.o) .dtors)
 *(SORT(.dtors.*))
 *(.dtors)
 *(.rodata*)
 .rodata        0x00005cfc       0x15 ./drvr/displayls013b7dh03.o
 *fill*         0x00005d11        0x3 
 .rodata        0x00005d14       0x2b ./drvr/displaypalemlib.o
 *fill*         0x00005d3f        0x1 
 .rodata.GLIB_FontNarrow6x8PixMap
                0x00005d40      0x320 ./drvr/glib_font_narrow_6x8.o
 .rodata.GLIB_FontNarrow6x8
                0x00006060       0x10 ./drvr/glib_font_narrow_6x8.o
                0x00006060                GLIB_FontNarrow6x8
 .rodata.GLIB_FontNormal8x8PixMap
                0x00006070      0x320 ./drvr/glib_font_normal_8x8.o
 .rodata.GLIB_FontNormal8x8
                0x00006390       0x10 ./drvr/glib_font_normal_8x8.o
                0x00006390                GLIB_FontNormal8x8
 .rodata        0x000063a0        0x9 ./drvr/udelay.o
 *fill*         0x000063a9        0x3 
 .rodata        0x000063ac       0x70 ./src/main.o
 .rodata.str1.1
                0x0000641c        0x2 c:/siliconlabs/simplicitystudio/v4/developer/toolchains/gnu_arm/4.9_2015q3/bin/../lib/gcc/arm-none-eabi/4.9.3/../../../../arm-none-eabi/lib/armv7e-m/softfp\libc_nano.a(lib_a-impure.o)
 *fill*         0x0000641e        0x2 
 .rodata._global_impure_ptr
                0x00006420        0x4 c:/siliconlabs/simplicitystudio/v4/developer/toolchains/gnu_arm/4.9_2015q3/bin/../lib/gcc/arm-none-eabi/4.9.3/../../../../arm-none-eabi/lib/armv7e-m/softfp\libc_nano.a(lib_a-impure.o)
                0x00006420                _global_impure_ptr
 .rodata.__sf_fake_stdin
                0x00006424       0x20 c:/siliconlabs/simplicitystudio/v4/developer/toolchains/gnu_arm/4.9_2015q3/bin/../lib/gcc/arm-none-eabi/4.9.3/../../../../arm-none-eabi/lib/armv7e-m/softfp\libc_nano.a(lib_a-findfp.o)
                0x00006424                __sf_fake_stdin
 .rodata.__sf_fake_stdout
                0x00006444       0x20 c:/siliconlabs/simplicitystudio/v4/developer/toolchains/gnu_arm/4.9_2015q3/bin/../lib/gcc/arm-none-eabi/4.9.3/../../../../arm-none-eabi/lib/armv7e-m/softfp\libc_nano.a(lib_a-findfp.o)
                0x00006444                __sf_fake_stdout
 .rodata.__sf_fake_stderr
                0x00006464       0x20 c:/siliconlabs/simplicitystudio/v4/developer/toolchains/gnu_arm/4.9_2015q3/bin/../lib/gcc/arm-none-eabi/4.9.3/../../../../arm-none-eabi/lib/armv7e-m/softfp\libc_nano.a(lib_a-findfp.o)
                0x00006464                __sf_fake_stderr
 .rodata.str1.1
                0x00006484       0x11 c:/siliconlabs/simplicitystudio/v4/developer/toolchains/gnu_arm/4.9_2015q3/bin/../lib/gcc/arm-none-eabi/4.9.3/../../../../arm-none-eabi/lib/armv7e-m/softfp\libc_nano.a(lib_a-nano-svfprintf.o)
 .rodata.str1.1
                0x00006495       0x22 c:/siliconlabs/simplicitystudio/v4/developer/toolchains/gnu_arm/4.9_2015q3/bin/../lib/gcc/arm-none-eabi/4.9.3/../../../../arm-none-eabi/lib/armv7e-m/softfp\libc_nano.a(lib_a-nano-vfprintf_i.o)
 *(.eh_frame*)
 *fill*         0x000064b7        0x1 
 .eh_frame      0x000064b8        0x0 c:/siliconlabs/simplicitystudio/v4/developer/toolchains/gnu_arm/4.9_2015q3/bin/../lib/gcc/arm-none-eabi/4.9.3/armv7e-m/softfp/crtbegin.o
 .eh_frame      0x000064b8        0x4 c:/siliconlabs/simplicitystudio/v4/developer/toolchains/gnu_arm/4.9_2015q3/bin/../lib/gcc/arm-none-eabi/4.9.3/armv7e-m/softfp/crtend.o

.glue_7         0x000064bc        0x0
 .glue_7        0x00000000        0x0 linker stubs

.glue_7t        0x000064bc        0x0
 .glue_7t       0x00000000        0x0 linker stubs

.vfp11_veneer   0x000064bc        0x0
 .vfp11_veneer  0x00000000        0x0 linker stubs

.v4_bx          0x000064bc        0x0
 .v4_bx         0x00000000        0x0 linker stubs

.iplt           0x000064bc        0x0
 .iplt          0x00000000        0x0 c:/siliconlabs/simplicitystudio/v4/developer/toolchains/gnu_arm/4.9_2015q3/bin/../lib/gcc/arm-none-eabi/4.9.3/armv7e-m/softfp/crtbegin.o

.ARM.extab
 *(.ARM.extab* .gnu.linkonce.armextab.*)
                0x000064bc                __exidx_start = .

.ARM.exidx      0x000064bc        0x8
 *(.ARM.exidx* .gnu.linkonce.armexidx.*)
 .ARM.exidx     0x000064bc        0x8 c:/siliconlabs/simplicitystudio/v4/developer/toolchains/gnu_arm/4.9_2015q3/bin/../lib/gcc/arm-none-eabi/4.9.3/../../../../arm-none-eabi/lib/armv7e-m/softfp/crt0.o
                0x000064c4                __exidx_end = .
                0x000064c4                __etext = .

.rel.dyn        0x000064c4        0x0
 .rel.iplt      0x00000000        0x0 c:/siliconlabs/simplicitystudio/v4/developer/toolchains/gnu_arm/4.9_2015q3/bin/../lib/gcc/arm-none-eabi/4.9.3/armv7e-m/softfp/crtbegin.o

.data           0x20000000       0x9c load address 0x000064c4
                0x20000000                __data_start__ = .
 *(vtable)
 *(.data*)
 .data.SystemHFXOClock
                0x20000000        0x4 ./CMSIS/EFR32MG1P/system_efr32mg1p.o
 .data.SystemLFXOClock
                0x20000004        0x4 ./CMSIS/EFR32MG1P/system_efr32mg1p.o
 .data.SystemCoreClock
                0x20000008        0x4 ./CMSIS/EFR32MG1P/system_efr32mg1p.o
                0x20000008                SystemCoreClock
 .data.SystemHfrcoFreq
                0x2000000c        0x4 ./CMSIS/EFR32MG1P/system_efr32mg1p.o
                0x2000000c                SystemHfrcoFreq
 .data.pDisplayDeviceDriverInitFunctions
                0x20000010        0x8 ./drvr/display.o
 .data.pixelMatrixPool
                0x20000018        0x4 ./drvr/displayls013b7dh03.o
 .data.loops_per_jiffy
                0x2000001c        0x4 ./drvr/udelay.o
                0x2000001c                loops_per_jiffy
 .data.auxHfrcoFreq
                0x20000020        0x4 ./emlib/em_cmu.o
 .data.start_hours
                0x20000024        0x2 ./src/main.o
                0x20000024                start_hours
 .data.stop_hours
                0x20000026        0x2 ./src/main.o
                0x20000026                stop_hours
 .data.blink_state
                0x20000028        0x1 ./src/main.o
                0x20000028                blink_state
 .data.initial_programming.6905
                0x20000029        0x1 ./src/main.o
 *fill*         0x2000002a        0x2 
 .data.impure_data
                0x2000002c       0x60 c:/siliconlabs/simplicitystudio/v4/developer/toolchains/gnu_arm/4.9_2015q3/bin/../lib/gcc/arm-none-eabi/4.9.3/../../../../arm-none-eabi/lib/armv7e-m/softfp\libc_nano.a(lib_a-impure.o)
 .data._impure_ptr
                0x2000008c        0x4 c:/siliconlabs/simplicitystudio/v4/developer/toolchains/gnu_arm/4.9_2015q3/bin/../lib/gcc/arm-none-eabi/4.9.3/../../../../arm-none-eabi/lib/armv7e-m/softfp\libc_nano.a(lib_a-impure.o)
                0x2000008c                _impure_ptr
                0x20000090                . = ALIGN (0x4)
 *(.ram)
                0x20000090                . = ALIGN (0x4)
                0x20000090                PROVIDE (__preinit_array_start, .)
 *(.preinit_array)
                0x20000090                PROVIDE (__preinit_array_end, .)
                0x20000090                . = ALIGN (0x4)
                0x20000090                PROVIDE (__init_array_start, .)
 *(SORT(.init_array.*))
 *(.init_array)
 .init_array    0x20000090        0x4 c:/siliconlabs/simplicitystudio/v4/developer/toolchains/gnu_arm/4.9_2015q3/bin/../lib/gcc/arm-none-eabi/4.9.3/armv7e-m/softfp/crtbegin.o
                0x20000094                PROVIDE (__init_array_end, .)
                0x20000094                . = ALIGN (0x4)
                0x20000094                PROVIDE (__fini_array_start, .)
 *(SORT(.fini_array.*))
 *(.fini_array)
 .fini_array    0x20000094        0x4 c:/siliconlabs/simplicitystudio/v4/developer/toolchains/gnu_arm/4.9_2015q3/bin/../lib/gcc/arm-none-eabi/4.9.3/armv7e-m/softfp/crtbegin.o
                0x20000098                PROVIDE (__fini_array_end, .)
 *(.jcr*)
 .jcr           0x20000098        0x0 c:/siliconlabs/simplicitystudio/v4/developer/toolchains/gnu_arm/4.9_2015q3/bin/../lib/gcc/arm-none-eabi/4.9.3/armv7e-m/softfp/crtbegin.o
 .jcr           0x20000098        0x4 c:/siliconlabs/simplicitystudio/v4/developer/toolchains/gnu_arm/4.9_2015q3/bin/../lib/gcc/arm-none-eabi/4.9.3/armv7e-m/softfp/crtend.o
                0x2000009c                . = ALIGN (0x4)
                0x2000009c                __data_end__ = .

.igot.plt       0x2000009c        0x0 load address 0x00006560
 .igot.plt      0x00000000        0x0 c:/siliconlabs/simplicitystudio/v4/developer/toolchains/gnu_arm/4.9_2015q3/bin/../lib/gcc/arm-none-eabi/4.9.3/armv7e-m/softfp/crtbegin.o

.bss            0x200000a0      0x990 load address 0x00006568
                0x200000a0                . = ALIGN (0x4)
                0x200000a0                __bss_start__ = .
 *(.bss*)
 .bss           0x200000a0       0x1c c:/siliconlabs/simplicitystudio/v4/developer/toolchains/gnu_arm/4.9_2015q3/bin/../lib/gcc/arm-none-eabi/4.9.3/armv7e-m/softfp/crtbegin.o
 .bss.deviceTable
                0x200000bc       0x2c ./drvr/display.o
 .bss.moduleInitialized
                0x200000e8        0x1 ./drvr/display.o
 *fill*         0x200000e9        0x3 
 .bss.devicesRegistered
                0x200000ec        0x4 ./drvr/display.o
 .bss.lcdPolarity
                0x200000f0        0x1 ./drvr/displayls013b7dh03.o
 *fill*         0x200000f1        0x3 
 .bss.pixelMatrixPoolBase
                0x200000f4      0x800 ./drvr/displayls013b7dh03.o
 .bss.moduleInitialized
                0x200008f4        0x1 ./drvr/dmd_display.o
 *fill*         0x200008f5        0x3 
 .bss.displayDevice
                0x200008f8       0x2c ./drvr/dmd_display.o
 .bss.pixelMatrixBuffer
                0x20000924        0x4 ./drvr/dmd_display.o
 .bss.dimensions
                0x20000928        0xc ./drvr/dmd_display.o
 .bss.glibContext
                0x20000934       0x2c ./src/graphics.o
 .bss.graphLineNum
                0x20000960        0x1 ./src/graphics.o
 *fill*         0x20000961        0x3 
 .bss.deviceHeader
                0x20000964        0x4 ./src/graphics.o
 .bss.base_value
                0x20000968        0x8 ./src/main.o
                0x20000968                base_value
 .bss.timer1_overflow
                0x20000970        0x1 ./src/main.o
                0x20000970                timer1_overflow
 *fill*         0x20000971        0x1 
 .bss.display_hours
                0x20000972        0x2 ./src/main.o
                0x20000972                display_hours
 .bss.display_minutes
                0x20000974        0x2 ./src/main.o
                0x20000974                display_minutes
 .bss.start_minutes
                0x20000976        0x2 ./src/main.o
                0x20000976                start_minutes
 .bss.stop_minutes
                0x20000978        0x2 ./src/main.o
                0x20000978                stop_minutes
 *fill*         0x2000097a        0x2 
 .bss.mode      0x2000097c        0x6 ./src/main.o
                0x2000097c                mode
 *fill*         0x20000982        0x2 
 .bss.brightness
                0x20000984        0x6 ./src/main.o
                0x20000984                brightness
 *fill*         0x2000098a        0x2 
 .bss.msTicks   0x2000098c        0x4 ./src/main.o
                0x2000098c                msTicks
 .bss.pressed1  0x20000990        0x1 ./src/main.o
                0x20000990                pressed1
 *fill*         0x20000991        0x1 
 .bss.blink_segment
                0x20000992        0x2 ./src/main.o
                0x20000992                blink_segment
 .bss.blink_timer
                0x20000994        0x4 ./src/main.o
                0x20000994                blink_timer
 .bss.pcntIrqCount
                0x20000998        0x4 ./src/main.o
 .bss.__malloc_sbrk_start
                0x2000099c        0x4 c:/siliconlabs/simplicitystudio/v4/developer/toolchains/gnu_arm/4.9_2015q3/bin/../lib/gcc/arm-none-eabi/4.9.3/../../../../arm-none-eabi/lib/armv7e-m/softfp\libc_nano.a(lib_a-nano-mallocr.o)
                0x2000099c                __malloc_sbrk_start
 .bss.__malloc_free_list
                0x200009a0        0x4 c:/siliconlabs/simplicitystudio/v4/developer/toolchains/gnu_arm/4.9_2015q3/bin/../lib/gcc/arm-none-eabi/4.9.3/../../../../arm-none-eabi/lib/armv7e-m/softfp\libc_nano.a(lib_a-nano-mallocr.o)
                0x200009a0                __malloc_free_list
 .bss.heap_end.4079
                0x200009a4        0x4 c:/siliconlabs/simplicitystudio/v4/developer/toolchains/gnu_arm/4.9_2015q3/bin/../lib/gcc/arm-none-eabi/4.9.3/../../../../arm-none-eabi/lib/armv7e-m/softfp\libnosys.a(sbrk.o)
 *(COMMON)
 COMMON         0x200009a8       0x10 ./drvr/dmd_display.o
                0x200009a8                dirtyRows
 COMMON         0x200009b8       0x74 ./src/main.o
                0x200009b8                next_step
                0x200009d0                program_button
                0x200009e0                mode_timeout
                0x200009f8                button2
                0x20000a08                time_keeper
                0x20000a10                button1
                0x20000a20                button_array
 COMMON         0x20000a2c        0x4 c:/siliconlabs/simplicitystudio/v4/developer/toolchains/gnu_arm/4.9_2015q3/bin/../lib/gcc/arm-none-eabi/4.9.3/../../../../arm-none-eabi/lib/armv7e-m/softfp\libc_nano.a(lib_a-reent.o)
                0x20000a2c                errno
                0x20000a30                . = ALIGN (0x4)
                0x20000a30                __bss_end__ = .

.heap           0x20000a30      0xc00
                0x20000a30                __HeapBase = .
                0x20000a30                __end__ = .
                0x20000a30                end = __end__
                0x20000a30                _end = __end__
 *(.heap*)
 .heap          0x20000a30      0xc00 ./CMSIS/EFR32MG1P/startup_efr32mg1p.o
                0x20001630                __HeapLimit = .

.stack_dummy    0x20000a30      0x400
 *(.stack*)
 .stack         0x20000a30      0x400 ./CMSIS/EFR32MG1P/startup_efr32mg1p.o
                0x20008000                __StackTop = (ORIGIN (RAM) + 0x8000)
                0x20007c00                __StackLimit = (__StackTop - SIZEOF (.stack_dummy))
                0x20008000                PROVIDE (__stack, __StackTop)
                0x00000001                ASSERT ((__StackLimit >= __HeapLimit), region RAM overflowed with stack)
                0x00000001                ASSERT ((0x40000 >= (__etext + SIZEOF (.data))), FLASH memory overflowed !)
OUTPUT(7_samplepwmcode_proj.axf elf32-littlearm)

.ARM.attributes
                0x00000000       0x2e
 .ARM.attributes
                0x00000000       0x22 c:/siliconlabs/simplicitystudio/v4/developer/toolchains/gnu_arm/4.9_2015q3/bin/../lib/gcc/arm-none-eabi/4.9.3/armv7e-m/softfp/crti.o
 .ARM.attributes
                0x00000022       0x32 c:/siliconlabs/simplicitystudio/v4/developer/toolchains/gnu_arm/4.9_2015q3/bin/../lib/gcc/arm-none-eabi/4.9.3/armv7e-m/softfp/crtbegin.o
 .ARM.attributes
                0x00000054       0x20 c:/siliconlabs/simplicitystudio/v4/developer/toolchains/gnu_arm/4.9_2015q3/bin/../lib/gcc/arm-none-eabi/4.9.3/../../../../arm-none-eabi/lib/armv7e-m/softfp/crt0.o
 .ARM.attributes
                0x00000074       0x1f ./CMSIS/EFR32MG1P/startup_efr32mg1p.o
 .ARM.attributes
                0x00000093       0x37 ./CMSIS/EFR32MG1P/system_efr32mg1p.o
 .ARM.attributes
                0x000000ca       0x37 ./drvr/display.o
 .ARM.attributes
                0x00000101       0x37 ./drvr/displayls013b7dh03.o
 .ARM.attributes
                0x00000138       0x37 ./drvr/displaypalemlib.o
 .ARM.attributes
                0x0000016f       0x37 ./drvr/dmd_display.o
 .ARM.attributes
                0x000001a6       0x37 ./drvr/glib.o
 .ARM.attributes
                0x000001dd       0x37 ./drvr/glib_font_narrow_6x8.o
 .ARM.attributes
                0x00000214       0x37 ./drvr/glib_font_normal_8x8.o
 .ARM.attributes
                0x0000024b       0x37 ./drvr/glib_rectangle.o
 .ARM.attributes
                0x00000282       0x37 ./drvr/glib_string.o
 .ARM.attributes
                0x000002b9       0x37 ./drvr/udelay.o
 .ARM.attributes
                0x000002f0       0x37 ./emlib/em_cmu.o
 .ARM.attributes
                0x00000327       0x37 ./emlib/em_core.o
 .ARM.attributes
                0x0000035e       0x37 ./emlib/em_gpio.o
 .ARM.attributes
                0x00000395       0x37 ./emlib/em_pcnt.o
 .ARM.attributes
                0x000003cc       0x37 ./emlib/em_prs.o
 .ARM.attributes
                0x00000403       0x37 ./emlib/em_rtcc.o
 .ARM.attributes
                0x0000043a       0x37 ./emlib/em_system.o
 .ARM.attributes
                0x00000471       0x37 ./emlib/em_timer.o
 .ARM.attributes
                0x000004a8       0x37 ./emlib/em_usart.o
 .ARM.attributes
                0x000004df       0x37 ./src/graphics.o
 .ARM.attributes
                0x00000516       0x37 ./src/main.o
 .ARM.attributes
                0x0000054d       0x22 c:/siliconlabs/simplicitystudio/v4/developer/toolchains/gnu_arm/4.9_2015q3/bin/../lib/gcc/arm-none-eabi/4.9.3/armv7e-m/softfp\libgcc.a(_arm_addsubdf3.o)
 .ARM.attributes
                0x0000056f       0x22 c:/siliconlabs/simplicitystudio/v4/developer/toolchains/gnu_arm/4.9_2015q3/bin/../lib/gcc/arm-none-eabi/4.9.3/armv7e-m/softfp\libgcc.a(_arm_muldivdf3.o)
 .ARM.attributes
                0x00000591       0x32 c:/siliconlabs/simplicitystudio/v4/developer/toolchains/gnu_arm/4.9_2015q3/bin/../lib/gcc/arm-none-eabi/4.9.3/armv7e-m/softfp\libgcc.a(_fixunsdfdi.o)
 .ARM.attributes
                0x000005c3       0x22 c:/siliconlabs/simplicitystudio/v4/developer/toolchains/gnu_arm/4.9_2015q3/bin/../lib/gcc/arm-none-eabi/4.9.3/armv7e-m/softfp\libgcc.a(_arm_fixunsdfsi.o)
 .ARM.attributes
                0x000005e5       0x32 c:/siliconlabs/simplicitystudio/v4/developer/toolchains/gnu_arm/4.9_2015q3/bin/../lib/gcc/arm-none-eabi/4.9.3/../../../../arm-none-eabi/lib/armv7e-m/softfp\libc_nano.a(lib_a-exit.o)
 .ARM.attributes
                0x00000617       0x32 c:/siliconlabs/simplicitystudio/v4/developer/toolchains/gnu_arm/4.9_2015q3/bin/../lib/gcc/arm-none-eabi/4.9.3/../../../../arm-none-eabi/lib/armv7e-m/softfp\libc_nano.a(lib_a-impure.o)
 .ARM.attributes
                0x00000649       0x32 c:/siliconlabs/simplicitystudio/v4/developer/toolchains/gnu_arm/4.9_2015q3/bin/../lib/gcc/arm-none-eabi/4.9.3/../../../../arm-none-eabi/lib/armv7e-m/softfp\libc_nano.a(lib_a-init.o)
 .ARM.attributes
                0x0000067b       0x32 c:/siliconlabs/simplicitystudio/v4/developer/toolchains/gnu_arm/4.9_2015q3/bin/../lib/gcc/arm-none-eabi/4.9.3/../../../../arm-none-eabi/lib/armv7e-m/softfp\libc_nano.a(lib_a-memcpy.o)
 .ARM.attributes
                0x000006ad       0x32 c:/siliconlabs/simplicitystudio/v4/developer/toolchains/gnu_arm/4.9_2015q3/bin/../lib/gcc/arm-none-eabi/4.9.3/../../../../arm-none-eabi/lib/armv7e-m/softfp\libc_nano.a(lib_a-memset.o)
 .ARM.attributes
                0x000006df       0x32 c:/siliconlabs/simplicitystudio/v4/developer/toolchains/gnu_arm/4.9_2015q3/bin/../lib/gcc/arm-none-eabi/4.9.3/../../../../arm-none-eabi/lib/armv7e-m/softfp\libc_nano.a(lib_a-sprintf.o)
 .ARM.attributes
                0x00000711       0x32 c:/siliconlabs/simplicitystudio/v4/developer/toolchains/gnu_arm/4.9_2015q3/bin/../lib/gcc/arm-none-eabi/4.9.3/../../../../arm-none-eabi/lib/armv7e-m/softfp\libc_nano.a(lib_a-findfp.o)
 .ARM.attributes
                0x00000743       0x32 c:/siliconlabs/simplicitystudio/v4/developer/toolchains/gnu_arm/4.9_2015q3/bin/../lib/gcc/arm-none-eabi/4.9.3/../../../../arm-none-eabi/lib/armv7e-m/softfp\libc_nano.a(lib_a-nano-freer.o)
 .ARM.attributes
                0x00000775       0x32 c:/siliconlabs/simplicitystudio/v4/developer/toolchains/gnu_arm/4.9_2015q3/bin/../lib/gcc/arm-none-eabi/4.9.3/../../../../arm-none-eabi/lib/armv7e-m/softfp\libc_nano.a(lib_a-nano-mallocr.o)
 .ARM.attributes
                0x000007a7       0x32 c:/siliconlabs/simplicitystudio/v4/developer/toolchains/gnu_arm/4.9_2015q3/bin/../lib/gcc/arm-none-eabi/4.9.3/../../../../arm-none-eabi/lib/armv7e-m/softfp\libc_nano.a(lib_a-nano-svfprintf.o)
 .ARM.attributes
                0x000007d9       0x32 c:/siliconlabs/simplicitystudio/v4/developer/toolchains/gnu_arm/4.9_2015q3/bin/../lib/gcc/arm-none-eabi/4.9.3/../../../../arm-none-eabi/lib/armv7e-m/softfp\libc_nano.a(lib_a-nano-vfprintf_i.o)
 .ARM.attributes
                0x0000080b       0x32 c:/siliconlabs/simplicitystudio/v4/developer/toolchains/gnu_arm/4.9_2015q3/bin/../lib/gcc/arm-none-eabi/4.9.3/../../../../arm-none-eabi/lib/armv7e-m/softfp\libc_nano.a(lib_a-sbrkr.o)
 .ARM.attributes
                0x0000083d       0x32 c:/siliconlabs/simplicitystudio/v4/developer/toolchains/gnu_arm/4.9_2015q3/bin/../lib/gcc/arm-none-eabi/4.9.3/../../../../arm-none-eabi/lib/armv7e-m/softfp\libc_nano.a(lib_a-memchr.o)
 .ARM.attributes
                0x0000086f       0x32 c:/siliconlabs/simplicitystudio/v4/developer/toolchains/gnu_arm/4.9_2015q3/bin/../lib/gcc/arm-none-eabi/4.9.3/../../../../arm-none-eabi/lib/armv7e-m/softfp\libc_nano.a(lib_a-memmove.o)
 .ARM.attributes
                0x000008a1       0x32 c:/siliconlabs/simplicitystudio/v4/developer/toolchains/gnu_arm/4.9_2015q3/bin/../lib/gcc/arm-none-eabi/4.9.3/../../../../arm-none-eabi/lib/armv7e-m/softfp\libc_nano.a(lib_a-nano-reallocr.o)
 .ARM.attributes
                0x000008d3       0x32 c:/siliconlabs/simplicitystudio/v4/developer/toolchains/gnu_arm/4.9_2015q3/bin/../lib/gcc/arm-none-eabi/4.9.3/../../../../arm-none-eabi/lib/armv7e-m/softfp\libc_nano.a(lib_a-reent.o)
 .ARM.attributes
                0x00000905       0x32 c:/siliconlabs/simplicitystudio/v4/developer/toolchains/gnu_arm/4.9_2015q3/bin/../lib/gcc/arm-none-eabi/4.9.3/../../../../arm-none-eabi/lib/armv7e-m/softfp\libc_nano.a(lib_a-nano-msizer.o)
 .ARM.attributes
                0x00000937       0x32 c:/siliconlabs/simplicitystudio/v4/developer/toolchains/gnu_arm/4.9_2015q3/bin/../lib/gcc/arm-none-eabi/4.9.3/../../../../arm-none-eabi/lib/armv7e-m/softfp\libnosys.a(sbrk.o)
 .ARM.attributes
                0x00000969       0x32 c:/siliconlabs/simplicitystudio/v4/developer/toolchains/gnu_arm/4.9_2015q3/bin/../lib/gcc/arm-none-eabi/4.9.3/../../../../arm-none-eabi/lib/armv7e-m/softfp\libnosys.a(_exit.o)
 .ARM.attributes
                0x0000099b       0x32 c:/siliconlabs/simplicitystudio/v4/developer/toolchains/gnu_arm/4.9_2015q3/bin/../lib/gcc/arm-none-eabi/4.9.3/armv7e-m/softfp/crtend.o
 .ARM.attributes
                0x000009cd       0x22 c:/siliconlabs/simplicitystudio/v4/developer/toolchains/gnu_arm/4.9_2015q3/bin/../lib/gcc/arm-none-eabi/4.9.3/armv7e-m/softfp/crtn.o

.comment        0x00000000       0x70
 .comment       0x00000000       0x70 ./CMSIS/EFR32MG1P/system_efr32mg1p.o
                                 0x71 (size before relaxing)
 .comment       0x00000000       0x71 ./drvr/display.o
 .comment       0x00000000       0x71 ./drvr/displayls013b7dh03.o
 .comment       0x00000000       0x71 ./drvr/displaypalemlib.o
 .comment       0x00000000       0x71 ./drvr/dmd_display.o
 .comment       0x00000000       0x71 ./drvr/glib.o
 .comment       0x00000000       0x71 ./drvr/glib_font_narrow_6x8.o
 .comment       0x00000000       0x71 ./drvr/glib_font_normal_8x8.o
 .comment       0x00000000       0x71 ./drvr/glib_rectangle.o
 .comment       0x00000000       0x71 ./drvr/glib_string.o
 .comment       0x00000000       0x71 ./drvr/udelay.o
 .comment       0x00000000       0x71 ./emlib/em_cmu.o
 .comment       0x00000000       0x71 ./emlib/em_core.o
 .comment       0x00000000       0x71 ./emlib/em_gpio.o
 .comment       0x00000000       0x71 ./emlib/em_pcnt.o
 .comment       0x00000000       0x71 ./emlib/em_prs.o
 .comment       0x00000000       0x71 ./emlib/em_rtcc.o
 .comment       0x00000000       0x71 ./emlib/em_system.o
 .comment       0x00000000       0x71 ./emlib/em_timer.o
 .comment       0x00000000       0x71 ./emlib/em_usart.o
 .comment       0x00000000       0x71 ./src/graphics.o
 .comment       0x00000000       0x71 ./src/main.o

.debug_line     0x00000000     0x621c
 .debug_line    0x00000000       0xd7 ./CMSIS/EFR32MG1P/startup_efr32mg1p.o
 .debug_line    0x000000d7      0x36c ./CMSIS/EFR32MG1P/system_efr32mg1p.o
 .debug_line    0x00000443      0x27b ./drvr/display.o
 .debug_line    0x000006be      0x3fc ./drvr/displayls013b7dh03.o
 .debug_line    0x00000aba      0x69b ./drvr/displaypalemlib.o
 .debug_line    0x00001155      0x4b1 ./drvr/dmd_display.o
 .debug_line    0x00001606      0x4d3 ./drvr/glib.o
 .debug_line    0x00001ad9      0x19d ./drvr/glib_font_narrow_6x8.o
 .debug_line    0x00001c76      0x19d ./drvr/glib_font_normal_8x8.o
 .debug_line    0x00001e13      0x324 ./drvr/glib_rectangle.o
 .debug_line    0x00002137      0x376 ./drvr/glib_string.o
 .debug_line    0x000024ad      0x3eb ./drvr/udelay.o
 .debug_line    0x00002898      0xa88 ./emlib/em_cmu.o
 .debug_line    0x00003320      0x5f6 ./emlib/em_core.o
 .debug_line    0x00003916      0x4d3 ./emlib/em_gpio.o
 .debug_line    0x00003de9      0x42f ./emlib/em_pcnt.o
 .debug_line    0x00004218      0x2bc ./emlib/em_prs.o
 .debug_line    0x000044d4      0x38f ./emlib/em_rtcc.o
 .debug_line    0x00004863      0x2c3 ./emlib/em_system.o
 .debug_line    0x00004b26      0x56c ./emlib/em_timer.o
 .debug_line    0x00005092      0x5ff ./emlib/em_usart.o
 .debug_line    0x00005691      0x2ec ./src/graphics.o
 .debug_line    0x0000597d      0x89f ./src/main.o

.debug_info     0x00000000     0xe698
 .debug_info    0x00000000      0x111 ./CMSIS/EFR32MG1P/startup_efr32mg1p.o
 .debug_info    0x00000111      0xae7 ./CMSIS/EFR32MG1P/system_efr32mg1p.o
 .debug_info    0x00000bf8      0x43d ./drvr/display.o
 .debug_info    0x00001035      0x654 ./drvr/displayls013b7dh03.o
 .debug_info    0x00001689     0x144b ./drvr/displaypalemlib.o
 .debug_info    0x00002ad4      0x8f6 ./drvr/dmd_display.o
 .debug_info    0x000033ca      0x7e7 ./drvr/glib.o
 .debug_info    0x00003bb1      0x19e ./drvr/glib_font_narrow_6x8.o
 .debug_info    0x00003d4f      0x19e ./drvr/glib_font_normal_8x8.o
 .debug_info    0x00003eed      0x45c ./drvr/glib_rectangle.o
 .debug_info    0x00004349      0x4cf ./drvr/glib_string.o
 .debug_info    0x00004818      0xde1 ./drvr/udelay.o
 .debug_info    0x000055f9     0x1af6 ./emlib/em_cmu.o
 .debug_info    0x000070ef      0xca4 ./emlib/em_core.o
 .debug_info    0x00007d93      0xa05 ./emlib/em_gpio.o
 .debug_info    0x00008798      0x8e6 ./emlib/em_pcnt.o
 .debug_info    0x0000907e      0x2c2 ./emlib/em_prs.o
 .debug_info    0x00009340      0x6b8 ./emlib/em_rtcc.o
 .debug_info    0x000099f8      0x276 ./emlib/em_system.o
 .debug_info    0x00009c6e      0x94f ./emlib/em_timer.o
 .debug_info    0x0000a5bd     0x1068 ./emlib/em_usart.o
 .debug_info    0x0000b625      0x43f ./src/graphics.o
 .debug_info    0x0000ba64     0x2c34 ./src/main.o

.debug_abbrev   0x00000000     0x2493
 .debug_abbrev  0x00000000       0x14 ./CMSIS/EFR32MG1P/startup_efr32mg1p.o
 .debug_abbrev  0x00000014      0x1d0 ./CMSIS/EFR32MG1P/system_efr32mg1p.o
 .debug_abbrev  0x000001e4       0xf5 ./drvr/display.o
 .debug_abbrev  0x000002d9      0x161 ./drvr/displayls013b7dh03.o
 .debug_abbrev  0x0000043a      0x1ed ./drvr/displaypalemlib.o
 .debug_abbrev  0x00000627      0x1b3 ./drvr/dmd_display.o
 .debug_abbrev  0x000007da      0x1fd ./drvr/glib.o
 .debug_abbrev  0x000009d7       0xa9 ./drvr/glib_font_narrow_6x8.o
 .debug_abbrev  0x00000a80       0xa9 ./drvr/glib_font_normal_8x8.o
 .debug_abbrev  0x00000b29      0x159 ./drvr/glib_rectangle.o
 .debug_abbrev  0x00000c82      0x109 ./drvr/glib_string.o
 .debug_abbrev  0x00000d8b      0x1e7 ./drvr/udelay.o
 .debug_abbrev  0x00000f72      0x307 ./emlib/em_cmu.o
 .debug_abbrev  0x00001279      0x239 ./emlib/em_core.o
 .debug_abbrev  0x000014b2      0x1da ./emlib/em_gpio.o
 .debug_abbrev  0x0000168c      0x1dc ./emlib/em_pcnt.o
 .debug_abbrev  0x00001868       0xe3 ./emlib/em_prs.o
 .debug_abbrev  0x0000194b      0x177 ./emlib/em_rtcc.o
 .debug_abbrev  0x00001ac2      0x109 ./emlib/em_system.o
 .debug_abbrev  0x00001bcb      0x174 ./emlib/em_timer.o
 .debug_abbrev  0x00001d3f      0x209 ./emlib/em_usart.o
 .debug_abbrev  0x00001f48      0x142 ./src/graphics.o
 .debug_abbrev  0x0000208a      0x409 ./src/main.o

.debug_aranges  0x00000000      0xab0
 .debug_aranges
                0x00000000       0x20 ./CMSIS/EFR32MG1P/startup_efr32mg1p.o
 .debug_aranges
                0x00000020       0x68 ./CMSIS/EFR32MG1P/system_efr32mg1p.o
 .debug_aranges
                0x00000088       0x38 ./drvr/display.o
 .debug_aranges
                0x000000c0       0x58 ./drvr/displayls013b7dh03.o
 .debug_aranges
                0x00000118       0xc0 ./drvr/displaypalemlib.o
 .debug_aranges
                0x000001d8       0x88 ./drvr/dmd_display.o
 .debug_aranges
                0x00000260       0x90 ./drvr/glib.o
 .debug_aranges
                0x000002f0       0x18 ./drvr/glib_font_narrow_6x8.o
 .debug_aranges
                0x00000308       0x18 ./drvr/glib_font_normal_8x8.o
 .debug_aranges
                0x00000320       0x38 ./drvr/glib_rectangle.o
 .debug_aranges
                0x00000358       0x30 ./drvr/glib_string.o
 .debug_aranges
                0x00000388       0x50 ./drvr/udelay.o
 .debug_aranges
                0x000003d8      0x190 ./emlib/em_cmu.o
 .debug_aranges
                0x00000568       0xe8 ./emlib/em_core.o
 .debug_aranges
                0x00000650       0x88 ./emlib/em_gpio.o
 .debug_aranges
                0x000006d8       0x88 ./emlib/em_pcnt.o
 .debug_aranges
                0x00000760       0x28 ./emlib/em_prs.o
 .debug_aranges
                0x00000788       0x50 ./emlib/em_rtcc.o
 .debug_aranges
                0x000007d8       0x28 ./emlib/em_system.o
 .debug_aranges
                0x00000800       0x58 ./emlib/em_timer.o
 .debug_aranges
                0x00000858       0xd0 ./emlib/em_usart.o
 .debug_aranges
                0x00000928       0x38 ./src/graphics.o
 .debug_aranges
                0x00000960      0x150 ./src/main.o

.debug_loc      0x00000000     0x5743
 .debug_loc     0x00000000      0x2e4 ./CMSIS/EFR32MG1P/system_efr32mg1p.o
 .debug_loc     0x000002e4      0x140 ./drvr/display.o
 .debug_loc     0x00000424      0x298 ./drvr/displayls013b7dh03.o
 .debug_loc     0x000006bc      0x6cc ./drvr/displaypalemlib.o
 .debug_loc     0x00000d88      0x44c ./drvr/dmd_display.o
 .debug_loc     0x000011d4      0x48c ./drvr/glib.o
 .debug_loc     0x00001660      0x159 ./drvr/glib_rectangle.o
 .debug_loc     0x000017b9       0xf0 ./drvr/glib_string.o
 .debug_loc     0x000018a9      0x224 ./drvr/udelay.o
 .debug_loc     0x00001acd      0xf1c ./emlib/em_cmu.o
 .debug_loc     0x000029e9      0x88c ./emlib/em_core.o
 .debug_loc     0x00003275      0x4b4 ./emlib/em_gpio.o
 .debug_loc     0x00003729      0x490 ./emlib/em_pcnt.o
 .debug_loc     0x00003bb9       0xb8 ./emlib/em_prs.o
 .debug_loc     0x00003c71      0x23c ./emlib/em_rtcc.o
 .debug_loc     0x00003ead       0xb8 ./emlib/em_system.o
 .debug_loc     0x00003f65      0x2b0 ./emlib/em_timer.o
 .debug_loc     0x00004215      0x7da ./emlib/em_usart.o
 .debug_loc     0x000049ef      0x11c ./src/graphics.o
 .debug_loc     0x00004b0b      0xc38 ./src/main.o

.debug_ranges   0x00000000      0x920
 .debug_ranges  0x00000000       0x58 ./CMSIS/EFR32MG1P/system_efr32mg1p.o
 .debug_ranges  0x00000058       0x28 ./drvr/display.o
 .debug_ranges  0x00000080       0x48 ./drvr/displayls013b7dh03.o
 .debug_ranges  0x000000c8       0xb0 ./drvr/displaypalemlib.o
 .debug_ranges  0x00000178       0x78 ./drvr/dmd_display.o
 .debug_ranges  0x000001f0       0x80 ./drvr/glib.o
 .debug_ranges  0x00000270       0x28 ./drvr/glib_rectangle.o
 .debug_ranges  0x00000298       0x20 ./drvr/glib_string.o
 .debug_ranges  0x000002b8       0x40 ./drvr/udelay.o
 .debug_ranges  0x000002f8      0x180 ./emlib/em_cmu.o
 .debug_ranges  0x00000478       0xd8 ./emlib/em_core.o
 .debug_ranges  0x00000550       0x78 ./emlib/em_gpio.o
 .debug_ranges  0x000005c8       0x78 ./emlib/em_pcnt.o
 .debug_ranges  0x00000640       0x18 ./emlib/em_prs.o
 .debug_ranges  0x00000658       0x40 ./emlib/em_rtcc.o
 .debug_ranges  0x00000698       0x18 ./emlib/em_system.o
 .debug_ranges  0x000006b0       0x48 ./emlib/em_timer.o
 .debug_ranges  0x000006f8       0xc0 ./emlib/em_usart.o
 .debug_ranges  0x000007b8       0x28 ./src/graphics.o
 .debug_ranges  0x000007e0      0x140 ./src/main.o

.debug_str      0x00000000     0x4f80
 .debug_str     0x00000000      0x6fc ./CMSIS/EFR32MG1P/system_efr32mg1p.o
                                0x773 (size before relaxing)
 .debug_str     0x000006fc      0x32e ./drvr/display.o
                                0x4ca (size before relaxing)
 .debug_str     0x00000a2a      0x124 ./drvr/displayls013b7dh03.o
                                0x577 (size before relaxing)
 .debug_str     0x00000b4e      0xfd2 ./drvr/displaypalemlib.o
                               0x12ea (size before relaxing)
 .debug_str     0x00001b20      0x29c ./drvr/dmd_display.o
                                0x6b5 (size before relaxing)
 .debug_str     0x00001dbc      0x29e ./drvr/glib.o
                                0x5b8 (size before relaxing)
 .debug_str     0x0000205a       0x4b ./drvr/glib_font_narrow_6x8.o
                                0x326 (size before relaxing)
 .debug_str     0x000020a5       0x38 ./drvr/glib_font_normal_8x8.o
                                0x326 (size before relaxing)
 .debug_str     0x000020dd       0x77 ./drvr/glib_rectangle.o
                                0x4b3 (size before relaxing)
 .debug_str     0x00002154       0xb7 ./drvr/glib_string.o
                                0x4d5 (size before relaxing)
 .debug_str     0x0000220b      0x365 ./drvr/udelay.o
                                0xd60 (size before relaxing)
 .debug_str     0x00002570      0xaed ./emlib/em_cmu.o
                               0x13ac (size before relaxing)
 .debug_str     0x0000305d      0x30f ./emlib/em_core.o
                                0x7d4 (size before relaxing)
 .debug_str     0x0000336c      0x1a6 ./emlib/em_gpio.o
                                0x848 (size before relaxing)
 .debug_str     0x00003512      0x471 ./emlib/em_pcnt.o
                                0x720 (size before relaxing)
 .debug_str     0x00003983       0x82 ./emlib/em_prs.o
                                0x337 (size before relaxing)
 .debug_str     0x00003a05       0x6a ./emlib/em_rtcc.o
                                0x810 (size before relaxing)
 .debug_str     0x00003a6f       0xea ./emlib/em_system.o
                                0x315 (size before relaxing)
 .debug_str     0x00003b59      0x73a ./emlib/em_timer.o
                                0x9eb (size before relaxing)
 .debug_str     0x00004293      0x6b5 ./emlib/em_usart.o
                                0xeea (size before relaxing)
 .debug_str     0x00004948       0xa3 ./src/graphics.o
                                0x4dc (size before relaxing)
 .debug_str     0x000049eb      0x595 ./src/main.o
                               0x1ff3 (size before relaxing)

.debug_frame    0x00000000     0x2de8
 .debug_frame   0x00000000      0x164 ./CMSIS/EFR32MG1P/system_efr32mg1p.o
 .debug_frame   0x00000164       0xa0 ./drvr/display.o
 .debug_frame   0x00000204      0x138 ./drvr/displayls013b7dh03.o
 .debug_frame   0x0000033c      0x31c ./drvr/displaypalemlib.o
 .debug_frame   0x00000658      0x220 ./drvr/dmd_display.o
 .debug_frame   0x00000878      0x244 ./drvr/glib.o
 .debug_frame   0x00000abc       0xb4 ./drvr/glib_rectangle.o
 .debug_frame   0x00000b70       0x80 ./drvr/glib_string.o
 .debug_frame   0x00000bf0      0x10c ./drvr/udelay.o
 .debug_frame   0x00000cfc      0x6dc ./emlib/em_cmu.o
 .debug_frame   0x000013d8      0x3dc ./emlib/em_core.o
 .debug_frame   0x000017b4      0x228 ./emlib/em_gpio.o
 .debug_frame   0x000019dc      0x218 ./emlib/em_pcnt.o
 .debug_frame   0x00001bf4       0x60 ./emlib/em_prs.o
 .debug_frame   0x00001c54      0x110 ./emlib/em_rtcc.o
 .debug_frame   0x00001d64       0x60 ./emlib/em_system.o
 .debug_frame   0x00001dc4      0x140 ./emlib/em_timer.o
 .debug_frame   0x00001f04      0x384 ./emlib/em_usart.o
 .debug_frame   0x00002288       0x9c ./src/graphics.o
 .debug_frame   0x00002324      0x5c0 ./src/main.o
 .debug_frame   0x000028e4       0x2c c:/siliconlabs/simplicitystudio/v4/developer/toolchains/gnu_arm/4.9_2015q3/bin/../lib/gcc/arm-none-eabi/4.9.3/armv7e-m/softfp\libgcc.a(_fixunsdfdi.o)
 .debug_frame   0x00002910       0x28 c:/siliconlabs/simplicitystudio/v4/developer/toolchains/gnu_arm/4.9_2015q3/bin/../lib/gcc/arm-none-eabi/4.9.3/../../../../arm-none-eabi/lib/armv7e-m/softfp\libc_nano.a(lib_a-exit.o)
 .debug_frame   0x00002938       0x2c c:/siliconlabs/simplicitystudio/v4/developer/toolchains/gnu_arm/4.9_2015q3/bin/../lib/gcc/arm-none-eabi/4.9.3/../../../../arm-none-eabi/lib/armv7e-m/softfp\libc_nano.a(lib_a-init.o)
 .debug_frame   0x00002964       0x28 c:/siliconlabs/simplicitystudio/v4/developer/toolchains/gnu_arm/4.9_2015q3/bin/../lib/gcc/arm-none-eabi/4.9.3/../../../../arm-none-eabi/lib/armv7e-m/softfp\libc_nano.a(lib_a-memcpy.o)
 .debug_frame   0x0000298c       0x20 c:/siliconlabs/simplicitystudio/v4/developer/toolchains/gnu_arm/4.9_2015q3/bin/../lib/gcc/arm-none-eabi/4.9.3/../../../../arm-none-eabi/lib/armv7e-m/softfp\libc_nano.a(lib_a-memset.o)
 .debug_frame   0x000029ac       0x70 c:/siliconlabs/simplicitystudio/v4/developer/toolchains/gnu_arm/4.9_2015q3/bin/../lib/gcc/arm-none-eabi/4.9.3/../../../../arm-none-eabi/lib/armv7e-m/softfp\libc_nano.a(lib_a-sprintf.o)
 .debug_frame   0x00002a1c      0x11c c:/siliconlabs/simplicitystudio/v4/developer/toolchains/gnu_arm/4.9_2015q3/bin/../lib/gcc/arm-none-eabi/4.9.3/../../../../arm-none-eabi/lib/armv7e-m/softfp\libc_nano.a(lib_a-findfp.o)
 .debug_frame   0x00002b38       0x2c c:/siliconlabs/simplicitystudio/v4/developer/toolchains/gnu_arm/4.9_2015q3/bin/../lib/gcc/arm-none-eabi/4.9.3/../../../../arm-none-eabi/lib/armv7e-m/softfp\libc_nano.a(lib_a-nano-freer.o)
 .debug_frame   0x00002b64       0x2c c:/siliconlabs/simplicitystudio/v4/developer/toolchains/gnu_arm/4.9_2015q3/bin/../lib/gcc/arm-none-eabi/4.9.3/../../../../arm-none-eabi/lib/armv7e-m/softfp\libc_nano.a(lib_a-nano-mallocr.o)
 .debug_frame   0x00002b90       0x8c c:/siliconlabs/simplicitystudio/v4/developer/toolchains/gnu_arm/4.9_2015q3/bin/../lib/gcc/arm-none-eabi/4.9.3/../../../../arm-none-eabi/lib/armv7e-m/softfp\libc_nano.a(lib_a-nano-svfprintf.o)
 .debug_frame   0x00002c1c       0x58 c:/siliconlabs/simplicitystudio/v4/developer/toolchains/gnu_arm/4.9_2015q3/bin/../lib/gcc/arm-none-eabi/4.9.3/../../../../arm-none-eabi/lib/armv7e-m/softfp\libc_nano.a(lib_a-nano-vfprintf_i.o)
 .debug_frame   0x00002c74       0x2c c:/siliconlabs/simplicitystudio/v4/developer/toolchains/gnu_arm/4.9_2015q3/bin/../lib/gcc/arm-none-eabi/4.9.3/../../../../arm-none-eabi/lib/armv7e-m/softfp\libc_nano.a(lib_a-sbrkr.o)
 .debug_frame   0x00002ca0       0x28 c:/siliconlabs/simplicitystudio/v4/developer/toolchains/gnu_arm/4.9_2015q3/bin/../lib/gcc/arm-none-eabi/4.9.3/../../../../arm-none-eabi/lib/armv7e-m/softfp\libc_nano.a(lib_a-memchr.o)
 .debug_frame   0x00002cc8       0x28 c:/siliconlabs/simplicitystudio/v4/developer/toolchains/gnu_arm/4.9_2015q3/bin/../lib/gcc/arm-none-eabi/4.9.3/../../../../arm-none-eabi/lib/armv7e-m/softfp\libc_nano.a(lib_a-memmove.o)
 .debug_frame   0x00002cf0       0x3c c:/siliconlabs/simplicitystudio/v4/developer/toolchains/gnu_arm/4.9_2015q3/bin/../lib/gcc/arm-none-eabi/4.9.3/../../../../arm-none-eabi/lib/armv7e-m/softfp\libc_nano.a(lib_a-nano-reallocr.o)
 .debug_frame   0x00002d2c       0x5c c:/siliconlabs/simplicitystudio/v4/developer/toolchains/gnu_arm/4.9_2015q3/bin/../lib/gcc/arm-none-eabi/4.9.3/../../../../arm-none-eabi/lib/armv7e-m/softfp\libc_nano.a(lib_a-reent.o)
 .debug_frame   0x00002d88       0x20 c:/siliconlabs/simplicitystudio/v4/developer/toolchains/gnu_arm/4.9_2015q3/bin/../lib/gcc/arm-none-eabi/4.9.3/../../../../arm-none-eabi/lib/armv7e-m/softfp\libc_nano.a(lib_a-nano-msizer.o)
 .debug_frame   0x00002da8       0x20 c:/siliconlabs/simplicitystudio/v4/developer/toolchains/gnu_arm/4.9_2015q3/bin/../lib/gcc/arm-none-eabi/4.9.3/../../../../arm-none-eabi/lib/armv7e-m/softfp\libnosys.a(sbrk.o)
 .debug_frame   0x00002dc8       0x20 c:/siliconlabs/simplicitystudio/v4/developer/toolchains/gnu_arm/4.9_2015q3/bin/../lib/gcc/arm-none-eabi/4.9.3/../../../../arm-none-eabi/lib/armv7e-m/softfp\libnosys.a(_exit.o)

.stabstr        0x00000000       0xdf
 .stabstr       0x00000000       0xdf c:/siliconlabs/simplicitystudio/v4/developer/toolchains/gnu_arm/4.9_2015q3/bin/../lib/gcc/arm-none-eabi/4.9.3/../../../../arm-none-eabi/lib/armv7e-m/softfp\libnosys.a(close.o)
