S020000031355F436170616361746976655F746F7563685F45464D33322E73333700
S113000000800020B1010000DD010000DD010000DE
S1130010DD010000DD010000DD010000DD01000064
S1130020DD010000DD010000DD010000DD01000054
S1130030DD010000DD010000DD01000035190000D4
S1130040DD010000DD01000009180000DD010000F1
S1130050DD010000DD010000DD010000DD01000024
S1130060DD010000DD010000DD010000DD01000014
S1130070DD010000DD010000DD010000DD01000004
S1130080DD010000DD010000DD010000DD010000F4
S1130090DD010000DD010000DD010000DD010000E4
S11300A0DD010000DD010000DD010000DD010000D4
S11300B0DD010000DD010000DD010000DD010000C4
S11300C0DD010000DD010000DD010000DD010000B4
S11300D0DD010000DD010000DD010000DD010000A4
S11300E010B5054C237833B9044B13B10448AFF36E
S11300F000800123237010BD7C000020000000005C
S1130100A8220000084B10B51BB108480849AFF3FA
S113011000800848036803B910BD074B002BFBD0CF
S1130120BDE81040184700BF00000000A8220000EE
S1130130800000207800002000000000154B002BF8
S113014008BF134B9D46A3F5803A00218B460F460A
S11301501348144A121A01F035FC0F4B002B00D03F
S113016098470E4B002B00D0984700200021040034
S11301700D000D48002802D00C48AFF3008001F0B8
S1130180FBFB2000290001F0FFFA01F0E1FB00BFB6
S113019000000800008000200000000000000000B3
S11301A07C000020B40000200000000000000000DB
S11301B0064880470649074A074B9A42BEBF51F892
S11301C0040B42F8040BF8E7FFF7B8FF3103000013
S11301D0B4220000000000207C000020FEE700BFE5
S11301E080B400AF044BDB6C1B0EDBB21846BD467B
S11301F05DF8047B704700BFB081E00F80B582B02A
S113020000AF00F015F87860074B5B6803F00F034C
S11302101A467B68D3407B60044A7B6813607B6822
S113022018460837BD4680BD00800C4008000020F9
S113023080B582B000AF334BDB6A03F47053B3F57F
S1130240805F0AD0B3F5005F03D0B3F5006F08D028
S11302500BE02D4B1B687B6047E04FF400437B6051
S113026043E02A4B1B687B603FE0264BDB6803F4CA
S1130270E063B3F5007F1BD0B3F5007F05D8002BF6
S113028024D0B3F5807F16D02BE0B3F5806F09D06E
S1130290B3F5A06F03D0B3F5407F06D021E01C4B2B
S11302A07B6021E01B4B7B601EE01B4B7B601BE0F3
S11302B01A4B7B6018E0FFF793FF0346122B02D919
S11302C0174B7B6010E0174B7B600DE0FFF788FF56
S11302D00346122B02D9144B7B6005E0134B7B6061
S11302E002E000237B6000BF00BF064B1B6803F4E1
S11302F0E0339B0B01337A68B2FBF3F318460837FB
S1130300BD4680BD00800C40040000200000002099
S1130310003FAB01406F4001809FD500C0D8A700CB
S113032040B56400C0CF6A00804F120040420F0005
S113033080B400AF054A054BD3F8883043F470030A
S1130340C2F88830BD465DF8047B704700ED00E0DC
S113035080B400AF4FF400431846BD465DF8047BFB
S1130360704700BF80B400AF4FF47A731846BD469F
S11303705DF8047B704700BF80B400AF034B1B687B
S11303801846BD465DF8047B704700BF040000209A
S113039080B487B000AFF860B9607A60FB6803F19D
S11303A00473DA00BB6813449B007B617B697A6841
S11303B01A601C37BD465DF8047B704780B485B075
S11303C000AFF860B9607A60FB681A68BB68DB4309
S11303D01A407B681A43FB681A601437BD465DF8FF
S11303E0047B704780B582B000AF786039607B6869
S11303F01D4A934203D07B681C4A934200D100BF3C
S11304003B681B78DA073B685B789B0713431A4603
S11304103B685B681B0613433A68127A1202134363
S11304203A68527A12011A437B681A603B689B7AD5
S11304301B071A463B68DB7A1B041A433B68DB68DC
S11304401B02134343F0807343F0B0037A68536094
S11304507A683B681B7C104600211A46FFF798FF18
S11304600837BD4680BD00BF0010004000140040A6
S113047080B582B000AF78600B46FB707B68094A98
S1130480934203D07B68084A934200D100BF7B6843
S11304901A1DFB78104607211A46FFF78FFF08370D
S11304A0BD4680BD001000400014004080B584B0FB
S11304B000AFF860B96011461A460B46FB7113464B
S11304C0BB71FB680C4A934203D0FB680B4A93420E
S11304D000D100BFFA68BB79DB00104608211A4638
S11304E0FFF76CFFBB681A02FB791A43FB68DA61F9
S11304F01037BD4680BD00BF00100040001400400E
S113050080B487B000AFF860B9607A60FB6803F12B
S11305100473DA00BB6813449B007B617B697A68CF
S11305201A601C37BD465DF8047B704780B485B003
S113053000AF786039607B6803F10473DA003B68CC
S113054013449B00FB60FB681B6818461437BD46C8
S11305505DF8047B704700BF80B485B000AF78605D
S11305607B68002B04D07B68B3F5004F00D800BF34
S11305707B68B3FA83F3C3F11F03FB60FB6818467F
S11305801437BD465DF8047B704700BF80B400AFEC
S1130590044BDB6C1B0EDBB21846BD465DF8047BD6
S11305A0704700BFB081E00F80B584B000AF7860C1
S11305B039607A683B689A428CBF01230023DBB21E
S11305C0FB6006481E21FA68FFF79AFF04480821D9
S11305D0FA68FFF795FF1037BD4680BD00800C40D8
S11305E004800C4080B582B000AF07481E21FFF79D
S11305F09DFF786005480821FFF798FF38607B6805
S113060018460837BD4680BD00800C4004800C406D
S113061080B582B000AF214B5B6903F4E063B3F5AE
S1130620007F1CD0B3F5007F05D8002B25D0B3F58F
S1130630807F1FD02AE0B3F5C06F24D0B3F5E06FFC
S11306401ED0B3F5407F21D1FFF7A0FF0346122B44
S113065002D9134B7B601CE0124B7B6019E0FFF75F
S113066095FF0346122B02D90F4B7B6011E00F4B11
S11306707B600EE00E4B7B600BE00E4B7B6008E072
S11306800D4B7B6005E00D4B7B6002E000237B603B
S113069000BF7B6818460837BD4680BD00800C400B
S11306A0804F120040420F0040B56400C0CF6A0082
S11306B0C0D8A700809FD500406F4001003FAB0128
S11306C080B582B000AF0D4800F026FA0346FB70F7
S11306D0FB78072B05D0092B07D1FFF7A9FD78601C
S11306E006E0FFF795FF786002E000237B6000BF1F
S11306F07B6818460837BD4680BD00BF06000C0065
S113070090B585B000AF78600023BB607B68344A45
S1130710934203D0334A934200D000E000BF78688C
S113072000F0FAF90346FB607B682D4A934203D03C
S11307302C4A934206D00CE02B4B9B6A03F0030334
S1130740FB6006E0284B9B6A03F00C039B08FB60EC
S113075000BFFB68032B3AD801A252F823F000BF74
S11307609707000071070000790700008107000067
S1130770FFF7EEFDB8602DE0FFF7FEFDB86029E05D
S1130780FFF73CFD0446FFF72DFF0346013324FA2F
S113079003F3BB601EE00023BB607B68104A9342F6
S11307A003D07B680F4A934210D10F4B9A6A7B683F
S11307B00B498B4201D1102300E0142322FA03F3E6
S11307C0002B03D0FFF7CEFDB86003E002E0002366
S11307D0BB6000BFBB6818461437BD4690BD00BF60
S11307E002001A0003001C0000800C4080B483B097
S11307F000AF7860094B5B6D03F00103002B00D060
S113080006E000BF054B1A6D7B681340002BF9D13D
S11308100C37BD465DF8047B704700BF00800C4078
S113082080B582B000AF104800F076F90346FB7043
S1130830FB78032B07D0092B09D0022B0BD1FFF730
S11308409BFD78600AE0FFF783FD786006E0FFF720
S1130850EFFC786002E000237B6000BF7B681846F1
S11308600837BD4680BD00BF0723220080B586B08F
S113087000AF78600B46FB7000233B617B681B0A6A
S113088003F00F03013B092B46D801A252F823F0D1
S1130890CF080000D5080000B908000019090000BD
S11308A019090000DB080000E50800001909000030
S11308B019090000EF080000194B7B61194800F08A
S11308C03FF8034618461849FFF76EFE12E0174B2F
S11308D07B610FE0164B7B610CE0164B7B610123BF
S11308E03B6107E0144B7B6110233B6102E0134B37
S11308F07B6100BF7B681B0B03F01F03FB603B693C
S1130900002B02D03869FFF771FFFB787869F9682A
S11309101A46FFF7F5FD00E000BF1837BD4680BD5D
S113092040800C400043020000366E0108800C40F9
S113093044800C4058800C4060800C4078800C400F
S113094090B585B000AF78607B6803F47813B3F595
S1130950B01F00F0AB80B3F5B01F1AD8B3F5402F29
S113096000F0BF80B3F5402F08D8B3F5003F3CD06A
S1130970B3F5802F2DD0002B27D0BEE0B3F5801F18
S11309803CD0B3F5A01F47D0B3F5602F00F0AD8085
S1130990B3E0B3F5081F00F0AC80B3F5081F0AD824
S11309A0B3F5D01F25D0B3F5E01F7AD0B3F5C01F3F
S11309B000F08980A1E0B3F5201F4ED0B3F5281FC5
S11309C062D0B3F5181F35D097E0FFF731FCF8601B
S11309D096E0FFF72DFCF8604C4B9B6803F00F0387
S11309E01A46FB68D340FB608AE0FFF707FCF86017
S11309F086E04748FFF784FEF86081E04448FFF74B
S1130A007FFEF860414B9B6E03F0F0031B091A460E
S1130A10FB68D340FB6073E03D48FFF771FEF8606C
S1130A203A4B9B6E03F470631B0A1A46FB68D3406F
S1130A30FB6065E03648FFF763FEF860334B9B6E5E
S1130A4003F440531C0B1020FFF786FD0346234498
S1130A501A46FB68D340FB6052E02D48FFF750FE76
S1130A60F8602A4B9B6E03F440531B0B1A46FB6839
S1130A70D340FB60254BDB6F03F007030133FA68B7
S1130A80B2FBF3F3FB603BE02148FFF739FEF8606B
S1130A901E4B9B6E03F003031A46FB68D340FB60B6
S1130AA02EE01C48FFF72CFEF86029E01948FFF7F8
S1130AB027FEF860154B1B6F03F003031A46FB680F
S1130AC0D340FB601CE01348FFF71AFEF8600F4B9D
S1130AD01B6F03F030031B091A46FB68D340FB600D
S1130AE00EE0FFF7EDFDF8600AE0FFF791FDF86016
S1130AF006E0FFF795FEF86002E00023FB6000BF0C
S1130B00FB6818461437BD4690BD00BF00800C40FA
S1130B1002001A0003001C0080B485B000AF7860A6
S1130B200123FB737B6803F00F03BB60BB68013BCD
S1130B30062B00F2938001A252F823F0590B000017
S1130B408F0B0000CB0B00005D0C00005D0C00005F
S1130B50070C0000290C0000454BDB6A03F47053BA
S1130B60B3F5805F09D0B3F5005F03D0B3F5006F30
S1130B7006D008E00223FB7308E00323FB7305E0BF
S1130B800423FB7302E00523FB7300BF69E0384BC9
S1130B909B6A03F00303022B06D0032B07D0012B1F
S1130BA008D10323FB730FE00223FB730CE006233D
S1130BB0FB7309E02E4B9B6A03F48033002B02D0B5
S1130BC00A23FB7300E000BF4BE0294B9B6A03F050
S1130BD00C03082B06D00C2B07D0042B08D10323BD
S1130BE0FB730FE00223FB730CE00623FB7309E0A5
S1130BF01F4B9B6A03F48013002B02D00A23FB7360
S1130C0000E000BF2DE01A4B1B6803F08053002B5B
S1130C1003D0B3F1805F03D023E00723FB7302E02A
S1130C200923FB7300BF1CE0114BDB6A03F4603340
S1130C30B3F5803F08D0B3F5003F08D0B3F5004FBB
S1130C4008D10923FB7308E00223FB7305E00323A7
S1130C50FB7302E00123FB7300BF02E00023FB737C
S1130C6000BFFB7B18461437BD465DF8047B704714
S1130C7000800C4080B400AF034B4AF6E8529A60FF
S1130C80BD465DF8047B704700600C4080B584B0BD
S1130C9000AF114B1B6823F00C0343F00803BB6047
S1130CA00D4B1B6843F00C037B60FFF7E3FF00234D
S1130CB0FB6008E0084ABB681360074A7B6813605E
S1130CC0FB680133FB60FB68032BF3DD024ABB685E
S1130CD013601037BD4680BD00600C4080B485B001
S1130CE000AF7860104BDB6AFB60FB6823F4803351
S1130CF023F00F03FB607B681B781B047A689278EF
S1130D001A437B68DB785B0013437A6812791343D8
S1130D101A46FB681343FB60034AFB68D36214372B
S1130D20BD465DF8047B704700600C4080B483B01E
S1130D3000AF03463960FB71FB79002B0DD0FB79C2
S1130D40012B0AD0FB79022B07D0FB79032B04D0AB
S1130D50FB79042B01D0FB79052B0949FA793B680F
S1130D60012000FA03F318461346DB0013449B00EA
S1130D700B44103358600C37BD465DF8047B704754
S1130D800060004080B483B000AF03463960FB715B
S1130D90FB79002B0DD0FB79012B0AD0FB79022BB8
S1130DA007D0FB79032B04D0FB79042B01D0FB790A
S1130DB0052B0949FA793B68012000FA03F3184628
S1130DC01346DB0013449B000B44103318600C37AC
S1130DD0BD465DF8047B70470060004090B585B067
S1130DE000AFB9607B600346FB731346BB73FB7BA8
S1130DF0002B0DD0FB7B012B0AD0FB7B022B07D0F1
S1130E00FB7B032B04D0FB7B042B01D0FB7B052B4A
S1130E10BB7B002B0DD07B68002B05D0FB7B1846D9
S1130E20B968FFF7AFFF04E0FB7B1846B968FFF72A
S1130E307DFFBB68072B1CD82A4CFA7B2948F97B19
S1130E400B46DB000B449B0003445968BB689B00C2
S1130E5018460F238340DB430B40B97BB8688000FE
S1130E60814019431346DB0013449B00234459601B
S1130E7024E01C4CFA7B1B48F97B0B46DB000B443B
S1130E809B00034408331968BB6803F18043083BA3
S1130E909B0018460F238340DB431940B87BBB6893
S1130EA003F18043083B9B0000FA03F31943134604
S1130EB0DB0013449B00234408331960BB7B002BE5
S1130EC00DD17B68002B05D0FB7B1846B968FFF772
S1130ED059FF04E0FB7B1846B968FFF727FF143776
S1130EE0BD4690BD0060004080B485B000AFF8609E
S1130EF0B9607A603B600949BB6803F47C127B6883
S1130F0003F007031A433B681A43FB68043341F8B0
S1130F1023201437BD465DF8047B704700C00C40A5
S1130F2080B483B000AF78607B680D4A93420BD0E5
S1130F307B680C4A934207D07B680B4A934203D0E8
S1130F407B680A4A934201D1012300E0002303F0A5
S1130F500103DBB218460C37BD465DF8047B7047CD
S1130F60000001400004014000080140000C014061
S1130F7080B582B000AF786039607868FFF7D0FF41
S1130F803B681B7883F00103DBB2002B02D07B6843
S1130F9002225A607B6800225A623B689B781A06D8
S1130FA03B68DB781B041A433B689B799B021A431A
S1130FB03B68DB791B0213433A68127A1A433B6895
S1130FC05B78002B01D0402300E000231A433B68E8
S1130FD05B7A002B01D0802300E000231A433B6896
S1130FE09B7A002B01D0202300E000231A433B68A6
S1130FF0DB7A002B01D0102300E000231A433B6866
S11310001B79002B02D04FF4005300E000231A4355
S11310103B685B79002B02D04FF0805300E0002343
S11310201A433B681B7B002B01D0082300E00023FC
S11310301A437B681A603B681B78002B02D07B68DC
S113104001225A600837BD4680BD00BF80B584B018
S113105000AFF860B9607A60F868FFF761FF7B68F9
S11310601B789A067B685B781B061A437B689B781F
S11310701B041A437B68DB781B031A437B681B79C8
S11310809B021A437B685B791B0213437A6892794B
S11310901A437B68DB79002B02D04FF4001300E085
S11310A000231A437B681B7A002B02D04FF4801371
S11310B000E000231A437B685B7A002B01D01023E5
S11310C000E000231A437B689B7A002B01D00423A1
S11310D000E000231A43F968BB6803331B010B4487
S11310E01A601037BD4680BD80B586B000AFF86089
S11310F0B9607A60FB70BB68002B03D12448FFF70A
S11311001FFCB860FB78202B0CD0202B02DC002BBA
S113111005D03AE0402B08D0602B09D035E01023ED
S11311207B6108E008237B6105E006237B6102E024
S113113004237B6100BFBB689A007B69796801FB6B
S113114003F35B0813443B617B697A6802FB03F396
S11311503A69B2FBF3F33B613B69043B3B613B6996
S11311609B013B613A690B4B13403B61FB681B6875
S113117023F06002FB681A60FB681A68FB781A4364
S1131180FB681A60FB683A695A611837BD4680BD2E
S113119040810400C0FF1F0080B582B000AF7860BA
S11311A039607B68244A93420FD07B68234A934278
S11311B00BD07B68224A934207D07B68214A934232
S11311C003D07B68204A934200D100BF786800F0C6
S11311D03DF83B689B7C002B05D07B681B6843F083
S11311E080427B681A603B68DB7C002B07D03B683D
S11311F01B7D43F01003DBB21A467B689A653B689B
S11312005B7B1A463B681B8A13433A68D2891A43AC
S11312107B685A603B6859683B689A683B681B7BEB
S11312207868FFF761FF3B681B781A467B68DA60D1
S11312300837BD4680BD00BF00C0004000C4004068
S113124000C8004000E0004000E4004080B483B0E7
S113125000AF78607B68244A93420FD07B68234AAE
S113126093420BD07B68224A934207D07B68214A81
S1131270934203D07B68204A934200D100BF7B682D
S113128040F6AA62DA607B6800221A607B6841F249
S113129005025A607B6800229A607B6800225A61CA
S11312A07B680022DA647B6841F6F9729A647B6891
S11312B000225A657B680C4A934202D17B68002263
S11312C01A657B6800229A657B68084A934203D0BA
S11312D07B68074A934202D17B680022DA650C37A7
S11312E0BD465DF8047B704700C0004000C4004068
S11312F000C8004000E0004000E4004080B483B037
S113130000AF78600B46FB7000BF7B681B6903F07D
S11313104003002BF9D0FA787B685A630C37BD463A
S11313205DF8047B704700BF80B483B000AF034610
S1131330FB71084997F907305B09FA7902F01F023B
S1131340012000FA02F241F823200C37BD465DF873
S1131350047B704700E100E080B485B000AF7860A2
S113136039607B6803F10473DA003B6813449B0023
S1131370FB60FB681B6818461437BD465DF8047BA8
S1131380704700BF80B582B000AF03463960FB717F
S1131390FB79002B0DD0FB79012B0AD0FB79022BB2
S11313A007D0FB79032B04D0FB79042B01D0FB7904
S11313B0052BFA791346DB0013449B001C3303F11D
S11313C0804303F5C04318463968FFF7C5FF034659
S11313D018460837BD4680BD80B483B000AF0346CD
S11313E03960FB71FB79002B0DD0FB79012B0AD0FE
S11313F0FB79022B07D0FB79032B04D0FB79042B58
S113140001D0FB79052B0949FA793B68012000FAE0
S113141003F318461346DB0013449B000B441033BC
S113142058600C37BD465DF8047B7047006000408F
S113143080B483B000AF03463960FB71FB79002BA5
S11314400DD0FB79012B0AD0FB79022B07D0FB7955
S1131450032B04D0FB79042B01D0FB79052B09491C
S1131460FA793B68012000FA03F318461346DB00BF
S113147013449B000B44103318600C37BD465DF8D1
S1131480047B70470060004080B400AFBD465DF847
S1131490047B704780B483B000AF786039607B68A8
S11314A0DA683B681A437B68DA600C37BD465DF83E
S11314B0047B704780B400AF054A054B1B6923F0D9
S11314C00403136130BFBD465DF8047B704700BF61
S11314D000ED00E0B0B592B000AF7B4B07F13404EF
S11314E01D460FCD0FC42B68236078480121FFF7F8
S11314F0BDF977480121FFF7B9F907F134037548BD
S11315001946FEF76FFF73480021FEF7B1FF7148DB
S11315100121FFF7BFFF6F4A6E4B1B6843F4803312
S1131520136000BF6B4B9B6803F00103002BF9D0E1
S113153069480121FFF79AF968480121FFF796F9F4
S1131540012387F82430002387F82530002387F807
S11315502630002387F82730002387F8283000231B
S113156087F82930002387F82A30002387F82B30A6
S1131570002387F82C30002387F82D30002387F8C8
S11315802E30002387F82F30002387F830300123D2
S113159087F827300A2387F8263007F124035048B8
S11315A01946FFF7E5FC4E4B4FF6FF72DA61002354
S11315B03B7600237B760023BB760023FB76002357
S11315C03B7700237B770023BB770023FB77002343
S11315D087F82030002387F82130002387F8223051
S11315E00123BB77012387F820300023BB76022335
S11315F03B7602237B7607F11803394801211A460A
S1131600FFF724FD00204FF4403100224FF0807397
S1131610FFF76AFC33480121FFF728F9032007216B
S113162004220023FFF7DAFB2A48022101220023C7
S1131630FEF73CFF2C480121FFF718F92B4B3C46E1
S11316401D460FCD0FC495E8030084E803003B4614
S113165027481946FFF7A0FD254A254B5B6D23F467
S1131660E06343F4A0635365214A214B5B6D43F06F
S1131670020353650220002104220023FFF7AEFB7E
S11316801C480121FFF7F2F81B4B4FF010621A605F
S1131690194B0A22DA61184B0122DA60164B002238
S11316A05A620220FFF740FE042002210422002394
S11316B0FFF794FB0220092101220023FFF78EFB90
S11316C04837BD46B0BD00BF382200004081040049
S11316D000A204000014004000F2040000620400B0
S11316E00004014000D20400000204004C22000067
S11316F000C00040005204000000014080B584B0E6
S113170000AF0D4B1B683A1D10460C491A4600F0F9
S113171061F93B1DFB6007E0FB685A1CFA601B780B
S113172007481946FFF7EAFDFB681B78002BF3D145
S11317301037BD4680BD00BF980000206422000021
S113174000C0004080B582B000AF0D4A3B4610682F
S1131750186012791A713B461846FFF7BFFA094B15
S11317600422C3F83421074B0122C3F83821054B66
S11317700122C3F83021FFF789FA0837BD4680BD3E
S1131780682200000060004080B500AFFFF77CFED7
S113179000F0BAF8FFF79EFE02200921FFF7F2FDE0
S11317A00346002B04D004200221FFF741FE05E08C
S11317B004200221FFF710FEFFF7C4FF0F4B0022A5
S11317C01A700F4B00225A620E4B00225A620C4BC5
S11317D001225A600B4B01225A6001E0FFF76AFEB6
S11317E0064B1B78DBB283F00103DBB2002BF5D18F
S11317F0FFF784FF642000F071F8CDE79C0000201F
S1131800000001400004014080B400AF094B0222F3
S11318105A60094B02225A60064B01229A61064B18
S11318205B6A064A1360064B01221A70BD465DF8D6
S1131830047B704700000140000401409800002030
S11318409C00002080B483B000AF03463960FB7174
S113185097F90730002B0BDA0D49FB7903F00F03DE
S1131860043B3A68D2B25201D2B20B441A7609E070
S1131870084997F907303A68D2B25201D2B20B4400
S113188083F800230C37BD465DF8047B704700BF26
S113189000ED00E000E100E080B582B000AF7860C8
S11318A07B68013BB3F1807F01D301230FE00A4A37
S11318B07B68013B53604FF0FF300721FFF7C2FF05
S11318C0054B00229A60044B07221A600023184635
S11318D00837BD4680BD00BF10E000E080B485B08D
S11318E000AF7860074B1B68FB6000BFFA687B6839
S11318F01A44044B1B689A42F8D81437BD465DF865
S1131900047B7047A000002080B500AF0748FFF7B4
S113191017F80246064BA3FB02239B091846FFF760
S1131920BBFF0346002B00D000BE80BD5000020068
S1131930D34D621080B400AF044B1B680133034ADB
S11319401360BD465DF8047B704700BFA000002013
S113195008B5074B044613B10021AFF30080054BD3
S11319601868836A03B19847204600F057FC00BF0B
S1131970000000007022000070B50E4B0E4CE41AFB
S1131980A41000251E46A54204D056F825309847D9
S11319900135F8E700F044FC084C094BE41AA410A4
S11319A000251E46A54204D056F825309847013537
S11319B0F8E770BD70000020700000207400002063
S11319C07000002002440346934202D003F8011B36
S11319D0FAE770470EB400B59CB04FF40271ADF84D
S11319E014106FF00041049107914FF6FF711DAB85
S11319F0ADF81610084953F8042B029006900868B5
S1131A00019302A900F064F8029B00221A701CB032
S1131A105DF804EB03B070476C0000202DE9F0473B
S1131A208E68B34282460C469046994640D38A89D2
S1131A3012F4906F3AD0256809696F1A6569022318
S1131A4005EB450595FBF3F57B1C4B449D4238BFE4
S1131A501D4653050FD5294600F03CFB064698B1B8
S1131A6021693A4600F0CBFAA38923F4906343F04A
S1131A708003A38113E02A4600F082FB064670B976
S1131A805046216900F0E2FA0C23CAF80030A38919
S1131A9043F04003A3814FF0FF30BDE8F087266197
S1131AA065613E44ED1B2660A5604E46B14500D2FB
S1131AB04E4632462068414600F0ACFAA3689B1BB0
S1131AC0A36023681E4426600020BDE8F087000060
S1131AD02DE9F0439DB0064603938B891C060D4601
S1131AE090460CD50B6953B9402100F0F3FA2860F5
S1131AF0286110B90C233360CCE040236B610023D0
S1131B00099320238DF8293030238DF82A30434659
S1131B101C4613F8012B1AB9B4EB08090FD002E0E4
S1131B20252AF5D1F8E73046294642464B46FFF7C9
S1131B3075FF013000F0A980099B4B440993237879
S1131B40002B00F0A28000234FF0FF320493079390
S1131B50059206938DF853301A9304F10108444614
S1131B60DFF8489121784846052200F039FA08F157
S1131B700108049B30B1C9EB0000012282401343E9
S1131B800493ECE7D80644BF20228DF853201907AC
S1131B9044BF2B228DF8532022782A2A02D0079999
S1131BA023460EE0039A111D12680391002ABBBF5D
S1131BB0524243F0020307920792B8BF04930134E0
S1131BC00AE01C4601332278303A092A03D80A2055
S1131BD000FB0121F5E7079123782E2B1AD16378B6
S1131BE02A2B0AD1039B1A1D1B680392002BB8BF32
S1131BF04FF0FF33023405930CE0611C00220C46C5
S1131C0001312378303B092B03D80A2000FB023230
S1131C10F5E70592DFF8988021784046032200F02A
S1131C20DFF938B1049AC8EB000040238340134322
S1131C300493013421781A488DF82810062204F1FF
S1131C40010800F0CDF988B1164B33B9039B073373
S1131C5023F007030833039313E003AB00933046E8
S1131C6004A92A46104BAFF3008007E003AB0093AE
S1131C70304604A92A460C4B00F092F8421C074651
S1131C8003D0099B3B44099341E7AB895B0601D42C
S1131C90099801E04FF0FF301DB0BDE8F08300BFAC
S1131CA07E220000000000001D1A000074220000C3
S1131CB07A2200002DE9F84391461F468A680B6991
S1131CC0DDF820809342B8BF1346C9F8003091F87C
S1131CD0432006460C4612B10133C9F8003023688C
S1131CE0990642BFD9F800300233C9F8003025689C
S1131CF015F006051CD094F843302268003318BF51
S1131D00012392061FD5E1185A1C302081F84300A4
S1131D10224494F8451082F84310023313E030460D
S1131D20394604F119020123C047013007D00135B7
S1131D30E368D9F800209B1A9D42F0DBDBE74FF003
S1131D40FF30BDE8F8833046394604F14302C0470A
S1131D500130F4D02268D9F80050E36802F006029A
S1131D60042A08BF5D1B2269A3680CBF25EAE57538
S1131D7000259342C4BF9B1AED184FF00009A945F2
S1131D800ADA3046394604F11A020123C047013009
S1131D90D5D009F10109F2E70020BDE8F88300007D
S1131DA02DE9FF410C461746227E6E2A98460646C8
S1131DB00A9B01F1430100F0AF8012D8632A23D0BB
S1131DC00AD8002A00F0BC80582A40F0CB8084F85E
S1131DD04520DFF804E257E0642A1ED0692A1CD0AB
S1131DE0C0E0732A00F0B08009D86F2A2ED0702A80
S1131DF040F0B880226842F0200222603FE0752A59
S1131E0024D0782A3BD0ADE01A68111D19601368FC
S1131E1084F8423004F14205A8E020681A6810F002
S1131E20800F02D0101D186008E010F0400F02F17E
S1131E300400186002D0B2F9003000E01368002BEF
S1131E403EDA2D225B4284F8432039E020681A6888
S1131E5010F0800F02D0101D186007E010F0400F42
S1131E6002F10400186001D0138800E01368227E98
S1131E70DFF864E16F2A0CBF08220A221CE07822F2
S1131E80DFF858E184F845202268186812F0800FC2
S1131E9000F104051D6003D1550601D5038800E057
S1131EA00368D00744BF42F0200222601BB92268B5
S1131EB022F0200222601022002084F8430002E075
S1131EC0DFF814E10A226568A560002DA2BF20682E
S1131ED020F00400206003B965B10D46B3FBF2F0B5
S1131EE002FB10331EF8033005F8013D03460028B9
S1131EF0F4D100E00D46082A0BD12368DA0708D58F
S1131F00236962689A42DEBF302305F8013C05F17B
S1131F10FF35491B21612EE025681A68606915F0B8
S1131F20800F03D0151D1D60136808E015F0400FE5
S1131F3002F104051D60136801D0188000E01860E8
S1131F40002323610D4616E01A68111D19601568F7
S1131F5062682846002100F043F808B1401B606025
S1131F60636804E004F1420584F8422001232361FC
S1131F70002384F84330CDF800803046214603AA7C
S1131F803B46FFF797FE013002D14FF0FF301FE0D0
S1131F90304639462A462369C0470130F5D02368C4
S1131FA09B0705D4E068039B9842B8BF18460FE02E
S1131FB00025E368039A9B1A9D42F3DA30463946BA
S1131FC004F119020123C0470130DED00135F0E7E6
S1131FD004B0BDE8F08100BF852200009622000015
S1131FE010B5C9B202449042034606D01C788C4214
S1131FF000F10100F7D1184610BD002010BD10B546
S1132000431E0A44914204D011F8014B03F8014FD6
S1132010F8E710BD814210B501EB020301D3421E63
S11320200BE09842FBD28118D21AD34204D013F8A1
S1132030014D01F8014DF8E710BD994204D011F8A3
S1132040014B02F8014FF8E710BD000030B500293C
S11320503DD051F8042C0B1F1D49002AB8BF9B1812
S11320600A680C4612B95A600B6030BD93420DD217
S113207019685818904201BF5A5852181A60426899
S11320805A60236030BD994203D80A46516800293A
S1132090F9D1146815199D420AD11B682344D0183C
S11320A08842136013D10868034413604B680DE041
S11320B002D90C23036030BD1C681819884204BF80
S11320C008684968596004BF00191860536030BD3E
S11320D0A800002070B5CC1C24F0030408340C2C98
S11320E038BF0C24002C064603DA0C23336000208E
S11320F070BD8C42F9D3204A136810461946A1B129
S11321000A68121B0ED40B2A03D90A608B188C5050
S11321101FE08B420DBF5A684A685A60026018BFBC
S11321200B4616E00B464968E9E7144D2B681BB9CA
S1132130304600F04BF828603046214600F046F85F
S1132140421C0346D1D0C51C25F0030585420AD1A3
S11321501C6003F10B001A1D20F00700821A0AD03C
S11321605142995070BD3046E91A00F02FF8013001
S1132170BBD02B46ECE770BDA8000020A4000020D3
S1132180F8B5074615460E4621B91146BDE8F84094
S1132190FFF7A0BF1AB9FFF759FF2846F8BD00F0B2
S11321A025F8A8420ED238462946FFF793FF044685
S11321B050B131462A46FFF722FF38463146FFF731
S11321C045FF01E03046F8BD2046F8BD38B5064C61
S11321D0002305460846236000F012F8431C02D190
S11321E0236803B12B6038BDB000002051F8040C03
S11321F00028BEBF091851F8043CC01804387047C1
S1132200044A05491368002B08BF0B4618441060A4
S113221018467047AC000020B8000020FEE700BF5D
S1132220F8B500BFF8BC08BC9E467047F8B500BFBF
S1132230F8BC08BC9E467047000000000700000080
S1132240070503003D000000010000000500000038
S11322500000000000C201000005000000100000A2
S11322600000000025782000000000010143000068
S11322700C000020232D302B2000686C4C00656678
S113228067454647003031323334353637383941C3
S113229042434445460030313233343536373839D9
S10F22A0616263646566000000000000D9
S10B22AC90DEFF7F0100000039
S11322B4006CDC0200800000809FD5000000000058
S11322C40000000000000000000000000000000006
S11322D40000000000000000000000006D22000067
S11322E400000000000000000000000000000000E6
S11322F400000000000000000000000000000000D6
S113230400000000000000000000000000000000C5
S11323140000000000000000000000000C00002089
S10F232405010000E100000000000000C2
S90301B14A
