Archive member included because of file (symbol)

c:/siliconlabs/simplicitystudio/v4/developer/toolchains/gnu_arm/4.9_2015q3/bin/../lib/gcc/arm-none-eabi/4.9.3/armv7e-m/softfp\libgcc.a(_aeabi_uldivmod.o)
                              ./emlib/em_usart.o (__aeabi_uldivmod)
c:/siliconlabs/simplicitystudio/v4/developer/toolchains/gnu_arm/4.9_2015q3/bin/../lib/gcc/arm-none-eabi/4.9.3/armv7e-m/softfp\libgcc.a(bpabi.o)
                              c:/siliconlabs/simplicitystudio/v4/developer/toolchains/gnu_arm/4.9_2015q3/bin/../lib/gcc/arm-none-eabi/4.9.3/armv7e-m/softfp\libgcc.a(_aeabi_uldivmod.o) (__gnu_uldivmod_helper)
c:/siliconlabs/simplicitystudio/v4/developer/toolchains/gnu_arm/4.9_2015q3/bin/../lib/gcc/arm-none-eabi/4.9.3/armv7e-m/softfp\libgcc.a(_dvmd_tls.o)
                              c:/siliconlabs/simplicitystudio/v4/developer/toolchains/gnu_arm/4.9_2015q3/bin/../lib/gcc/arm-none-eabi/4.9.3/armv7e-m/softfp\libgcc.a(_aeabi_uldivmod.o) (__aeabi_ldiv0)
c:/siliconlabs/simplicitystudio/v4/developer/toolchains/gnu_arm/4.9_2015q3/bin/../lib/gcc/arm-none-eabi/4.9.3/armv7e-m/softfp\libgcc.a(_divdi3.o)
                              c:/siliconlabs/simplicitystudio/v4/developer/toolchains/gnu_arm/4.9_2015q3/bin/../lib/gcc/arm-none-eabi/4.9.3/armv7e-m/softfp\libgcc.a(bpabi.o) (__divdi3)
c:/siliconlabs/simplicitystudio/v4/developer/toolchains/gnu_arm/4.9_2015q3/bin/../lib/gcc/arm-none-eabi/4.9.3/armv7e-m/softfp\libgcc.a(_udivdi3.o)
                              c:/siliconlabs/simplicitystudio/v4/developer/toolchains/gnu_arm/4.9_2015q3/bin/../lib/gcc/arm-none-eabi/4.9.3/armv7e-m/softfp\libgcc.a(bpabi.o) (__udivdi3)
c:/siliconlabs/simplicitystudio/v4/developer/toolchains/gnu_arm/4.9_2015q3/bin/../lib/gcc/arm-none-eabi/4.9.3/../../../../arm-none-eabi/lib/armv7e-m/softfp\libc_nano.a(lib_a-exit.o)
                              c:/siliconlabs/simplicitystudio/v4/developer/toolchains/gnu_arm/4.9_2015q3/bin/../lib/gcc/arm-none-eabi/4.9.3/../../../../arm-none-eabi/lib/armv7e-m/softfp/crt0.o (exit)
c:/siliconlabs/simplicitystudio/v4/developer/toolchains/gnu_arm/4.9_2015q3/bin/../lib/gcc/arm-none-eabi/4.9.3/../../../../arm-none-eabi/lib/armv7e-m/softfp\libc_nano.a(lib_a-impure.o)
                              c:/siliconlabs/simplicitystudio/v4/developer/toolchains/gnu_arm/4.9_2015q3/bin/../lib/gcc/arm-none-eabi/4.9.3/../../../../arm-none-eabi/lib/armv7e-m/softfp\libc_nano.a(lib_a-exit.o) (_global_impure_ptr)
c:/siliconlabs/simplicitystudio/v4/developer/toolchains/gnu_arm/4.9_2015q3/bin/../lib/gcc/arm-none-eabi/4.9.3/../../../../arm-none-eabi/lib/armv7e-m/softfp\libc_nano.a(lib_a-init.o)
                              c:/siliconlabs/simplicitystudio/v4/developer/toolchains/gnu_arm/4.9_2015q3/bin/../lib/gcc/arm-none-eabi/4.9.3/../../../../arm-none-eabi/lib/armv7e-m/softfp/crt0.o (__libc_init_array)
c:/siliconlabs/simplicitystudio/v4/developer/toolchains/gnu_arm/4.9_2015q3/bin/../lib/gcc/arm-none-eabi/4.9.3/../../../../arm-none-eabi/lib/armv7e-m/softfp\libc_nano.a(lib_a-memset.o)
                              c:/siliconlabs/simplicitystudio/v4/developer/toolchains/gnu_arm/4.9_2015q3/bin/../lib/gcc/arm-none-eabi/4.9.3/../../../../arm-none-eabi/lib/armv7e-m/softfp/crt0.o (memset)
c:/siliconlabs/simplicitystudio/v4/developer/toolchains/gnu_arm/4.9_2015q3/bin/../lib/gcc/arm-none-eabi/4.9.3/../../../../arm-none-eabi/lib/armv7e-m/softfp\libc_nano.a(lib_a-vsnprintf.o)
                              ./src/utilities.o (vsnprintf)
c:/siliconlabs/simplicitystudio/v4/developer/toolchains/gnu_arm/4.9_2015q3/bin/../lib/gcc/arm-none-eabi/4.9.3/../../../../arm-none-eabi/lib/armv7e-m/softfp\libc_nano.a(lib_a-nano-svfprintf.o)
                              c:/siliconlabs/simplicitystudio/v4/developer/toolchains/gnu_arm/4.9_2015q3/bin/../lib/gcc/arm-none-eabi/4.9.3/../../../../arm-none-eabi/lib/armv7e-m/softfp\libc_nano.a(lib_a-vsnprintf.o) (_svfprintf_r)
c:/siliconlabs/simplicitystudio/v4/developer/toolchains/gnu_arm/4.9_2015q3/bin/../lib/gcc/arm-none-eabi/4.9.3/../../../../arm-none-eabi/lib/armv7e-m/softfp\libc_nano.a(lib_a-nano-vfprintf_i.o)
                              c:/siliconlabs/simplicitystudio/v4/developer/toolchains/gnu_arm/4.9_2015q3/bin/../lib/gcc/arm-none-eabi/4.9.3/../../../../arm-none-eabi/lib/armv7e-m/softfp\libc_nano.a(lib_a-nano-svfprintf.o) (_printf_i)
c:/siliconlabs/simplicitystudio/v4/developer/toolchains/gnu_arm/4.9_2015q3/bin/../lib/gcc/arm-none-eabi/4.9.3/../../../../arm-none-eabi/lib/armv7e-m/softfp\libc_nano.a(lib_a-memchr.o)
                              c:/siliconlabs/simplicitystudio/v4/developer/toolchains/gnu_arm/4.9_2015q3/bin/../lib/gcc/arm-none-eabi/4.9.3/../../../../arm-none-eabi/lib/armv7e-m/softfp\libc_nano.a(lib_a-nano-svfprintf.o) (memchr)
c:/siliconlabs/simplicitystudio/v4/developer/toolchains/gnu_arm/4.9_2015q3/bin/../lib/gcc/arm-none-eabi/4.9.3/../../../../arm-none-eabi/lib/armv7e-m/softfp\libc_nano.a(lib_a-memcpy.o)
                              c:/siliconlabs/simplicitystudio/v4/developer/toolchains/gnu_arm/4.9_2015q3/bin/../lib/gcc/arm-none-eabi/4.9.3/../../../../arm-none-eabi/lib/armv7e-m/softfp\libc_nano.a(lib_a-nano-svfprintf.o) (memcpy)
c:/siliconlabs/simplicitystudio/v4/developer/toolchains/gnu_arm/4.9_2015q3/bin/../lib/gcc/arm-none-eabi/4.9.3/../../../../arm-none-eabi/lib/armv7e-m/softfp\libc_nano.a(lib_a-memmove.o)
                              c:/siliconlabs/simplicitystudio/v4/developer/toolchains/gnu_arm/4.9_2015q3/bin/../lib/gcc/arm-none-eabi/4.9.3/../../../../arm-none-eabi/lib/armv7e-m/softfp\libc_nano.a(lib_a-nano-svfprintf.o) (memmove)
c:/siliconlabs/simplicitystudio/v4/developer/toolchains/gnu_arm/4.9_2015q3/bin/../lib/gcc/arm-none-eabi/4.9.3/../../../../arm-none-eabi/lib/armv7e-m/softfp\libc_nano.a(lib_a-nano-freer.o)
                              c:/siliconlabs/simplicitystudio/v4/developer/toolchains/gnu_arm/4.9_2015q3/bin/../lib/gcc/arm-none-eabi/4.9.3/../../../../arm-none-eabi/lib/armv7e-m/softfp\libc_nano.a(lib_a-nano-svfprintf.o) (_free_r)
c:/siliconlabs/simplicitystudio/v4/developer/toolchains/gnu_arm/4.9_2015q3/bin/../lib/gcc/arm-none-eabi/4.9.3/../../../../arm-none-eabi/lib/armv7e-m/softfp\libc_nano.a(lib_a-nano-mallocr.o)
                              c:/siliconlabs/simplicitystudio/v4/developer/toolchains/gnu_arm/4.9_2015q3/bin/../lib/gcc/arm-none-eabi/4.9.3/../../../../arm-none-eabi/lib/armv7e-m/softfp\libc_nano.a(lib_a-nano-svfprintf.o) (_malloc_r)
c:/siliconlabs/simplicitystudio/v4/developer/toolchains/gnu_arm/4.9_2015q3/bin/../lib/gcc/arm-none-eabi/4.9.3/../../../../arm-none-eabi/lib/armv7e-m/softfp\libc_nano.a(lib_a-nano-reallocr.o)
                              c:/siliconlabs/simplicitystudio/v4/developer/toolchains/gnu_arm/4.9_2015q3/bin/../lib/gcc/arm-none-eabi/4.9.3/../../../../arm-none-eabi/lib/armv7e-m/softfp\libc_nano.a(lib_a-nano-svfprintf.o) (_realloc_r)
c:/siliconlabs/simplicitystudio/v4/developer/toolchains/gnu_arm/4.9_2015q3/bin/../lib/gcc/arm-none-eabi/4.9.3/../../../../arm-none-eabi/lib/armv7e-m/softfp\libc_nano.a(lib_a-sbrkr.o)
                              c:/siliconlabs/simplicitystudio/v4/developer/toolchains/gnu_arm/4.9_2015q3/bin/../lib/gcc/arm-none-eabi/4.9.3/../../../../arm-none-eabi/lib/armv7e-m/softfp\libc_nano.a(lib_a-nano-mallocr.o) (_sbrk_r)
c:/siliconlabs/simplicitystudio/v4/developer/toolchains/gnu_arm/4.9_2015q3/bin/../lib/gcc/arm-none-eabi/4.9.3/../../../../arm-none-eabi/lib/armv7e-m/softfp\libc_nano.a(lib_a-nano-msizer.o)
                              c:/siliconlabs/simplicitystudio/v4/developer/toolchains/gnu_arm/4.9_2015q3/bin/../lib/gcc/arm-none-eabi/4.9.3/../../../../arm-none-eabi/lib/armv7e-m/softfp\libc_nano.a(lib_a-nano-reallocr.o) (_malloc_usable_size_r)
c:/siliconlabs/simplicitystudio/v4/developer/toolchains/gnu_arm/4.9_2015q3/bin/../lib/gcc/arm-none-eabi/4.9.3/../../../../arm-none-eabi/lib/armv7e-m/softfp\libc_nano.a(lib_a-reent.o)
                              c:/siliconlabs/simplicitystudio/v4/developer/toolchains/gnu_arm/4.9_2015q3/bin/../lib/gcc/arm-none-eabi/4.9.3/../../../../arm-none-eabi/lib/armv7e-m/softfp\libc_nano.a(lib_a-sbrkr.o) (errno)
c:/siliconlabs/simplicitystudio/v4/developer/toolchains/gnu_arm/4.9_2015q3/bin/../lib/gcc/arm-none-eabi/4.9.3/../../../../arm-none-eabi/lib/armv7e-m/softfp\libnosys.a(sbrk.o)
                              c:/siliconlabs/simplicitystudio/v4/developer/toolchains/gnu_arm/4.9_2015q3/bin/../lib/gcc/arm-none-eabi/4.9.3/../../../../arm-none-eabi/lib/armv7e-m/softfp\libc_nano.a(lib_a-sbrkr.o) (_sbrk)
c:/siliconlabs/simplicitystudio/v4/developer/toolchains/gnu_arm/4.9_2015q3/bin/../lib/gcc/arm-none-eabi/4.9.3/../../../../arm-none-eabi/lib/armv7e-m/softfp\libnosys.a(_exit.o)
                              c:/siliconlabs/simplicitystudio/v4/developer/toolchains/gnu_arm/4.9_2015q3/bin/../lib/gcc/arm-none-eabi/4.9.3/../../../../arm-none-eabi/lib/armv7e-m/softfp\libc_nano.a(lib_a-exit.o) (_exit)

Allocating common symbols
Common symbol       size              file

errno               0x4               c:/siliconlabs/simplicitystudio/v4/developer/toolchains/gnu_arm/4.9_2015q3/bin/../lib/gcc/arm-none-eabi/4.9.3/../../../../arm-none-eabi/lib/armv7e-m/softfp\libc_nano.a(lib_a-reent.o)
stream              0x42              ./src/main.o
utility_usart       0x4               ./src/utilities.o

Discarded input sections

 .text          0x00000000        0x0 c:/siliconlabs/simplicitystudio/v4/developer/toolchains/gnu_arm/4.9_2015q3/bin/../lib/gcc/arm-none-eabi/4.9.3/armv7e-m/softfp/crti.o
 .data          0x00000000        0x0 c:/siliconlabs/simplicitystudio/v4/developer/toolchains/gnu_arm/4.9_2015q3/bin/../lib/gcc/arm-none-eabi/4.9.3/armv7e-m/softfp/crti.o
 .bss           0x00000000        0x0 c:/siliconlabs/simplicitystudio/v4/developer/toolchains/gnu_arm/4.9_2015q3/bin/../lib/gcc/arm-none-eabi/4.9.3/armv7e-m/softfp/crti.o
 .data          0x00000000        0x4 c:/siliconlabs/simplicitystudio/v4/developer/toolchains/gnu_arm/4.9_2015q3/bin/../lib/gcc/arm-none-eabi/4.9.3/armv7e-m/softfp/crtbegin.o
 .data          0x00000000        0x0 c:/siliconlabs/simplicitystudio/v4/developer/toolchains/gnu_arm/4.9_2015q3/bin/../lib/gcc/arm-none-eabi/4.9.3/../../../../arm-none-eabi/lib/armv7e-m/softfp/crt0.o
 .bss           0x00000000        0x0 c:/siliconlabs/simplicitystudio/v4/developer/toolchains/gnu_arm/4.9_2015q3/bin/../lib/gcc/arm-none-eabi/4.9.3/../../../../arm-none-eabi/lib/armv7e-m/softfp/crt0.o
 .ARM.extab     0x00000000        0x0 c:/siliconlabs/simplicitystudio/v4/developer/toolchains/gnu_arm/4.9_2015q3/bin/../lib/gcc/arm-none-eabi/4.9.3/../../../../arm-none-eabi/lib/armv7e-m/softfp/crt0.o
 .data          0x00000000        0x0 ./CMSIS/EFR32MG1P/startup_efr32mg1p.o
 .bss           0x00000000        0x0 ./CMSIS/EFR32MG1P/startup_efr32mg1p.o
 .text          0x00000000        0x0 ./CMSIS/EFR32MG1P/system_efr32mg1p.o
 .data          0x00000000        0x0 ./CMSIS/EFR32MG1P/system_efr32mg1p.o
 .bss           0x00000000        0x0 ./CMSIS/EFR32MG1P/system_efr32mg1p.o
 .text.SystemHFXOClockGet
                0x00000000       0x18 ./CMSIS/EFR32MG1P/system_efr32mg1p.o
 .text.SystemHFXOClockSet
                0x00000000       0x30 ./CMSIS/EFR32MG1P/system_efr32mg1p.o
 .text.SystemLFXOClockSet
                0x00000000       0x30 ./CMSIS/EFR32MG1P/system_efr32mg1p.o
Memory Configuration

Name             Origin             Length             Attributes
FLASH            0x00000000         0x00040000         xr
RAM              0x20000000         0x00008000         xrw
*default*        0x00000000         0xffffffff

Linker script and memory map

LOAD c:/siliconlabs/simplicitystudio/v4/developer/toolchains/gnu_arm/4.9_2015q3/bin/../lib/gcc/arm-none-eabi/4.9.3/armv7e-m/softfp/crti.o
LOAD c:/siliconlabs/simplicitystudio/v4/developer/toolchains/gnu_arm/4.9_2015q3/bin/../lib/gcc/arm-none-eabi/4.9.3/armv7e-m/softfp/crtbegin.o
LOAD c:/siliconlabs/simplicitystudio/v4/developer/toolchains/gnu_arm/4.9_2015q3/bin/../lib/gcc/arm-none-eabi/4.9.3/../../../../arm-none-eabi/lib/armv7e-m/softfp/crt0.o
LOAD ./CMSIS/EFR32MG1P/startup_efr32mg1p.o
LOAD ./CMSIS/EFR32MG1P/system_efr32mg1p.o
LOAD ./emlib/em_cmu.o
LOAD ./emlib/em_core.o
LOAD ./emlib/em_emu.o
LOAD ./emlib/em_gpio.o
LOAD ./emlib/em_pcnt.o
LOAD ./emlib/em_prs.o
LOAD ./emlib/em_rtc.o
LOAD ./emlib/em_rtcc.o
LOAD ./emlib/em_system.o
LOAD ./emlib/em_timer.o
LOAD ./emlib/em_usart.o
LOAD ./src/InitDevice.o
LOAD ./src/main.o
LOAD ./src/utilities.o
START GROUP
LOAD c:/siliconlabs/simplicitystudio/v4/developer/toolchains/gnu_arm/4.9_2015q3/bin/../lib/gcc/arm-none-eabi/4.9.3/armv7e-m/softfp\libgcc.a
LOAD c:/siliconlabs/simplicitystudio/v4/developer/toolchains/gnu_arm/4.9_2015q3/bin/../lib/gcc/arm-none-eabi/4.9.3/../../../../arm-none-eabi/lib/armv7e-m/softfp\libc_nano.a
LOAD c:/siliconlabs/simplicitystudio/v4/developer/toolchains/gnu_arm/4.9_2015q3/bin/../lib/gcc/arm-none-eabi/4.9.3/../../../../arm-none-eabi/lib/armv7e-m/softfp\libnosys.a
END GROUP
START GROUP
LOAD c:/siliconlabs/simplicitystudio/v4/developer/toolchains/gnu_arm/4.9_2015q3/bin/../lib/gcc/arm-none-eabi/4.9.3/armv7e-m/softfp\libgcc.a
LOAD c:/siliconlabs/simplicitystudio/v4/developer/toolchains/gnu_arm/4.9_2015q3/bin/../lib/gcc/arm-none-eabi/4.9.3/../../../../arm-none-eabi/lib/armv7e-m/softfp\libg_nano.a
LOAD c:/siliconlabs/simplicitystudio/v4/developer/toolchains/gnu_arm/4.9_2015q3/bin/../lib/gcc/arm-none-eabi/4.9.3/../../../../arm-none-eabi/lib/armv7e-m/softfp\libc_nano.a
END GROUP
START GROUP
LOAD c:/siliconlabs/simplicitystudio/v4/developer/toolchains/gnu_arm/4.9_2015q3/bin/../lib/gcc/arm-none-eabi/4.9.3/armv7e-m/softfp\libgcc.a
LOAD c:/siliconlabs/simplicitystudio/v4/developer/toolchains/gnu_arm/4.9_2015q3/bin/../lib/gcc/arm-none-eabi/4.9.3/../../../../arm-none-eabi/lib/armv7e-m/softfp\libc_nano.a
END GROUP
LOAD c:/siliconlabs/simplicitystudio/v4/developer/toolchains/gnu_arm/4.9_2015q3/bin/../lib/gcc/arm-none-eabi/4.9.3/armv7e-m/softfp/crtend.o
LOAD c:/siliconlabs/simplicitystudio/v4/developer/toolchains/gnu_arm/4.9_2015q3/bin/../lib/gcc/arm-none-eabi/4.9.3/armv7e-m/softfp/crtn.o

.text           0x00000000     0x1d6c
 *(.vectors)
 .vectors       0x00000000       0xc8 ./CMSIS/EFR32MG1P/startup_efr32mg1p.o
                0x00000000                __Vectors
                0x000000c8                __Vectors_End = .
                0x000000c8                __Vectors_Size = (__Vectors_End - __Vectors)
                0x000000c8                __end__ = .
 *(.text*)
 .text          0x000000c8       0x5c c:/siliconlabs/simplicitystudio/v4/developer/toolchains/gnu_arm/4.9_2015q3/bin/../lib/gcc/arm-none-eabi/4.9.3/armv7e-m/softfp/crtbegin.o
 .text          0x00000124       0x74 c:/siliconlabs/simplicitystudio/v4/developer/toolchains/gnu_arm/4.9_2015q3/bin/../lib/gcc/arm-none-eabi/4.9.3/../../../../arm-none-eabi/lib/armv7e-m/softfp/crt0.o
                0x00000124                _start
                0x00000124                _mainCRTStartup
 .text          0x00000198       0x30 ./CMSIS/EFR32MG1P/startup_efr32mg1p.o
                0x00000198                Reset_Handler
                0x000001c4                I2C0_IRQHandler
                0x000001c4                HardFault_Handler
                0x000001c4                USART1_RX_IRQHandler
                0x000001c4                PendSV_Handler
                0x000001c4                NMI_Handler
                0x000001c4                SYNTH_IRQHandler
                0x000001c4                WDOG0_IRQHandler
                0x000001c4                MSC_IRQHandler
                0x000001c4                ADC0_IRQHandler
                0x000001c4                UsageFault_Handler
                0x000001c4                LEUART0_IRQHandler
                0x000001c4                FPUEH_IRQHandler
                0x000001c4                GPIO_EVEN_IRQHandler
                0x000001c4                LDMA_IRQHandler
                0x000001c4                TIMER0_IRQHandler
                0x000001c4                DebugMon_Handler
                0x000001c4                LETIMER0_IRQHandler
                0x000001c4                TIMER1_IRQHandler
                0x000001c4                RFSENSE_IRQHandler
                0x000001c4                BUFC_IRQHandler
                0x000001c4                MODEM_IRQHandler
                0x000001c4                Default_Handler
                0x000001c4                RAC_SEQ_IRQHandler
                0x000001c4                FRC_PRI_IRQHandler
                0x000001c4                EMU_IRQHandler
                0x000001c4                FRC_IRQHandler
                0x000001c4                CRYOTIMER_IRQHandler
                0x000001c4                PCNT0_IRQHandler
                0x000001c4                AGC_IRQHandler
                0x000001c4                ACMP0_IRQHandler
                0x000001c4                USART0_RX_IRQHandler
                0x000001c4                MemManage_Handler
                0x000001c4                SVC_Handler
                0x000001c4                RTCC_IRQHandler
                0x000001c4                CRYPTO_IRQHandler
                0x000001c4                CMU_IRQHandler
                0x000001c4                RAC_RSM_IRQHandler
                0x000001c4                GPIO_ODD_IRQHandler
                0x000001c4                PROTIMER_IRQHandler
                0x000001c4                BusFault_Handler
                0x000001c4                IDAC0_IRQHandler
 .text.SystemCoreClockGet
                0x000001c8       0x44 ./CMSIS/EFR32MG1P/system_efr32mg1p.o
                0x000001c8                SystemCoreClockGet
 .text.SystemMaxCoreClockGet
                0x0000020c       0x14 ./CMSIS/EFR32MG1P/system_efr32mg1p.o
                0x0000020c                SystemMaxCoreClockGet
 .text.SystemHFClockGet
                0x00000220       0x70 ./CMSIS/EFR32MG1P/system_efr32mg1p.o
                0x00000220                SystemHFClockGet
 .text.SystemInit
                0x00000290       0x5c ./CMSIS/EFR32MG1P/system_efr32mg1p.o
                0x00000290                SystemInit
 .text.SystemLFRCOClockGet
                0x000002ec       0x14 ./CMSIS/EFR32MG1P/system_efr32mg1p.o
                0x000002ec                SystemLFRCOClockGet
 .text.SystemULFRCOClockGet
                0x00000300       0x14 ./CMSIS/EFR32MG1P/system_efr32mg1p.o
                0x00000300                SystemULFRCOClockGet
 .text.SystemLFXOClockGet
                0x00000314       0x18 ./CMSIS/EFR32MG1P/system_efr32mg1p.o
                0x00000314                SystemLFXOClockGet
 .text.BUS_RegBitWrite
                0x0000032c       0x2c ./emlib/em_cmu.o
 .text.BUS_RegBitRead
                0x00000358       0x2c ./emlib/em_cmu.o
 .text.BUS_RegMaskedSet
                0x00000384       0x24 ./emlib/em_cmu.o
 .text.BUS_RegMaskedClear
                0x000003a8       0x24 ./emlib/em_cmu.o
 .text.BUS_RegMaskedWrite
                0x000003cc       0x24 ./emlib/em_cmu.o
 .text.BUS_RegMaskedRead
                0x000003f0       0x20 ./emlib/em_cmu.o
 .text.CMU_Log2ToDiv
                0x00000410       0x1c ./emlib/em_cmu.o
 .text.setHfLeConfig
                0x0000042c       0x3c ./emlib/em_cmu.o
 .text.getHfLeConfig
                0x00000468       0x2c ./emlib/em_cmu.o
 .text.auxClkGet
                0x00000494       0x20 ./emlib/em_cmu.o
 .text.dbgClkGet
                0x000004b4       0x40 ./emlib/em_cmu.o
 .text.flashWaitStateControl
                0x000004f4       0x78 ./emlib/em_cmu.o
 .text.flashWaitStateMax
                0x0000056c       0x14 ./emlib/em_cmu.o
 .text.getRegIshUpperVal
                0x00000580       0x38 ./emlib/em_cmu.o
 .text.lfClkGet
                0x000005b8       0xec ./emlib/em_cmu.o
 .text.syncReg  0x000006a4       0x38 ./emlib/em_cmu.o
 .text.CMU_ClockEnable
                0x000006dc       0xcc ./emlib/em_cmu.o
                0x000006dc                CMU_ClockEnable
 .text.CMU_ClockFreqGet
                0x000007a8      0x188 ./emlib/em_cmu.o
                0x000007a8                CMU_ClockFreqGet
 .text.CMU_ClockSelectGet
                0x00000930      0x14c ./emlib/em_cmu.o
                0x00000930                CMU_ClockSelectGet
 .text.CMU_ClockSelectSet
                0x00000a7c      0x1cc ./emlib/em_cmu.o
                0x00000a7c                CMU_ClockSelectSet
 .text.CMU_OscillatorEnable
                0x00000c48      0x180 ./emlib/em_cmu.o
                0x00000c48                CMU_OscillatorEnable
 .text.CMU_OscillatorTuningGet
                0x00000dc8       0x74 ./emlib/em_cmu.o
                0x00000dc8                CMU_OscillatorTuningGet
 .text.CMU_OscillatorTuningSet
                0x00000e3c      0x100 ./emlib/em_cmu.o
                0x00000e3c                CMU_OscillatorTuningSet
 .text.CMU_OscillatorTuningWait
                0x00000f3c       0x94 ./emlib/em_cmu.o
                0x00000f3c                CMU_OscillatorTuningWait
 .text.CMU_OscillatorTuningOptimize
                0x00000fd0       0x54 ./emlib/em_cmu.o
                0x00000fd0                CMU_OscillatorTuningOptimize
 .text.BUS_RegMaskedSet
                0x00001024       0x24 ./emlib/em_gpio.o
 .text.BUS_RegMaskedClear
                0x00001048       0x24 ./emlib/em_gpio.o
 .text.BUS_RegMaskedWrite
                0x0000106c       0x24 ./emlib/em_gpio.o
 .text.GPIO_PinOutClear
                0x00001090       0x58 ./emlib/em_gpio.o
 .text.GPIO_PinOutSet
                0x000010e8       0x58 ./emlib/em_gpio.o
 .text.GPIO_DriveStrengthSet
                0x00001140       0x60 ./emlib/em_gpio.o
                0x00001140                GPIO_DriveStrengthSet
 .text.GPIO_PinModeSet
                0x000011a0      0x10c ./emlib/em_gpio.o
                0x000011a0                GPIO_PinModeSet
 .text.SYSTEM_ChipRevisionGet
                0x000012ac       0x74 ./emlib/em_system.o
                0x000012ac                SYSTEM_ChipRevisionGet
 .text.BUS_RegMaskedSet
                0x00001320       0x24 ./emlib/em_usart.o
 .text.BUS_RegMaskedClear
                0x00001344       0x24 ./emlib/em_usart.o
 .text.BUS_RegMaskedWrite
                0x00001368       0x24 ./emlib/em_usart.o
 .text.USART_BaudrateSyncSet
                0x0000138c       0x54 ./emlib/em_usart.o
                0x0000138c                USART_BaudrateSyncSet
 .text.USART_InitSync
                0x000013e0       0xf0 ./emlib/em_usart.o
                0x000013e0                USART_InitSync
 .text.USART_Reset
                0x000014d0       0x94 ./emlib/em_usart.o
                0x000014d0                USART_Reset
 .text.USART_Tx
                0x00001564       0x2c ./emlib/em_usart.o
                0x00001564                USART_Tx
 .text.SYSTEM_GetProdRev
                0x00001590       0x1c ./src/main.o
 .text.BUS_RegBitWrite
                0x000015ac       0x2c ./src/main.o
 .text.BUS_RegMaskedSet
                0x000015d8       0x24 ./src/main.o
 .text.BUS_RegMaskedClear
                0x000015fc       0x24 ./src/main.o
 .text.GPIO_PinOutClear
                0x00001620       0x58 ./src/main.o
 .text.GPIO_PinOutSet
                0x00001678       0x58 ./src/main.o
 .text.CHIP_Init
                0x000016d0       0xb4 ./src/main.o
 .text.pack_dc_byte
                0x00001784       0xb8 ./src/main.o
                0x00001784                pack_dc_byte
 .text.pack_gs_byte
                0x0000183c       0xb8 ./src/main.o
                0x0000183c                pack_gs_byte
 .text.write_serial_stream
                0x000018f4      0x13c ./src/main.o
                0x000018f4                write_serial_stream
 .text.main     0x00001a30      0x194 ./src/main.o
                0x00001a30                main
 .text.USART_IntClear
                0x00001bc4       0x1c ./src/utilities.o
 .text.fix_overflow
                0x00001be0       0x24 ./src/utilities.o
                0x00001be0                fix_overflow
 .text.SysTick_Handler
                0x00001c04       0x1c ./src/utilities.o
                0x00001c04                SysTick_Handler
 .text.common_usart_handler
                0x00001c20       0x70 ./src/utilities.o
                0x00001c20                common_usart_handler
 .text.USART0_TX_IRQHandler
                0x00001c90        0xc ./src/utilities.o
                0x00001c90                USART0_TX_IRQHandler
 .text.USART1_TX_IRQHandler
                0x00001c9c        0xc ./src/utilities.o
                0x00001c9c                USART1_TX_IRQHandler
 .text.exit     0x00001ca8       0x28 c:/siliconlabs/simplicitystudio/v4/developer/toolchains/gnu_arm/4.9_2015q3/bin/../lib/gcc/arm-none-eabi/4.9.3/../../../../arm-none-eabi/lib/armv7e-m/softfp\libc_nano.a(lib_a-exit.o)
                0x00001ca8                exit
 .text.__libc_init_array
                0x00001cd0       0x4c c:/siliconlabs/simplicitystudio/v4/developer/toolchains/gnu_arm/4.9_2015q3/bin/../lib/gcc/arm-none-eabi/4.9.3/../../../../arm-none-eabi/lib/armv7e-m/softfp\libc_nano.a(lib_a-init.o)
                0x00001cd0                __libc_init_array
 .text.memset   0x00001d1c       0x10 c:/siliconlabs/simplicitystudio/v4/developer/toolchains/gnu_arm/4.9_2015q3/bin/../lib/gcc/arm-none-eabi/4.9.3/../../../../arm-none-eabi/lib/armv7e-m/softfp\libc_nano.a(lib_a-memset.o)
                0x00001d1c                memset
 .text._exit    0x00001d2c        0x4 c:/siliconlabs/simplicitystudio/v4/developer/toolchains/gnu_arm/4.9_2015q3/bin/../lib/gcc/arm-none-eabi/4.9.3/../../../../arm-none-eabi/lib/armv7e-m/softfp\libnosys.a(_exit.o)
                0x00001d2c                _exit
 *(.init)
 .init          0x00001d30        0x4 c:/siliconlabs/simplicitystudio/v4/developer/toolchains/gnu_arm/4.9_2015q3/bin/../lib/gcc/arm-none-eabi/4.9.3/armv7e-m/softfp/crti.o
                0x00001d30                _init
 .init          0x00001d34        0x8 c:/siliconlabs/simplicitystudio/v4/developer/toolchains/gnu_arm/4.9_2015q3/bin/../lib/gcc/arm-none-eabi/4.9.3/armv7e-m/softfp/crtn.o
 *(.fini)
 .fini          0x00001d3c        0x4 c:/siliconlabs/simplicitystudio/v4/developer/toolchains/gnu_arm/4.9_2015q3/bin/../lib/gcc/arm-none-eabi/4.9.3/armv7e-m/softfp/crti.o
                0x00001d3c                _fini
 .fini          0x00001d40        0x8 c:/siliconlabs/simplicitystudio/v4/developer/toolchains/gnu_arm/4.9_2015q3/bin/../lib/gcc/arm-none-eabi/4.9.3/armv7e-m/softfp/crtn.o
 *crtbegin.o(.ctors)
 *crtbegin?.o(.ctors)
 *(EXCLUDE_FILE(*crtend.o *crtend?.o) .ctors)
 *(SORT(.ctors.*))
 *(.ctors)
 *crtbegin.o(.dtors)
 *crtbegin?.o(.dtors)
 *(EXCLUDE_FILE(*crtend.o *crtend?.o) .dtors)
 *(SORT(.dtors.*))
 *(.dtors)
 *(.rodata*)
 .rodata        0x00001d48       0x18 ./src/main.o
 .rodata.str1.1
                0x00001d60        0x2 c:/siliconlabs/simplicitystudio/v4/developer/toolchains/gnu_arm/4.9_2015q3/bin/../lib/gcc/arm-none-eabi/4.9.3/../../../../arm-none-eabi/lib/armv7e-m/softfp\libc_nano.a(lib_a-impure.o)
 *fill*         0x00001d62        0x2 
 .rodata._global_impure_ptr
                0x00001d64        0x4 c:/siliconlabs/simplicitystudio/v4/developer/toolchains/gnu_arm/4.9_2015q3/bin/../lib/gcc/arm-none-eabi/4.9.3/../../../../arm-none-eabi/lib/armv7e-m/softfp\libc_nano.a(lib_a-impure.o)
                0x00001d64                _global_impure_ptr
 *(.eh_frame*)
 .eh_frame      0x00001d68        0x0 c:/siliconlabs/simplicitystudio/v4/developer/toolchains/gnu_arm/4.9_2015q3/bin/../lib/gcc/arm-none-eabi/4.9.3/armv7e-m/softfp/crtbegin.o
 .eh_frame      0x00001d68        0x4 c:/siliconlabs/simplicitystudio/v4/developer/toolchains/gnu_arm/4.9_2015q3/bin/../lib/gcc/arm-none-eabi/4.9.3/armv7e-m/softfp/crtend.o

.glue_7         0x00001d6c        0x0
 .glue_7        0x00000000        0x0 linker stubs

.glue_7t        0x00001d6c        0x0
 .glue_7t       0x00000000        0x0 linker stubs

.vfp11_veneer   0x00001d6c        0x0
 .vfp11_veneer  0x00000000        0x0 linker stubs

.v4_bx          0x00001d6c        0x0
 .v4_bx         0x00000000        0x0 linker stubs

.iplt           0x00001d6c        0x0
 .iplt          0x00000000        0x0 c:/siliconlabs/simplicitystudio/v4/developer/toolchains/gnu_arm/4.9_2015q3/bin/../lib/gcc/arm-none-eabi/4.9.3/armv7e-m/softfp/crtbegin.o

.ARM.extab
 *(.ARM.extab* .gnu.linkonce.armextab.*)
                0x00001d6c                __exidx_start = .

.ARM.exidx      0x00001d6c        0x8
 *(.ARM.exidx* .gnu.linkonce.armexidx.*)
 .ARM.exidx     0x00001d6c        0x8 c:/siliconlabs/simplicitystudio/v4/developer/toolchains/gnu_arm/4.9_2015q3/bin/../lib/gcc/arm-none-eabi/4.9.3/../../../../arm-none-eabi/lib/armv7e-m/softfp/crt0.o
                0x00001d74                __exidx_end = .
                0x00001d74                __etext = .

.rel.dyn        0x00001d74        0x0
 .rel.iplt      0x00000000        0x0 c:/siliconlabs/simplicitystudio/v4/developer/toolchains/gnu_arm/4.9_2015q3/bin/../lib/gcc/arm-none-eabi/4.9.3/armv7e-m/softfp/crtbegin.o

.data           0x20000000       0x80 load address 0x00001d74
                0x20000000                __data_start__ = .
 *(vtable)
 *(.data*)
 .data.SystemHFXOClock
                0x20000000        0x4 ./CMSIS/EFR32MG1P/system_efr32mg1p.o
 .data.SystemLFXOClock
                0x20000004        0x4 ./CMSIS/EFR32MG1P/system_efr32mg1p.o
 .data.SystemCoreClock
                0x20000008        0x4 ./CMSIS/EFR32MG1P/system_efr32mg1p.o
                0x20000008                SystemCoreClock
 .data.SystemHfrcoFreq
                0x2000000c        0x4 ./CMSIS/EFR32MG1P/system_efr32mg1p.o
                0x2000000c                SystemHfrcoFreq
 .data.auxHfrcoFreq
                0x20000010        0x4 ./emlib/em_cmu.o
 .data.impure_data
                0x20000014       0x60 c:/siliconlabs/simplicitystudio/v4/developer/toolchains/gnu_arm/4.9_2015q3/bin/../lib/gcc/arm-none-eabi/4.9.3/../../../../arm-none-eabi/lib/armv7e-m/softfp\libc_nano.a(lib_a-impure.o)
                0x20000074                . = ALIGN (0x4)
 *(.ram)
                0x20000074                . = ALIGN (0x4)
                0x20000074                PROVIDE (__preinit_array_start, .)
 *(.preinit_array)
                0x20000074                PROVIDE (__preinit_array_end, .)
                0x20000074                . = ALIGN (0x4)
                0x20000074                PROVIDE (__init_array_start, .)
 *(SORT(.init_array.*))
 *(.init_array)
 .init_array    0x20000074        0x4 c:/siliconlabs/simplicitystudio/v4/developer/toolchains/gnu_arm/4.9_2015q3/bin/../lib/gcc/arm-none-eabi/4.9.3/armv7e-m/softfp/crtbegin.o
                0x20000078                PROVIDE (__init_array_end, .)
                0x20000078                . = ALIGN (0x4)
                0x20000078                PROVIDE (__fini_array_start, .)
 *(SORT(.fini_array.*))
 *(.fini_array)
 .fini_array    0x20000078        0x4 c:/siliconlabs/simplicitystudio/v4/developer/toolchains/gnu_arm/4.9_2015q3/bin/../lib/gcc/arm-none-eabi/4.9.3/armv7e-m/softfp/crtbegin.o
                0x2000007c                PROVIDE (__fini_array_end, .)
 *(.jcr*)
 .jcr           0x2000007c        0x0 c:/siliconlabs/simplicitystudio/v4/developer/toolchains/gnu_arm/4.9_2015q3/bin/../lib/gcc/arm-none-eabi/4.9.3/armv7e-m/softfp/crtbegin.o
 .jcr           0x2000007c        0x4 c:/siliconlabs/simplicitystudio/v4/developer/toolchains/gnu_arm/4.9_2015q3/bin/../lib/gcc/arm-none-eabi/4.9.3/armv7e-m/softfp/crtend.o
                0x20000080                . = ALIGN (0x4)
                0x20000080                __data_end__ = .

.igot.plt       0x20000080        0x0 load address 0x00001df4
 .igot.plt      0x00000000        0x0 c:/siliconlabs/simplicitystudio/v4/developer/toolchains/gnu_arm/4.9_2015q3/bin/../lib/gcc/arm-none-eabi/4.9.3/armv7e-m/softfp/crtbegin.o

.bss            0x20000080      0x470 load address 0x00001df4
                0x20000080                . = ALIGN (0x4)
                0x20000080                __bss_start__ = .
 *(.bss*)
 .bss           0x20000080       0x1c c:/siliconlabs/simplicitystudio/v4/developer/toolchains/gnu_arm/4.9_2015q3/bin/../lib/gcc/arm-none-eabi/4.9.3/armv7e-m/softfp/crtbegin.o
 .bss.msTicks   0x2000009c        0x4 ./src/utilities.o
                0x2000009c                msTicks
 .bss.buffer    0x200000a0      0x406 ./src/utilities.o
                0x200000a0                buffer
 *(COMMON)
 *fill*         0x200004a6        0x2 
 COMMON         0x200004a8       0x42 ./src/main.o
                0x200004a8                stream
 *fill*         0x200004ea        0x2 
 COMMON         0x200004ec        0x4 ./src/utilities.o
                0x200004ec                utility_usart
                0x200004f0                . = ALIGN (0x4)
                0x200004f0                __bss_end__ = .

.heap           0x200004f0      0xc00
                0x200004f0                __HeapBase = .
                0x200004f0                __end__ = .
                0x200004f0                end = __end__
                0x200004f0                _end = __end__
 *(.heap*)
 .heap          0x200004f0      0xc00 ./CMSIS/EFR32MG1P/startup_efr32mg1p.o
                0x200010f0                __HeapLimit = .

.stack_dummy    0x200004f0      0x400
 *(.stack*)
 .stack         0x200004f0      0x400 ./CMSIS/EFR32MG1P/startup_efr32mg1p.o
                0x20008000                __StackTop = (ORIGIN (RAM) + 0x8000)
                0x20007c00                __StackLimit = (__StackTop - SIZEOF (.stack_dummy))
                0x20008000                PROVIDE (__stack, __StackTop)
                0x00000001                ASSERT ((__StackLimit >= __HeapLimit), region RAM overflowed with stack)
                0x00000001                ASSERT ((0x40000 >= (__etext + SIZEOF (.data))), FLASH memory overflowed !)
OUTPUT(11_ExternalLEDDriver_proj.axf elf32-littlearm)

.ARM.attributes
                0x00000000       0x2e
 .ARM.attributes
                0x00000000       0x22 c:/siliconlabs/simplicitystudio/v4/developer/toolchains/gnu_arm/4.9_2015q3/bin/../lib/gcc/arm-none-eabi/4.9.3/armv7e-m/softfp/crti.o
 .ARM.attributes
                0x00000022       0x32 c:/siliconlabs/simplicitystudio/v4/developer/toolchains/gnu_arm/4.9_2015q3/bin/../lib/gcc/arm-none-eabi/4.9.3/armv7e-m/softfp/crtbegin.o
 .ARM.attributes
                0x00000054       0x20 c:/siliconlabs/simplicitystudio/v4/developer/toolchains/gnu_arm/4.9_2015q3/bin/../lib/gcc/arm-none-eabi/4.9.3/../../../../arm-none-eabi/lib/armv7e-m/softfp/crt0.o
 .ARM.attributes
                0x00000074       0x1f ./CMSIS/EFR32MG1P/startup_efr32mg1p.o
 .ARM.attributes
                0x00000093       0x37 ./CMSIS/EFR32MG1P/system_efr32mg1p.o
 .ARM.attributes
                0x000000ca       0x37 ./emlib/em_cmu.o
 .ARM.attributes
                0x00000101       0x37 ./emlib/em_gpio.o
 .ARM.attributes
                0x00000138       0x37 ./emlib/em_system.o
 .ARM.attributes
                0x0000016f       0x37 ./emlib/em_usart.o
 .ARM.attributes
                0x000001a6       0x37 ./src/main.o
 .ARM.attributes
                0x000001dd       0x37 ./src/utilities.o
 .ARM.attributes
                0x00000214       0x32 c:/siliconlabs/simplicitystudio/v4/developer/toolchains/gnu_arm/4.9_2015q3/bin/../lib/gcc/arm-none-eabi/4.9.3/../../../../arm-none-eabi/lib/armv7e-m/softfp\libc_nano.a(lib_a-exit.o)
 .ARM.attributes
                0x00000246       0x32 c:/siliconlabs/simplicitystudio/v4/developer/toolchains/gnu_arm/4.9_2015q3/bin/../lib/gcc/arm-none-eabi/4.9.3/../../../../arm-none-eabi/lib/armv7e-m/softfp\libc_nano.a(lib_a-impure.o)
 .ARM.attributes
                0x00000278       0x32 c:/siliconlabs/simplicitystudio/v4/developer/toolchains/gnu_arm/4.9_2015q3/bin/../lib/gcc/arm-none-eabi/4.9.3/../../../../arm-none-eabi/lib/armv7e-m/softfp\libc_nano.a(lib_a-init.o)
 .ARM.attributes
                0x000002aa       0x32 c:/siliconlabs/simplicitystudio/v4/developer/toolchains/gnu_arm/4.9_2015q3/bin/../lib/gcc/arm-none-eabi/4.9.3/../../../../arm-none-eabi/lib/armv7e-m/softfp\libc_nano.a(lib_a-memset.o)
 .ARM.attributes
                0x000002dc       0x32 c:/siliconlabs/simplicitystudio/v4/developer/toolchains/gnu_arm/4.9_2015q3/bin/../lib/gcc/arm-none-eabi/4.9.3/../../../../arm-none-eabi/lib/armv7e-m/softfp\libnosys.a(_exit.o)
 .ARM.attributes
                0x0000030e       0x32 c:/siliconlabs/simplicitystudio/v4/developer/toolchains/gnu_arm/4.9_2015q3/bin/../lib/gcc/arm-none-eabi/4.9.3/armv7e-m/softfp/crtend.o
 .ARM.attributes
                0x00000340       0x22 c:/siliconlabs/simplicitystudio/v4/developer/toolchains/gnu_arm/4.9_2015q3/bin/../lib/gcc/arm-none-eabi/4.9.3/armv7e-m/softfp/crtn.o

.comment        0x00000000       0x70
 .comment       0x00000000       0x70 ./CMSIS/EFR32MG1P/system_efr32mg1p.o
                                 0x71 (size before relaxing)
 .comment       0x00000000       0x71 ./emlib/em_cmu.o
 .comment       0x00000000       0x71 ./emlib/em_gpio.o
 .comment       0x00000000       0x71 ./emlib/em_system.o
 .comment       0x00000000       0x71 ./emlib/em_usart.o
 .comment       0x00000000       0x71 ./src/main.o
 .comment       0x00000000       0x71 ./src/utilities.o

.debug_line     0x00000000     0x2770
 .debug_line    0x00000000       0xd7 ./CMSIS/EFR32MG1P/startup_efr32mg1p.o
 .debug_line    0x000000d7      0x36c ./CMSIS/EFR32MG1P/system_efr32mg1p.o
 .debug_line    0x00000443      0xa88 ./emlib/em_cmu.o
 .debug_line    0x00000ecb      0x4d3 ./emlib/em_gpio.o
 .debug_line    0x0000139e      0x2c3 ./emlib/em_system.o
 .debug_line    0x00001661      0x5ff ./emlib/em_usart.o
 .debug_line    0x00001c60      0x547 ./src/main.o
 .debug_line    0x000021a7      0x5c9 ./src/utilities.o

.debug_info     0x00000000     0x6c42
 .debug_info    0x00000000      0x116 ./CMSIS/EFR32MG1P/startup_efr32mg1p.o
 .debug_info    0x00000116      0xae7 ./CMSIS/EFR32MG1P/system_efr32mg1p.o
 .debug_info    0x00000bfd     0x1af6 ./emlib/em_cmu.o
 .debug_info    0x000026f3      0xa05 ./emlib/em_gpio.o
 .debug_info    0x000030f8      0x276 ./emlib/em_system.o
 .debug_info    0x0000336e     0x1068 ./emlib/em_usart.o
 .debug_info    0x000043d6     0x1856 ./src/main.o
 .debug_info    0x00005c2c     0x1016 ./src/utilities.o

.debug_abbrev   0x00000000      0xf0a
 .debug_abbrev  0x00000000       0x14 ./CMSIS/EFR32MG1P/startup_efr32mg1p.o
 .debug_abbrev  0x00000014      0x1d0 ./CMSIS/EFR32MG1P/system_efr32mg1p.o
 .debug_abbrev  0x000001e4      0x307 ./emlib/em_cmu.o
 .debug_abbrev  0x000004eb      0x1da ./emlib/em_gpio.o
 .debug_abbrev  0x000006c5      0x109 ./emlib/em_system.o
 .debug_abbrev  0x000007ce      0x209 ./emlib/em_usart.o
 .debug_abbrev  0x000009d7      0x24a ./src/main.o
 .debug_abbrev  0x00000c21      0x2e9 ./src/utilities.o

.debug_aranges  0x00000000      0x4d8
 .debug_aranges
                0x00000000       0x20 ./CMSIS/EFR32MG1P/startup_efr32mg1p.o
 .debug_aranges
                0x00000020       0x68 ./CMSIS/EFR32MG1P/system_efr32mg1p.o
 .debug_aranges
                0x00000088      0x190 ./emlib/em_cmu.o
 .debug_aranges
                0x00000218       0x88 ./emlib/em_gpio.o
 .debug_aranges
                0x000002a0       0x28 ./emlib/em_system.o
 .debug_aranges
                0x000002c8       0xd0 ./emlib/em_usart.o
 .debug_aranges
                0x00000398       0x70 ./src/main.o
 .debug_aranges
                0x00000408       0xd0 ./src/utilities.o

.debug_loc      0x00000000     0x2a02
 .debug_loc     0x00000000      0x2e4 ./CMSIS/EFR32MG1P/system_efr32mg1p.o
 .debug_loc     0x000002e4      0xf1c ./emlib/em_cmu.o
 .debug_loc     0x00001200      0x4b4 ./emlib/em_gpio.o
 .debug_loc     0x000016b4       0xb8 ./emlib/em_system.o
 .debug_loc     0x0000176c      0x7da ./emlib/em_usart.o
 .debug_loc     0x00001f46      0x38a ./src/main.o
 .debug_loc     0x000022d0      0x732 ./src/utilities.o

.debug_ranges   0x00000000      0x448
 .debug_ranges  0x00000000       0x58 ./CMSIS/EFR32MG1P/system_efr32mg1p.o
 .debug_ranges  0x00000058      0x180 ./emlib/em_cmu.o
 .debug_ranges  0x000001d8       0x78 ./emlib/em_gpio.o
 .debug_ranges  0x00000250       0x18 ./emlib/em_system.o
 .debug_ranges  0x00000268       0xc0 ./emlib/em_usart.o
 .debug_ranges  0x00000328       0x60 ./src/main.o
 .debug_ranges  0x00000388       0xc0 ./src/utilities.o

.debug_str      0x00000000     0x2a89
 .debug_str     0x00000000      0x6fc ./CMSIS/EFR32MG1P/system_efr32mg1p.o
                                0x773 (size before relaxing)
 .debug_str     0x000006fc      0xeb6 ./emlib/em_cmu.o
                               0x13b1 (size before relaxing)
 .debug_str     0x000015b2      0x436 ./emlib/em_gpio.o
                                0x84d (size before relaxing)
 .debug_str     0x000019e8       0xea ./emlib/em_system.o
                                0x31a (size before relaxing)
 .debug_str     0x00001ad2      0xa44 ./emlib/em_usart.o
                                0xeef (size before relaxing)
 .debug_str     0x00002516      0x148 ./src/main.o
                               0x12f4 (size before relaxing)
 .debug_str     0x0000265e      0x42b ./src/utilities.o
                                0xc83 (size before relaxing)

.debug_frame    0x00000000     0x13f4
 .debug_frame   0x00000000      0x164 ./CMSIS/EFR32MG1P/system_efr32mg1p.o
 .debug_frame   0x00000164      0x6dc ./emlib/em_cmu.o
 .debug_frame   0x00000840      0x228 ./emlib/em_gpio.o
 .debug_frame   0x00000a68       0x60 ./emlib/em_system.o
 .debug_frame   0x00000ac8      0x384 ./emlib/em_usart.o
 .debug_frame   0x00000e4c      0x1ac ./src/main.o
 .debug_frame   0x00000ff8      0x368 ./src/utilities.o
 .debug_frame   0x00001360       0x28 c:/siliconlabs/simplicitystudio/v4/developer/toolchains/gnu_arm/4.9_2015q3/bin/../lib/gcc/arm-none-eabi/4.9.3/../../../../arm-none-eabi/lib/armv7e-m/softfp\libc_nano.a(lib_a-exit.o)
 .debug_frame   0x00001388       0x2c c:/siliconlabs/simplicitystudio/v4/developer/toolchains/gnu_arm/4.9_2015q3/bin/../lib/gcc/arm-none-eabi/4.9.3/../../../../arm-none-eabi/lib/armv7e-m/softfp\libc_nano.a(lib_a-init.o)
 .debug_frame   0x000013b4       0x20 c:/siliconlabs/simplicitystudio/v4/developer/toolchains/gnu_arm/4.9_2015q3/bin/../lib/gcc/arm-none-eabi/4.9.3/../../../../arm-none-eabi/lib/armv7e-m/softfp\libc_nano.a(lib_a-memset.o)
 .debug_frame   0x000013d4       0x20 c:/siliconlabs/simplicitystudio/v4/developer/toolchains/gnu_arm/4.9_2015q3/bin/../lib/gcc/arm-none-eabi/4.9.3/../../../../arm-none-eabi/lib/armv7e-m/softfp\libnosys.a(_exit.o)
